{
	"contracts/Marketplace.sol": {
		"DataMarketplace": {
			"abi": [
				{
					"inputs": [],
					"stateMutability": "nonpayable",
					"type": "constructor"
				},
				{
					"anonymous": false,
					"inputs": [
						{
							"indexed": true,
							"internalType": "uint256",
							"name": "dataSetId",
							"type": "uint256"
						},
						{
							"indexed": true,
							"internalType": "address",
							"name": "buyer",
							"type": "address"
						},
						{
							"indexed": false,
							"internalType": "uint256",
							"name": "price",
							"type": "uint256"
						},
						{
							"indexed": false,
							"internalType": "bytes32",
							"name": "dataHash",
							"type": "bytes32"
						}
					],
					"name": "DataSetPurchased",
					"type": "event"
				},
				{
					"anonymous": false,
					"inputs": [
						{
							"indexed": true,
							"internalType": "uint256",
							"name": "dataSetId",
							"type": "uint256"
						},
						{
							"indexed": false,
							"internalType": "string",
							"name": "name",
							"type": "string"
						},
						{
							"indexed": false,
							"internalType": "uint256",
							"name": "price",
							"type": "uint256"
						},
						{
							"indexed": true,
							"internalType": "address",
							"name": "seller",
							"type": "address"
						}
					],
					"name": "DataSetUploaded",
					"type": "event"
				},
				{
					"anonymous": false,
					"inputs": [
						{
							"indexed": true,
							"internalType": "address",
							"name": "user",
							"type": "address"
						},
						{
							"indexed": false,
							"internalType": "string",
							"name": "name",
							"type": "string"
						},
						{
							"indexed": false,
							"internalType": "string",
							"name": "email",
							"type": "string"
						},
						{
							"indexed": false,
							"internalType": "bool",
							"name": "isDataSeller",
							"type": "bool"
						},
						{
							"indexed": false,
							"internalType": "bool",
							"name": "isDataBuyer",
							"type": "bool"
						}
					],
					"name": "UserRegistered",
					"type": "event"
				},
				{
					"inputs": [],
					"name": "PLATFORM_FEE_PERCENTAGE",
					"outputs": [
						{
							"internalType": "uint256",
							"name": "",
							"type": "uint256"
						}
					],
					"stateMutability": "view",
					"type": "function"
				},
				{
					"inputs": [
						{
							"internalType": "address",
							"name": "_user",
							"type": "address"
						}
					],
					"name": "banUser",
					"outputs": [],
					"stateMutability": "nonpayable",
					"type": "function"
				},
				{
					"inputs": [
						{
							"internalType": "bytes32",
							"name": "",
							"type": "bytes32"
						}
					],
					"name": "dataHashToDataSetId",
					"outputs": [
						{
							"internalType": "uint256",
							"name": "",
							"type": "uint256"
						}
					],
					"stateMutability": "view",
					"type": "function"
				},
				{
					"inputs": [],
					"name": "dataSetCount",
					"outputs": [
						{
							"internalType": "uint256",
							"name": "",
							"type": "uint256"
						}
					],
					"stateMutability": "view",
					"type": "function"
				},
				{
					"inputs": [
						{
							"internalType": "uint256",
							"name": "",
							"type": "uint256"
						}
					],
					"name": "dataSets",
					"outputs": [
						{
							"internalType": "string",
							"name": "name",
							"type": "string"
						},
						{
							"internalType": "string",
							"name": "description",
							"type": "string"
						},
						{
							"internalType": "bytes32",
							"name": "dataHash",
							"type": "bytes32"
						},
						{
							"internalType": "uint256",
							"name": "price",
							"type": "uint256"
						},
						{
							"internalType": "bool",
							"name": "isEncrypted",
							"type": "bool"
						},
						{
							"internalType": "address payable",
							"name": "seller",
							"type": "address"
						},
						{
							"internalType": "uint256",
							"name": "reportCount",
							"type": "uint256"
						}
					],
					"stateMutability": "view",
					"type": "function"
				},
				{
					"inputs": [],
					"name": "getBalance",
					"outputs": [
						{
							"internalType": "uint256",
							"name": "",
							"type": "uint256"
						}
					],
					"stateMutability": "view",
					"type": "function"
				},
				{
					"inputs": [
						{
							"internalType": "uint256",
							"name": "_dataSetId",
							"type": "uint256"
						}
					],
					"name": "getDataSet",
					"outputs": [
						{
							"internalType": "string",
							"name": "",
							"type": "string"
						},
						{
							"internalType": "string",
							"name": "",
							"type": "string"
						},
						{
							"internalType": "bytes32",
							"name": "",
							"type": "bytes32"
						},
						{
							"internalType": "uint256",
							"name": "",
							"type": "uint256"
						},
						{
							"internalType": "bool",
							"name": "",
							"type": "bool"
						},
						{
							"internalType": "address",
							"name": "",
							"type": "address"
						},
						{
							"internalType": "uint256",
							"name": "",
							"type": "uint256"
						}
					],
					"stateMutability": "view",
					"type": "function"
				},
				{
					"inputs": [],
					"name": "getReportedUsers",
					"outputs": [
						{
							"internalType": "address[]",
							"name": "",
							"type": "address[]"
						}
					],
					"stateMutability": "view",
					"type": "function"
				},
				{
					"inputs": [
						{
							"internalType": "address",
							"name": "_seller",
							"type": "address"
						}
					],
					"name": "getSellerAverageRating",
					"outputs": [
						{
							"internalType": "uint256",
							"name": "",
							"type": "uint256"
						}
					],
					"stateMutability": "view",
					"type": "function"
				},
				{
					"inputs": [],
					"name": "platformOwner",
					"outputs": [
						{
							"internalType": "address payable",
							"name": "",
							"type": "address"
						}
					],
					"stateMutability": "view",
					"type": "function"
				},
				{
					"inputs": [
						{
							"internalType": "uint256",
							"name": "_dataSetId",
							"type": "uint256"
						}
					],
					"name": "purchaseDataSet",
					"outputs": [],
					"stateMutability": "payable",
					"type": "function"
				},
				{
					"inputs": [
						{
							"internalType": "uint256",
							"name": "_dataSetId",
							"type": "uint256"
						},
						{
							"internalType": "uint256",
							"name": "_rating",
							"type": "uint256"
						}
					],
					"name": "rateSeller",
					"outputs": [],
					"stateMutability": "nonpayable",
					"type": "function"
				},
				{
					"inputs": [
						{
							"internalType": "string",
							"name": "_name",
							"type": "string"
						},
						{
							"internalType": "string",
							"name": "_email",
							"type": "string"
						},
						{
							"internalType": "bool",
							"name": "_isDataSeller",
							"type": "bool"
						},
						{
							"internalType": "bool",
							"name": "_isDataBuyer",
							"type": "bool"
						}
					],
					"name": "registerUser",
					"outputs": [],
					"stateMutability": "nonpayable",
					"type": "function"
				},
				{
					"inputs": [
						{
							"internalType": "uint256",
							"name": "_dataSetId",
							"type": "uint256"
						}
					],
					"name": "reportDataSet",
					"outputs": [],
					"stateMutability": "nonpayable",
					"type": "function"
				},
				{
					"inputs": [
						{
							"internalType": "address",
							"name": "_user",
							"type": "address"
						}
					],
					"name": "reportUser",
					"outputs": [],
					"stateMutability": "nonpayable",
					"type": "function"
				},
				{
					"inputs": [
						{
							"internalType": "address",
							"name": "",
							"type": "address"
						}
					],
					"name": "reportedUsers",
					"outputs": [
						{
							"internalType": "uint256",
							"name": "reportCount",
							"type": "uint256"
						},
						{
							"internalType": "bool",
							"name": "isBanned",
							"type": "bool"
						}
					],
					"stateMutability": "view",
					"type": "function"
				},
				{
					"inputs": [
						{
							"internalType": "address",
							"name": "",
							"type": "address"
						}
					],
					"name": "sellerReputations",
					"outputs": [
						{
							"internalType": "uint256",
							"name": "totalRatings",
							"type": "uint256"
						},
						{
							"internalType": "uint256",
							"name": "sumOfRatings",
							"type": "uint256"
						}
					],
					"stateMutability": "view",
					"type": "function"
				},
				{
					"inputs": [
						{
							"internalType": "string",
							"name": "_name",
							"type": "string"
						},
						{
							"internalType": "string",
							"name": "_description",
							"type": "string"
						},
						{
							"internalType": "bytes32",
							"name": "_dataHash",
							"type": "bytes32"
						},
						{
							"internalType": "uint256",
							"name": "_price",
							"type": "uint256"
						},
						{
							"internalType": "bool",
							"name": "_isEncrypted",
							"type": "bool"
						}
					],
					"name": "uploadDataSet",
					"outputs": [],
					"stateMutability": "nonpayable",
					"type": "function"
				},
				{
					"inputs": [
						{
							"internalType": "address",
							"name": "",
							"type": "address"
						}
					],
					"name": "users",
					"outputs": [
						{
							"internalType": "string",
							"name": "name",
							"type": "string"
						},
						{
							"internalType": "string",
							"name": "email",
							"type": "string"
						},
						{
							"internalType": "bool",
							"name": "isDataSeller",
							"type": "bool"
						},
						{
							"internalType": "bool",
							"name": "isDataBuyer",
							"type": "bool"
						}
					],
					"stateMutability": "view",
					"type": "function"
				},
				{
					"stateMutability": "payable",
					"type": "receive"
				}
			],
			"devdoc": {
				"kind": "dev",
				"methods": {},
				"version": 1
			},
			"evm": {
				"assembly": "    /* \"contracts/Marketplace.sol\":192:6907  contract DataMarketplace {... */\n  mstore(0x40, 0x80)\n    /* \"contracts/Marketplace.sol\":1650:1716  constructor() {... */\n  callvalue\n  dup1\n  iszero\n  tag_1\n  jumpi\n  0x00\n  dup1\n  revert\ntag_1:\n  pop\n    /* \"contracts/Marketplace.sol\":1698:1708  msg.sender */\n  caller\n    /* \"contracts/Marketplace.sol\":1674:1687  platformOwner */\n  0x06\n  0x00\n    /* \"contracts/Marketplace.sol\":1674:1709  platformOwner = payable(msg.sender) */\n  0x0100\n  exp\n  dup2\n  sload\n  dup2\n  0xffffffffffffffffffffffffffffffffffffffff\n  mul\n  not\n  and\n  swap1\n  dup4\n  0xffffffffffffffffffffffffffffffffffffffff\n  and\n  mul\n  or\n  swap1\n  sstore\n  pop\n    /* \"contracts/Marketplace.sol\":192:6907  contract DataMarketplace {... */\n  dataSize(sub_0)\n  dup1\n  dataOffset(sub_0)\n  0x00\n  codecopy\n  0x00\n  return\nstop\n\nsub_0: assembly {\n        /* \"contracts/Marketplace.sol\":192:6907  contract DataMarketplace {... */\n      mstore(0x40, 0x80)\n      jumpi(tag_1, lt(calldatasize, 0x04))\n      shr(0xe0, calldataload(0x00))\n      dup1\n      0x4df8ccb1\n      gt\n      tag_22\n      jumpi\n      dup1\n      0xa87430ba\n      gt\n      tag_23\n      jumpi\n      dup1\n      0xa87430ba\n      eq\n      tag_17\n      jumpi\n      dup1\n      0xb73db8de\n      eq\n      tag_18\n      jumpi\n      dup1\n      0xbdaac056\n      eq\n      tag_19\n      jumpi\n      dup1\n      0xbe932ebd\n      eq\n      tag_20\n      jumpi\n      dup1\n      0xeb6427d9\n      eq\n      tag_21\n      jumpi\n      jump(tag_2)\n    tag_23:\n      dup1\n      0x4df8ccb1\n      eq\n      tag_12\n      jumpi\n      dup1\n      0x6570a82f\n      eq\n      tag_13\n      jumpi\n      dup1\n      0x7201d32e\n      eq\n      tag_14\n      jumpi\n      dup1\n      0x9e5c3cba\n      eq\n      tag_15\n      jumpi\n      dup1\n      0xa6a37136\n      eq\n      tag_16\n      jumpi\n      jump(tag_2)\n    tag_22:\n      dup1\n      0x15548232\n      gt\n      tag_24\n      jumpi\n      dup1\n      0x15548232\n      eq\n      tag_7\n      jumpi\n      dup1\n      0x16b29706\n      eq\n      tag_8\n      jumpi\n      dup1\n      0x1a8d3029\n      eq\n      tag_9\n      jumpi\n      dup1\n      0x228f088a\n      eq\n      tag_10\n      jumpi\n      dup1\n      0x34db8f63\n      eq\n      tag_11\n      jumpi\n      jump(tag_2)\n    tag_24:\n      dup1\n      0x10d86b1f\n      eq\n      tag_3\n      jumpi\n      dup1\n      0x12065fe0\n      eq\n      tag_4\n      jumpi\n      dup1\n      0x12c98303\n      eq\n      tag_5\n      jumpi\n      dup1\n      0x13f53f62\n      eq\n      tag_6\n      jumpi\n      jump(tag_2)\n    tag_1:\n      jumpi(tag_2, calldatasize)\n      stop\n    tag_2:\n      0x00\n      dup1\n      revert\n        /* \"contracts/Marketplace.sol\":5517:5788  function banUser(address _user) public {... */\n    tag_3:\n      callvalue\n      dup1\n      iszero\n      tag_27\n      jumpi\n      0x00\n      dup1\n      revert\n    tag_27:\n      pop\n      tag_28\n      0x04\n      dup1\n      calldatasize\n      sub\n      dup2\n      add\n      swap1\n      tag_29\n      swap2\n      swap1\n      tag_30\n      jump\t// in\n    tag_29:\n      tag_31\n      jump\t// in\n    tag_28:\n      stop\n        /* \"contracts/Marketplace.sol\":1722:1821  function getBalance() external view returns (uint256) {... */\n    tag_4:\n      callvalue\n      dup1\n      iszero\n      tag_32\n      jumpi\n      0x00\n      dup1\n      revert\n    tag_32:\n      pop\n      tag_33\n      tag_34\n      jump\t// in\n    tag_33:\n      mload(0x40)\n      tag_35\n      swap2\n      swap1\n      tag_36\n      jump\t// in\n    tag_35:\n      mload(0x40)\n      dup1\n      swap2\n      sub\n      swap1\n      return\n        /* \"contracts/Marketplace.sol\":4196:4695  function rateSeller(uint256 _dataSetId, uint256 _rating) public {... */\n    tag_5:\n      callvalue\n      dup1\n      iszero\n      tag_37\n      jumpi\n      0x00\n      dup1\n      revert\n    tag_37:\n      pop\n      tag_38\n      0x04\n      dup1\n      calldatasize\n      sub\n      dup2\n      add\n      swap1\n      tag_39\n      swap2\n      swap1\n      tag_40\n      jump\t// in\n    tag_39:\n      tag_41\n      jump\t// in\n    tag_38:\n      stop\n        /* \"contracts/Marketplace.sol\":887:930  mapping(uint256 => DataSet) public dataSets */\n    tag_6:\n      callvalue\n      dup1\n      iszero\n      tag_42\n      jumpi\n      0x00\n      dup1\n      revert\n    tag_42:\n      pop\n      tag_43\n      0x04\n      dup1\n      calldatasize\n      sub\n      dup2\n      add\n      swap1\n      tag_44\n      swap2\n      swap1\n      tag_45\n      jump\t// in\n    tag_44:\n      tag_46\n      jump\t// in\n    tag_43:\n      mload(0x40)\n      tag_47\n      swap8\n      swap7\n      swap6\n      swap5\n      swap4\n      swap3\n      swap2\n      swap1\n      tag_48\n      jump\t// in\n    tag_47:\n      mload(0x40)\n      dup1\n      swap2\n      sub\n      swap1\n      return\n        /* \"contracts/Marketplace.sol\":1138:1191  uint256 public constant PLATFORM_FEE_PERCENTAGE = 100 */\n    tag_7:\n      callvalue\n      dup1\n      iszero\n      tag_49\n      jumpi\n      0x00\n      dup1\n      revert\n    tag_49:\n      pop\n      tag_50\n      tag_51\n      jump\t// in\n    tag_50:\n      mload(0x40)\n      tag_52\n      swap2\n      swap1\n      tag_36\n      jump\t// in\n    tag_52:\n      mload(0x40)\n      dup1\n      swap2\n      sub\n      swap1\n      return\n        /* \"contracts/Marketplace.sol\":936:990  mapping(bytes32 => uint256) public dataHashToDataSetId */\n    tag_8:\n      callvalue\n      dup1\n      iszero\n      tag_53\n      jumpi\n      0x00\n      dup1\n      revert\n    tag_53:\n      pop\n      tag_54\n      0x04\n      dup1\n      calldatasize\n      sub\n      dup2\n      add\n      swap1\n      tag_55\n      swap2\n      swap1\n      tag_56\n      jump\t// in\n    tag_55:\n      tag_57\n      jump\t// in\n    tag_54:\n      mload(0x40)\n      tag_58\n      swap2\n      swap1\n      tag_36\n      jump\t// in\n    tag_58:\n      mload(0x40)\n      dup1\n      swap2\n      sub\n      swap1\n      return\n        /* \"contracts/Marketplace.sol\":2402:3328  function uploadDataSet(... */\n    tag_9:\n      callvalue\n      dup1\n      iszero\n      tag_59\n      jumpi\n      0x00\n      dup1\n      revert\n    tag_59:\n      pop\n      tag_60\n      0x04\n      dup1\n      calldatasize\n      sub\n      dup2\n      add\n      swap1\n      tag_61\n      swap2\n      swap1\n      tag_62\n      jump\t// in\n    tag_61:\n      tag_63\n      jump\t// in\n    tag_60:\n      stop\n        /* \"contracts/Marketplace.sol\":1063:1090  uint256 public dataSetCount */\n    tag_10:\n      callvalue\n      dup1\n      iszero\n      tag_64\n      jumpi\n      0x00\n      dup1\n      revert\n    tag_64:\n      pop\n      tag_65\n      tag_66\n      jump\t// in\n    tag_65:\n      mload(0x40)\n      tag_67\n      swap2\n      swap1\n      tag_36\n      jump\t// in\n    tag_67:\n      mload(0x40)\n      dup1\n      swap2\n      sub\n      swap1\n      return\n        /* \"contracts/Marketplace.sol\":5037:5290  function reportUser(address _user) public {... */\n    tag_11:\n      callvalue\n      dup1\n      iszero\n      tag_68\n      jumpi\n      0x00\n      dup1\n      revert\n    tag_68:\n      pop\n      tag_69\n      0x04\n      dup1\n      calldatasize\n      sub\n      dup2\n      add\n      swap1\n      tag_70\n      swap2\n      swap1\n      tag_30\n      jump\t// in\n    tag_70:\n      tag_71\n      jump\t// in\n    tag_69:\n      stop\n        /* \"contracts/Marketplace.sol\":1096:1132  address payable public platformOwner */\n    tag_12:\n      callvalue\n      dup1\n      iszero\n      tag_72\n      jumpi\n      0x00\n      dup1\n      revert\n    tag_72:\n      pop\n      tag_73\n      tag_74\n      jump\t// in\n    tag_73:\n      mload(0x40)\n      tag_75\n      swap2\n      swap1\n      tag_76\n      jump\t// in\n    tag_75:\n      mload(0x40)\n      dup1\n      swap2\n      sub\n      swap1\n      return\n        /* \"contracts/Marketplace.sol\":1862:2396  function registerUser(... */\n    tag_13:\n      callvalue\n      dup1\n      iszero\n      tag_77\n      jumpi\n      0x00\n      dup1\n      revert\n    tag_77:\n      pop\n      tag_78\n      0x04\n      dup1\n      calldatasize\n      sub\n      dup2\n      add\n      swap1\n      tag_79\n      swap2\n      swap1\n      tag_80\n      jump\t// in\n    tag_79:\n      tag_81\n      jump\t// in\n    tag_78:\n      stop\n        /* \"contracts/Marketplace.sol\":785:838  mapping(address => ReportedUser) public reportedUsers */\n    tag_14:\n      callvalue\n      dup1\n      iszero\n      tag_82\n      jumpi\n      0x00\n      dup1\n      revert\n    tag_82:\n      pop\n      tag_83\n      0x04\n      dup1\n      calldatasize\n      sub\n      dup2\n      add\n      swap1\n      tag_84\n      swap2\n      swap1\n      tag_30\n      jump\t// in\n    tag_84:\n      tag_85\n      jump\t// in\n    tag_83:\n      mload(0x40)\n      tag_86\n      swap3\n      swap2\n      swap1\n      tag_87\n      jump\t// in\n    tag_86:\n      mload(0x40)\n      dup1\n      swap2\n      sub\n      swap1\n      return\n        /* \"contracts/Marketplace.sol\":6355:6905  function getReportedUsers() public view returns (address[] memory) {... */\n    tag_15:\n      callvalue\n      dup1\n      iszero\n      tag_88\n      jumpi\n      0x00\n      dup1\n      revert\n    tag_88:\n      pop\n      tag_89\n      tag_90\n      jump\t// in\n    tag_89:\n      mload(0x40)\n      tag_91\n      swap2\n      swap1\n      tag_92\n      jump\t// in\n    tag_91:\n      mload(0x40)\n      dup1\n      swap2\n      sub\n      swap1\n      return\n        /* \"contracts/Marketplace.sol\":3334:4190  function purchaseDataSet(uint256 _dataSetId) public payable {... */\n    tag_16:\n      tag_93\n      0x04\n      dup1\n      calldatasize\n      sub\n      dup2\n      add\n      swap1\n      tag_94\n      swap2\n      swap1\n      tag_45\n      jump\t// in\n    tag_94:\n      tag_95\n      jump\t// in\n    tag_93:\n      stop\n        /* \"contracts/Marketplace.sol\":844:881  mapping(address => User) public users */\n    tag_17:\n      callvalue\n      dup1\n      iszero\n      tag_96\n      jumpi\n      0x00\n      dup1\n      revert\n    tag_96:\n      pop\n      tag_97\n      0x04\n      dup1\n      calldatasize\n      sub\n      dup2\n      add\n      swap1\n      tag_98\n      swap2\n      swap1\n      tag_30\n      jump\t// in\n    tag_98:\n      tag_99\n      jump\t// in\n    tag_97:\n      mload(0x40)\n      tag_100\n      swap5\n      swap4\n      swap3\n      swap2\n      swap1\n      tag_101\n      jump\t// in\n    tag_100:\n      mload(0x40)\n      dup1\n      swap2\n      sub\n      swap1\n      return\n        /* \"contracts/Marketplace.sol\":5296:5511  function reportDataSet(uint256 _dataSetId) public {... */\n    tag_18:\n      callvalue\n      dup1\n      iszero\n      tag_102\n      jumpi\n      0x00\n      dup1\n      revert\n    tag_102:\n      pop\n      tag_103\n      0x04\n      dup1\n      calldatasize\n      sub\n      dup2\n      add\n      swap1\n      tag_104\n      swap2\n      swap1\n      tag_45\n      jump\t// in\n    tag_104:\n      tag_105\n      jump\t// in\n    tag_103:\n      stop\n        /* \"contracts/Marketplace.sol\":5794:6349  function getDataSet(uint256 _dataSetId)... */\n    tag_19:\n      callvalue\n      dup1\n      iszero\n      tag_106\n      jumpi\n      0x00\n      dup1\n      revert\n    tag_106:\n      pop\n      tag_107\n      0x04\n      dup1\n      calldatasize\n      sub\n      dup2\n      add\n      swap1\n      tag_108\n      swap2\n      swap1\n      tag_45\n      jump\t// in\n    tag_108:\n      tag_109\n      jump\t// in\n    tag_107:\n      mload(0x40)\n      tag_110\n      swap8\n      swap7\n      swap6\n      swap5\n      swap4\n      swap3\n      swap2\n      swap1\n      tag_111\n      jump\t// in\n    tag_110:\n      mload(0x40)\n      dup1\n      swap2\n      sub\n      swap1\n      return\n        /* \"contracts/Marketplace.sol\":4701:5031  function getSellerAverageRating(address _seller)... */\n    tag_20:\n      callvalue\n      dup1\n      iszero\n      tag_112\n      jumpi\n      0x00\n      dup1\n      revert\n    tag_112:\n      pop\n      tag_113\n      0x04\n      dup1\n      calldatasize\n      sub\n      dup2\n      add\n      swap1\n      tag_114\n      swap2\n      swap1\n      tag_30\n      jump\t// in\n    tag_114:\n      tag_115\n      jump\t// in\n    tag_113:\n      mload(0x40)\n      tag_116\n      swap2\n      swap1\n      tag_36\n      jump\t// in\n    tag_116:\n      mload(0x40)\n      dup1\n      swap2\n      sub\n      swap1\n      return\n        /* \"contracts/Marketplace.sol\":996:1057  mapping(address => SellerReputation) public sellerReputations */\n    tag_21:\n      callvalue\n      dup1\n      iszero\n      tag_117\n      jumpi\n      0x00\n      dup1\n      revert\n    tag_117:\n      pop\n      tag_118\n      0x04\n      dup1\n      calldatasize\n      sub\n      dup2\n      add\n      swap1\n      tag_119\n      swap2\n      swap1\n      tag_30\n      jump\t// in\n    tag_119:\n      tag_120\n      jump\t// in\n    tag_118:\n      mload(0x40)\n      tag_121\n      swap3\n      swap2\n      swap1\n      tag_122\n      jump\t// in\n    tag_121:\n      mload(0x40)\n      dup1\n      swap2\n      sub\n      swap1\n      return\n        /* \"contracts/Marketplace.sol\":5517:5788  function banUser(address _user) public {... */\n    tag_31:\n        /* \"contracts/Marketplace.sol\":5588:5601  platformOwner */\n      0x06\n      0x00\n      swap1\n      sload\n      swap1\n      0x0100\n      exp\n      swap1\n      div\n      0xffffffffffffffffffffffffffffffffffffffff\n      and\n        /* \"contracts/Marketplace.sol\":5574:5601  msg.sender == platformOwner */\n      0xffffffffffffffffffffffffffffffffffffffff\n      and\n        /* \"contracts/Marketplace.sol\":5574:5584  msg.sender */\n      caller\n        /* \"contracts/Marketplace.sol\":5574:5601  msg.sender == platformOwner */\n      0xffffffffffffffffffffffffffffffffffffffff\n      and\n      eq\n        /* \"contracts/Marketplace.sol\":5566:5639  require(msg.sender == platformOwner, \"Only platform owner can ban users\") */\n      tag_124\n      jumpi\n      mload(0x40)\n      0x08c379a000000000000000000000000000000000000000000000000000000000\n      dup2\n      mstore\n      0x04\n      add\n      tag_125\n      swap1\n      tag_126\n      jump\t// in\n    tag_125:\n      mload(0x40)\n      dup1\n      swap2\n      sub\n      swap1\n      revert\n    tag_124:\n        /* \"contracts/Marketplace.sol\":5657:5662  users */\n      0x01\n        /* \"contracts/Marketplace.sol\":5657:5669  users[_user] */\n      0x00\n        /* \"contracts/Marketplace.sol\":5663:5668  _user */\n      dup3\n        /* \"contracts/Marketplace.sol\":5657:5669  users[_user] */\n      0xffffffffffffffffffffffffffffffffffffffff\n      and\n      0xffffffffffffffffffffffffffffffffffffffff\n      and\n      dup2\n      mstore\n      0x20\n      add\n      swap1\n      dup2\n      mstore\n      0x20\n      add\n      0x00\n      keccak256\n        /* \"contracts/Marketplace.sol\":5657:5682  users[_user].isDataSeller */\n      0x02\n      add\n      0x00\n      swap1\n      sload\n      swap1\n      0x0100\n      exp\n      swap1\n      div\n      0xff\n      and\n        /* \"contracts/Marketplace.sol\":5657:5710  users[_user].isDataSeller || users[_user].isDataBuyer */\n      dup1\n      tag_127\n      jumpi\n      pop\n        /* \"contracts/Marketplace.sol\":5686:5691  users */\n      0x01\n        /* \"contracts/Marketplace.sol\":5686:5698  users[_user] */\n      0x00\n        /* \"contracts/Marketplace.sol\":5692:5697  _user */\n      dup3\n        /* \"contracts/Marketplace.sol\":5686:5698  users[_user] */\n      0xffffffffffffffffffffffffffffffffffffffff\n      and\n      0xffffffffffffffffffffffffffffffffffffffff\n      and\n      dup2\n      mstore\n      0x20\n      add\n      swap1\n      dup2\n      mstore\n      0x20\n      add\n      0x00\n      keccak256\n        /* \"contracts/Marketplace.sol\":5686:5710  users[_user].isDataBuyer */\n      0x02\n      add\n      0x01\n      swap1\n      sload\n      swap1\n      0x0100\n      exp\n      swap1\n      div\n      0xff\n      and\n        /* \"contracts/Marketplace.sol\":5657:5710  users[_user].isDataSeller || users[_user].isDataBuyer */\n    tag_127:\n        /* \"contracts/Marketplace.sol\":5649:5734  require(users[_user].isDataSeller || users[_user].isDataBuyer, \"User not registered\") */\n      tag_128\n      jumpi\n      mload(0x40)\n      0x08c379a000000000000000000000000000000000000000000000000000000000\n      dup2\n      mstore\n      0x04\n      add\n      tag_129\n      swap1\n      tag_130\n      jump\t// in\n    tag_129:\n      mload(0x40)\n      dup1\n      swap2\n      sub\n      swap1\n      revert\n    tag_128:\n        /* \"contracts/Marketplace.sol\":5777:5781  true */\n      0x01\n        /* \"contracts/Marketplace.sol\":5745:5758  reportedUsers */\n      0x00\n        /* \"contracts/Marketplace.sol\":5745:5765  reportedUsers[_user] */\n      dup1\n        /* \"contracts/Marketplace.sol\":5759:5764  _user */\n      dup4\n        /* \"contracts/Marketplace.sol\":5745:5765  reportedUsers[_user] */\n      0xffffffffffffffffffffffffffffffffffffffff\n      and\n      0xffffffffffffffffffffffffffffffffffffffff\n      and\n      dup2\n      mstore\n      0x20\n      add\n      swap1\n      dup2\n      mstore\n      0x20\n      add\n      0x00\n      keccak256\n        /* \"contracts/Marketplace.sol\":5745:5774  reportedUsers[_user].isBanned */\n      0x01\n      add\n      0x00\n        /* \"contracts/Marketplace.sol\":5745:5781  reportedUsers[_user].isBanned = true */\n      0x0100\n      exp\n      dup2\n      sload\n      dup2\n      0xff\n      mul\n      not\n      and\n      swap1\n      dup4\n      iszero\n      iszero\n      mul\n      or\n      swap1\n      sstore\n      pop\n        /* \"contracts/Marketplace.sol\":5517:5788  function banUser(address _user) public {... */\n      pop\n      jump\t// out\n        /* \"contracts/Marketplace.sol\":1722:1821  function getBalance() external view returns (uint256) {... */\n    tag_34:\n        /* \"contracts/Marketplace.sol\":1767:1774  uint256 */\n      0x00\n        /* \"contracts/Marketplace.sol\":1793:1814  address(this).balance */\n      selfbalance\n        /* \"contracts/Marketplace.sol\":1786:1814  return address(this).balance */\n      swap1\n      pop\n        /* \"contracts/Marketplace.sol\":1722:1821  function getBalance() external view returns (uint256) {... */\n      swap1\n      jump\t// out\n        /* \"contracts/Marketplace.sol\":4196:4695  function rateSeller(uint256 _dataSetId, uint256 _rating) public {... */\n    tag_41:\n        /* \"contracts/Marketplace.sol\":4291:4296  users */\n      0x01\n        /* \"contracts/Marketplace.sol\":4291:4308  users[msg.sender] */\n      0x00\n        /* \"contracts/Marketplace.sol\":4297:4307  msg.sender */\n      caller\n        /* \"contracts/Marketplace.sol\":4291:4308  users[msg.sender] */\n      0xffffffffffffffffffffffffffffffffffffffff\n      and\n      0xffffffffffffffffffffffffffffffffffffffff\n      and\n      dup2\n      mstore\n      0x20\n      add\n      swap1\n      dup2\n      mstore\n      0x20\n      add\n      0x00\n      keccak256\n        /* \"contracts/Marketplace.sol\":4291:4320  users[msg.sender].isDataBuyer */\n      0x02\n      add\n      0x01\n      swap1\n      sload\n      swap1\n      0x0100\n      exp\n      swap1\n      div\n      0xff\n      and\n        /* \"contracts/Marketplace.sol\":4270:4390  require(... */\n      tag_133\n      jumpi\n      mload(0x40)\n      0x08c379a000000000000000000000000000000000000000000000000000000000\n      dup2\n      mstore\n      0x04\n      add\n      tag_134\n      swap1\n      tag_135\n      jump\t// in\n    tag_134:\n      mload(0x40)\n      dup1\n      swap2\n      sub\n      swap1\n      revert\n    tag_133:\n        /* \"contracts/Marketplace.sol\":4400:4423  DataSet storage dataSet */\n      0x00\n        /* \"contracts/Marketplace.sol\":4426:4434  dataSets */\n      0x02\n        /* \"contracts/Marketplace.sol\":4426:4446  dataSets[_dataSetId] */\n      0x00\n        /* \"contracts/Marketplace.sol\":4435:4445  _dataSetId */\n      dup5\n        /* \"contracts/Marketplace.sol\":4426:4446  dataSets[_dataSetId] */\n      dup2\n      mstore\n      0x20\n      add\n      swap1\n      dup2\n      mstore\n      0x20\n      add\n      0x00\n      keccak256\n        /* \"contracts/Marketplace.sol\":4400:4446  DataSet storage dataSet = dataSets[_dataSetId] */\n      swap1\n      pop\n        /* \"contracts/Marketplace.sol\":4478:4485  dataSet */\n      dup1\n        /* \"contracts/Marketplace.sol\":4478:4492  dataSet.seller */\n      0x04\n      add\n      0x01\n      swap1\n      sload\n      swap1\n      0x0100\n      exp\n      swap1\n      div\n      0xffffffffffffffffffffffffffffffffffffffff\n      and\n        /* \"contracts/Marketplace.sol\":4464:4492  msg.sender != dataSet.seller */\n      0xffffffffffffffffffffffffffffffffffffffff\n      and\n        /* \"contracts/Marketplace.sol\":4464:4474  msg.sender */\n      caller\n        /* \"contracts/Marketplace.sol\":4464:4492  msg.sender != dataSet.seller */\n      0xffffffffffffffffffffffffffffffffffffffff\n      and\n      sub\n        /* \"contracts/Marketplace.sol\":4456:4527  require(msg.sender != dataSet.seller, \"Sellers cannot rate themselves\") */\n      tag_136\n      jumpi\n      mload(0x40)\n      0x08c379a000000000000000000000000000000000000000000000000000000000\n      dup2\n      mstore\n      0x04\n      add\n      tag_137\n      swap1\n      tag_138\n      jump\t// in\n    tag_137:\n      mload(0x40)\n      dup1\n      swap2\n      sub\n      swap1\n      revert\n    tag_136:\n        /* \"contracts/Marketplace.sol\":4538:4573  SellerReputation storage reputation */\n      0x00\n        /* \"contracts/Marketplace.sol\":4576:4593  sellerReputations */\n      0x04\n        /* \"contracts/Marketplace.sol\":4576:4609  sellerReputations[dataSet.seller] */\n      0x00\n        /* \"contracts/Marketplace.sol\":4594:4601  dataSet */\n      dup4\n        /* \"contracts/Marketplace.sol\":4594:4608  dataSet.seller */\n      0x04\n      add\n      0x01\n      swap1\n      sload\n      swap1\n      0x0100\n      exp\n      swap1\n      div\n      0xffffffffffffffffffffffffffffffffffffffff\n      and\n        /* \"contracts/Marketplace.sol\":4576:4609  sellerReputations[dataSet.seller] */\n      0xffffffffffffffffffffffffffffffffffffffff\n      and\n      0xffffffffffffffffffffffffffffffffffffffff\n      and\n      dup2\n      mstore\n      0x20\n      add\n      swap1\n      dup2\n      mstore\n      0x20\n      add\n      0x00\n      keccak256\n        /* \"contracts/Marketplace.sol\":4538:4609  SellerReputation storage reputation = sellerReputations[dataSet.seller] */\n      swap1\n      pop\n        /* \"contracts/Marketplace.sol\":4619:4629  reputation */\n      dup1\n        /* \"contracts/Marketplace.sol\":4619:4642  reputation.totalRatings */\n      0x00\n      add\n      0x00\n        /* \"contracts/Marketplace.sol\":4619:4644  reputation.totalRatings++ */\n      dup2\n      sload\n      dup1\n      swap3\n      swap2\n      swap1\n      tag_139\n      swap1\n      tag_140\n      jump\t// in\n    tag_139:\n      swap2\n      swap1\n      pop\n      sstore\n      pop\n        /* \"contracts/Marketplace.sol\":4681:4688  _rating */\n      dup3\n        /* \"contracts/Marketplace.sol\":4654:4664  reputation */\n      dup2\n        /* \"contracts/Marketplace.sol\":4654:4677  reputation.sumOfRatings */\n      0x01\n      add\n      0x00\n        /* \"contracts/Marketplace.sol\":4654:4688  reputation.sumOfRatings += _rating */\n      dup3\n      dup3\n      sload\n      tag_141\n      swap2\n      swap1\n      tag_142\n      jump\t// in\n    tag_141:\n      swap3\n      pop\n      pop\n      dup2\n      swap1\n      sstore\n      pop\n        /* \"contracts/Marketplace.sol\":4260:4695  {... */\n      pop\n      pop\n        /* \"contracts/Marketplace.sol\":4196:4695  function rateSeller(uint256 _dataSetId, uint256 _rating) public {... */\n      pop\n      pop\n      jump\t// out\n        /* \"contracts/Marketplace.sol\":887:930  mapping(uint256 => DataSet) public dataSets */\n    tag_46:\n      mstore(0x20, 0x02)\n      dup1\n      0x00\n      mstore\n      keccak256(0x00, 0x40)\n      0x00\n      swap2\n      pop\n      swap1\n      pop\n      dup1\n      0x00\n      add\n      dup1\n      sload\n      tag_143\n      swap1\n      tag_144\n      jump\t// in\n    tag_143:\n      dup1\n      0x1f\n      add\n      0x20\n      dup1\n      swap2\n      div\n      mul\n      0x20\n      add\n      mload(0x40)\n      swap1\n      dup2\n      add\n      0x40\n      mstore\n      dup1\n      swap3\n      swap2\n      swap1\n      dup2\n      dup2\n      mstore\n      0x20\n      add\n      dup3\n      dup1\n      sload\n      tag_145\n      swap1\n      tag_144\n      jump\t// in\n    tag_145:\n      dup1\n      iszero\n      tag_146\n      jumpi\n      dup1\n      0x1f\n      lt\n      tag_147\n      jumpi\n      0x0100\n      dup1\n      dup4\n      sload\n      div\n      mul\n      dup4\n      mstore\n      swap2\n      0x20\n      add\n      swap2\n      jump(tag_146)\n    tag_147:\n      dup3\n      add\n      swap2\n      swap1\n      0x00\n      mstore\n      keccak256(0x00, 0x20)\n      swap1\n    tag_148:\n      dup2\n      sload\n      dup2\n      mstore\n      swap1\n      0x01\n      add\n      swap1\n      0x20\n      add\n      dup1\n      dup4\n      gt\n      tag_148\n      jumpi\n      dup3\n      swap1\n      sub\n      0x1f\n      and\n      dup3\n      add\n      swap2\n    tag_146:\n      pop\n      pop\n      pop\n      pop\n      pop\n      swap1\n      dup1\n      0x01\n      add\n      dup1\n      sload\n      tag_149\n      swap1\n      tag_144\n      jump\t// in\n    tag_149:\n      dup1\n      0x1f\n      add\n      0x20\n      dup1\n      swap2\n      div\n      mul\n      0x20\n      add\n      mload(0x40)\n      swap1\n      dup2\n      add\n      0x40\n      mstore\n      dup1\n      swap3\n      swap2\n      swap1\n      dup2\n      dup2\n      mstore\n      0x20\n      add\n      dup3\n      dup1\n      sload\n      tag_150\n      swap1\n      tag_144\n      jump\t// in\n    tag_150:\n      dup1\n      iszero\n      tag_151\n      jumpi\n      dup1\n      0x1f\n      lt\n      tag_152\n      jumpi\n      0x0100\n      dup1\n      dup4\n      sload\n      div\n      mul\n      dup4\n      mstore\n      swap2\n      0x20\n      add\n      swap2\n      jump(tag_151)\n    tag_152:\n      dup3\n      add\n      swap2\n      swap1\n      0x00\n      mstore\n      keccak256(0x00, 0x20)\n      swap1\n    tag_153:\n      dup2\n      sload\n      dup2\n      mstore\n      swap1\n      0x01\n      add\n      swap1\n      0x20\n      add\n      dup1\n      dup4\n      gt\n      tag_153\n      jumpi\n      dup3\n      swap1\n      sub\n      0x1f\n      and\n      dup3\n      add\n      swap2\n    tag_151:\n      pop\n      pop\n      pop\n      pop\n      pop\n      swap1\n      dup1\n      0x02\n      add\n      sload\n      swap1\n      dup1\n      0x03\n      add\n      sload\n      swap1\n      dup1\n      0x04\n      add\n      0x00\n      swap1\n      sload\n      swap1\n      0x0100\n      exp\n      swap1\n      div\n      0xff\n      and\n      swap1\n      dup1\n      0x04\n      add\n      0x01\n      swap1\n      sload\n      swap1\n      0x0100\n      exp\n      swap1\n      div\n      0xffffffffffffffffffffffffffffffffffffffff\n      and\n      swap1\n      dup1\n      0x05\n      add\n      sload\n      swap1\n      pop\n      dup8\n      jump\t// out\n        /* \"contracts/Marketplace.sol\":1138:1191  uint256 public constant PLATFORM_FEE_PERCENTAGE = 100 */\n    tag_51:\n        /* \"contracts/Marketplace.sol\":1188:1191  100 */\n      0x64\n        /* \"contracts/Marketplace.sol\":1138:1191  uint256 public constant PLATFORM_FEE_PERCENTAGE = 100 */\n      dup2\n      jump\t// out\n        /* \"contracts/Marketplace.sol\":936:990  mapping(bytes32 => uint256) public dataHashToDataSetId */\n    tag_57:\n      mstore(0x20, 0x03)\n      dup1\n      0x00\n      mstore\n      keccak256(0x00, 0x40)\n      0x00\n      swap2\n      pop\n      swap1\n      pop\n      sload\n      dup2\n      jump\t// out\n        /* \"contracts/Marketplace.sol\":2402:3328  function uploadDataSet(... */\n    tag_63:\n        /* \"contracts/Marketplace.sol\":2612:2617  users */\n      0x01\n        /* \"contracts/Marketplace.sol\":2612:2629  users[msg.sender] */\n      0x00\n        /* \"contracts/Marketplace.sol\":2618:2628  msg.sender */\n      caller\n        /* \"contracts/Marketplace.sol\":2612:2629  users[msg.sender] */\n      0xffffffffffffffffffffffffffffffffffffffff\n      and\n      0xffffffffffffffffffffffffffffffffffffffff\n      and\n      dup2\n      mstore\n      0x20\n      add\n      swap1\n      dup2\n      mstore\n      0x20\n      add\n      0x00\n      keccak256\n        /* \"contracts/Marketplace.sol\":2612:2642  users[msg.sender].isDataSeller */\n      0x02\n      add\n      0x00\n      swap1\n      sload\n      swap1\n      0x0100\n      exp\n      swap1\n      div\n      0xff\n      and\n        /* \"contracts/Marketplace.sol\":2591:2717  require(... */\n      tag_155\n      jumpi\n      mload(0x40)\n      0x08c379a000000000000000000000000000000000000000000000000000000000\n      dup2\n      mstore\n      0x04\n      add\n      tag_156\n      swap1\n      tag_157\n      jump\t// in\n    tag_156:\n      mload(0x40)\n      dup1\n      swap2\n      sub\n      swap1\n      revert\n    tag_155:\n        /* \"contracts/Marketplace.sol\":2736:2749  reportedUsers */\n      0x00\n        /* \"contracts/Marketplace.sol\":2736:2761  reportedUsers[msg.sender] */\n      dup1\n        /* \"contracts/Marketplace.sol\":2750:2760  msg.sender */\n      caller\n        /* \"contracts/Marketplace.sol\":2736:2761  reportedUsers[msg.sender] */\n      0xffffffffffffffffffffffffffffffffffffffff\n      and\n      0xffffffffffffffffffffffffffffffffffffffff\n      and\n      dup2\n      mstore\n      0x20\n      add\n      swap1\n      dup2\n      mstore\n      0x20\n      add\n      0x00\n      keccak256\n        /* \"contracts/Marketplace.sol\":2736:2770  reportedUsers[msg.sender].isBanned */\n      0x01\n      add\n      0x00\n      swap1\n      sload\n      swap1\n      0x0100\n      exp\n      swap1\n      div\n      0xff\n      and\n        /* \"contracts/Marketplace.sol\":2735:2770  !reportedUsers[msg.sender].isBanned */\n      iszero\n        /* \"contracts/Marketplace.sol\":2727:2789  require(!reportedUsers[msg.sender].isBanned, \"User is banned\") */\n      tag_158\n      jumpi\n      mload(0x40)\n      0x08c379a000000000000000000000000000000000000000000000000000000000\n      dup2\n      mstore\n      0x04\n      add\n      tag_159\n      swap1\n      tag_160\n      jump\t// in\n    tag_159:\n      mload(0x40)\n      dup1\n      swap2\n      sub\n      swap1\n      revert\n    tag_158:\n        /* \"contracts/Marketplace.sol\":2855:2856  0 */\n      0x00\n        /* \"contracts/Marketplace.sol\":2821:2840  dataHashToDataSetId */\n      0x03\n        /* \"contracts/Marketplace.sol\":2821:2851  dataHashToDataSetId[_dataHash] */\n      0x00\n        /* \"contracts/Marketplace.sol\":2841:2850  _dataHash */\n      dup6\n        /* \"contracts/Marketplace.sol\":2821:2851  dataHashToDataSetId[_dataHash] */\n      dup2\n      mstore\n      0x20\n      add\n      swap1\n      dup2\n      mstore\n      0x20\n      add\n      0x00\n      keccak256\n      sload\n        /* \"contracts/Marketplace.sol\":2821:2856  dataHashToDataSetId[_dataHash] == 0 */\n      eq\n        /* \"contracts/Marketplace.sol\":2800:2924  require(... */\n      tag_161\n      jumpi\n      mload(0x40)\n      0x08c379a000000000000000000000000000000000000000000000000000000000\n      dup2\n      mstore\n      0x04\n      add\n      tag_162\n      swap1\n      tag_163\n      jump\t// in\n    tag_162:\n      mload(0x40)\n      dup1\n      swap2\n      sub\n      swap1\n      revert\n    tag_161:\n        /* \"contracts/Marketplace.sol\":2960:3170  DataSet(... */\n      mload(0x40)\n      dup1\n      0xe0\n      add\n      0x40\n      mstore\n      dup1\n        /* \"contracts/Marketplace.sol\":2981:2986  _name */\n      dup7\n        /* \"contracts/Marketplace.sol\":2960:3170  DataSet(... */\n      dup2\n      mstore\n      0x20\n      add\n        /* \"contracts/Marketplace.sol\":3000:3012  _description */\n      dup6\n        /* \"contracts/Marketplace.sol\":2960:3170  DataSet(... */\n      dup2\n      mstore\n      0x20\n      add\n        /* \"contracts/Marketplace.sol\":3026:3035  _dataHash */\n      dup5\n        /* \"contracts/Marketplace.sol\":2960:3170  DataSet(... */\n      dup2\n      mstore\n      0x20\n      add\n        /* \"contracts/Marketplace.sol\":3049:3055  _price */\n      dup4\n        /* \"contracts/Marketplace.sol\":2960:3170  DataSet(... */\n      dup2\n      mstore\n      0x20\n      add\n        /* \"contracts/Marketplace.sol\":3069:3081  _isEncrypted */\n      dup3\n        /* \"contracts/Marketplace.sol\":2960:3170  DataSet(... */\n      iszero\n      iszero\n      dup2\n      mstore\n      0x20\n      add\n        /* \"contracts/Marketplace.sol\":3103:3113  msg.sender */\n      caller\n        /* \"contracts/Marketplace.sol\":2960:3170  DataSet(... */\n      0xffffffffffffffffffffffffffffffffffffffff\n      and\n      dup2\n      mstore\n      0x20\n      add\n        /* \"contracts/Marketplace.sol\":3128:3129  0 */\n      0x00\n        /* \"contracts/Marketplace.sol\":2960:3170  DataSet(... */\n      dup2\n      mstore\n      pop\n        /* \"contracts/Marketplace.sol\":2935:2943  dataSets */\n      0x02\n        /* \"contracts/Marketplace.sol\":2935:2957  dataSets[dataSetCount] */\n      0x00\n        /* \"contracts/Marketplace.sol\":2944:2956  dataSetCount */\n      sload(0x05)\n        /* \"contracts/Marketplace.sol\":2935:2957  dataSets[dataSetCount] */\n      dup2\n      mstore\n      0x20\n      add\n      swap1\n      dup2\n      mstore\n      0x20\n      add\n      0x00\n      keccak256\n        /* \"contracts/Marketplace.sol\":2935:3170  dataSets[dataSetCount] = DataSet(... */\n      0x00\n      dup3\n      add\n      mload\n      dup2\n      0x00\n      add\n      swap1\n      dup2\n      tag_164\n      swap2\n      swap1\n      tag_165\n      jump\t// in\n    tag_164:\n      pop\n      0x20\n      dup3\n      add\n      mload\n      dup2\n      0x01\n      add\n      swap1\n      dup2\n      tag_166\n      swap2\n      swap1\n      tag_165\n      jump\t// in\n    tag_166:\n      pop\n      0x40\n      dup3\n      add\n      mload\n      dup2\n      0x02\n      add\n      sstore\n      0x60\n      dup3\n      add\n      mload\n      dup2\n      0x03\n      add\n      sstore\n      0x80\n      dup3\n      add\n      mload\n      dup2\n      0x04\n      add\n      exp(0x0100, 0x00)\n      dup2\n      sload\n      dup2\n      0xff\n      mul\n      not\n      and\n      swap1\n      dup4\n      iszero\n      iszero\n      mul\n      or\n      swap1\n      sstore\n      pop\n      0xa0\n      dup3\n      add\n      mload\n      dup2\n      0x04\n      add\n      exp(0x0100, 0x01)\n      dup2\n      sload\n      dup2\n      0xffffffffffffffffffffffffffffffffffffffff\n      mul\n      not\n      and\n      swap1\n      dup4\n      0xffffffffffffffffffffffffffffffffffffffff\n      and\n      mul\n      or\n      swap1\n      sstore\n      pop\n      0xc0\n      dup3\n      add\n      mload\n      dup2\n      0x05\n      add\n      sstore\n      swap1\n      pop\n      pop\n        /* \"contracts/Marketplace.sol\":3213:3225  dataSetCount */\n      sload(0x05)\n        /* \"contracts/Marketplace.sol\":3180:3199  dataHashToDataSetId */\n      0x03\n        /* \"contracts/Marketplace.sol\":3180:3210  dataHashToDataSetId[_dataHash] */\n      0x00\n        /* \"contracts/Marketplace.sol\":3200:3209  _dataHash */\n      dup6\n        /* \"contracts/Marketplace.sol\":3180:3210  dataHashToDataSetId[_dataHash] */\n      dup2\n      mstore\n      0x20\n      add\n      swap1\n      dup2\n      mstore\n      0x20\n      add\n      0x00\n      keccak256\n        /* \"contracts/Marketplace.sol\":3180:3225  dataHashToDataSetId[_dataHash] = dataSetCount */\n      dup2\n      swap1\n      sstore\n      pop\n        /* \"contracts/Marketplace.sol\":3286:3296  msg.sender */\n      caller\n        /* \"contracts/Marketplace.sol\":3241:3297  DataSetUploaded(dataSetCount, _name, _price, msg.sender) */\n      0xffffffffffffffffffffffffffffffffffffffff\n      and\n        /* \"contracts/Marketplace.sol\":3257:3269  dataSetCount */\n      sload(0x05)\n        /* \"contracts/Marketplace.sol\":3241:3297  DataSetUploaded(dataSetCount, _name, _price, msg.sender) */\n      0xa8e21f9641ee0a4b37add0642221f97ed1accf45d08ad495fac8fe05d90b9286\n        /* \"contracts/Marketplace.sol\":3271:3276  _name */\n      dup8\n        /* \"contracts/Marketplace.sol\":3278:3284  _price */\n      dup6\n        /* \"contracts/Marketplace.sol\":3241:3297  DataSetUploaded(dataSetCount, _name, _price, msg.sender) */\n      mload(0x40)\n      tag_167\n      swap3\n      swap2\n      swap1\n      tag_168\n      jump\t// in\n    tag_167:\n      mload(0x40)\n      dup1\n      swap2\n      sub\n      swap1\n      log3\n        /* \"contracts/Marketplace.sol\":3307:3319  dataSetCount */\n      0x05\n      0x00\n        /* \"contracts/Marketplace.sol\":3307:3321  dataSetCount++ */\n      dup2\n      sload\n      dup1\n      swap3\n      swap2\n      swap1\n      tag_169\n      swap1\n      tag_140\n      jump\t// in\n    tag_169:\n      swap2\n      swap1\n      pop\n      sstore\n      pop\n        /* \"contracts/Marketplace.sol\":2402:3328  function uploadDataSet(... */\n      pop\n      pop\n      pop\n      pop\n      pop\n      jump\t// out\n        /* \"contracts/Marketplace.sol\":1063:1090  uint256 public dataSetCount */\n    tag_66:\n      sload(0x05)\n      dup2\n      jump\t// out\n        /* \"contracts/Marketplace.sol\":5037:5290  function reportUser(address _user) public {... */\n    tag_71:\n        /* \"contracts/Marketplace.sol\":5106:5116  msg.sender */\n      caller\n        /* \"contracts/Marketplace.sol\":5097:5116  _user != msg.sender */\n      0xffffffffffffffffffffffffffffffffffffffff\n      and\n        /* \"contracts/Marketplace.sol\":5097:5102  _user */\n      dup2\n        /* \"contracts/Marketplace.sol\":5097:5116  _user != msg.sender */\n      0xffffffffffffffffffffffffffffffffffffffff\n      and\n      sub\n        /* \"contracts/Marketplace.sol\":5089:5143  require(_user != msg.sender, \"Cannot report yourself\") */\n      tag_171\n      jumpi\n      mload(0x40)\n      0x08c379a000000000000000000000000000000000000000000000000000000000\n      dup2\n      mstore\n      0x04\n      add\n      tag_172\n      swap1\n      tag_173\n      jump\t// in\n    tag_172:\n      mload(0x40)\n      dup1\n      swap2\n      sub\n      swap1\n      revert\n    tag_171:\n        /* \"contracts/Marketplace.sol\":5161:5166  users */\n      0x01\n        /* \"contracts/Marketplace.sol\":5161:5173  users[_user] */\n      0x00\n        /* \"contracts/Marketplace.sol\":5167:5172  _user */\n      dup3\n        /* \"contracts/Marketplace.sol\":5161:5173  users[_user] */\n      0xffffffffffffffffffffffffffffffffffffffff\n      and\n      0xffffffffffffffffffffffffffffffffffffffff\n      and\n      dup2\n      mstore\n      0x20\n      add\n      swap1\n      dup2\n      mstore\n      0x20\n      add\n      0x00\n      keccak256\n        /* \"contracts/Marketplace.sol\":5161:5186  users[_user].isDataSeller */\n      0x02\n      add\n      0x00\n      swap1\n      sload\n      swap1\n      0x0100\n      exp\n      swap1\n      div\n      0xff\n      and\n        /* \"contracts/Marketplace.sol\":5161:5214  users[_user].isDataSeller || users[_user].isDataBuyer */\n      dup1\n      tag_174\n      jumpi\n      pop\n        /* \"contracts/Marketplace.sol\":5190:5195  users */\n      0x01\n        /* \"contracts/Marketplace.sol\":5190:5202  users[_user] */\n      0x00\n        /* \"contracts/Marketplace.sol\":5196:5201  _user */\n      dup3\n        /* \"contracts/Marketplace.sol\":5190:5202  users[_user] */\n      0xffffffffffffffffffffffffffffffffffffffff\n      and\n      0xffffffffffffffffffffffffffffffffffffffff\n      and\n      dup2\n      mstore\n      0x20\n      add\n      swap1\n      dup2\n      mstore\n      0x20\n      add\n      0x00\n      keccak256\n        /* \"contracts/Marketplace.sol\":5190:5214  users[_user].isDataBuyer */\n      0x02\n      add\n      0x01\n      swap1\n      sload\n      swap1\n      0x0100\n      exp\n      swap1\n      div\n      0xff\n      and\n        /* \"contracts/Marketplace.sol\":5161:5214  users[_user].isDataSeller || users[_user].isDataBuyer */\n    tag_174:\n        /* \"contracts/Marketplace.sol\":5153:5238  require(users[_user].isDataSeller || users[_user].isDataBuyer, \"User not registered\") */\n      tag_175\n      jumpi\n      mload(0x40)\n      0x08c379a000000000000000000000000000000000000000000000000000000000\n      dup2\n      mstore\n      0x04\n      add\n      tag_176\n      swap1\n      tag_130\n      jump\t// in\n    tag_176:\n      mload(0x40)\n      dup1\n      swap2\n      sub\n      swap1\n      revert\n    tag_175:\n        /* \"contracts/Marketplace.sol\":5249:5262  reportedUsers */\n      0x00\n        /* \"contracts/Marketplace.sol\":5249:5269  reportedUsers[_user] */\n      dup1\n        /* \"contracts/Marketplace.sol\":5263:5268  _user */\n      dup3\n        /* \"contracts/Marketplace.sol\":5249:5269  reportedUsers[_user] */\n      0xffffffffffffffffffffffffffffffffffffffff\n      and\n      0xffffffffffffffffffffffffffffffffffffffff\n      and\n      dup2\n      mstore\n      0x20\n      add\n      swap1\n      dup2\n      mstore\n      0x20\n      add\n      0x00\n      keccak256\n        /* \"contracts/Marketplace.sol\":5249:5281  reportedUsers[_user].reportCount */\n      0x00\n      add\n      0x00\n        /* \"contracts/Marketplace.sol\":5249:5283  reportedUsers[_user].reportCount++ */\n      dup2\n      sload\n      dup1\n      swap3\n      swap2\n      swap1\n      tag_177\n      swap1\n      tag_140\n      jump\t// in\n    tag_177:\n      swap2\n      swap1\n      pop\n      sstore\n      pop\n        /* \"contracts/Marketplace.sol\":5037:5290  function reportUser(address _user) public {... */\n      pop\n      jump\t// out\n        /* \"contracts/Marketplace.sol\":1096:1132  address payable public platformOwner */\n    tag_74:\n      0x06\n      0x00\n      swap1\n      sload\n      swap1\n      0x0100\n      exp\n      swap1\n      div\n      0xffffffffffffffffffffffffffffffffffffffff\n      and\n      dup2\n      jump\t// out\n        /* \"contracts/Marketplace.sol\":1862:2396  function registerUser(... */\n    tag_81:\n        /* \"contracts/Marketplace.sol\":2043:2048  users */\n      0x01\n        /* \"contracts/Marketplace.sol\":2043:2060  users[msg.sender] */\n      0x00\n        /* \"contracts/Marketplace.sol\":2049:2059  msg.sender */\n      caller\n        /* \"contracts/Marketplace.sol\":2043:2060  users[msg.sender] */\n      0xffffffffffffffffffffffffffffffffffffffff\n      and\n      0xffffffffffffffffffffffffffffffffffffffff\n      and\n      dup2\n      mstore\n      0x20\n      add\n      swap1\n      dup2\n      mstore\n      0x20\n      add\n      0x00\n      keccak256\n        /* \"contracts/Marketplace.sol\":2043:2073  users[msg.sender].isDataSeller */\n      0x02\n      add\n      0x00\n      swap1\n      sload\n      swap1\n      0x0100\n      exp\n      swap1\n      div\n      0xff\n      and\n        /* \"contracts/Marketplace.sol\":2042:2073  !users[msg.sender].isDataSeller */\n      iszero\n        /* \"contracts/Marketplace.sol\":2042:2107  !users[msg.sender].isDataSeller && !users[msg.sender].isDataBuyer */\n      dup1\n      iszero\n      tag_179\n      jumpi\n      pop\n        /* \"contracts/Marketplace.sol\":2078:2083  users */\n      0x01\n        /* \"contracts/Marketplace.sol\":2078:2095  users[msg.sender] */\n      0x00\n        /* \"contracts/Marketplace.sol\":2084:2094  msg.sender */\n      caller\n        /* \"contracts/Marketplace.sol\":2078:2095  users[msg.sender] */\n      0xffffffffffffffffffffffffffffffffffffffff\n      and\n      0xffffffffffffffffffffffffffffffffffffffff\n      and\n      dup2\n      mstore\n      0x20\n      add\n      swap1\n      dup2\n      mstore\n      0x20\n      add\n      0x00\n      keccak256\n        /* \"contracts/Marketplace.sol\":2078:2107  users[msg.sender].isDataBuyer */\n      0x02\n      add\n      0x01\n      swap1\n      sload\n      swap1\n      0x0100\n      exp\n      swap1\n      div\n      0xff\n      and\n        /* \"contracts/Marketplace.sol\":2077:2107  !users[msg.sender].isDataBuyer */\n      iszero\n        /* \"contracts/Marketplace.sol\":2042:2107  !users[msg.sender].isDataSeller && !users[msg.sender].isDataBuyer */\n    tag_179:\n        /* \"contracts/Marketplace.sol\":2021:2156  require(... */\n      tag_180\n      jumpi\n      mload(0x40)\n      0x08c379a000000000000000000000000000000000000000000000000000000000\n      dup2\n      mstore\n      0x04\n      add\n      tag_181\n      swap1\n      tag_182\n      jump\t// in\n    tag_181:\n      mload(0x40)\n      dup1\n      swap2\n      sub\n      swap1\n      revert\n    tag_180:\n        /* \"contracts/Marketplace.sol\":2186:2234  User(_name, _email, _isDataSeller, _isDataBuyer) */\n      mload(0x40)\n      dup1\n      0x80\n      add\n      0x40\n      mstore\n      dup1\n        /* \"contracts/Marketplace.sol\":2191:2196  _name */\n      dup6\n        /* \"contracts/Marketplace.sol\":2186:2234  User(_name, _email, _isDataSeller, _isDataBuyer) */\n      dup2\n      mstore\n      0x20\n      add\n        /* \"contracts/Marketplace.sol\":2198:2204  _email */\n      dup5\n        /* \"contracts/Marketplace.sol\":2186:2234  User(_name, _email, _isDataSeller, _isDataBuyer) */\n      dup2\n      mstore\n      0x20\n      add\n        /* \"contracts/Marketplace.sol\":2206:2219  _isDataSeller */\n      dup4\n        /* \"contracts/Marketplace.sol\":2186:2234  User(_name, _email, _isDataSeller, _isDataBuyer) */\n      iszero\n      iszero\n      dup2\n      mstore\n      0x20\n      add\n        /* \"contracts/Marketplace.sol\":2221:2233  _isDataBuyer */\n      dup3\n        /* \"contracts/Marketplace.sol\":2186:2234  User(_name, _email, _isDataSeller, _isDataBuyer) */\n      iszero\n      iszero\n      dup2\n      mstore\n      pop\n        /* \"contracts/Marketplace.sol\":2166:2171  users */\n      0x01\n        /* \"contracts/Marketplace.sol\":2166:2183  users[msg.sender] */\n      0x00\n        /* \"contracts/Marketplace.sol\":2172:2182  msg.sender */\n      caller\n        /* \"contracts/Marketplace.sol\":2166:2183  users[msg.sender] */\n      0xffffffffffffffffffffffffffffffffffffffff\n      and\n      0xffffffffffffffffffffffffffffffffffffffff\n      and\n      dup2\n      mstore\n      0x20\n      add\n      swap1\n      dup2\n      mstore\n      0x20\n      add\n      0x00\n      keccak256\n        /* \"contracts/Marketplace.sol\":2166:2234  users[msg.sender] = User(_name, _email, _isDataSeller, _isDataBuyer) */\n      0x00\n      dup3\n      add\n      mload\n      dup2\n      0x00\n      add\n      swap1\n      dup2\n      tag_183\n      swap2\n      swap1\n      tag_165\n      jump\t// in\n    tag_183:\n      pop\n      0x20\n      dup3\n      add\n      mload\n      dup2\n      0x01\n      add\n      swap1\n      dup2\n      tag_184\n      swap2\n      swap1\n      tag_165\n      jump\t// in\n    tag_184:\n      pop\n      0x40\n      dup3\n      add\n      mload\n      dup2\n      0x02\n      add\n      exp(0x0100, 0x00)\n      dup2\n      sload\n      dup2\n      0xff\n      mul\n      not\n      and\n      swap1\n      dup4\n      iszero\n      iszero\n      mul\n      or\n      swap1\n      sstore\n      pop\n      0x60\n      dup3\n      add\n      mload\n      dup2\n      0x02\n      add\n      exp(0x0100, 0x01)\n      dup2\n      sload\n      dup2\n      0xff\n      mul\n      not\n      and\n      swap1\n      dup4\n      iszero\n      iszero\n      mul\n      or\n      swap1\n      sstore\n      pop\n      swap1\n      pop\n      pop\n        /* \"contracts/Marketplace.sol\":2277:2287  msg.sender */\n      caller\n        /* \"contracts/Marketplace.sol\":2249:2389  UserRegistered(... */\n      0xffffffffffffffffffffffffffffffffffffffff\n      and\n      0xb56f6343b750b88da4b33d9b5a10ab1313d0c619682bc36fdfbb8bdfb4789fcf\n        /* \"contracts/Marketplace.sol\":2301:2306  _name */\n      dup6\n        /* \"contracts/Marketplace.sol\":2320:2326  _email */\n      dup6\n        /* \"contracts/Marketplace.sol\":2340:2353  _isDataSeller */\n      dup6\n        /* \"contracts/Marketplace.sol\":2367:2379  _isDataBuyer */\n      dup6\n        /* \"contracts/Marketplace.sol\":2249:2389  UserRegistered(... */\n      mload(0x40)\n      tag_185\n      swap5\n      swap4\n      swap3\n      swap2\n      swap1\n      tag_101\n      jump\t// in\n    tag_185:\n      mload(0x40)\n      dup1\n      swap2\n      sub\n      swap1\n      log2\n        /* \"contracts/Marketplace.sol\":1862:2396  function registerUser(... */\n      pop\n      pop\n      pop\n      pop\n      jump\t// out\n        /* \"contracts/Marketplace.sol\":785:838  mapping(address => ReportedUser) public reportedUsers */\n    tag_85:\n      mstore(0x20, 0x00)\n      dup1\n      0x00\n      mstore\n      keccak256(0x00, 0x40)\n      0x00\n      swap2\n      pop\n      swap1\n      pop\n      dup1\n      0x00\n      add\n      sload\n      swap1\n      dup1\n      0x01\n      add\n      0x00\n      swap1\n      sload\n      swap1\n      0x0100\n      exp\n      swap1\n      div\n      0xff\n      and\n      swap1\n      pop\n      dup3\n      jump\t// out\n        /* \"contracts/Marketplace.sol\":6355:6905  function getReportedUsers() public view returns (address[] memory) {... */\n    tag_90:\n        /* \"contracts/Marketplace.sol\":6404:6420  address[] memory */\n      0x60\n        /* \"contracts/Marketplace.sol\":6454:6467  platformOwner */\n      0x06\n      0x00\n      swap1\n      sload\n      swap1\n      0x0100\n      exp\n      swap1\n      div\n      0xffffffffffffffffffffffffffffffffffffffff\n      and\n        /* \"contracts/Marketplace.sol\":6440:6467  msg.sender == platformOwner */\n      0xffffffffffffffffffffffffffffffffffffffff\n      and\n        /* \"contracts/Marketplace.sol\":6440:6450  msg.sender */\n      caller\n        /* \"contracts/Marketplace.sol\":6440:6467  msg.sender == platformOwner */\n      0xffffffffffffffffffffffffffffffffffffffff\n      and\n      eq\n        /* \"contracts/Marketplace.sol\":6432:6517  require(msg.sender == platformOwner, \"Only platform owner can access reported users\") */\n      tag_187\n      jumpi\n      mload(0x40)\n      0x08c379a000000000000000000000000000000000000000000000000000000000\n      dup2\n      mstore\n      0x04\n      add\n      tag_188\n      swap1\n      tag_189\n      jump\t// in\n    tag_188:\n      mload(0x40)\n      dup1\n      swap2\n      sub\n      swap1\n      revert\n    tag_187:\n        /* \"contracts/Marketplace.sol\":6527:6565  address[] memory reportedUserAddresses */\n      0x00\n        /* \"contracts/Marketplace.sol\":6582:6594  dataSetCount */\n      sload(0x05)\n        /* \"contracts/Marketplace.sol\":6568:6595  new address[](dataSetCount) */\n      0xffffffffffffffff\n      dup2\n      gt\n      iszero\n      tag_190\n      jumpi\n      tag_191\n      tag_192\n      jump\t// in\n    tag_191:\n    tag_190:\n      mload(0x40)\n      swap1\n      dup1\n      dup3\n      mstore\n      dup1\n      0x20\n      mul\n      0x20\n      add\n      dup3\n      add\n      0x40\n      mstore\n      dup1\n      iszero\n      tag_193\n      jumpi\n      dup2\n      0x20\n      add\n      0x20\n      dup3\n      mul\n      dup1\n      calldatasize\n      dup4\n      calldatacopy\n      dup1\n      dup3\n      add\n      swap2\n      pop\n      pop\n      swap1\n      pop\n    tag_193:\n      pop\n        /* \"contracts/Marketplace.sol\":6527:6595  address[] memory reportedUserAddresses = new address[](dataSetCount) */\n      swap1\n      pop\n        /* \"contracts/Marketplace.sol\":6605:6618  uint256 index */\n      0x00\n        /* \"contracts/Marketplace.sol\":6637:6646  uint256 i */\n      dup1\n        /* \"contracts/Marketplace.sol\":6632:6861  for (uint256 i = 0; i < dataSetCount; i++) {... */\n    tag_194:\n        /* \"contracts/Marketplace.sol\":6656:6668  dataSetCount */\n      sload(0x05)\n        /* \"contracts/Marketplace.sol\":6652:6653  i */\n      dup2\n        /* \"contracts/Marketplace.sol\":6652:6668  i < dataSetCount */\n      lt\n        /* \"contracts/Marketplace.sol\":6632:6861  for (uint256 i = 0; i < dataSetCount; i++) {... */\n      iszero\n      tag_195\n      jumpi\n        /* \"contracts/Marketplace.sol\":6741:6742  0 */\n      0x00\n        /* \"contracts/Marketplace.sol\":6693:6706  reportedUsers */\n      dup1\n        /* \"contracts/Marketplace.sol\":6693:6726  reportedUsers[dataSets[i].seller] */\n      0x00\n        /* \"contracts/Marketplace.sol\":6707:6715  dataSets */\n      0x02\n        /* \"contracts/Marketplace.sol\":6707:6718  dataSets[i] */\n      0x00\n        /* \"contracts/Marketplace.sol\":6716:6717  i */\n      dup6\n        /* \"contracts/Marketplace.sol\":6707:6718  dataSets[i] */\n      dup2\n      mstore\n      0x20\n      add\n      swap1\n      dup2\n      mstore\n      0x20\n      add\n      0x00\n      keccak256\n        /* \"contracts/Marketplace.sol\":6707:6725  dataSets[i].seller */\n      0x04\n      add\n      0x01\n      swap1\n      sload\n      swap1\n      0x0100\n      exp\n      swap1\n      div\n      0xffffffffffffffffffffffffffffffffffffffff\n      and\n        /* \"contracts/Marketplace.sol\":6693:6726  reportedUsers[dataSets[i].seller] */\n      0xffffffffffffffffffffffffffffffffffffffff\n      and\n      0xffffffffffffffffffffffffffffffffffffffff\n      and\n      dup2\n      mstore\n      0x20\n      add\n      swap1\n      dup2\n      mstore\n      0x20\n      add\n      0x00\n      keccak256\n        /* \"contracts/Marketplace.sol\":6693:6738  reportedUsers[dataSets[i].seller].reportCount */\n      0x00\n      add\n      sload\n        /* \"contracts/Marketplace.sol\":6693:6742  reportedUsers[dataSets[i].seller].reportCount > 0 */\n      gt\n        /* \"contracts/Marketplace.sol\":6689:6851  if (reportedUsers[dataSets[i].seller].reportCount > 0) {... */\n      iszero\n      tag_197\n      jumpi\n        /* \"contracts/Marketplace.sol\":6793:6801  dataSets */\n      0x02\n        /* \"contracts/Marketplace.sol\":6793:6804  dataSets[i] */\n      0x00\n        /* \"contracts/Marketplace.sol\":6802:6803  i */\n      dup3\n        /* \"contracts/Marketplace.sol\":6793:6804  dataSets[i] */\n      dup2\n      mstore\n      0x20\n      add\n      swap1\n      dup2\n      mstore\n      0x20\n      add\n      0x00\n      keccak256\n        /* \"contracts/Marketplace.sol\":6793:6811  dataSets[i].seller */\n      0x04\n      add\n      0x01\n      swap1\n      sload\n      swap1\n      0x0100\n      exp\n      swap1\n      div\n      0xffffffffffffffffffffffffffffffffffffffff\n      and\n        /* \"contracts/Marketplace.sol\":6762:6783  reportedUserAddresses */\n      dup4\n        /* \"contracts/Marketplace.sol\":6784:6789  index */\n      dup4\n        /* \"contracts/Marketplace.sol\":6762:6790  reportedUserAddresses[index] */\n      dup2\n      mload\n      dup2\n      lt\n      tag_198\n      jumpi\n      tag_199\n      tag_200\n      jump\t// in\n    tag_199:\n    tag_198:\n      0x20\n      mul\n      0x20\n      add\n      add\n        /* \"contracts/Marketplace.sol\":6762:6811  reportedUserAddresses[index] = dataSets[i].seller */\n      swap1\n      0xffffffffffffffffffffffffffffffffffffffff\n      and\n      swap1\n      dup2\n      0xffffffffffffffffffffffffffffffffffffffff\n      and\n      dup2\n      mstore\n      pop\n      pop\n        /* \"contracts/Marketplace.sol\":6829:6836  index++ */\n      dup2\n      dup1\n      tag_201\n      swap1\n      tag_140\n      jump\t// in\n    tag_201:\n      swap3\n      pop\n      pop\n        /* \"contracts/Marketplace.sol\":6689:6851  if (reportedUsers[dataSets[i].seller].reportCount > 0) {... */\n    tag_197:\n        /* \"contracts/Marketplace.sol\":6670:6673  i++ */\n      dup1\n      dup1\n      0x01\n      add\n      swap2\n      pop\n      pop\n        /* \"contracts/Marketplace.sol\":6632:6861  for (uint256 i = 0; i < dataSetCount; i++) {... */\n      jump(tag_194)\n    tag_195:\n      pop\n        /* \"contracts/Marketplace.sol\":6877:6898  reportedUserAddresses */\n      dup2\n        /* \"contracts/Marketplace.sol\":6870:6898  return reportedUserAddresses */\n      swap3\n      pop\n      pop\n      pop\n        /* \"contracts/Marketplace.sol\":6355:6905  function getReportedUsers() public view returns (address[] memory) {... */\n      swap1\n      jump\t// out\n        /* \"contracts/Marketplace.sol\":3334:4190  function purchaseDataSet(uint256 _dataSetId) public payable {... */\n    tag_95:\n        /* \"contracts/Marketplace.sol\":3425:3430  users */\n      0x01\n        /* \"contracts/Marketplace.sol\":3425:3442  users[msg.sender] */\n      0x00\n        /* \"contracts/Marketplace.sol\":3431:3441  msg.sender */\n      caller\n        /* \"contracts/Marketplace.sol\":3425:3442  users[msg.sender] */\n      0xffffffffffffffffffffffffffffffffffffffff\n      and\n      0xffffffffffffffffffffffffffffffffffffffff\n      and\n      dup2\n      mstore\n      0x20\n      add\n      swap1\n      dup2\n      mstore\n      0x20\n      add\n      0x00\n      keccak256\n        /* \"contracts/Marketplace.sol\":3425:3454  users[msg.sender].isDataBuyer */\n      0x02\n      add\n      0x01\n      swap1\n      sload\n      swap1\n      0x0100\n      exp\n      swap1\n      div\n      0xff\n      and\n        /* \"contracts/Marketplace.sol\":3404:3530  require(... */\n      tag_203\n      jumpi\n      mload(0x40)\n      0x08c379a000000000000000000000000000000000000000000000000000000000\n      dup2\n      mstore\n      0x04\n      add\n      tag_204\n      swap1\n      tag_205\n      jump\t// in\n    tag_204:\n      mload(0x40)\n      dup1\n      swap2\n      sub\n      swap1\n      revert\n    tag_203:\n        /* \"contracts/Marketplace.sol\":3549:3562  reportedUsers */\n      0x00\n        /* \"contracts/Marketplace.sol\":3549:3574  reportedUsers[msg.sender] */\n      dup1\n        /* \"contracts/Marketplace.sol\":3563:3573  msg.sender */\n      caller\n        /* \"contracts/Marketplace.sol\":3549:3574  reportedUsers[msg.sender] */\n      0xffffffffffffffffffffffffffffffffffffffff\n      and\n      0xffffffffffffffffffffffffffffffffffffffff\n      and\n      dup2\n      mstore\n      0x20\n      add\n      swap1\n      dup2\n      mstore\n      0x20\n      add\n      0x00\n      keccak256\n        /* \"contracts/Marketplace.sol\":3549:3583  reportedUsers[msg.sender].isBanned */\n      0x01\n      add\n      0x00\n      swap1\n      sload\n      swap1\n      0x0100\n      exp\n      swap1\n      div\n      0xff\n      and\n        /* \"contracts/Marketplace.sol\":3548:3583  !reportedUsers[msg.sender].isBanned */\n      iszero\n        /* \"contracts/Marketplace.sol\":3540:3602  require(!reportedUsers[msg.sender].isBanned, \"User is banned\") */\n      tag_206\n      jumpi\n      mload(0x40)\n      0x08c379a000000000000000000000000000000000000000000000000000000000\n      dup2\n      mstore\n      0x04\n      add\n      tag_207\n      swap1\n      tag_160\n      jump\t// in\n    tag_207:\n      mload(0x40)\n      dup1\n      swap2\n      sub\n      swap1\n      revert\n    tag_206:\n        /* \"contracts/Marketplace.sol\":3613:3636  DataSet storage dataSet */\n      0x00\n        /* \"contracts/Marketplace.sol\":3639:3647  dataSets */\n      0x02\n        /* \"contracts/Marketplace.sol\":3639:3659  dataSets[_dataSetId] */\n      0x00\n        /* \"contracts/Marketplace.sol\":3648:3658  _dataSetId */\n      dup4\n        /* \"contracts/Marketplace.sol\":3639:3659  dataSets[_dataSetId] */\n      dup2\n      mstore\n      0x20\n      add\n      swap1\n      dup2\n      mstore\n      0x20\n      add\n      0x00\n      keccak256\n        /* \"contracts/Marketplace.sol\":3613:3659  DataSet storage dataSet = dataSets[_dataSetId] */\n      swap1\n      pop\n        /* \"contracts/Marketplace.sol\":3703:3704  0 */\n      0x00\n        /* \"contracts/Marketplace.sol\":3677:3705  dataSet.seller != address(0) */\n      0xffffffffffffffffffffffffffffffffffffffff\n      and\n        /* \"contracts/Marketplace.sol\":3677:3684  dataSet */\n      dup2\n        /* \"contracts/Marketplace.sol\":3677:3691  dataSet.seller */\n      0x04\n      add\n      0x01\n      swap1\n      sload\n      swap1\n      0x0100\n      exp\n      swap1\n      div\n      0xffffffffffffffffffffffffffffffffffffffff\n      and\n        /* \"contracts/Marketplace.sol\":3677:3705  dataSet.seller != address(0) */\n      0xffffffffffffffffffffffffffffffffffffffff\n      and\n      sub\n        /* \"contracts/Marketplace.sol\":3669:3729  require(dataSet.seller != address(0), \"Invalid data set ID\") */\n      tag_208\n      jumpi\n      mload(0x40)\n      0x08c379a000000000000000000000000000000000000000000000000000000000\n      dup2\n      mstore\n      0x04\n      add\n      tag_209\n      swap1\n      tag_210\n      jump\t// in\n    tag_209:\n      mload(0x40)\n      dup1\n      swap2\n      sub\n      swap1\n      revert\n    tag_208:\n        /* \"contracts/Marketplace.sol\":3761:3768  dataSet */\n      dup1\n        /* \"contracts/Marketplace.sol\":3761:3774  dataSet.price */\n      0x03\n      add\n      sload\n        /* \"contracts/Marketplace.sol\":3748:3757  msg.value */\n      callvalue\n        /* \"contracts/Marketplace.sol\":3748:3774  msg.value >= dataSet.price */\n      lt\n      iszero\n        /* \"contracts/Marketplace.sol\":3740:3803  require(msg.value >= dataSet.price, \"Incorrect payment amount\") */\n      tag_211\n      jumpi\n      mload(0x40)\n      0x08c379a000000000000000000000000000000000000000000000000000000000\n      dup2\n      mstore\n      0x04\n      add\n      tag_212\n      swap1\n      tag_213\n      jump\t// in\n    tag_212:\n      mload(0x40)\n      dup1\n      swap2\n      sub\n      swap1\n      revert\n    tag_211:\n        /* \"contracts/Marketplace.sol\":3814:3833  uint256 platformFee */\n      0x00\n        /* \"contracts/Marketplace.sol\":3880:3883  100 */\n      0x64\n        /* \"contracts/Marketplace.sol\":1188:1191  100 */\n      dup1\n        /* \"contracts/Marketplace.sol\":3837:3844  dataSet */\n      dup4\n        /* \"contracts/Marketplace.sol\":3837:3850  dataSet.price */\n      0x03\n      add\n      sload\n        /* \"contracts/Marketplace.sol\":3837:3876  dataSet.price * PLATFORM_FEE_PERCENTAGE */\n      tag_214\n      swap2\n      swap1\n      tag_215\n      jump\t// in\n    tag_214:\n        /* \"contracts/Marketplace.sol\":3836:3883  (dataSet.price * PLATFORM_FEE_PERCENTAGE) / 100 */\n      tag_216\n      swap2\n      swap1\n      tag_217\n      jump\t// in\n    tag_216:\n        /* \"contracts/Marketplace.sol\":3814:3883  uint256 platformFee = (dataSet.price * PLATFORM_FEE_PERCENTAGE) / 100 */\n      swap1\n      pop\n        /* \"contracts/Marketplace.sol\":3893:3913  uint256 sellerAmount */\n      0x00\n        /* \"contracts/Marketplace.sol\":3932:3943  platformFee */\n      dup2\n        /* \"contracts/Marketplace.sol\":3916:3923  dataSet */\n      dup4\n        /* \"contracts/Marketplace.sol\":3916:3929  dataSet.price */\n      0x03\n      add\n      sload\n        /* \"contracts/Marketplace.sol\":3916:3943  dataSet.price - platformFee */\n      tag_218\n      swap2\n      swap1\n      tag_219\n      jump\t// in\n    tag_218:\n        /* \"contracts/Marketplace.sol\":3893:3943  uint256 sellerAmount = dataSet.price - platformFee */\n      swap1\n      pop\n        /* \"contracts/Marketplace.sol\":3954:3967  platformOwner */\n      0x06\n      0x00\n      swap1\n      sload\n      swap1\n      0x0100\n      exp\n      swap1\n      div\n      0xffffffffffffffffffffffffffffffffffffffff\n      and\n        /* \"contracts/Marketplace.sol\":3954:3976  platformOwner.transfer */\n      0xffffffffffffffffffffffffffffffffffffffff\n      and\n        /* \"contracts/Marketplace.sol\":3954:3989  platformOwner.transfer(platformFee) */\n      0x08fc\n        /* \"contracts/Marketplace.sol\":3977:3988  platformFee */\n      dup4\n        /* \"contracts/Marketplace.sol\":3954:3989  platformOwner.transfer(platformFee) */\n      swap1\n      dup2\n      iszero\n      mul\n      swap1\n      mload(0x40)\n      0x00\n      mload(0x40)\n      dup1\n      dup4\n      sub\n      dup2\n      dup6\n      dup9\n      dup9\n      call\n      swap4\n      pop\n      pop\n      pop\n      pop\n      iszero\n      dup1\n      iszero\n      tag_221\n      jumpi\n      returndatasize\n      0x00\n      dup1\n      returndatacopy\n      revert(0x00, returndatasize)\n    tag_221:\n      pop\n        /* \"contracts/Marketplace.sol\":3999:4006  dataSet */\n      dup3\n        /* \"contracts/Marketplace.sol\":3999:4013  dataSet.seller */\n      0x04\n      add\n      0x01\n      swap1\n      sload\n      swap1\n      0x0100\n      exp\n      swap1\n      div\n      0xffffffffffffffffffffffffffffffffffffffff\n      and\n        /* \"contracts/Marketplace.sol\":3999:4022  dataSet.seller.transfer */\n      0xffffffffffffffffffffffffffffffffffffffff\n      and\n        /* \"contracts/Marketplace.sol\":3999:4036  dataSet.seller.transfer(sellerAmount) */\n      0x08fc\n        /* \"contracts/Marketplace.sol\":4023:4035  sellerAmount */\n      dup3\n        /* \"contracts/Marketplace.sol\":3999:4036  dataSet.seller.transfer(sellerAmount) */\n      swap1\n      dup2\n      iszero\n      mul\n      swap1\n      mload(0x40)\n      0x00\n      mload(0x40)\n      dup1\n      dup4\n      sub\n      dup2\n      dup6\n      dup9\n      dup9\n      call\n      swap4\n      pop\n      pop\n      pop\n      pop\n      iszero\n      dup1\n      iszero\n      tag_223\n      jumpi\n      returndatasize\n      0x00\n      dup1\n      returndatacopy\n      revert(0x00, returndatasize)\n    tag_223:\n      pop\n        /* \"contracts/Marketplace.sol\":4106:4116  msg.sender */\n      caller\n        /* \"contracts/Marketplace.sol\":4052:4183  DataSetPurchased(... */\n      0xffffffffffffffffffffffffffffffffffffffff\n      and\n        /* \"contracts/Marketplace.sol\":4082:4092  _dataSetId */\n      dup5\n        /* \"contracts/Marketplace.sol\":4052:4183  DataSetPurchased(... */\n      0xfb08275d0d7cf05c65ce58a6d8d7f027f5bd3e93df2fd4962b96e26ec1939ea0\n        /* \"contracts/Marketplace.sol\":4130:4137  dataSet */\n      dup6\n        /* \"contracts/Marketplace.sol\":4130:4143  dataSet.price */\n      0x03\n      add\n      sload\n        /* \"contracts/Marketplace.sol\":4157:4164  dataSet */\n      dup7\n        /* \"contracts/Marketplace.sol\":4157:4173  dataSet.dataHash */\n      0x02\n      add\n      sload\n        /* \"contracts/Marketplace.sol\":4052:4183  DataSetPurchased(... */\n      mload(0x40)\n      tag_224\n      swap3\n      swap2\n      swap1\n      tag_225\n      jump\t// in\n    tag_224:\n      mload(0x40)\n      dup1\n      swap2\n      sub\n      swap1\n      log3\n        /* \"contracts/Marketplace.sol\":3394:4190  {... */\n      pop\n      pop\n      pop\n        /* \"contracts/Marketplace.sol\":3334:4190  function purchaseDataSet(uint256 _dataSetId) public payable {... */\n      pop\n      jump\t// out\n        /* \"contracts/Marketplace.sol\":844:881  mapping(address => User) public users */\n    tag_99:\n      mstore(0x20, 0x01)\n      dup1\n      0x00\n      mstore\n      keccak256(0x00, 0x40)\n      0x00\n      swap2\n      pop\n      swap1\n      pop\n      dup1\n      0x00\n      add\n      dup1\n      sload\n      tag_226\n      swap1\n      tag_144\n      jump\t// in\n    tag_226:\n      dup1\n      0x1f\n      add\n      0x20\n      dup1\n      swap2\n      div\n      mul\n      0x20\n      add\n      mload(0x40)\n      swap1\n      dup2\n      add\n      0x40\n      mstore\n      dup1\n      swap3\n      swap2\n      swap1\n      dup2\n      dup2\n      mstore\n      0x20\n      add\n      dup3\n      dup1\n      sload\n      tag_227\n      swap1\n      tag_144\n      jump\t// in\n    tag_227:\n      dup1\n      iszero\n      tag_228\n      jumpi\n      dup1\n      0x1f\n      lt\n      tag_229\n      jumpi\n      0x0100\n      dup1\n      dup4\n      sload\n      div\n      mul\n      dup4\n      mstore\n      swap2\n      0x20\n      add\n      swap2\n      jump(tag_228)\n    tag_229:\n      dup3\n      add\n      swap2\n      swap1\n      0x00\n      mstore\n      keccak256(0x00, 0x20)\n      swap1\n    tag_230:\n      dup2\n      sload\n      dup2\n      mstore\n      swap1\n      0x01\n      add\n      swap1\n      0x20\n      add\n      dup1\n      dup4\n      gt\n      tag_230\n      jumpi\n      dup3\n      swap1\n      sub\n      0x1f\n      and\n      dup3\n      add\n      swap2\n    tag_228:\n      pop\n      pop\n      pop\n      pop\n      pop\n      swap1\n      dup1\n      0x01\n      add\n      dup1\n      sload\n      tag_231\n      swap1\n      tag_144\n      jump\t// in\n    tag_231:\n      dup1\n      0x1f\n      add\n      0x20\n      dup1\n      swap2\n      div\n      mul\n      0x20\n      add\n      mload(0x40)\n      swap1\n      dup2\n      add\n      0x40\n      mstore\n      dup1\n      swap3\n      swap2\n      swap1\n      dup2\n      dup2\n      mstore\n      0x20\n      add\n      dup3\n      dup1\n      sload\n      tag_232\n      swap1\n      tag_144\n      jump\t// in\n    tag_232:\n      dup1\n      iszero\n      tag_233\n      jumpi\n      dup1\n      0x1f\n      lt\n      tag_234\n      jumpi\n      0x0100\n      dup1\n      dup4\n      sload\n      div\n      mul\n      dup4\n      mstore\n      swap2\n      0x20\n      add\n      swap2\n      jump(tag_233)\n    tag_234:\n      dup3\n      add\n      swap2\n      swap1\n      0x00\n      mstore\n      keccak256(0x00, 0x20)\n      swap1\n    tag_235:\n      dup2\n      sload\n      dup2\n      mstore\n      swap1\n      0x01\n      add\n      swap1\n      0x20\n      add\n      dup1\n      dup4\n      gt\n      tag_235\n      jumpi\n      dup3\n      swap1\n      sub\n      0x1f\n      and\n      dup3\n      add\n      swap2\n    tag_233:\n      pop\n      pop\n      pop\n      pop\n      pop\n      swap1\n      dup1\n      0x02\n      add\n      0x00\n      swap1\n      sload\n      swap1\n      0x0100\n      exp\n      swap1\n      div\n      0xff\n      and\n      swap1\n      dup1\n      0x02\n      add\n      0x01\n      swap1\n      sload\n      swap1\n      0x0100\n      exp\n      swap1\n      div\n      0xff\n      and\n      swap1\n      pop\n      dup5\n      jump\t// out\n        /* \"contracts/Marketplace.sol\":5296:5511  function reportDataSet(uint256 _dataSetId) public {... */\n    tag_105:\n        /* \"contracts/Marketplace.sol\":5356:5379  DataSet storage dataSet */\n      0x00\n        /* \"contracts/Marketplace.sol\":5382:5390  dataSets */\n      0x02\n        /* \"contracts/Marketplace.sol\":5382:5402  dataSets[_dataSetId] */\n      0x00\n        /* \"contracts/Marketplace.sol\":5391:5401  _dataSetId */\n      dup4\n        /* \"contracts/Marketplace.sol\":5382:5402  dataSets[_dataSetId] */\n      dup2\n      mstore\n      0x20\n      add\n      swap1\n      dup2\n      mstore\n      0x20\n      add\n      0x00\n      keccak256\n        /* \"contracts/Marketplace.sol\":5356:5402  DataSet storage dataSet = dataSets[_dataSetId] */\n      swap1\n      pop\n        /* \"contracts/Marketplace.sol\":5446:5447  0 */\n      0x00\n        /* \"contracts/Marketplace.sol\":5420:5448  dataSet.seller != address(0) */\n      0xffffffffffffffffffffffffffffffffffffffff\n      and\n        /* \"contracts/Marketplace.sol\":5420:5427  dataSet */\n      dup2\n        /* \"contracts/Marketplace.sol\":5420:5434  dataSet.seller */\n      0x04\n      add\n      0x01\n      swap1\n      sload\n      swap1\n      0x0100\n      exp\n      swap1\n      div\n      0xffffffffffffffffffffffffffffffffffffffff\n      and\n        /* \"contracts/Marketplace.sol\":5420:5448  dataSet.seller != address(0) */\n      0xffffffffffffffffffffffffffffffffffffffff\n      and\n      sub\n        /* \"contracts/Marketplace.sol\":5412:5472  require(dataSet.seller != address(0), \"Invalid data set ID\") */\n      tag_237\n      jumpi\n      mload(0x40)\n      0x08c379a000000000000000000000000000000000000000000000000000000000\n      dup2\n      mstore\n      0x04\n      add\n      tag_238\n      swap1\n      tag_210\n      jump\t// in\n    tag_238:\n      mload(0x40)\n      dup1\n      swap2\n      sub\n      swap1\n      revert\n    tag_237:\n        /* \"contracts/Marketplace.sol\":5483:5490  dataSet */\n      dup1\n        /* \"contracts/Marketplace.sol\":5483:5502  dataSet.reportCount */\n      0x05\n      add\n      0x00\n        /* \"contracts/Marketplace.sol\":5483:5504  dataSet.reportCount++ */\n      dup2\n      sload\n      dup1\n      swap3\n      swap2\n      swap1\n      tag_239\n      swap1\n      tag_140\n      jump\t// in\n    tag_239:\n      swap2\n      swap1\n      pop\n      sstore\n      pop\n        /* \"contracts/Marketplace.sol\":5346:5511  {... */\n      pop\n        /* \"contracts/Marketplace.sol\":5296:5511  function reportDataSet(uint256 _dataSetId) public {... */\n      pop\n      jump\t// out\n        /* \"contracts/Marketplace.sol\":5794:6349  function getDataSet(uint256 _dataSetId)... */\n    tag_109:\n        /* \"contracts/Marketplace.sol\":5892:5905  string memory */\n      0x60\n        /* \"contracts/Marketplace.sol\":5919:5932  string memory */\n      dup1\n        /* \"contracts/Marketplace.sol\":5946:5953  bytes32 */\n      0x00\n        /* \"contracts/Marketplace.sol\":5967:5974  uint256 */\n      dup1\n        /* \"contracts/Marketplace.sol\":5988:5992  bool */\n      0x00\n        /* \"contracts/Marketplace.sol\":6006:6013  address */\n      dup1\n        /* \"contracts/Marketplace.sol\":6027:6034  uint256 */\n      0x00\n        /* \"contracts/Marketplace.sol\":6059:6082  DataSet storage dataSet */\n      dup1\n        /* \"contracts/Marketplace.sol\":6085:6093  dataSets */\n      0x02\n        /* \"contracts/Marketplace.sol\":6085:6105  dataSets[_dataSetId] */\n      0x00\n        /* \"contracts/Marketplace.sol\":6094:6104  _dataSetId */\n      dup11\n        /* \"contracts/Marketplace.sol\":6085:6105  dataSets[_dataSetId] */\n      dup2\n      mstore\n      0x20\n      add\n      swap1\n      dup2\n      mstore\n      0x20\n      add\n      0x00\n      keccak256\n        /* \"contracts/Marketplace.sol\":6059:6105  DataSet storage dataSet = dataSets[_dataSetId] */\n      swap1\n      pop\n        /* \"contracts/Marketplace.sol\":6136:6143  dataSet */\n      dup1\n        /* \"contracts/Marketplace.sol\":6136:6148  dataSet.name */\n      0x00\n      add\n        /* \"contracts/Marketplace.sol\":6162:6169  dataSet */\n      dup2\n        /* \"contracts/Marketplace.sol\":6162:6181  dataSet.description */\n      0x01\n      add\n        /* \"contracts/Marketplace.sol\":6195:6202  dataSet */\n      dup3\n        /* \"contracts/Marketplace.sol\":6195:6211  dataSet.dataHash */\n      0x02\n      add\n      sload\n        /* \"contracts/Marketplace.sol\":6225:6232  dataSet */\n      dup4\n        /* \"contracts/Marketplace.sol\":6225:6238  dataSet.price */\n      0x03\n      add\n      sload\n        /* \"contracts/Marketplace.sol\":6252:6259  dataSet */\n      dup5\n        /* \"contracts/Marketplace.sol\":6252:6271  dataSet.isEncrypted */\n      0x04\n      add\n      0x00\n      swap1\n      sload\n      swap1\n      0x0100\n      exp\n      swap1\n      div\n      0xff\n      and\n        /* \"contracts/Marketplace.sol\":6285:6292  dataSet */\n      dup6\n        /* \"contracts/Marketplace.sol\":6285:6299  dataSet.seller */\n      0x04\n      add\n      0x01\n      swap1\n      sload\n      swap1\n      0x0100\n      exp\n      swap1\n      div\n      0xffffffffffffffffffffffffffffffffffffffff\n      and\n        /* \"contracts/Marketplace.sol\":6313:6320  dataSet */\n      dup7\n        /* \"contracts/Marketplace.sol\":6313:6332  dataSet.reportCount */\n      0x05\n      add\n      sload\n        /* \"contracts/Marketplace.sol\":6115:6342  return (... */\n      dup7\n      dup1\n      sload\n      tag_241\n      swap1\n      tag_144\n      jump\t// in\n    tag_241:\n      dup1\n      0x1f\n      add\n      0x20\n      dup1\n      swap2\n      div\n      mul\n      0x20\n      add\n      mload(0x40)\n      swap1\n      dup2\n      add\n      0x40\n      mstore\n      dup1\n      swap3\n      swap2\n      swap1\n      dup2\n      dup2\n      mstore\n      0x20\n      add\n      dup3\n      dup1\n      sload\n      tag_242\n      swap1\n      tag_144\n      jump\t// in\n    tag_242:\n      dup1\n      iszero\n      tag_243\n      jumpi\n      dup1\n      0x1f\n      lt\n      tag_244\n      jumpi\n      0x0100\n      dup1\n      dup4\n      sload\n      div\n      mul\n      dup4\n      mstore\n      swap2\n      0x20\n      add\n      swap2\n      jump(tag_243)\n    tag_244:\n      dup3\n      add\n      swap2\n      swap1\n      0x00\n      mstore\n      keccak256(0x00, 0x20)\n      swap1\n    tag_245:\n      dup2\n      sload\n      dup2\n      mstore\n      swap1\n      0x01\n      add\n      swap1\n      0x20\n      add\n      dup1\n      dup4\n      gt\n      tag_245\n      jumpi\n      dup3\n      swap1\n      sub\n      0x1f\n      and\n      dup3\n      add\n      swap2\n    tag_243:\n      pop\n      pop\n      pop\n      pop\n      pop\n      swap7\n      pop\n      dup6\n      dup1\n      sload\n      tag_246\n      swap1\n      tag_144\n      jump\t// in\n    tag_246:\n      dup1\n      0x1f\n      add\n      0x20\n      dup1\n      swap2\n      div\n      mul\n      0x20\n      add\n      mload(0x40)\n      swap1\n      dup2\n      add\n      0x40\n      mstore\n      dup1\n      swap3\n      swap2\n      swap1\n      dup2\n      dup2\n      mstore\n      0x20\n      add\n      dup3\n      dup1\n      sload\n      tag_247\n      swap1\n      tag_144\n      jump\t// in\n    tag_247:\n      dup1\n      iszero\n      tag_248\n      jumpi\n      dup1\n      0x1f\n      lt\n      tag_249\n      jumpi\n      0x0100\n      dup1\n      dup4\n      sload\n      div\n      mul\n      dup4\n      mstore\n      swap2\n      0x20\n      add\n      swap2\n      jump(tag_248)\n    tag_249:\n      dup3\n      add\n      swap2\n      swap1\n      0x00\n      mstore\n      keccak256(0x00, 0x20)\n      swap1\n    tag_250:\n      dup2\n      sload\n      dup2\n      mstore\n      swap1\n      0x01\n      add\n      swap1\n      0x20\n      add\n      dup1\n      dup4\n      gt\n      tag_250\n      jumpi\n      dup3\n      swap1\n      sub\n      0x1f\n      and\n      dup3\n      add\n      swap2\n    tag_248:\n      pop\n      pop\n      pop\n      pop\n      pop\n      swap6\n      pop\n      swap8\n      pop\n      swap8\n      pop\n      swap8\n      pop\n      swap8\n      pop\n      swap8\n      pop\n      swap8\n      pop\n      swap8\n      pop\n      pop\n        /* \"contracts/Marketplace.sol\":5794:6349  function getDataSet(uint256 _dataSetId)... */\n      swap2\n      swap4\n      swap6\n      swap8\n      swap1\n      swap3\n      swap5\n      swap7\n      pop\n      jump\t// out\n        /* \"contracts/Marketplace.sol\":4701:5031  function getSellerAverageRating(address _seller)... */\n    tag_115:\n        /* \"contracts/Marketplace.sol\":4795:4802  uint256 */\n      0x00\n        /* \"contracts/Marketplace.sol\":4818:4853  SellerReputation storage reputation */\n      dup1\n        /* \"contracts/Marketplace.sol\":4856:4873  sellerReputations */\n      0x04\n        /* \"contracts/Marketplace.sol\":4856:4882  sellerReputations[_seller] */\n      0x00\n        /* \"contracts/Marketplace.sol\":4874:4881  _seller */\n      dup5\n        /* \"contracts/Marketplace.sol\":4856:4882  sellerReputations[_seller] */\n      0xffffffffffffffffffffffffffffffffffffffff\n      and\n      0xffffffffffffffffffffffffffffffffffffffff\n      and\n      dup2\n      mstore\n      0x20\n      add\n      swap1\n      dup2\n      mstore\n      0x20\n      add\n      0x00\n      keccak256\n        /* \"contracts/Marketplace.sol\":4818:4882  SellerReputation storage reputation = sellerReputations[_seller] */\n      swap1\n      pop\n        /* \"contracts/Marketplace.sol\":4923:4924  0 */\n      0x00\n        /* \"contracts/Marketplace.sol\":4896:4906  reputation */\n      dup2\n        /* \"contracts/Marketplace.sol\":4896:4919  reputation.totalRatings */\n      0x00\n      add\n      sload\n        /* \"contracts/Marketplace.sol\":4896:4924  reputation.totalRatings == 0 */\n      sub\n        /* \"contracts/Marketplace.sol\":4892:4959  if (reputation.totalRatings == 0) {... */\n      tag_252\n      jumpi\n        /* \"contracts/Marketplace.sol\":4947:4948  0 */\n      0x00\n        /* \"contracts/Marketplace.sol\":4940:4948  return 0 */\n      swap2\n      pop\n      pop\n      jump(tag_251)\n        /* \"contracts/Marketplace.sol\":4892:4959  if (reputation.totalRatings == 0) {... */\n    tag_252:\n        /* \"contracts/Marketplace.sol\":5001:5011  reputation */\n      dup1\n        /* \"contracts/Marketplace.sol\":5001:5024  reputation.totalRatings */\n      0x00\n      add\n      sload\n        /* \"contracts/Marketplace.sol\":4975:4985  reputation */\n      dup2\n        /* \"contracts/Marketplace.sol\":4975:4998  reputation.sumOfRatings */\n      0x01\n      add\n      sload\n        /* \"contracts/Marketplace.sol\":4975:5024  reputation.sumOfRatings / reputation.totalRatings */\n      tag_253\n      swap2\n      swap1\n      tag_217\n      jump\t// in\n    tag_253:\n        /* \"contracts/Marketplace.sol\":4968:5024  return reputation.sumOfRatings / reputation.totalRatings */\n      swap2\n      pop\n      pop\n        /* \"contracts/Marketplace.sol\":4701:5031  function getSellerAverageRating(address _seller)... */\n    tag_251:\n      swap2\n      swap1\n      pop\n      jump\t// out\n        /* \"contracts/Marketplace.sol\":996:1057  mapping(address => SellerReputation) public sellerReputations */\n    tag_120:\n      mstore(0x20, 0x04)\n      dup1\n      0x00\n      mstore\n      keccak256(0x00, 0x40)\n      0x00\n      swap2\n      pop\n      swap1\n      pop\n      dup1\n      0x00\n      add\n      sload\n      swap1\n      dup1\n      0x01\n      add\n      sload\n      swap1\n      pop\n      dup3\n      jump\t// out\n        /* \"#utility.yul\":7:82   */\n    tag_254:\n        /* \"#utility.yul\":40:46   */\n      0x00\n        /* \"#utility.yul\":73:75   */\n      0x40\n        /* \"#utility.yul\":67:76   */\n      mload\n        /* \"#utility.yul\":57:76   */\n      swap1\n      pop\n        /* \"#utility.yul\":7:82   */\n      swap1\n      jump\t// out\n        /* \"#utility.yul\":88:205   */\n    tag_255:\n        /* \"#utility.yul\":197:198   */\n      0x00\n        /* \"#utility.yul\":194:195   */\n      dup1\n        /* \"#utility.yul\":187:199   */\n      revert\n        /* \"#utility.yul\":211:328   */\n    tag_256:\n        /* \"#utility.yul\":320:321   */\n      0x00\n        /* \"#utility.yul\":317:318   */\n      dup1\n        /* \"#utility.yul\":310:322   */\n      revert\n        /* \"#utility.yul\":334:460   */\n    tag_257:\n        /* \"#utility.yul\":371:378   */\n      0x00\n        /* \"#utility.yul\":411:453   */\n      0xffffffffffffffffffffffffffffffffffffffff\n        /* \"#utility.yul\":404:409   */\n      dup3\n        /* \"#utility.yul\":400:454   */\n      and\n        /* \"#utility.yul\":389:454   */\n      swap1\n      pop\n        /* \"#utility.yul\":334:460   */\n      swap2\n      swap1\n      pop\n      jump\t// out\n        /* \"#utility.yul\":466:562   */\n    tag_258:\n        /* \"#utility.yul\":503:510   */\n      0x00\n        /* \"#utility.yul\":532:556   */\n      tag_346\n        /* \"#utility.yul\":550:555   */\n      dup3\n        /* \"#utility.yul\":532:556   */\n      tag_257\n      jump\t// in\n    tag_346:\n        /* \"#utility.yul\":521:556   */\n      swap1\n      pop\n        /* \"#utility.yul\":466:562   */\n      swap2\n      swap1\n      pop\n      jump\t// out\n        /* \"#utility.yul\":568:690   */\n    tag_259:\n        /* \"#utility.yul\":641:665   */\n      tag_348\n        /* \"#utility.yul\":659:664   */\n      dup2\n        /* \"#utility.yul\":641:665   */\n      tag_258\n      jump\t// in\n    tag_348:\n        /* \"#utility.yul\":634:639   */\n      dup2\n        /* \"#utility.yul\":631:666   */\n      eq\n        /* \"#utility.yul\":621:684   */\n      tag_349\n      jumpi\n        /* \"#utility.yul\":680:681   */\n      0x00\n        /* \"#utility.yul\":677:678   */\n      dup1\n        /* \"#utility.yul\":670:682   */\n      revert\n        /* \"#utility.yul\":621:684   */\n    tag_349:\n        /* \"#utility.yul\":568:690   */\n      pop\n      jump\t// out\n        /* \"#utility.yul\":696:835   */\n    tag_260:\n        /* \"#utility.yul\":742:747   */\n      0x00\n        /* \"#utility.yul\":780:786   */\n      dup2\n        /* \"#utility.yul\":767:787   */\n      calldataload\n        /* \"#utility.yul\":758:787   */\n      swap1\n      pop\n        /* \"#utility.yul\":796:829   */\n      tag_351\n        /* \"#utility.yul\":823:828   */\n      dup2\n        /* \"#utility.yul\":796:829   */\n      tag_259\n      jump\t// in\n    tag_351:\n        /* \"#utility.yul\":696:835   */\n      swap3\n      swap2\n      pop\n      pop\n      jump\t// out\n        /* \"#utility.yul\":841:1170   */\n    tag_30:\n        /* \"#utility.yul\":900:906   */\n      0x00\n        /* \"#utility.yul\":949:951   */\n      0x20\n        /* \"#utility.yul\":937:946   */\n      dup3\n        /* \"#utility.yul\":928:935   */\n      dup5\n        /* \"#utility.yul\":924:947   */\n      sub\n        /* \"#utility.yul\":920:952   */\n      slt\n        /* \"#utility.yul\":917:1036   */\n      iszero\n      tag_353\n      jumpi\n        /* \"#utility.yul\":955:1034   */\n      tag_354\n      tag_255\n      jump\t// in\n    tag_354:\n        /* \"#utility.yul\":917:1036   */\n    tag_353:\n        /* \"#utility.yul\":1075:1076   */\n      0x00\n        /* \"#utility.yul\":1100:1153   */\n      tag_355\n        /* \"#utility.yul\":1145:1152   */\n      dup5\n        /* \"#utility.yul\":1136:1142   */\n      dup3\n        /* \"#utility.yul\":1125:1134   */\n      dup6\n        /* \"#utility.yul\":1121:1143   */\n      add\n        /* \"#utility.yul\":1100:1153   */\n      tag_260\n      jump\t// in\n    tag_355:\n        /* \"#utility.yul\":1090:1153   */\n      swap2\n      pop\n        /* \"#utility.yul\":1046:1163   */\n      pop\n        /* \"#utility.yul\":841:1170   */\n      swap3\n      swap2\n      pop\n      pop\n      jump\t// out\n        /* \"#utility.yul\":1176:1253   */\n    tag_261:\n        /* \"#utility.yul\":1213:1220   */\n      0x00\n        /* \"#utility.yul\":1242:1247   */\n      dup2\n        /* \"#utility.yul\":1231:1247   */\n      swap1\n      pop\n        /* \"#utility.yul\":1176:1253   */\n      swap2\n      swap1\n      pop\n      jump\t// out\n        /* \"#utility.yul\":1259:1377   */\n    tag_262:\n        /* \"#utility.yul\":1346:1370   */\n      tag_358\n        /* \"#utility.yul\":1364:1369   */\n      dup2\n        /* \"#utility.yul\":1346:1370   */\n      tag_261\n      jump\t// in\n    tag_358:\n        /* \"#utility.yul\":1341:1344   */\n      dup3\n        /* \"#utility.yul\":1334:1371   */\n      mstore\n        /* \"#utility.yul\":1259:1377   */\n      pop\n      pop\n      jump\t// out\n        /* \"#utility.yul\":1383:1605   */\n    tag_36:\n        /* \"#utility.yul\":1476:1480   */\n      0x00\n        /* \"#utility.yul\":1514:1516   */\n      0x20\n        /* \"#utility.yul\":1503:1512   */\n      dup3\n        /* \"#utility.yul\":1499:1517   */\n      add\n        /* \"#utility.yul\":1491:1517   */\n      swap1\n      pop\n        /* \"#utility.yul\":1527:1598   */\n      tag_360\n        /* \"#utility.yul\":1595:1596   */\n      0x00\n        /* \"#utility.yul\":1584:1593   */\n      dup4\n        /* \"#utility.yul\":1580:1597   */\n      add\n        /* \"#utility.yul\":1571:1577   */\n      dup5\n        /* \"#utility.yul\":1527:1598   */\n      tag_262\n      jump\t// in\n    tag_360:\n        /* \"#utility.yul\":1383:1605   */\n      swap3\n      swap2\n      pop\n      pop\n      jump\t// out\n        /* \"#utility.yul\":1611:1733   */\n    tag_263:\n        /* \"#utility.yul\":1684:1708   */\n      tag_362\n        /* \"#utility.yul\":1702:1707   */\n      dup2\n        /* \"#utility.yul\":1684:1708   */\n      tag_261\n      jump\t// in\n    tag_362:\n        /* \"#utility.yul\":1677:1682   */\n      dup2\n        /* \"#utility.yul\":1674:1709   */\n      eq\n        /* \"#utility.yul\":1664:1727   */\n      tag_363\n      jumpi\n        /* \"#utility.yul\":1723:1724   */\n      0x00\n        /* \"#utility.yul\":1720:1721   */\n      dup1\n        /* \"#utility.yul\":1713:1725   */\n      revert\n        /* \"#utility.yul\":1664:1727   */\n    tag_363:\n        /* \"#utility.yul\":1611:1733   */\n      pop\n      jump\t// out\n        /* \"#utility.yul\":1739:1878   */\n    tag_264:\n        /* \"#utility.yul\":1785:1790   */\n      0x00\n        /* \"#utility.yul\":1823:1829   */\n      dup2\n        /* \"#utility.yul\":1810:1830   */\n      calldataload\n        /* \"#utility.yul\":1801:1830   */\n      swap1\n      pop\n        /* \"#utility.yul\":1839:1872   */\n      tag_365\n        /* \"#utility.yul\":1866:1871   */\n      dup2\n        /* \"#utility.yul\":1839:1872   */\n      tag_263\n      jump\t// in\n    tag_365:\n        /* \"#utility.yul\":1739:1878   */\n      swap3\n      swap2\n      pop\n      pop\n      jump\t// out\n        /* \"#utility.yul\":1884:2358   */\n    tag_40:\n        /* \"#utility.yul\":1952:1958   */\n      0x00\n        /* \"#utility.yul\":1960:1966   */\n      dup1\n        /* \"#utility.yul\":2009:2011   */\n      0x40\n        /* \"#utility.yul\":1997:2006   */\n      dup4\n        /* \"#utility.yul\":1988:1995   */\n      dup6\n        /* \"#utility.yul\":1984:2007   */\n      sub\n        /* \"#utility.yul\":1980:2012   */\n      slt\n        /* \"#utility.yul\":1977:2096   */\n      iszero\n      tag_367\n      jumpi\n        /* \"#utility.yul\":2015:2094   */\n      tag_368\n      tag_255\n      jump\t// in\n    tag_368:\n        /* \"#utility.yul\":1977:2096   */\n    tag_367:\n        /* \"#utility.yul\":2135:2136   */\n      0x00\n        /* \"#utility.yul\":2160:2213   */\n      tag_369\n        /* \"#utility.yul\":2205:2212   */\n      dup6\n        /* \"#utility.yul\":2196:2202   */\n      dup3\n        /* \"#utility.yul\":2185:2194   */\n      dup7\n        /* \"#utility.yul\":2181:2203   */\n      add\n        /* \"#utility.yul\":2160:2213   */\n      tag_264\n      jump\t// in\n    tag_369:\n        /* \"#utility.yul\":2150:2213   */\n      swap3\n      pop\n        /* \"#utility.yul\":2106:2223   */\n      pop\n        /* \"#utility.yul\":2262:2264   */\n      0x20\n        /* \"#utility.yul\":2288:2341   */\n      tag_370\n        /* \"#utility.yul\":2333:2340   */\n      dup6\n        /* \"#utility.yul\":2324:2330   */\n      dup3\n        /* \"#utility.yul\":2313:2322   */\n      dup7\n        /* \"#utility.yul\":2309:2331   */\n      add\n        /* \"#utility.yul\":2288:2341   */\n      tag_264\n      jump\t// in\n    tag_370:\n        /* \"#utility.yul\":2278:2341   */\n      swap2\n      pop\n        /* \"#utility.yul\":2233:2351   */\n      pop\n        /* \"#utility.yul\":1884:2358   */\n      swap3\n      pop\n      swap3\n      swap1\n      pop\n      jump\t// out\n        /* \"#utility.yul\":2364:2693   */\n    tag_45:\n        /* \"#utility.yul\":2423:2429   */\n      0x00\n        /* \"#utility.yul\":2472:2474   */\n      0x20\n        /* \"#utility.yul\":2460:2469   */\n      dup3\n        /* \"#utility.yul\":2451:2458   */\n      dup5\n        /* \"#utility.yul\":2447:2470   */\n      sub\n        /* \"#utility.yul\":2443:2475   */\n      slt\n        /* \"#utility.yul\":2440:2559   */\n      iszero\n      tag_372\n      jumpi\n        /* \"#utility.yul\":2478:2557   */\n      tag_373\n      tag_255\n      jump\t// in\n    tag_373:\n        /* \"#utility.yul\":2440:2559   */\n    tag_372:\n        /* \"#utility.yul\":2598:2599   */\n      0x00\n        /* \"#utility.yul\":2623:2676   */\n      tag_374\n        /* \"#utility.yul\":2668:2675   */\n      dup5\n        /* \"#utility.yul\":2659:2665   */\n      dup3\n        /* \"#utility.yul\":2648:2657   */\n      dup6\n        /* \"#utility.yul\":2644:2666   */\n      add\n        /* \"#utility.yul\":2623:2676   */\n      tag_264\n      jump\t// in\n    tag_374:\n        /* \"#utility.yul\":2613:2676   */\n      swap2\n      pop\n        /* \"#utility.yul\":2569:2686   */\n      pop\n        /* \"#utility.yul\":2364:2693   */\n      swap3\n      swap2\n      pop\n      pop\n      jump\t// out\n        /* \"#utility.yul\":2699:2798   */\n    tag_265:\n        /* \"#utility.yul\":2751:2757   */\n      0x00\n        /* \"#utility.yul\":2785:2790   */\n      dup2\n        /* \"#utility.yul\":2779:2791   */\n      mload\n        /* \"#utility.yul\":2769:2791   */\n      swap1\n      pop\n        /* \"#utility.yul\":2699:2798   */\n      swap2\n      swap1\n      pop\n      jump\t// out\n        /* \"#utility.yul\":2804:2973   */\n    tag_266:\n        /* \"#utility.yul\":2888:2899   */\n      0x00\n        /* \"#utility.yul\":2922:2928   */\n      dup3\n        /* \"#utility.yul\":2917:2920   */\n      dup3\n        /* \"#utility.yul\":2910:2929   */\n      mstore\n        /* \"#utility.yul\":2962:2966   */\n      0x20\n        /* \"#utility.yul\":2957:2960   */\n      dup3\n        /* \"#utility.yul\":2953:2967   */\n      add\n        /* \"#utility.yul\":2938:2967   */\n      swap1\n      pop\n        /* \"#utility.yul\":2804:2973   */\n      swap3\n      swap2\n      pop\n      pop\n      jump\t// out\n        /* \"#utility.yul\":2979:3118   */\n    tag_267:\n        /* \"#utility.yul\":3068:3074   */\n      dup3\n        /* \"#utility.yul\":3063:3066   */\n      dup2\n        /* \"#utility.yul\":3058:3061   */\n      dup4\n        /* \"#utility.yul\":3052:3075   */\n      mcopy\n        /* \"#utility.yul\":3109:3110   */\n      0x00\n        /* \"#utility.yul\":3100:3106   */\n      dup4\n        /* \"#utility.yul\":3095:3098   */\n      dup4\n        /* \"#utility.yul\":3091:3107   */\n      add\n        /* \"#utility.yul\":3084:3111   */\n      mstore\n        /* \"#utility.yul\":2979:3118   */\n      pop\n      pop\n      pop\n      jump\t// out\n        /* \"#utility.yul\":3124:3226   */\n    tag_268:\n        /* \"#utility.yul\":3165:3171   */\n      0x00\n        /* \"#utility.yul\":3216:3218   */\n      0x1f\n        /* \"#utility.yul\":3212:3219   */\n      not\n        /* \"#utility.yul\":3207:3209   */\n      0x1f\n        /* \"#utility.yul\":3200:3205   */\n      dup4\n        /* \"#utility.yul\":3196:3210   */\n      add\n        /* \"#utility.yul\":3192:3220   */\n      and\n        /* \"#utility.yul\":3182:3220   */\n      swap1\n      pop\n        /* \"#utility.yul\":3124:3226   */\n      swap2\n      swap1\n      pop\n      jump\t// out\n        /* \"#utility.yul\":3232:3609   */\n    tag_269:\n        /* \"#utility.yul\":3320:3323   */\n      0x00\n        /* \"#utility.yul\":3348:3387   */\n      tag_380\n        /* \"#utility.yul\":3381:3386   */\n      dup3\n        /* \"#utility.yul\":3348:3387   */\n      tag_265\n      jump\t// in\n    tag_380:\n        /* \"#utility.yul\":3403:3474   */\n      tag_381\n        /* \"#utility.yul\":3467:3473   */\n      dup2\n        /* \"#utility.yul\":3462:3465   */\n      dup6\n        /* \"#utility.yul\":3403:3474   */\n      tag_266\n      jump\t// in\n    tag_381:\n        /* \"#utility.yul\":3396:3474   */\n      swap4\n      pop\n        /* \"#utility.yul\":3483:3548   */\n      tag_382\n        /* \"#utility.yul\":3541:3547   */\n      dup2\n        /* \"#utility.yul\":3536:3539   */\n      dup6\n        /* \"#utility.yul\":3529:3533   */\n      0x20\n        /* \"#utility.yul\":3522:3527   */\n      dup7\n        /* \"#utility.yul\":3518:3534   */\n      add\n        /* \"#utility.yul\":3483:3548   */\n      tag_267\n      jump\t// in\n    tag_382:\n        /* \"#utility.yul\":3573:3602   */\n      tag_383\n        /* \"#utility.yul\":3595:3601   */\n      dup2\n        /* \"#utility.yul\":3573:3602   */\n      tag_268\n      jump\t// in\n    tag_383:\n        /* \"#utility.yul\":3568:3571   */\n      dup5\n        /* \"#utility.yul\":3564:3603   */\n      add\n        /* \"#utility.yul\":3557:3603   */\n      swap2\n      pop\n        /* \"#utility.yul\":3324:3609   */\n      pop\n        /* \"#utility.yul\":3232:3609   */\n      swap3\n      swap2\n      pop\n      pop\n      jump\t// out\n        /* \"#utility.yul\":3615:3692   */\n    tag_270:\n        /* \"#utility.yul\":3652:3659   */\n      0x00\n        /* \"#utility.yul\":3681:3686   */\n      dup2\n        /* \"#utility.yul\":3670:3686   */\n      swap1\n      pop\n        /* \"#utility.yul\":3615:3692   */\n      swap2\n      swap1\n      pop\n      jump\t// out\n        /* \"#utility.yul\":3698:3816   */\n    tag_271:\n        /* \"#utility.yul\":3785:3809   */\n      tag_386\n        /* \"#utility.yul\":3803:3808   */\n      dup2\n        /* \"#utility.yul\":3785:3809   */\n      tag_270\n      jump\t// in\n    tag_386:\n        /* \"#utility.yul\":3780:3783   */\n      dup3\n        /* \"#utility.yul\":3773:3810   */\n      mstore\n        /* \"#utility.yul\":3698:3816   */\n      pop\n      pop\n      jump\t// out\n        /* \"#utility.yul\":3822:3912   */\n    tag_272:\n        /* \"#utility.yul\":3856:3863   */\n      0x00\n        /* \"#utility.yul\":3899:3904   */\n      dup2\n        /* \"#utility.yul\":3892:3905   */\n      iszero\n        /* \"#utility.yul\":3885:3906   */\n      iszero\n        /* \"#utility.yul\":3874:3906   */\n      swap1\n      pop\n        /* \"#utility.yul\":3822:3912   */\n      swap2\n      swap1\n      pop\n      jump\t// out\n        /* \"#utility.yul\":3918:4027   */\n    tag_273:\n        /* \"#utility.yul\":3999:4020   */\n      tag_389\n        /* \"#utility.yul\":4014:4019   */\n      dup2\n        /* \"#utility.yul\":3999:4020   */\n      tag_272\n      jump\t// in\n    tag_389:\n        /* \"#utility.yul\":3994:3997   */\n      dup3\n        /* \"#utility.yul\":3987:4021   */\n      mstore\n        /* \"#utility.yul\":3918:4027   */\n      pop\n      pop\n      jump\t// out\n        /* \"#utility.yul\":4033:4137   */\n    tag_274:\n        /* \"#utility.yul\":4078:4085   */\n      0x00\n        /* \"#utility.yul\":4107:4131   */\n      tag_391\n        /* \"#utility.yul\":4125:4130   */\n      dup3\n        /* \"#utility.yul\":4107:4131   */\n      tag_257\n      jump\t// in\n    tag_391:\n        /* \"#utility.yul\":4096:4131   */\n      swap1\n      pop\n        /* \"#utility.yul\":4033:4137   */\n      swap2\n      swap1\n      pop\n      jump\t// out\n        /* \"#utility.yul\":4143:4285   */\n    tag_275:\n        /* \"#utility.yul\":4246:4278   */\n      tag_393\n        /* \"#utility.yul\":4272:4277   */\n      dup2\n        /* \"#utility.yul\":4246:4278   */\n      tag_274\n      jump\t// in\n    tag_393:\n        /* \"#utility.yul\":4241:4244   */\n      dup3\n        /* \"#utility.yul\":4234:4279   */\n      mstore\n        /* \"#utility.yul\":4143:4285   */\n      pop\n      pop\n      jump\t// out\n        /* \"#utility.yul\":4291:5379   */\n    tag_48:\n        /* \"#utility.yul\":4602:4606   */\n      0x00\n        /* \"#utility.yul\":4640:4643   */\n      0xe0\n        /* \"#utility.yul\":4629:4638   */\n      dup3\n        /* \"#utility.yul\":4625:4644   */\n      add\n        /* \"#utility.yul\":4617:4644   */\n      swap1\n      pop\n        /* \"#utility.yul\":4690:4699   */\n      dup2\n        /* \"#utility.yul\":4684:4688   */\n      dup2\n        /* \"#utility.yul\":4680:4700   */\n      sub\n        /* \"#utility.yul\":4676:4677   */\n      0x00\n        /* \"#utility.yul\":4665:4674   */\n      dup4\n        /* \"#utility.yul\":4661:4678   */\n      add\n        /* \"#utility.yul\":4654:4701   */\n      mstore\n        /* \"#utility.yul\":4718:4796   */\n      tag_395\n        /* \"#utility.yul\":4791:4795   */\n      dup2\n        /* \"#utility.yul\":4782:4788   */\n      dup11\n        /* \"#utility.yul\":4718:4796   */\n      tag_269\n      jump\t// in\n    tag_395:\n        /* \"#utility.yul\":4710:4796   */\n      swap1\n      pop\n        /* \"#utility.yul\":4843:4852   */\n      dup2\n        /* \"#utility.yul\":4837:4841   */\n      dup2\n        /* \"#utility.yul\":4833:4853   */\n      sub\n        /* \"#utility.yul\":4828:4830   */\n      0x20\n        /* \"#utility.yul\":4817:4826   */\n      dup4\n        /* \"#utility.yul\":4813:4831   */\n      add\n        /* \"#utility.yul\":4806:4854   */\n      mstore\n        /* \"#utility.yul\":4871:4949   */\n      tag_396\n        /* \"#utility.yul\":4944:4948   */\n      dup2\n        /* \"#utility.yul\":4935:4941   */\n      dup10\n        /* \"#utility.yul\":4871:4949   */\n      tag_269\n      jump\t// in\n    tag_396:\n        /* \"#utility.yul\":4863:4949   */\n      swap1\n      pop\n        /* \"#utility.yul\":4959:5031   */\n      tag_397\n        /* \"#utility.yul\":5027:5029   */\n      0x40\n        /* \"#utility.yul\":5016:5025   */\n      dup4\n        /* \"#utility.yul\":5012:5030   */\n      add\n        /* \"#utility.yul\":5003:5009   */\n      dup9\n        /* \"#utility.yul\":4959:5031   */\n      tag_271\n      jump\t// in\n    tag_397:\n        /* \"#utility.yul\":5041:5113   */\n      tag_398\n        /* \"#utility.yul\":5109:5111   */\n      0x60\n        /* \"#utility.yul\":5098:5107   */\n      dup4\n        /* \"#utility.yul\":5094:5112   */\n      add\n        /* \"#utility.yul\":5085:5091   */\n      dup8\n        /* \"#utility.yul\":5041:5113   */\n      tag_262\n      jump\t// in\n    tag_398:\n        /* \"#utility.yul\":5123:5190   */\n      tag_399\n        /* \"#utility.yul\":5185:5188   */\n      0x80\n        /* \"#utility.yul\":5174:5183   */\n      dup4\n        /* \"#utility.yul\":5170:5189   */\n      add\n        /* \"#utility.yul\":5161:5167   */\n      dup7\n        /* \"#utility.yul\":5123:5190   */\n      tag_273\n      jump\t// in\n    tag_399:\n        /* \"#utility.yul\":5200:5289   */\n      tag_400\n        /* \"#utility.yul\":5284:5287   */\n      0xa0\n        /* \"#utility.yul\":5273:5282   */\n      dup4\n        /* \"#utility.yul\":5269:5288   */\n      add\n        /* \"#utility.yul\":5260:5266   */\n      dup6\n        /* \"#utility.yul\":5200:5289   */\n      tag_275\n      jump\t// in\n    tag_400:\n        /* \"#utility.yul\":5299:5372   */\n      tag_401\n        /* \"#utility.yul\":5367:5370   */\n      0xc0\n        /* \"#utility.yul\":5356:5365   */\n      dup4\n        /* \"#utility.yul\":5352:5371   */\n      add\n        /* \"#utility.yul\":5343:5349   */\n      dup5\n        /* \"#utility.yul\":5299:5372   */\n      tag_262\n      jump\t// in\n    tag_401:\n        /* \"#utility.yul\":4291:5379   */\n      swap9\n      swap8\n      pop\n      pop\n      pop\n      pop\n      pop\n      pop\n      pop\n      pop\n      jump\t// out\n        /* \"#utility.yul\":5385:5507   */\n    tag_276:\n        /* \"#utility.yul\":5458:5482   */\n      tag_403\n        /* \"#utility.yul\":5476:5481   */\n      dup2\n        /* \"#utility.yul\":5458:5482   */\n      tag_270\n      jump\t// in\n    tag_403:\n        /* \"#utility.yul\":5451:5456   */\n      dup2\n        /* \"#utility.yul\":5448:5483   */\n      eq\n        /* \"#utility.yul\":5438:5501   */\n      tag_404\n      jumpi\n        /* \"#utility.yul\":5497:5498   */\n      0x00\n        /* \"#utility.yul\":5494:5495   */\n      dup1\n        /* \"#utility.yul\":5487:5499   */\n      revert\n        /* \"#utility.yul\":5438:5501   */\n    tag_404:\n        /* \"#utility.yul\":5385:5507   */\n      pop\n      jump\t// out\n        /* \"#utility.yul\":5513:5652   */\n    tag_277:\n        /* \"#utility.yul\":5559:5564   */\n      0x00\n        /* \"#utility.yul\":5597:5603   */\n      dup2\n        /* \"#utility.yul\":5584:5604   */\n      calldataload\n        /* \"#utility.yul\":5575:5604   */\n      swap1\n      pop\n        /* \"#utility.yul\":5613:5646   */\n      tag_406\n        /* \"#utility.yul\":5640:5645   */\n      dup2\n        /* \"#utility.yul\":5613:5646   */\n      tag_276\n      jump\t// in\n    tag_406:\n        /* \"#utility.yul\":5513:5652   */\n      swap3\n      swap2\n      pop\n      pop\n      jump\t// out\n        /* \"#utility.yul\":5658:5987   */\n    tag_56:\n        /* \"#utility.yul\":5717:5723   */\n      0x00\n        /* \"#utility.yul\":5766:5768   */\n      0x20\n        /* \"#utility.yul\":5754:5763   */\n      dup3\n        /* \"#utility.yul\":5745:5752   */\n      dup5\n        /* \"#utility.yul\":5741:5764   */\n      sub\n        /* \"#utility.yul\":5737:5769   */\n      slt\n        /* \"#utility.yul\":5734:5853   */\n      iszero\n      tag_408\n      jumpi\n        /* \"#utility.yul\":5772:5851   */\n      tag_409\n      tag_255\n      jump\t// in\n    tag_409:\n        /* \"#utility.yul\":5734:5853   */\n    tag_408:\n        /* \"#utility.yul\":5892:5893   */\n      0x00\n        /* \"#utility.yul\":5917:5970   */\n      tag_410\n        /* \"#utility.yul\":5962:5969   */\n      dup5\n        /* \"#utility.yul\":5953:5959   */\n      dup3\n        /* \"#utility.yul\":5942:5951   */\n      dup6\n        /* \"#utility.yul\":5938:5960   */\n      add\n        /* \"#utility.yul\":5917:5970   */\n      tag_277\n      jump\t// in\n    tag_410:\n        /* \"#utility.yul\":5907:5970   */\n      swap2\n      pop\n        /* \"#utility.yul\":5863:5980   */\n      pop\n        /* \"#utility.yul\":5658:5987   */\n      swap3\n      swap2\n      pop\n      pop\n      jump\t// out\n        /* \"#utility.yul\":5993:6110   */\n    tag_278:\n        /* \"#utility.yul\":6102:6103   */\n      0x00\n        /* \"#utility.yul\":6099:6100   */\n      dup1\n        /* \"#utility.yul\":6092:6104   */\n      revert\n        /* \"#utility.yul\":6116:6233   */\n    tag_279:\n        /* \"#utility.yul\":6225:6226   */\n      0x00\n        /* \"#utility.yul\":6222:6223   */\n      dup1\n        /* \"#utility.yul\":6215:6227   */\n      revert\n        /* \"#utility.yul\":6239:6419   */\n    tag_192:\n        /* \"#utility.yul\":6287:6364   */\n      0x4e487b7100000000000000000000000000000000000000000000000000000000\n        /* \"#utility.yul\":6284:6285   */\n      0x00\n        /* \"#utility.yul\":6277:6365   */\n      mstore\n        /* \"#utility.yul\":6384:6388   */\n      0x41\n        /* \"#utility.yul\":6381:6382   */\n      0x04\n        /* \"#utility.yul\":6374:6389   */\n      mstore\n        /* \"#utility.yul\":6408:6412   */\n      0x24\n        /* \"#utility.yul\":6405:6406   */\n      0x00\n        /* \"#utility.yul\":6398:6413   */\n      revert\n        /* \"#utility.yul\":6425:6706   */\n    tag_280:\n        /* \"#utility.yul\":6508:6535   */\n      tag_415\n        /* \"#utility.yul\":6530:6534   */\n      dup3\n        /* \"#utility.yul\":6508:6535   */\n      tag_268\n      jump\t// in\n    tag_415:\n        /* \"#utility.yul\":6500:6506   */\n      dup2\n        /* \"#utility.yul\":6496:6536   */\n      add\n        /* \"#utility.yul\":6638:6644   */\n      dup2\n        /* \"#utility.yul\":6626:6636   */\n      dup2\n        /* \"#utility.yul\":6623:6645   */\n      lt\n        /* \"#utility.yul\":6602:6620   */\n      0xffffffffffffffff\n        /* \"#utility.yul\":6590:6600   */\n      dup3\n        /* \"#utility.yul\":6587:6621   */\n      gt\n        /* \"#utility.yul\":6584:6646   */\n      or\n        /* \"#utility.yul\":6581:6669   */\n      iszero\n      tag_416\n      jumpi\n        /* \"#utility.yul\":6649:6667   */\n      tag_417\n      tag_192\n      jump\t// in\n    tag_417:\n        /* \"#utility.yul\":6581:6669   */\n    tag_416:\n        /* \"#utility.yul\":6689:6699   */\n      dup1\n        /* \"#utility.yul\":6685:6687   */\n      0x40\n        /* \"#utility.yul\":6678:6700   */\n      mstore\n        /* \"#utility.yul\":6468:6706   */\n      pop\n        /* \"#utility.yul\":6425:6706   */\n      pop\n      pop\n      jump\t// out\n        /* \"#utility.yul\":6712:6841   */\n    tag_281:\n        /* \"#utility.yul\":6746:6752   */\n      0x00\n        /* \"#utility.yul\":6773:6793   */\n      tag_419\n      tag_254\n      jump\t// in\n    tag_419:\n        /* \"#utility.yul\":6763:6793   */\n      swap1\n      pop\n        /* \"#utility.yul\":6802:6835   */\n      tag_420\n        /* \"#utility.yul\":6830:6834   */\n      dup3\n        /* \"#utility.yul\":6822:6828   */\n      dup3\n        /* \"#utility.yul\":6802:6835   */\n      tag_280\n      jump\t// in\n    tag_420:\n        /* \"#utility.yul\":6712:6841   */\n      swap2\n      swap1\n      pop\n      jump\t// out\n        /* \"#utility.yul\":6847:7155   */\n    tag_282:\n        /* \"#utility.yul\":6909:6913   */\n      0x00\n        /* \"#utility.yul\":6999:7017   */\n      0xffffffffffffffff\n        /* \"#utility.yul\":6991:6997   */\n      dup3\n        /* \"#utility.yul\":6988:7018   */\n      gt\n        /* \"#utility.yul\":6985:7041   */\n      iszero\n      tag_422\n      jumpi\n        /* \"#utility.yul\":7021:7039   */\n      tag_423\n      tag_192\n      jump\t// in\n    tag_423:\n        /* \"#utility.yul\":6985:7041   */\n    tag_422:\n        /* \"#utility.yul\":7059:7088   */\n      tag_424\n        /* \"#utility.yul\":7081:7087   */\n      dup3\n        /* \"#utility.yul\":7059:7088   */\n      tag_268\n      jump\t// in\n    tag_424:\n        /* \"#utility.yul\":7051:7088   */\n      swap1\n      pop\n        /* \"#utility.yul\":7143:7147   */\n      0x20\n        /* \"#utility.yul\":7137:7141   */\n      dup2\n        /* \"#utility.yul\":7133:7148   */\n      add\n        /* \"#utility.yul\":7125:7148   */\n      swap1\n      pop\n        /* \"#utility.yul\":6847:7155   */\n      swap2\n      swap1\n      pop\n      jump\t// out\n        /* \"#utility.yul\":7161:7309   */\n    tag_283:\n        /* \"#utility.yul\":7259:7265   */\n      dup3\n        /* \"#utility.yul\":7254:7257   */\n      dup2\n        /* \"#utility.yul\":7249:7252   */\n      dup4\n        /* \"#utility.yul\":7236:7266   */\n      calldatacopy\n        /* \"#utility.yul\":7300:7301   */\n      0x00\n        /* \"#utility.yul\":7291:7297   */\n      dup4\n        /* \"#utility.yul\":7286:7289   */\n      dup4\n        /* \"#utility.yul\":7282:7298   */\n      add\n        /* \"#utility.yul\":7275:7302   */\n      mstore\n        /* \"#utility.yul\":7161:7309   */\n      pop\n      pop\n      pop\n      jump\t// out\n        /* \"#utility.yul\":7315:7740   */\n    tag_284:\n        /* \"#utility.yul\":7393:7398   */\n      0x00\n        /* \"#utility.yul\":7418:7484   */\n      tag_427\n        /* \"#utility.yul\":7434:7483   */\n      tag_428\n        /* \"#utility.yul\":7476:7482   */\n      dup5\n        /* \"#utility.yul\":7434:7483   */\n      tag_282\n      jump\t// in\n    tag_428:\n        /* \"#utility.yul\":7418:7484   */\n      tag_281\n      jump\t// in\n    tag_427:\n        /* \"#utility.yul\":7409:7484   */\n      swap1\n      pop\n        /* \"#utility.yul\":7507:7513   */\n      dup3\n        /* \"#utility.yul\":7500:7505   */\n      dup2\n        /* \"#utility.yul\":7493:7514   */\n      mstore\n        /* \"#utility.yul\":7545:7549   */\n      0x20\n        /* \"#utility.yul\":7538:7543   */\n      dup2\n        /* \"#utility.yul\":7534:7550   */\n      add\n        /* \"#utility.yul\":7583:7586   */\n      dup5\n        /* \"#utility.yul\":7574:7580   */\n      dup5\n        /* \"#utility.yul\":7569:7572   */\n      dup5\n        /* \"#utility.yul\":7565:7581   */\n      add\n        /* \"#utility.yul\":7562:7587   */\n      gt\n        /* \"#utility.yul\":7559:7671   */\n      iszero\n      tag_429\n      jumpi\n        /* \"#utility.yul\":7590:7669   */\n      tag_430\n      tag_279\n      jump\t// in\n    tag_430:\n        /* \"#utility.yul\":7559:7671   */\n    tag_429:\n        /* \"#utility.yul\":7680:7734   */\n      tag_431\n        /* \"#utility.yul\":7727:7733   */\n      dup5\n        /* \"#utility.yul\":7722:7725   */\n      dup3\n        /* \"#utility.yul\":7717:7720   */\n      dup6\n        /* \"#utility.yul\":7680:7734   */\n      tag_283\n      jump\t// in\n    tag_431:\n        /* \"#utility.yul\":7399:7740   */\n      pop\n        /* \"#utility.yul\":7315:7740   */\n      swap4\n      swap3\n      pop\n      pop\n      pop\n      jump\t// out\n        /* \"#utility.yul\":7760:8100   */\n    tag_285:\n        /* \"#utility.yul\":7816:7821   */\n      0x00\n        /* \"#utility.yul\":7865:7868   */\n      dup3\n        /* \"#utility.yul\":7858:7862   */\n      0x1f\n        /* \"#utility.yul\":7850:7856   */\n      dup4\n        /* \"#utility.yul\":7846:7863   */\n      add\n        /* \"#utility.yul\":7842:7869   */\n      slt\n        /* \"#utility.yul\":7832:7954   */\n      tag_433\n      jumpi\n        /* \"#utility.yul\":7873:7952   */\n      tag_434\n      tag_278\n      jump\t// in\n    tag_434:\n        /* \"#utility.yul\":7832:7954   */\n    tag_433:\n        /* \"#utility.yul\":7990:7996   */\n      dup2\n        /* \"#utility.yul\":7977:7997   */\n      calldataload\n        /* \"#utility.yul\":8015:8094   */\n      tag_435\n        /* \"#utility.yul\":8090:8093   */\n      dup5\n        /* \"#utility.yul\":8082:8088   */\n      dup3\n        /* \"#utility.yul\":8075:8079   */\n      0x20\n        /* \"#utility.yul\":8067:8073   */\n      dup7\n        /* \"#utility.yul\":8063:8080   */\n      add\n        /* \"#utility.yul\":8015:8094   */\n      tag_284\n      jump\t// in\n    tag_435:\n        /* \"#utility.yul\":8006:8094   */\n      swap2\n      pop\n        /* \"#utility.yul\":7822:8100   */\n      pop\n        /* \"#utility.yul\":7760:8100   */\n      swap3\n      swap2\n      pop\n      pop\n      jump\t// out\n        /* \"#utility.yul\":8106:8222   */\n    tag_286:\n        /* \"#utility.yul\":8176:8197   */\n      tag_437\n        /* \"#utility.yul\":8191:8196   */\n      dup2\n        /* \"#utility.yul\":8176:8197   */\n      tag_272\n      jump\t// in\n    tag_437:\n        /* \"#utility.yul\":8169:8174   */\n      dup2\n        /* \"#utility.yul\":8166:8198   */\n      eq\n        /* \"#utility.yul\":8156:8216   */\n      tag_438\n      jumpi\n        /* \"#utility.yul\":8212:8213   */\n      0x00\n        /* \"#utility.yul\":8209:8210   */\n      dup1\n        /* \"#utility.yul\":8202:8214   */\n      revert\n        /* \"#utility.yul\":8156:8216   */\n    tag_438:\n        /* \"#utility.yul\":8106:8222   */\n      pop\n      jump\t// out\n        /* \"#utility.yul\":8228:8361   */\n    tag_287:\n        /* \"#utility.yul\":8271:8276   */\n      0x00\n        /* \"#utility.yul\":8309:8315   */\n      dup2\n        /* \"#utility.yul\":8296:8316   */\n      calldataload\n        /* \"#utility.yul\":8287:8316   */\n      swap1\n      pop\n        /* \"#utility.yul\":8325:8355   */\n      tag_440\n        /* \"#utility.yul\":8349:8354   */\n      dup2\n        /* \"#utility.yul\":8325:8355   */\n      tag_286\n      jump\t// in\n    tag_440:\n        /* \"#utility.yul\":8228:8361   */\n      swap3\n      swap2\n      pop\n      pop\n      jump\t// out\n        /* \"#utility.yul\":8367:9632   */\n    tag_62:\n        /* \"#utility.yul\":8479:8485   */\n      0x00\n        /* \"#utility.yul\":8487:8493   */\n      dup1\n        /* \"#utility.yul\":8495:8501   */\n      0x00\n        /* \"#utility.yul\":8503:8509   */\n      dup1\n        /* \"#utility.yul\":8511:8517   */\n      0x00\n        /* \"#utility.yul\":8560:8563   */\n      0xa0\n        /* \"#utility.yul\":8548:8557   */\n      dup7\n        /* \"#utility.yul\":8539:8546   */\n      dup9\n        /* \"#utility.yul\":8535:8558   */\n      sub\n        /* \"#utility.yul\":8531:8564   */\n      slt\n        /* \"#utility.yul\":8528:8648   */\n      iszero\n      tag_442\n      jumpi\n        /* \"#utility.yul\":8567:8646   */\n      tag_443\n      tag_255\n      jump\t// in\n    tag_443:\n        /* \"#utility.yul\":8528:8648   */\n    tag_442:\n        /* \"#utility.yul\":8715:8716   */\n      0x00\n        /* \"#utility.yul\":8704:8713   */\n      dup7\n        /* \"#utility.yul\":8700:8717   */\n      add\n        /* \"#utility.yul\":8687:8718   */\n      calldataload\n        /* \"#utility.yul\":8745:8763   */\n      0xffffffffffffffff\n        /* \"#utility.yul\":8737:8743   */\n      dup2\n        /* \"#utility.yul\":8734:8764   */\n      gt\n        /* \"#utility.yul\":8731:8848   */\n      iszero\n      tag_444\n      jumpi\n        /* \"#utility.yul\":8767:8846   */\n      tag_445\n      tag_256\n      jump\t// in\n    tag_445:\n        /* \"#utility.yul\":8731:8848   */\n    tag_444:\n        /* \"#utility.yul\":8872:8935   */\n      tag_446\n        /* \"#utility.yul\":8927:8934   */\n      dup9\n        /* \"#utility.yul\":8918:8924   */\n      dup3\n        /* \"#utility.yul\":8907:8916   */\n      dup10\n        /* \"#utility.yul\":8903:8925   */\n      add\n        /* \"#utility.yul\":8872:8935   */\n      tag_285\n      jump\t// in\n    tag_446:\n        /* \"#utility.yul\":8862:8935   */\n      swap6\n      pop\n        /* \"#utility.yul\":8658:8945   */\n      pop\n        /* \"#utility.yul\":9012:9014   */\n      0x20\n        /* \"#utility.yul\":9001:9010   */\n      dup7\n        /* \"#utility.yul\":8997:9015   */\n      add\n        /* \"#utility.yul\":8984:9016   */\n      calldataload\n        /* \"#utility.yul\":9043:9061   */\n      0xffffffffffffffff\n        /* \"#utility.yul\":9035:9041   */\n      dup2\n        /* \"#utility.yul\":9032:9062   */\n      gt\n        /* \"#utility.yul\":9029:9146   */\n      iszero\n      tag_447\n      jumpi\n        /* \"#utility.yul\":9065:9144   */\n      tag_448\n      tag_256\n      jump\t// in\n    tag_448:\n        /* \"#utility.yul\":9029:9146   */\n    tag_447:\n        /* \"#utility.yul\":9170:9233   */\n      tag_449\n        /* \"#utility.yul\":9225:9232   */\n      dup9\n        /* \"#utility.yul\":9216:9222   */\n      dup3\n        /* \"#utility.yul\":9205:9214   */\n      dup10\n        /* \"#utility.yul\":9201:9223   */\n      add\n        /* \"#utility.yul\":9170:9233   */\n      tag_285\n      jump\t// in\n    tag_449:\n        /* \"#utility.yul\":9160:9233   */\n      swap5\n      pop\n        /* \"#utility.yul\":8955:9243   */\n      pop\n        /* \"#utility.yul\":9282:9284   */\n      0x40\n        /* \"#utility.yul\":9308:9361   */\n      tag_450\n        /* \"#utility.yul\":9353:9360   */\n      dup9\n        /* \"#utility.yul\":9344:9350   */\n      dup3\n        /* \"#utility.yul\":9333:9342   */\n      dup10\n        /* \"#utility.yul\":9329:9351   */\n      add\n        /* \"#utility.yul\":9308:9361   */\n      tag_277\n      jump\t// in\n    tag_450:\n        /* \"#utility.yul\":9298:9361   */\n      swap4\n      pop\n        /* \"#utility.yul\":9253:9371   */\n      pop\n        /* \"#utility.yul\":9410:9412   */\n      0x60\n        /* \"#utility.yul\":9436:9489   */\n      tag_451\n        /* \"#utility.yul\":9481:9488   */\n      dup9\n        /* \"#utility.yul\":9472:9478   */\n      dup3\n        /* \"#utility.yul\":9461:9470   */\n      dup10\n        /* \"#utility.yul\":9457:9479   */\n      add\n        /* \"#utility.yul\":9436:9489   */\n      tag_264\n      jump\t// in\n    tag_451:\n        /* \"#utility.yul\":9426:9489   */\n      swap3\n      pop\n        /* \"#utility.yul\":9381:9499   */\n      pop\n        /* \"#utility.yul\":9538:9541   */\n      0x80\n        /* \"#utility.yul\":9565:9615   */\n      tag_452\n        /* \"#utility.yul\":9607:9614   */\n      dup9\n        /* \"#utility.yul\":9598:9604   */\n      dup3\n        /* \"#utility.yul\":9587:9596   */\n      dup10\n        /* \"#utility.yul\":9583:9605   */\n      add\n        /* \"#utility.yul\":9565:9615   */\n      tag_287\n      jump\t// in\n    tag_452:\n        /* \"#utility.yul\":9555:9615   */\n      swap2\n      pop\n        /* \"#utility.yul\":9509:9625   */\n      pop\n        /* \"#utility.yul\":8367:9632   */\n      swap3\n      swap6\n      pop\n      swap3\n      swap6\n      swap1\n      swap4\n      pop\n      jump\t// out\n        /* \"#utility.yul\":9638:9892   */\n    tag_76:\n        /* \"#utility.yul\":9747:9751   */\n      0x00\n        /* \"#utility.yul\":9785:9787   */\n      0x20\n        /* \"#utility.yul\":9774:9783   */\n      dup3\n        /* \"#utility.yul\":9770:9788   */\n      add\n        /* \"#utility.yul\":9762:9788   */\n      swap1\n      pop\n        /* \"#utility.yul\":9798:9885   */\n      tag_454\n        /* \"#utility.yul\":9882:9883   */\n      0x00\n        /* \"#utility.yul\":9871:9880   */\n      dup4\n        /* \"#utility.yul\":9867:9884   */\n      add\n        /* \"#utility.yul\":9858:9864   */\n      dup5\n        /* \"#utility.yul\":9798:9885   */\n      tag_275\n      jump\t// in\n    tag_454:\n        /* \"#utility.yul\":9638:9892   */\n      swap3\n      swap2\n      pop\n      pop\n      jump\t// out\n        /* \"#utility.yul\":9898:11011   */\n    tag_80:\n        /* \"#utility.yul\":9998:10004   */\n      0x00\n        /* \"#utility.yul\":10006:10012   */\n      dup1\n        /* \"#utility.yul\":10014:10020   */\n      0x00\n        /* \"#utility.yul\":10022:10028   */\n      dup1\n        /* \"#utility.yul\":10071:10074   */\n      0x80\n        /* \"#utility.yul\":10059:10068   */\n      dup6\n        /* \"#utility.yul\":10050:10057   */\n      dup8\n        /* \"#utility.yul\":10046:10069   */\n      sub\n        /* \"#utility.yul\":10042:10075   */\n      slt\n        /* \"#utility.yul\":10039:10159   */\n      iszero\n      tag_456\n      jumpi\n        /* \"#utility.yul\":10078:10157   */\n      tag_457\n      tag_255\n      jump\t// in\n    tag_457:\n        /* \"#utility.yul\":10039:10159   */\n    tag_456:\n        /* \"#utility.yul\":10226:10227   */\n      0x00\n        /* \"#utility.yul\":10215:10224   */\n      dup6\n        /* \"#utility.yul\":10211:10228   */\n      add\n        /* \"#utility.yul\":10198:10229   */\n      calldataload\n        /* \"#utility.yul\":10256:10274   */\n      0xffffffffffffffff\n        /* \"#utility.yul\":10248:10254   */\n      dup2\n        /* \"#utility.yul\":10245:10275   */\n      gt\n        /* \"#utility.yul\":10242:10359   */\n      iszero\n      tag_458\n      jumpi\n        /* \"#utility.yul\":10278:10357   */\n      tag_459\n      tag_256\n      jump\t// in\n    tag_459:\n        /* \"#utility.yul\":10242:10359   */\n    tag_458:\n        /* \"#utility.yul\":10383:10446   */\n      tag_460\n        /* \"#utility.yul\":10438:10445   */\n      dup8\n        /* \"#utility.yul\":10429:10435   */\n      dup3\n        /* \"#utility.yul\":10418:10427   */\n      dup9\n        /* \"#utility.yul\":10414:10436   */\n      add\n        /* \"#utility.yul\":10383:10446   */\n      tag_285\n      jump\t// in\n    tag_460:\n        /* \"#utility.yul\":10373:10446   */\n      swap5\n      pop\n        /* \"#utility.yul\":10169:10456   */\n      pop\n        /* \"#utility.yul\":10523:10525   */\n      0x20\n        /* \"#utility.yul\":10512:10521   */\n      dup6\n        /* \"#utility.yul\":10508:10526   */\n      add\n        /* \"#utility.yul\":10495:10527   */\n      calldataload\n        /* \"#utility.yul\":10554:10572   */\n      0xffffffffffffffff\n        /* \"#utility.yul\":10546:10552   */\n      dup2\n        /* \"#utility.yul\":10543:10573   */\n      gt\n        /* \"#utility.yul\":10540:10657   */\n      iszero\n      tag_461\n      jumpi\n        /* \"#utility.yul\":10576:10655   */\n      tag_462\n      tag_256\n      jump\t// in\n    tag_462:\n        /* \"#utility.yul\":10540:10657   */\n    tag_461:\n        /* \"#utility.yul\":10681:10744   */\n      tag_463\n        /* \"#utility.yul\":10736:10743   */\n      dup8\n        /* \"#utility.yul\":10727:10733   */\n      dup3\n        /* \"#utility.yul\":10716:10725   */\n      dup9\n        /* \"#utility.yul\":10712:10734   */\n      add\n        /* \"#utility.yul\":10681:10744   */\n      tag_285\n      jump\t// in\n    tag_463:\n        /* \"#utility.yul\":10671:10744   */\n      swap4\n      pop\n        /* \"#utility.yul\":10466:10754   */\n      pop\n        /* \"#utility.yul\":10793:10795   */\n      0x40\n        /* \"#utility.yul\":10819:10869   */\n      tag_464\n        /* \"#utility.yul\":10861:10868   */\n      dup8\n        /* \"#utility.yul\":10852:10858   */\n      dup3\n        /* \"#utility.yul\":10841:10850   */\n      dup9\n        /* \"#utility.yul\":10837:10859   */\n      add\n        /* \"#utility.yul\":10819:10869   */\n      tag_287\n      jump\t// in\n    tag_464:\n        /* \"#utility.yul\":10809:10869   */\n      swap3\n      pop\n        /* \"#utility.yul\":10764:10879   */\n      pop\n        /* \"#utility.yul\":10918:10920   */\n      0x60\n        /* \"#utility.yul\":10944:10994   */\n      tag_465\n        /* \"#utility.yul\":10986:10993   */\n      dup8\n        /* \"#utility.yul\":10977:10983   */\n      dup3\n        /* \"#utility.yul\":10966:10975   */\n      dup9\n        /* \"#utility.yul\":10962:10984   */\n      add\n        /* \"#utility.yul\":10944:10994   */\n      tag_287\n      jump\t// in\n    tag_465:\n        /* \"#utility.yul\":10934:10994   */\n      swap2\n      pop\n        /* \"#utility.yul\":10889:11004   */\n      pop\n        /* \"#utility.yul\":9898:11011   */\n      swap3\n      swap6\n      swap2\n      swap5\n      pop\n      swap3\n      pop\n      jump\t// out\n        /* \"#utility.yul\":11017:11337   */\n    tag_87:\n        /* \"#utility.yul\":11132:11136   */\n      0x00\n        /* \"#utility.yul\":11170:11172   */\n      0x40\n        /* \"#utility.yul\":11159:11168   */\n      dup3\n        /* \"#utility.yul\":11155:11173   */\n      add\n        /* \"#utility.yul\":11147:11173   */\n      swap1\n      pop\n        /* \"#utility.yul\":11183:11254   */\n      tag_467\n        /* \"#utility.yul\":11251:11252   */\n      0x00\n        /* \"#utility.yul\":11240:11249   */\n      dup4\n        /* \"#utility.yul\":11236:11253   */\n      add\n        /* \"#utility.yul\":11227:11233   */\n      dup6\n        /* \"#utility.yul\":11183:11254   */\n      tag_262\n      jump\t// in\n    tag_467:\n        /* \"#utility.yul\":11264:11330   */\n      tag_468\n        /* \"#utility.yul\":11326:11328   */\n      0x20\n        /* \"#utility.yul\":11315:11324   */\n      dup4\n        /* \"#utility.yul\":11311:11329   */\n      add\n        /* \"#utility.yul\":11302:11308   */\n      dup5\n        /* \"#utility.yul\":11264:11330   */\n      tag_273\n      jump\t// in\n    tag_468:\n        /* \"#utility.yul\":11017:11337   */\n      swap4\n      swap3\n      pop\n      pop\n      pop\n      jump\t// out\n        /* \"#utility.yul\":11343:11457   */\n    tag_288:\n        /* \"#utility.yul\":11410:11416   */\n      0x00\n        /* \"#utility.yul\":11444:11449   */\n      dup2\n        /* \"#utility.yul\":11438:11450   */\n      mload\n        /* \"#utility.yul\":11428:11450   */\n      swap1\n      pop\n        /* \"#utility.yul\":11343:11457   */\n      swap2\n      swap1\n      pop\n      jump\t// out\n        /* \"#utility.yul\":11463:11647   */\n    tag_289:\n        /* \"#utility.yul\":11562:11573   */\n      0x00\n        /* \"#utility.yul\":11596:11602   */\n      dup3\n        /* \"#utility.yul\":11591:11594   */\n      dup3\n        /* \"#utility.yul\":11584:11603   */\n      mstore\n        /* \"#utility.yul\":11636:11640   */\n      0x20\n        /* \"#utility.yul\":11631:11634   */\n      dup3\n        /* \"#utility.yul\":11627:11641   */\n      add\n        /* \"#utility.yul\":11612:11641   */\n      swap1\n      pop\n        /* \"#utility.yul\":11463:11647   */\n      swap3\n      swap2\n      pop\n      pop\n      jump\t// out\n        /* \"#utility.yul\":11653:11785   */\n    tag_290:\n        /* \"#utility.yul\":11720:11724   */\n      0x00\n        /* \"#utility.yul\":11743:11746   */\n      dup2\n        /* \"#utility.yul\":11735:11746   */\n      swap1\n      pop\n        /* \"#utility.yul\":11773:11777   */\n      0x20\n        /* \"#utility.yul\":11768:11771   */\n      dup3\n        /* \"#utility.yul\":11764:11778   */\n      add\n        /* \"#utility.yul\":11756:11778   */\n      swap1\n      pop\n        /* \"#utility.yul\":11653:11785   */\n      swap2\n      swap1\n      pop\n      jump\t// out\n        /* \"#utility.yul\":11791:11899   */\n    tag_291:\n        /* \"#utility.yul\":11868:11892   */\n      tag_473\n        /* \"#utility.yul\":11886:11891   */\n      dup2\n        /* \"#utility.yul\":11868:11892   */\n      tag_258\n      jump\t// in\n    tag_473:\n        /* \"#utility.yul\":11863:11866   */\n      dup3\n        /* \"#utility.yul\":11856:11893   */\n      mstore\n        /* \"#utility.yul\":11791:11899   */\n      pop\n      pop\n      jump\t// out\n        /* \"#utility.yul\":11905:12084   */\n    tag_292:\n        /* \"#utility.yul\":11974:11984   */\n      0x00\n        /* \"#utility.yul\":11995:12041   */\n      tag_475\n        /* \"#utility.yul\":12037:12040   */\n      dup4\n        /* \"#utility.yul\":12029:12035   */\n      dup4\n        /* \"#utility.yul\":11995:12041   */\n      tag_291\n      jump\t// in\n    tag_475:\n        /* \"#utility.yul\":12073:12077   */\n      0x20\n        /* \"#utility.yul\":12068:12071   */\n      dup4\n        /* \"#utility.yul\":12064:12078   */\n      add\n        /* \"#utility.yul\":12050:12078   */\n      swap1\n      pop\n        /* \"#utility.yul\":11905:12084   */\n      swap3\n      swap2\n      pop\n      pop\n      jump\t// out\n        /* \"#utility.yul\":12090:12203   */\n    tag_293:\n        /* \"#utility.yul\":12160:12164   */\n      0x00\n        /* \"#utility.yul\":12192:12196   */\n      0x20\n        /* \"#utility.yul\":12187:12190   */\n      dup3\n        /* \"#utility.yul\":12183:12197   */\n      add\n        /* \"#utility.yul\":12175:12197   */\n      swap1\n      pop\n        /* \"#utility.yul\":12090:12203   */\n      swap2\n      swap1\n      pop\n      jump\t// out\n        /* \"#utility.yul\":12239:12971   */\n    tag_294:\n        /* \"#utility.yul\":12358:12361   */\n      0x00\n        /* \"#utility.yul\":12387:12441   */\n      tag_478\n        /* \"#utility.yul\":12435:12440   */\n      dup3\n        /* \"#utility.yul\":12387:12441   */\n      tag_288\n      jump\t// in\n    tag_478:\n        /* \"#utility.yul\":12457:12543   */\n      tag_479\n        /* \"#utility.yul\":12536:12542   */\n      dup2\n        /* \"#utility.yul\":12531:12534   */\n      dup6\n        /* \"#utility.yul\":12457:12543   */\n      tag_289\n      jump\t// in\n    tag_479:\n        /* \"#utility.yul\":12450:12543   */\n      swap4\n      pop\n        /* \"#utility.yul\":12567:12623   */\n      tag_480\n        /* \"#utility.yul\":12617:12622   */\n      dup4\n        /* \"#utility.yul\":12567:12623   */\n      tag_290\n      jump\t// in\n    tag_480:\n        /* \"#utility.yul\":12646:12653   */\n      dup1\n        /* \"#utility.yul\":12677:12678   */\n      0x00\n        /* \"#utility.yul\":12662:12946   */\n    tag_481:\n        /* \"#utility.yul\":12687:12693   */\n      dup4\n        /* \"#utility.yul\":12684:12685   */\n      dup2\n        /* \"#utility.yul\":12681:12694   */\n      lt\n        /* \"#utility.yul\":12662:12946   */\n      iszero\n      tag_483\n      jumpi\n        /* \"#utility.yul\":12763:12769   */\n      dup2\n        /* \"#utility.yul\":12757:12770   */\n      mload\n        /* \"#utility.yul\":12790:12853   */\n      tag_484\n        /* \"#utility.yul\":12849:12852   */\n      dup9\n        /* \"#utility.yul\":12834:12847   */\n      dup3\n        /* \"#utility.yul\":12790:12853   */\n      tag_292\n      jump\t// in\n    tag_484:\n        /* \"#utility.yul\":12783:12853   */\n      swap8\n      pop\n        /* \"#utility.yul\":12876:12936   */\n      tag_485\n        /* \"#utility.yul\":12929:12935   */\n      dup4\n        /* \"#utility.yul\":12876:12936   */\n      tag_293\n      jump\t// in\n    tag_485:\n        /* \"#utility.yul\":12866:12936   */\n      swap3\n      pop\n        /* \"#utility.yul\":12722:12946   */\n      pop\n        /* \"#utility.yul\":12709:12710   */\n      0x01\n        /* \"#utility.yul\":12706:12707   */\n      dup2\n        /* \"#utility.yul\":12702:12711   */\n      add\n        /* \"#utility.yul\":12697:12711   */\n      swap1\n      pop\n        /* \"#utility.yul\":12662:12946   */\n      jump(tag_481)\n    tag_483:\n        /* \"#utility.yul\":12666:12680   */\n      pop\n        /* \"#utility.yul\":12962:12965   */\n      dup6\n        /* \"#utility.yul\":12955:12965   */\n      swap4\n      pop\n        /* \"#utility.yul\":12363:12971   */\n      pop\n      pop\n      pop\n        /* \"#utility.yul\":12239:12971   */\n      swap3\n      swap2\n      pop\n      pop\n      jump\t// out\n        /* \"#utility.yul\":12977:13350   */\n    tag_92:\n        /* \"#utility.yul\":13120:13124   */\n      0x00\n        /* \"#utility.yul\":13158:13160   */\n      0x20\n        /* \"#utility.yul\":13147:13156   */\n      dup3\n        /* \"#utility.yul\":13143:13161   */\n      add\n        /* \"#utility.yul\":13135:13161   */\n      swap1\n      pop\n        /* \"#utility.yul\":13207:13216   */\n      dup2\n        /* \"#utility.yul\":13201:13205   */\n      dup2\n        /* \"#utility.yul\":13197:13217   */\n      sub\n        /* \"#utility.yul\":13193:13194   */\n      0x00\n        /* \"#utility.yul\":13182:13191   */\n      dup4\n        /* \"#utility.yul\":13178:13195   */\n      add\n        /* \"#utility.yul\":13171:13218   */\n      mstore\n        /* \"#utility.yul\":13235:13343   */\n      tag_487\n        /* \"#utility.yul\":13338:13342   */\n      dup2\n        /* \"#utility.yul\":13329:13335   */\n      dup5\n        /* \"#utility.yul\":13235:13343   */\n      tag_294\n      jump\t// in\n    tag_487:\n        /* \"#utility.yul\":13227:13343   */\n      swap1\n      pop\n        /* \"#utility.yul\":12977:13350   */\n      swap3\n      swap2\n      pop\n      pop\n      jump\t// out\n        /* \"#utility.yul\":13356:14067   */\n    tag_101:\n        /* \"#utility.yul\":13561:13565   */\n      0x00\n        /* \"#utility.yul\":13599:13602   */\n      0x80\n        /* \"#utility.yul\":13588:13597   */\n      dup3\n        /* \"#utility.yul\":13584:13603   */\n      add\n        /* \"#utility.yul\":13576:13603   */\n      swap1\n      pop\n        /* \"#utility.yul\":13649:13658   */\n      dup2\n        /* \"#utility.yul\":13643:13647   */\n      dup2\n        /* \"#utility.yul\":13639:13659   */\n      sub\n        /* \"#utility.yul\":13635:13636   */\n      0x00\n        /* \"#utility.yul\":13624:13633   */\n      dup4\n        /* \"#utility.yul\":13620:13637   */\n      add\n        /* \"#utility.yul\":13613:13660   */\n      mstore\n        /* \"#utility.yul\":13677:13755   */\n      tag_489\n        /* \"#utility.yul\":13750:13754   */\n      dup2\n        /* \"#utility.yul\":13741:13747   */\n      dup8\n        /* \"#utility.yul\":13677:13755   */\n      tag_269\n      jump\t// in\n    tag_489:\n        /* \"#utility.yul\":13669:13755   */\n      swap1\n      pop\n        /* \"#utility.yul\":13802:13811   */\n      dup2\n        /* \"#utility.yul\":13796:13800   */\n      dup2\n        /* \"#utility.yul\":13792:13812   */\n      sub\n        /* \"#utility.yul\":13787:13789   */\n      0x20\n        /* \"#utility.yul\":13776:13785   */\n      dup4\n        /* \"#utility.yul\":13772:13790   */\n      add\n        /* \"#utility.yul\":13765:13813   */\n      mstore\n        /* \"#utility.yul\":13830:13908   */\n      tag_490\n        /* \"#utility.yul\":13903:13907   */\n      dup2\n        /* \"#utility.yul\":13894:13900   */\n      dup7\n        /* \"#utility.yul\":13830:13908   */\n      tag_269\n      jump\t// in\n    tag_490:\n        /* \"#utility.yul\":13822:13908   */\n      swap1\n      pop\n        /* \"#utility.yul\":13918:13984   */\n      tag_491\n        /* \"#utility.yul\":13980:13982   */\n      0x40\n        /* \"#utility.yul\":13969:13978   */\n      dup4\n        /* \"#utility.yul\":13965:13983   */\n      add\n        /* \"#utility.yul\":13956:13962   */\n      dup6\n        /* \"#utility.yul\":13918:13984   */\n      tag_273\n      jump\t// in\n    tag_491:\n        /* \"#utility.yul\":13994:14060   */\n      tag_492\n        /* \"#utility.yul\":14056:14058   */\n      0x60\n        /* \"#utility.yul\":14045:14054   */\n      dup4\n        /* \"#utility.yul\":14041:14059   */\n      add\n        /* \"#utility.yul\":14032:14038   */\n      dup5\n        /* \"#utility.yul\":13994:14060   */\n      tag_273\n      jump\t// in\n    tag_492:\n        /* \"#utility.yul\":13356:14067   */\n      swap6\n      swap5\n      pop\n      pop\n      pop\n      pop\n      pop\n      jump\t// out\n        /* \"#utility.yul\":14073:14191   */\n    tag_295:\n        /* \"#utility.yul\":14160:14184   */\n      tag_494\n        /* \"#utility.yul\":14178:14183   */\n      dup2\n        /* \"#utility.yul\":14160:14184   */\n      tag_258\n      jump\t// in\n    tag_494:\n        /* \"#utility.yul\":14155:14158   */\n      dup3\n        /* \"#utility.yul\":14148:14185   */\n      mstore\n        /* \"#utility.yul\":14073:14191   */\n      pop\n      pop\n      jump\t// out\n        /* \"#utility.yul\":14197:15253   */\n    tag_111:\n        /* \"#utility.yul\":14492:14496   */\n      0x00\n        /* \"#utility.yul\":14530:14533   */\n      0xe0\n        /* \"#utility.yul\":14519:14528   */\n      dup3\n        /* \"#utility.yul\":14515:14534   */\n      add\n        /* \"#utility.yul\":14507:14534   */\n      swap1\n      pop\n        /* \"#utility.yul\":14580:14589   */\n      dup2\n        /* \"#utility.yul\":14574:14578   */\n      dup2\n        /* \"#utility.yul\":14570:14590   */\n      sub\n        /* \"#utility.yul\":14566:14567   */\n      0x00\n        /* \"#utility.yul\":14555:14564   */\n      dup4\n        /* \"#utility.yul\":14551:14568   */\n      add\n        /* \"#utility.yul\":14544:14591   */\n      mstore\n        /* \"#utility.yul\":14608:14686   */\n      tag_496\n        /* \"#utility.yul\":14681:14685   */\n      dup2\n        /* \"#utility.yul\":14672:14678   */\n      dup11\n        /* \"#utility.yul\":14608:14686   */\n      tag_269\n      jump\t// in\n    tag_496:\n        /* \"#utility.yul\":14600:14686   */\n      swap1\n      pop\n        /* \"#utility.yul\":14733:14742   */\n      dup2\n        /* \"#utility.yul\":14727:14731   */\n      dup2\n        /* \"#utility.yul\":14723:14743   */\n      sub\n        /* \"#utility.yul\":14718:14720   */\n      0x20\n        /* \"#utility.yul\":14707:14716   */\n      dup4\n        /* \"#utility.yul\":14703:14721   */\n      add\n        /* \"#utility.yul\":14696:14744   */\n      mstore\n        /* \"#utility.yul\":14761:14839   */\n      tag_497\n        /* \"#utility.yul\":14834:14838   */\n      dup2\n        /* \"#utility.yul\":14825:14831   */\n      dup10\n        /* \"#utility.yul\":14761:14839   */\n      tag_269\n      jump\t// in\n    tag_497:\n        /* \"#utility.yul\":14753:14839   */\n      swap1\n      pop\n        /* \"#utility.yul\":14849:14921   */\n      tag_498\n        /* \"#utility.yul\":14917:14919   */\n      0x40\n        /* \"#utility.yul\":14906:14915   */\n      dup4\n        /* \"#utility.yul\":14902:14920   */\n      add\n        /* \"#utility.yul\":14893:14899   */\n      dup9\n        /* \"#utility.yul\":14849:14921   */\n      tag_271\n      jump\t// in\n    tag_498:\n        /* \"#utility.yul\":14931:15003   */\n      tag_499\n        /* \"#utility.yul\":14999:15001   */\n      0x60\n        /* \"#utility.yul\":14988:14997   */\n      dup4\n        /* \"#utility.yul\":14984:15002   */\n      add\n        /* \"#utility.yul\":14975:14981   */\n      dup8\n        /* \"#utility.yul\":14931:15003   */\n      tag_262\n      jump\t// in\n    tag_499:\n        /* \"#utility.yul\":15013:15080   */\n      tag_500\n        /* \"#utility.yul\":15075:15078   */\n      0x80\n        /* \"#utility.yul\":15064:15073   */\n      dup4\n        /* \"#utility.yul\":15060:15079   */\n      add\n        /* \"#utility.yul\":15051:15057   */\n      dup7\n        /* \"#utility.yul\":15013:15080   */\n      tag_273\n      jump\t// in\n    tag_500:\n        /* \"#utility.yul\":15090:15163   */\n      tag_501\n        /* \"#utility.yul\":15158:15161   */\n      0xa0\n        /* \"#utility.yul\":15147:15156   */\n      dup4\n        /* \"#utility.yul\":15143:15162   */\n      add\n        /* \"#utility.yul\":15134:15140   */\n      dup6\n        /* \"#utility.yul\":15090:15163   */\n      tag_295\n      jump\t// in\n    tag_501:\n        /* \"#utility.yul\":15173:15246   */\n      tag_502\n        /* \"#utility.yul\":15241:15244   */\n      0xc0\n        /* \"#utility.yul\":15230:15239   */\n      dup4\n        /* \"#utility.yul\":15226:15245   */\n      add\n        /* \"#utility.yul\":15217:15223   */\n      dup5\n        /* \"#utility.yul\":15173:15246   */\n      tag_262\n      jump\t// in\n    tag_502:\n        /* \"#utility.yul\":14197:15253   */\n      swap9\n      swap8\n      pop\n      pop\n      pop\n      pop\n      pop\n      pop\n      pop\n      pop\n      jump\t// out\n        /* \"#utility.yul\":15259:15591   */\n    tag_122:\n        /* \"#utility.yul\":15380:15384   */\n      0x00\n        /* \"#utility.yul\":15418:15420   */\n      0x40\n        /* \"#utility.yul\":15407:15416   */\n      dup3\n        /* \"#utility.yul\":15403:15421   */\n      add\n        /* \"#utility.yul\":15395:15421   */\n      swap1\n      pop\n        /* \"#utility.yul\":15431:15502   */\n      tag_504\n        /* \"#utility.yul\":15499:15500   */\n      0x00\n        /* \"#utility.yul\":15488:15497   */\n      dup4\n        /* \"#utility.yul\":15484:15501   */\n      add\n        /* \"#utility.yul\":15475:15481   */\n      dup6\n        /* \"#utility.yul\":15431:15502   */\n      tag_262\n      jump\t// in\n    tag_504:\n        /* \"#utility.yul\":15512:15584   */\n      tag_505\n        /* \"#utility.yul\":15580:15582   */\n      0x20\n        /* \"#utility.yul\":15569:15578   */\n      dup4\n        /* \"#utility.yul\":15565:15583   */\n      add\n        /* \"#utility.yul\":15556:15562   */\n      dup5\n        /* \"#utility.yul\":15512:15584   */\n      tag_262\n      jump\t// in\n    tag_505:\n        /* \"#utility.yul\":15259:15591   */\n      swap4\n      swap3\n      pop\n      pop\n      pop\n      jump\t// out\n        /* \"#utility.yul\":15597:15817   */\n    tag_296:\n        /* \"#utility.yul\":15737:15771   */\n      0x4f6e6c7920706c6174666f726d206f776e65722063616e2062616e2075736572\n        /* \"#utility.yul\":15733:15734   */\n      0x00\n        /* \"#utility.yul\":15725:15731   */\n      dup3\n        /* \"#utility.yul\":15721:15735   */\n      add\n        /* \"#utility.yul\":15714:15772   */\n      mstore\n        /* \"#utility.yul\":15806:15809   */\n      0x7300000000000000000000000000000000000000000000000000000000000000\n        /* \"#utility.yul\":15801:15803   */\n      0x20\n        /* \"#utility.yul\":15793:15799   */\n      dup3\n        /* \"#utility.yul\":15789:15804   */\n      add\n        /* \"#utility.yul\":15782:15810   */\n      mstore\n        /* \"#utility.yul\":15597:15817   */\n      pop\n      jump\t// out\n        /* \"#utility.yul\":15823:16189   */\n    tag_297:\n        /* \"#utility.yul\":15965:15968   */\n      0x00\n        /* \"#utility.yul\":15986:16053   */\n      tag_508\n        /* \"#utility.yul\":16050:16052   */\n      0x21\n        /* \"#utility.yul\":16045:16048   */\n      dup4\n        /* \"#utility.yul\":15986:16053   */\n      tag_266\n      jump\t// in\n    tag_508:\n        /* \"#utility.yul\":15979:16053   */\n      swap2\n      pop\n        /* \"#utility.yul\":16062:16155   */\n      tag_509\n        /* \"#utility.yul\":16151:16154   */\n      dup3\n        /* \"#utility.yul\":16062:16155   */\n      tag_296\n      jump\t// in\n    tag_509:\n        /* \"#utility.yul\":16180:16182   */\n      0x40\n        /* \"#utility.yul\":16175:16178   */\n      dup3\n        /* \"#utility.yul\":16171:16183   */\n      add\n        /* \"#utility.yul\":16164:16183   */\n      swap1\n      pop\n        /* \"#utility.yul\":15823:16189   */\n      swap2\n      swap1\n      pop\n      jump\t// out\n        /* \"#utility.yul\":16195:16614   */\n    tag_126:\n        /* \"#utility.yul\":16361:16365   */\n      0x00\n        /* \"#utility.yul\":16399:16401   */\n      0x20\n        /* \"#utility.yul\":16388:16397   */\n      dup3\n        /* \"#utility.yul\":16384:16402   */\n      add\n        /* \"#utility.yul\":16376:16402   */\n      swap1\n      pop\n        /* \"#utility.yul\":16448:16457   */\n      dup2\n        /* \"#utility.yul\":16442:16446   */\n      dup2\n        /* \"#utility.yul\":16438:16458   */\n      sub\n        /* \"#utility.yul\":16434:16435   */\n      0x00\n        /* \"#utility.yul\":16423:16432   */\n      dup4\n        /* \"#utility.yul\":16419:16436   */\n      add\n        /* \"#utility.yul\":16412:16459   */\n      mstore\n        /* \"#utility.yul\":16476:16607   */\n      tag_511\n        /* \"#utility.yul\":16602:16606   */\n      dup2\n        /* \"#utility.yul\":16476:16607   */\n      tag_297\n      jump\t// in\n    tag_511:\n        /* \"#utility.yul\":16468:16607   */\n      swap1\n      pop\n        /* \"#utility.yul\":16195:16614   */\n      swap2\n      swap1\n      pop\n      jump\t// out\n        /* \"#utility.yul\":16620:16789   */\n    tag_298:\n        /* \"#utility.yul\":16760:16781   */\n      0x55736572206e6f74207265676973746572656400000000000000000000000000\n        /* \"#utility.yul\":16756:16757   */\n      0x00\n        /* \"#utility.yul\":16748:16754   */\n      dup3\n        /* \"#utility.yul\":16744:16758   */\n      add\n        /* \"#utility.yul\":16737:16782   */\n      mstore\n        /* \"#utility.yul\":16620:16789   */\n      pop\n      jump\t// out\n        /* \"#utility.yul\":16795:17161   */\n    tag_299:\n        /* \"#utility.yul\":16937:16940   */\n      0x00\n        /* \"#utility.yul\":16958:17025   */\n      tag_514\n        /* \"#utility.yul\":17022:17024   */\n      0x13\n        /* \"#utility.yul\":17017:17020   */\n      dup4\n        /* \"#utility.yul\":16958:17025   */\n      tag_266\n      jump\t// in\n    tag_514:\n        /* \"#utility.yul\":16951:17025   */\n      swap2\n      pop\n        /* \"#utility.yul\":17034:17127   */\n      tag_515\n        /* \"#utility.yul\":17123:17126   */\n      dup3\n        /* \"#utility.yul\":17034:17127   */\n      tag_298\n      jump\t// in\n    tag_515:\n        /* \"#utility.yul\":17152:17154   */\n      0x20\n        /* \"#utility.yul\":17147:17150   */\n      dup3\n        /* \"#utility.yul\":17143:17155   */\n      add\n        /* \"#utility.yul\":17136:17155   */\n      swap1\n      pop\n        /* \"#utility.yul\":16795:17161   */\n      swap2\n      swap1\n      pop\n      jump\t// out\n        /* \"#utility.yul\":17167:17586   */\n    tag_130:\n        /* \"#utility.yul\":17333:17337   */\n      0x00\n        /* \"#utility.yul\":17371:17373   */\n      0x20\n        /* \"#utility.yul\":17360:17369   */\n      dup3\n        /* \"#utility.yul\":17356:17374   */\n      add\n        /* \"#utility.yul\":17348:17374   */\n      swap1\n      pop\n        /* \"#utility.yul\":17420:17429   */\n      dup2\n        /* \"#utility.yul\":17414:17418   */\n      dup2\n        /* \"#utility.yul\":17410:17430   */\n      sub\n        /* \"#utility.yul\":17406:17407   */\n      0x00\n        /* \"#utility.yul\":17395:17404   */\n      dup4\n        /* \"#utility.yul\":17391:17408   */\n      add\n        /* \"#utility.yul\":17384:17431   */\n      mstore\n        /* \"#utility.yul\":17448:17579   */\n      tag_517\n        /* \"#utility.yul\":17574:17578   */\n      dup2\n        /* \"#utility.yul\":17448:17579   */\n      tag_299\n      jump\t// in\n    tag_517:\n        /* \"#utility.yul\":17440:17579   */\n      swap1\n      pop\n        /* \"#utility.yul\":17167:17586   */\n      swap2\n      swap1\n      pop\n      jump\t// out\n        /* \"#utility.yul\":17592:17823   */\n    tag_300:\n        /* \"#utility.yul\":17732:17766   */\n      0x4f6e6c7920726567697374657265642064617461206275796572732063616e20\n        /* \"#utility.yul\":17728:17729   */\n      0x00\n        /* \"#utility.yul\":17720:17726   */\n      dup3\n        /* \"#utility.yul\":17716:17730   */\n      add\n        /* \"#utility.yul\":17709:17767   */\n      mstore\n        /* \"#utility.yul\":17801:17815   */\n      0x726174652073656c6c6572730000000000000000000000000000000000000000\n        /* \"#utility.yul\":17796:17798   */\n      0x20\n        /* \"#utility.yul\":17788:17794   */\n      dup3\n        /* \"#utility.yul\":17784:17799   */\n      add\n        /* \"#utility.yul\":17777:17816   */\n      mstore\n        /* \"#utility.yul\":17592:17823   */\n      pop\n      jump\t// out\n        /* \"#utility.yul\":17829:18195   */\n    tag_301:\n        /* \"#utility.yul\":17971:17974   */\n      0x00\n        /* \"#utility.yul\":17992:18059   */\n      tag_520\n        /* \"#utility.yul\":18056:18058   */\n      0x2c\n        /* \"#utility.yul\":18051:18054   */\n      dup4\n        /* \"#utility.yul\":17992:18059   */\n      tag_266\n      jump\t// in\n    tag_520:\n        /* \"#utility.yul\":17985:18059   */\n      swap2\n      pop\n        /* \"#utility.yul\":18068:18161   */\n      tag_521\n        /* \"#utility.yul\":18157:18160   */\n      dup3\n        /* \"#utility.yul\":18068:18161   */\n      tag_300\n      jump\t// in\n    tag_521:\n        /* \"#utility.yul\":18186:18188   */\n      0x40\n        /* \"#utility.yul\":18181:18184   */\n      dup3\n        /* \"#utility.yul\":18177:18189   */\n      add\n        /* \"#utility.yul\":18170:18189   */\n      swap1\n      pop\n        /* \"#utility.yul\":17829:18195   */\n      swap2\n      swap1\n      pop\n      jump\t// out\n        /* \"#utility.yul\":18201:18620   */\n    tag_135:\n        /* \"#utility.yul\":18367:18371   */\n      0x00\n        /* \"#utility.yul\":18405:18407   */\n      0x20\n        /* \"#utility.yul\":18394:18403   */\n      dup3\n        /* \"#utility.yul\":18390:18408   */\n      add\n        /* \"#utility.yul\":18382:18408   */\n      swap1\n      pop\n        /* \"#utility.yul\":18454:18463   */\n      dup2\n        /* \"#utility.yul\":18448:18452   */\n      dup2\n        /* \"#utility.yul\":18444:18464   */\n      sub\n        /* \"#utility.yul\":18440:18441   */\n      0x00\n        /* \"#utility.yul\":18429:18438   */\n      dup4\n        /* \"#utility.yul\":18425:18442   */\n      add\n        /* \"#utility.yul\":18418:18465   */\n      mstore\n        /* \"#utility.yul\":18482:18613   */\n      tag_523\n        /* \"#utility.yul\":18608:18612   */\n      dup2\n        /* \"#utility.yul\":18482:18613   */\n      tag_301\n      jump\t// in\n    tag_523:\n        /* \"#utility.yul\":18474:18613   */\n      swap1\n      pop\n        /* \"#utility.yul\":18201:18620   */\n      swap2\n      swap1\n      pop\n      jump\t// out\n        /* \"#utility.yul\":18626:18806   */\n    tag_302:\n        /* \"#utility.yul\":18766:18798   */\n      0x53656c6c6572732063616e6e6f742072617465207468656d73656c7665730000\n        /* \"#utility.yul\":18762:18763   */\n      0x00\n        /* \"#utility.yul\":18754:18760   */\n      dup3\n        /* \"#utility.yul\":18750:18764   */\n      add\n        /* \"#utility.yul\":18743:18799   */\n      mstore\n        /* \"#utility.yul\":18626:18806   */\n      pop\n      jump\t// out\n        /* \"#utility.yul\":18812:19178   */\n    tag_303:\n        /* \"#utility.yul\":18954:18957   */\n      0x00\n        /* \"#utility.yul\":18975:19042   */\n      tag_526\n        /* \"#utility.yul\":19039:19041   */\n      0x1e\n        /* \"#utility.yul\":19034:19037   */\n      dup4\n        /* \"#utility.yul\":18975:19042   */\n      tag_266\n      jump\t// in\n    tag_526:\n        /* \"#utility.yul\":18968:19042   */\n      swap2\n      pop\n        /* \"#utility.yul\":19051:19144   */\n      tag_527\n        /* \"#utility.yul\":19140:19143   */\n      dup3\n        /* \"#utility.yul\":19051:19144   */\n      tag_302\n      jump\t// in\n    tag_527:\n        /* \"#utility.yul\":19169:19171   */\n      0x20\n        /* \"#utility.yul\":19164:19167   */\n      dup3\n        /* \"#utility.yul\":19160:19172   */\n      add\n        /* \"#utility.yul\":19153:19172   */\n      swap1\n      pop\n        /* \"#utility.yul\":18812:19178   */\n      swap2\n      swap1\n      pop\n      jump\t// out\n        /* \"#utility.yul\":19184:19603   */\n    tag_138:\n        /* \"#utility.yul\":19350:19354   */\n      0x00\n        /* \"#utility.yul\":19388:19390   */\n      0x20\n        /* \"#utility.yul\":19377:19386   */\n      dup3\n        /* \"#utility.yul\":19373:19391   */\n      add\n        /* \"#utility.yul\":19365:19391   */\n      swap1\n      pop\n        /* \"#utility.yul\":19437:19446   */\n      dup2\n        /* \"#utility.yul\":19431:19435   */\n      dup2\n        /* \"#utility.yul\":19427:19447   */\n      sub\n        /* \"#utility.yul\":19423:19424   */\n      0x00\n        /* \"#utility.yul\":19412:19421   */\n      dup4\n        /* \"#utility.yul\":19408:19425   */\n      add\n        /* \"#utility.yul\":19401:19448   */\n      mstore\n        /* \"#utility.yul\":19465:19596   */\n      tag_529\n        /* \"#utility.yul\":19591:19595   */\n      dup2\n        /* \"#utility.yul\":19465:19596   */\n      tag_303\n      jump\t// in\n    tag_529:\n        /* \"#utility.yul\":19457:19596   */\n      swap1\n      pop\n        /* \"#utility.yul\":19184:19603   */\n      swap2\n      swap1\n      pop\n      jump\t// out\n        /* \"#utility.yul\":19609:19789   */\n    tag_304:\n        /* \"#utility.yul\":19657:19734   */\n      0x4e487b7100000000000000000000000000000000000000000000000000000000\n        /* \"#utility.yul\":19654:19655   */\n      0x00\n        /* \"#utility.yul\":19647:19735   */\n      mstore\n        /* \"#utility.yul\":19754:19758   */\n      0x11\n        /* \"#utility.yul\":19751:19752   */\n      0x04\n        /* \"#utility.yul\":19744:19759   */\n      mstore\n        /* \"#utility.yul\":19778:19782   */\n      0x24\n        /* \"#utility.yul\":19775:19776   */\n      0x00\n        /* \"#utility.yul\":19768:19783   */\n      revert\n        /* \"#utility.yul\":19795:20028   */\n    tag_140:\n        /* \"#utility.yul\":19834:19837   */\n      0x00\n        /* \"#utility.yul\":19857:19881   */\n      tag_532\n        /* \"#utility.yul\":19875:19880   */\n      dup3\n        /* \"#utility.yul\":19857:19881   */\n      tag_261\n      jump\t// in\n    tag_532:\n        /* \"#utility.yul\":19848:19881   */\n      swap2\n      pop\n        /* \"#utility.yul\":19903:19969   */\n      0xffffffffffffffffffffffffffffffffffffffffffffffffffffffffffffffff\n        /* \"#utility.yul\":19896:19901   */\n      dup3\n        /* \"#utility.yul\":19893:19970   */\n      sub\n        /* \"#utility.yul\":19890:19993   */\n      tag_533\n      jumpi\n        /* \"#utility.yul\":19973:19991   */\n      tag_534\n      tag_304\n      jump\t// in\n    tag_534:\n        /* \"#utility.yul\":19890:19993   */\n    tag_533:\n        /* \"#utility.yul\":20020:20021   */\n      0x01\n        /* \"#utility.yul\":20013:20018   */\n      dup3\n        /* \"#utility.yul\":20009:20022   */\n      add\n        /* \"#utility.yul\":20002:20022   */\n      swap1\n      pop\n        /* \"#utility.yul\":19795:20028   */\n      swap2\n      swap1\n      pop\n      jump\t// out\n        /* \"#utility.yul\":20034:20225   */\n    tag_142:\n        /* \"#utility.yul\":20074:20077   */\n      0x00\n        /* \"#utility.yul\":20093:20113   */\n      tag_536\n        /* \"#utility.yul\":20111:20112   */\n      dup3\n        /* \"#utility.yul\":20093:20113   */\n      tag_261\n      jump\t// in\n    tag_536:\n        /* \"#utility.yul\":20088:20113   */\n      swap2\n      pop\n        /* \"#utility.yul\":20127:20147   */\n      tag_537\n        /* \"#utility.yul\":20145:20146   */\n      dup4\n        /* \"#utility.yul\":20127:20147   */\n      tag_261\n      jump\t// in\n    tag_537:\n        /* \"#utility.yul\":20122:20147   */\n      swap3\n      pop\n        /* \"#utility.yul\":20170:20171   */\n      dup3\n        /* \"#utility.yul\":20167:20168   */\n      dup3\n        /* \"#utility.yul\":20163:20172   */\n      add\n        /* \"#utility.yul\":20156:20172   */\n      swap1\n      pop\n        /* \"#utility.yul\":20191:20194   */\n      dup1\n        /* \"#utility.yul\":20188:20189   */\n      dup3\n        /* \"#utility.yul\":20185:20195   */\n      gt\n        /* \"#utility.yul\":20182:20218   */\n      iszero\n      tag_538\n      jumpi\n        /* \"#utility.yul\":20198:20216   */\n      tag_539\n      tag_304\n      jump\t// in\n    tag_539:\n        /* \"#utility.yul\":20182:20218   */\n    tag_538:\n        /* \"#utility.yul\":20034:20225   */\n      swap3\n      swap2\n      pop\n      pop\n      jump\t// out\n        /* \"#utility.yul\":20231:20411   */\n    tag_305:\n        /* \"#utility.yul\":20279:20356   */\n      0x4e487b7100000000000000000000000000000000000000000000000000000000\n        /* \"#utility.yul\":20276:20277   */\n      0x00\n        /* \"#utility.yul\":20269:20357   */\n      mstore\n        /* \"#utility.yul\":20376:20380   */\n      0x22\n        /* \"#utility.yul\":20373:20374   */\n      0x04\n        /* \"#utility.yul\":20366:20381   */\n      mstore\n        /* \"#utility.yul\":20400:20404   */\n      0x24\n        /* \"#utility.yul\":20397:20398   */\n      0x00\n        /* \"#utility.yul\":20390:20405   */\n      revert\n        /* \"#utility.yul\":20417:20737   */\n    tag_144:\n        /* \"#utility.yul\":20461:20467   */\n      0x00\n        /* \"#utility.yul\":20498:20499   */\n      0x02\n        /* \"#utility.yul\":20492:20496   */\n      dup3\n        /* \"#utility.yul\":20488:20500   */\n      div\n        /* \"#utility.yul\":20478:20500   */\n      swap1\n      pop\n        /* \"#utility.yul\":20545:20546   */\n      0x01\n        /* \"#utility.yul\":20539:20543   */\n      dup3\n        /* \"#utility.yul\":20535:20547   */\n      and\n        /* \"#utility.yul\":20566:20584   */\n      dup1\n        /* \"#utility.yul\":20556:20637   */\n      tag_542\n      jumpi\n        /* \"#utility.yul\":20622:20626   */\n      0x7f\n        /* \"#utility.yul\":20614:20620   */\n      dup3\n        /* \"#utility.yul\":20610:20627   */\n      and\n        /* \"#utility.yul\":20600:20627   */\n      swap2\n      pop\n        /* \"#utility.yul\":20556:20637   */\n    tag_542:\n        /* \"#utility.yul\":20684:20686   */\n      0x20\n        /* \"#utility.yul\":20676:20682   */\n      dup3\n        /* \"#utility.yul\":20673:20687   */\n      lt\n        /* \"#utility.yul\":20653:20671   */\n      dup2\n        /* \"#utility.yul\":20650:20688   */\n      sub\n        /* \"#utility.yul\":20647:20731   */\n      tag_543\n      jumpi\n        /* \"#utility.yul\":20703:20721   */\n      tag_544\n      tag_305\n      jump\t// in\n    tag_544:\n        /* \"#utility.yul\":20647:20731   */\n    tag_543:\n        /* \"#utility.yul\":20468:20737   */\n      pop\n        /* \"#utility.yul\":20417:20737   */\n      swap2\n      swap1\n      pop\n      jump\t// out\n        /* \"#utility.yul\":20743:20979   */\n    tag_306:\n        /* \"#utility.yul\":20883:20917   */\n      0x4f6e6c79207265676973746572656420646174612073656c6c6572732063616e\n        /* \"#utility.yul\":20879:20880   */\n      0x00\n        /* \"#utility.yul\":20871:20877   */\n      dup3\n        /* \"#utility.yul\":20867:20881   */\n      add\n        /* \"#utility.yul\":20860:20918   */\n      mstore\n        /* \"#utility.yul\":20952:20971   */\n      0x2075706c6f616420646174612073657473000000000000000000000000000000\n        /* \"#utility.yul\":20947:20949   */\n      0x20\n        /* \"#utility.yul\":20939:20945   */\n      dup3\n        /* \"#utility.yul\":20935:20950   */\n      add\n        /* \"#utility.yul\":20928:20972   */\n      mstore\n        /* \"#utility.yul\":20743:20979   */\n      pop\n      jump\t// out\n        /* \"#utility.yul\":20985:21351   */\n    tag_307:\n        /* \"#utility.yul\":21127:21130   */\n      0x00\n        /* \"#utility.yul\":21148:21215   */\n      tag_547\n        /* \"#utility.yul\":21212:21214   */\n      0x31\n        /* \"#utility.yul\":21207:21210   */\n      dup4\n        /* \"#utility.yul\":21148:21215   */\n      tag_266\n      jump\t// in\n    tag_547:\n        /* \"#utility.yul\":21141:21215   */\n      swap2\n      pop\n        /* \"#utility.yul\":21224:21317   */\n      tag_548\n        /* \"#utility.yul\":21313:21316   */\n      dup3\n        /* \"#utility.yul\":21224:21317   */\n      tag_306\n      jump\t// in\n    tag_548:\n        /* \"#utility.yul\":21342:21344   */\n      0x40\n        /* \"#utility.yul\":21337:21340   */\n      dup3\n        /* \"#utility.yul\":21333:21345   */\n      add\n        /* \"#utility.yul\":21326:21345   */\n      swap1\n      pop\n        /* \"#utility.yul\":20985:21351   */\n      swap2\n      swap1\n      pop\n      jump\t// out\n        /* \"#utility.yul\":21357:21776   */\n    tag_157:\n        /* \"#utility.yul\":21523:21527   */\n      0x00\n        /* \"#utility.yul\":21561:21563   */\n      0x20\n        /* \"#utility.yul\":21550:21559   */\n      dup3\n        /* \"#utility.yul\":21546:21564   */\n      add\n        /* \"#utility.yul\":21538:21564   */\n      swap1\n      pop\n        /* \"#utility.yul\":21610:21619   */\n      dup2\n        /* \"#utility.yul\":21604:21608   */\n      dup2\n        /* \"#utility.yul\":21600:21620   */\n      sub\n        /* \"#utility.yul\":21596:21597   */\n      0x00\n        /* \"#utility.yul\":21585:21594   */\n      dup4\n        /* \"#utility.yul\":21581:21598   */\n      add\n        /* \"#utility.yul\":21574:21621   */\n      mstore\n        /* \"#utility.yul\":21638:21769   */\n      tag_550\n        /* \"#utility.yul\":21764:21768   */\n      dup2\n        /* \"#utility.yul\":21638:21769   */\n      tag_307\n      jump\t// in\n    tag_550:\n        /* \"#utility.yul\":21630:21769   */\n      swap1\n      pop\n        /* \"#utility.yul\":21357:21776   */\n      swap2\n      swap1\n      pop\n      jump\t// out\n        /* \"#utility.yul\":21782:21946   */\n    tag_308:\n        /* \"#utility.yul\":21922:21938   */\n      0x557365722069732062616e6e6564000000000000000000000000000000000000\n        /* \"#utility.yul\":21918:21919   */\n      0x00\n        /* \"#utility.yul\":21910:21916   */\n      dup3\n        /* \"#utility.yul\":21906:21920   */\n      add\n        /* \"#utility.yul\":21899:21939   */\n      mstore\n        /* \"#utility.yul\":21782:21946   */\n      pop\n      jump\t// out\n        /* \"#utility.yul\":21952:22318   */\n    tag_309:\n        /* \"#utility.yul\":22094:22097   */\n      0x00\n        /* \"#utility.yul\":22115:22182   */\n      tag_553\n        /* \"#utility.yul\":22179:22181   */\n      0x0e\n        /* \"#utility.yul\":22174:22177   */\n      dup4\n        /* \"#utility.yul\":22115:22182   */\n      tag_266\n      jump\t// in\n    tag_553:\n        /* \"#utility.yul\":22108:22182   */\n      swap2\n      pop\n        /* \"#utility.yul\":22191:22284   */\n      tag_554\n        /* \"#utility.yul\":22280:22283   */\n      dup3\n        /* \"#utility.yul\":22191:22284   */\n      tag_308\n      jump\t// in\n    tag_554:\n        /* \"#utility.yul\":22309:22311   */\n      0x20\n        /* \"#utility.yul\":22304:22307   */\n      dup3\n        /* \"#utility.yul\":22300:22312   */\n      add\n        /* \"#utility.yul\":22293:22312   */\n      swap1\n      pop\n        /* \"#utility.yul\":21952:22318   */\n      swap2\n      swap1\n      pop\n      jump\t// out\n        /* \"#utility.yul\":22324:22743   */\n    tag_160:\n        /* \"#utility.yul\":22490:22494   */\n      0x00\n        /* \"#utility.yul\":22528:22530   */\n      0x20\n        /* \"#utility.yul\":22517:22526   */\n      dup3\n        /* \"#utility.yul\":22513:22531   */\n      add\n        /* \"#utility.yul\":22505:22531   */\n      swap1\n      pop\n        /* \"#utility.yul\":22577:22586   */\n      dup2\n        /* \"#utility.yul\":22571:22575   */\n      dup2\n        /* \"#utility.yul\":22567:22587   */\n      sub\n        /* \"#utility.yul\":22563:22564   */\n      0x00\n        /* \"#utility.yul\":22552:22561   */\n      dup4\n        /* \"#utility.yul\":22548:22565   */\n      add\n        /* \"#utility.yul\":22541:22588   */\n      mstore\n        /* \"#utility.yul\":22605:22736   */\n      tag_556\n        /* \"#utility.yul\":22731:22735   */\n      dup2\n        /* \"#utility.yul\":22605:22736   */\n      tag_309\n      jump\t// in\n    tag_556:\n        /* \"#utility.yul\":22597:22736   */\n      swap1\n      pop\n        /* \"#utility.yul\":22324:22743   */\n      swap2\n      swap1\n      pop\n      jump\t// out\n        /* \"#utility.yul\":22749:22978   */\n    tag_310:\n        /* \"#utility.yul\":22889:22923   */\n      0x44617461207365742077697468207468652073616d65206861736820616c7265\n        /* \"#utility.yul\":22885:22886   */\n      0x00\n        /* \"#utility.yul\":22877:22883   */\n      dup3\n        /* \"#utility.yul\":22873:22887   */\n      add\n        /* \"#utility.yul\":22866:22924   */\n      mstore\n        /* \"#utility.yul\":22958:22970   */\n      0x6164792065786973747300000000000000000000000000000000000000000000\n        /* \"#utility.yul\":22953:22955   */\n      0x20\n        /* \"#utility.yul\":22945:22951   */\n      dup3\n        /* \"#utility.yul\":22941:22956   */\n      add\n        /* \"#utility.yul\":22934:22971   */\n      mstore\n        /* \"#utility.yul\":22749:22978   */\n      pop\n      jump\t// out\n        /* \"#utility.yul\":22984:23350   */\n    tag_311:\n        /* \"#utility.yul\":23126:23129   */\n      0x00\n        /* \"#utility.yul\":23147:23214   */\n      tag_559\n        /* \"#utility.yul\":23211:23213   */\n      0x2a\n        /* \"#utility.yul\":23206:23209   */\n      dup4\n        /* \"#utility.yul\":23147:23214   */\n      tag_266\n      jump\t// in\n    tag_559:\n        /* \"#utility.yul\":23140:23214   */\n      swap2\n      pop\n        /* \"#utility.yul\":23223:23316   */\n      tag_560\n        /* \"#utility.yul\":23312:23315   */\n      dup3\n        /* \"#utility.yul\":23223:23316   */\n      tag_310\n      jump\t// in\n    tag_560:\n        /* \"#utility.yul\":23341:23343   */\n      0x40\n        /* \"#utility.yul\":23336:23339   */\n      dup3\n        /* \"#utility.yul\":23332:23344   */\n      add\n        /* \"#utility.yul\":23325:23344   */\n      swap1\n      pop\n        /* \"#utility.yul\":22984:23350   */\n      swap2\n      swap1\n      pop\n      jump\t// out\n        /* \"#utility.yul\":23356:23775   */\n    tag_163:\n        /* \"#utility.yul\":23522:23526   */\n      0x00\n        /* \"#utility.yul\":23560:23562   */\n      0x20\n        /* \"#utility.yul\":23549:23558   */\n      dup3\n        /* \"#utility.yul\":23545:23563   */\n      add\n        /* \"#utility.yul\":23537:23563   */\n      swap1\n      pop\n        /* \"#utility.yul\":23609:23618   */\n      dup2\n        /* \"#utility.yul\":23603:23607   */\n      dup2\n        /* \"#utility.yul\":23599:23619   */\n      sub\n        /* \"#utility.yul\":23595:23596   */\n      0x00\n        /* \"#utility.yul\":23584:23593   */\n      dup4\n        /* \"#utility.yul\":23580:23597   */\n      add\n        /* \"#utility.yul\":23573:23620   */\n      mstore\n        /* \"#utility.yul\":23637:23768   */\n      tag_562\n        /* \"#utility.yul\":23763:23767   */\n      dup2\n        /* \"#utility.yul\":23637:23768   */\n      tag_311\n      jump\t// in\n    tag_562:\n        /* \"#utility.yul\":23629:23768   */\n      swap1\n      pop\n        /* \"#utility.yul\":23356:23775   */\n      swap2\n      swap1\n      pop\n      jump\t// out\n        /* \"#utility.yul\":23781:23922   */\n    tag_312:\n        /* \"#utility.yul\":23830:23834   */\n      0x00\n        /* \"#utility.yul\":23853:23856   */\n      dup2\n        /* \"#utility.yul\":23845:23856   */\n      swap1\n      pop\n        /* \"#utility.yul\":23876:23879   */\n      dup2\n        /* \"#utility.yul\":23873:23874   */\n      0x00\n        /* \"#utility.yul\":23866:23880   */\n      mstore\n        /* \"#utility.yul\":23910:23914   */\n      0x20\n        /* \"#utility.yul\":23907:23908   */\n      0x00\n        /* \"#utility.yul\":23897:23915   */\n      keccak256\n        /* \"#utility.yul\":23889:23915   */\n      swap1\n      pop\n        /* \"#utility.yul\":23781:23922   */\n      swap2\n      swap1\n      pop\n      jump\t// out\n        /* \"#utility.yul\":23928:24021   */\n    tag_313:\n        /* \"#utility.yul\":23965:23971   */\n      0x00\n        /* \"#utility.yul\":24012:24014   */\n      0x20\n        /* \"#utility.yul\":24007:24009   */\n      0x1f\n        /* \"#utility.yul\":24000:24005   */\n      dup4\n        /* \"#utility.yul\":23996:24010   */\n      add\n        /* \"#utility.yul\":23992:24015   */\n      div\n        /* \"#utility.yul\":23982:24015   */\n      swap1\n      pop\n        /* \"#utility.yul\":23928:24021   */\n      swap2\n      swap1\n      pop\n      jump\t// out\n        /* \"#utility.yul\":24027:24134   */\n    tag_314:\n        /* \"#utility.yul\":24071:24079   */\n      0x00\n        /* \"#utility.yul\":24121:24126   */\n      dup3\n        /* \"#utility.yul\":24115:24119   */\n      dup3\n        /* \"#utility.yul\":24111:24127   */\n      shl\n        /* \"#utility.yul\":24090:24127   */\n      swap1\n      pop\n        /* \"#utility.yul\":24027:24134   */\n      swap3\n      swap2\n      pop\n      pop\n      jump\t// out\n        /* \"#utility.yul\":24140:24533   */\n    tag_315:\n        /* \"#utility.yul\":24209:24215   */\n      0x00\n        /* \"#utility.yul\":24259:24260   */\n      0x08\n        /* \"#utility.yul\":24247:24257   */\n      dup4\n        /* \"#utility.yul\":24243:24261   */\n      mul\n        /* \"#utility.yul\":24282:24379   */\n      tag_567\n        /* \"#utility.yul\":24312:24378   */\n      0xffffffffffffffffffffffffffffffffffffffffffffffffffffffffffffffff\n        /* \"#utility.yul\":24301:24310   */\n      dup3\n        /* \"#utility.yul\":24282:24379   */\n      tag_314\n      jump\t// in\n    tag_567:\n        /* \"#utility.yul\":24400:24439   */\n      tag_568\n        /* \"#utility.yul\":24430:24438   */\n      dup7\n        /* \"#utility.yul\":24419:24428   */\n      dup4\n        /* \"#utility.yul\":24400:24439   */\n      tag_314\n      jump\t// in\n    tag_568:\n        /* \"#utility.yul\":24388:24439   */\n      swap6\n      pop\n        /* \"#utility.yul\":24472:24476   */\n      dup1\n        /* \"#utility.yul\":24468:24477   */\n      not\n        /* \"#utility.yul\":24461:24466   */\n      dup5\n        /* \"#utility.yul\":24457:24478   */\n      and\n        /* \"#utility.yul\":24448:24478   */\n      swap4\n      pop\n        /* \"#utility.yul\":24521:24525   */\n      dup1\n        /* \"#utility.yul\":24511:24519   */\n      dup7\n        /* \"#utility.yul\":24507:24526   */\n      and\n        /* \"#utility.yul\":24500:24505   */\n      dup5\n        /* \"#utility.yul\":24497:24527   */\n      or\n        /* \"#utility.yul\":24487:24527   */\n      swap3\n      pop\n        /* \"#utility.yul\":24216:24533   */\n      pop\n      pop\n        /* \"#utility.yul\":24140:24533   */\n      swap4\n      swap3\n      pop\n      pop\n      pop\n      jump\t// out\n        /* \"#utility.yul\":24539:24599   */\n    tag_316:\n        /* \"#utility.yul\":24567:24570   */\n      0x00\n        /* \"#utility.yul\":24588:24593   */\n      dup2\n        /* \"#utility.yul\":24581:24593   */\n      swap1\n      pop\n        /* \"#utility.yul\":24539:24599   */\n      swap2\n      swap1\n      pop\n      jump\t// out\n        /* \"#utility.yul\":24605:24747   */\n    tag_317:\n        /* \"#utility.yul\":24655:24664   */\n      0x00\n        /* \"#utility.yul\":24688:24741   */\n      tag_571\n        /* \"#utility.yul\":24706:24740   */\n      tag_572\n        /* \"#utility.yul\":24715:24739   */\n      tag_573\n        /* \"#utility.yul\":24733:24738   */\n      dup5\n        /* \"#utility.yul\":24715:24739   */\n      tag_261\n      jump\t// in\n    tag_573:\n        /* \"#utility.yul\":24706:24740   */\n      tag_316\n      jump\t// in\n    tag_572:\n        /* \"#utility.yul\":24688:24741   */\n      tag_261\n      jump\t// in\n    tag_571:\n        /* \"#utility.yul\":24675:24741   */\n      swap1\n      pop\n        /* \"#utility.yul\":24605:24747   */\n      swap2\n      swap1\n      pop\n      jump\t// out\n        /* \"#utility.yul\":24753:24828   */\n    tag_318:\n        /* \"#utility.yul\":24796:24799   */\n      0x00\n        /* \"#utility.yul\":24817:24822   */\n      dup2\n        /* \"#utility.yul\":24810:24822   */\n      swap1\n      pop\n        /* \"#utility.yul\":24753:24828   */\n      swap2\n      swap1\n      pop\n      jump\t// out\n        /* \"#utility.yul\":24834:25103   */\n    tag_319:\n        /* \"#utility.yul\":24944:24983   */\n      tag_576\n        /* \"#utility.yul\":24975:24982   */\n      dup4\n        /* \"#utility.yul\":24944:24983   */\n      tag_317\n      jump\t// in\n    tag_576:\n        /* \"#utility.yul\":25005:25096   */\n      tag_577\n        /* \"#utility.yul\":25054:25095   */\n      tag_578\n        /* \"#utility.yul\":25078:25094   */\n      dup3\n        /* \"#utility.yul\":25054:25095   */\n      tag_318\n      jump\t// in\n    tag_578:\n        /* \"#utility.yul\":25046:25052   */\n      dup5\n        /* \"#utility.yul\":25039:25043   */\n      dup5\n        /* \"#utility.yul\":25033:25044   */\n      sload\n        /* \"#utility.yul\":25005:25096   */\n      tag_315\n      jump\t// in\n    tag_577:\n        /* \"#utility.yul\":24999:25003   */\n      dup3\n        /* \"#utility.yul\":24992:25097   */\n      sstore\n        /* \"#utility.yul\":24910:25103   */\n      pop\n        /* \"#utility.yul\":24834:25103   */\n      pop\n      pop\n      pop\n      jump\t// out\n        /* \"#utility.yul\":25109:25182   */\n    tag_320:\n        /* \"#utility.yul\":25154:25157   */\n      0x00\n        /* \"#utility.yul\":25109:25182   */\n      swap1\n      jump\t// out\n        /* \"#utility.yul\":25188:25377   */\n    tag_321:\n        /* \"#utility.yul\":25265:25297   */\n      tag_581\n      tag_320\n      jump\t// in\n    tag_581:\n        /* \"#utility.yul\":25306:25371   */\n      tag_582\n        /* \"#utility.yul\":25364:25370   */\n      dup2\n        /* \"#utility.yul\":25356:25362   */\n      dup5\n        /* \"#utility.yul\":25350:25354   */\n      dup5\n        /* \"#utility.yul\":25306:25371   */\n      tag_319\n      jump\t// in\n    tag_582:\n        /* \"#utility.yul\":25241:25377   */\n      pop\n        /* \"#utility.yul\":25188:25377   */\n      pop\n      pop\n      jump\t// out\n        /* \"#utility.yul\":25383:25569   */\n    tag_322:\n        /* \"#utility.yul\":25443:25563   */\n    tag_584:\n        /* \"#utility.yul\":25460:25463   */\n      dup2\n        /* \"#utility.yul\":25453:25458   */\n      dup2\n        /* \"#utility.yul\":25450:25464   */\n      lt\n        /* \"#utility.yul\":25443:25563   */\n      iszero\n      tag_586\n      jumpi\n        /* \"#utility.yul\":25514:25553   */\n      tag_587\n        /* \"#utility.yul\":25551:25552   */\n      0x00\n        /* \"#utility.yul\":25544:25549   */\n      dup3\n        /* \"#utility.yul\":25514:25553   */\n      tag_321\n      jump\t// in\n    tag_587:\n        /* \"#utility.yul\":25487:25488   */\n      0x01\n        /* \"#utility.yul\":25480:25485   */\n      dup2\n        /* \"#utility.yul\":25476:25489   */\n      add\n        /* \"#utility.yul\":25467:25489   */\n      swap1\n      pop\n        /* \"#utility.yul\":25443:25563   */\n      jump(tag_584)\n    tag_586:\n        /* \"#utility.yul\":25383:25569   */\n      pop\n      pop\n      jump\t// out\n        /* \"#utility.yul\":25575:26118   */\n    tag_323:\n        /* \"#utility.yul\":25676:25678   */\n      0x1f\n        /* \"#utility.yul\":25671:25674   */\n      dup3\n        /* \"#utility.yul\":25668:25679   */\n      gt\n        /* \"#utility.yul\":25665:26111   */\n      iszero\n      tag_589\n      jumpi\n        /* \"#utility.yul\":25710:25748   */\n      tag_590\n        /* \"#utility.yul\":25742:25747   */\n      dup2\n        /* \"#utility.yul\":25710:25748   */\n      tag_312\n      jump\t// in\n    tag_590:\n        /* \"#utility.yul\":25794:25823   */\n      tag_591\n        /* \"#utility.yul\":25812:25822   */\n      dup5\n        /* \"#utility.yul\":25794:25823   */\n      tag_313\n      jump\t// in\n    tag_591:\n        /* \"#utility.yul\":25784:25792   */\n      dup2\n        /* \"#utility.yul\":25780:25824   */\n      add\n        /* \"#utility.yul\":25977:25979   */\n      0x20\n        /* \"#utility.yul\":25965:25975   */\n      dup6\n        /* \"#utility.yul\":25962:25980   */\n      lt\n        /* \"#utility.yul\":25959:26008   */\n      iszero\n      tag_592\n      jumpi\n        /* \"#utility.yul\":25998:26006   */\n      dup2\n        /* \"#utility.yul\":25983:26006   */\n      swap1\n      pop\n        /* \"#utility.yul\":25959:26008   */\n    tag_592:\n        /* \"#utility.yul\":26021:26101   */\n      tag_593\n        /* \"#utility.yul\":26077:26099   */\n      tag_594\n        /* \"#utility.yul\":26095:26098   */\n      dup6\n        /* \"#utility.yul\":26077:26099   */\n      tag_313\n      jump\t// in\n    tag_594:\n        /* \"#utility.yul\":26067:26075   */\n      dup4\n        /* \"#utility.yul\":26063:26100   */\n      add\n        /* \"#utility.yul\":26050:26061   */\n      dup3\n        /* \"#utility.yul\":26021:26101   */\n      tag_322\n      jump\t// in\n    tag_593:\n        /* \"#utility.yul\":25680:26111   */\n      pop\n      pop\n        /* \"#utility.yul\":25665:26111   */\n    tag_589:\n        /* \"#utility.yul\":25575:26118   */\n      pop\n      pop\n      pop\n      jump\t// out\n        /* \"#utility.yul\":26124:26241   */\n    tag_324:\n        /* \"#utility.yul\":26178:26186   */\n      0x00\n        /* \"#utility.yul\":26228:26233   */\n      dup3\n        /* \"#utility.yul\":26222:26226   */\n      dup3\n        /* \"#utility.yul\":26218:26234   */\n      shr\n        /* \"#utility.yul\":26197:26234   */\n      swap1\n      pop\n        /* \"#utility.yul\":26124:26241   */\n      swap3\n      swap2\n      pop\n      pop\n      jump\t// out\n        /* \"#utility.yul\":26247:26416   */\n    tag_325:\n        /* \"#utility.yul\":26291:26297   */\n      0x00\n        /* \"#utility.yul\":26324:26375   */\n      tag_597\n        /* \"#utility.yul\":26372:26373   */\n      0x00\n        /* \"#utility.yul\":26368:26374   */\n      not\n        /* \"#utility.yul\":26360:26365   */\n      dup5\n        /* \"#utility.yul\":26357:26358   */\n      0x08\n        /* \"#utility.yul\":26353:26366   */\n      mul\n        /* \"#utility.yul\":26324:26375   */\n      tag_324\n      jump\t// in\n    tag_597:\n        /* \"#utility.yul\":26320:26376   */\n      not\n        /* \"#utility.yul\":26405:26409   */\n      dup1\n        /* \"#utility.yul\":26399:26403   */\n      dup4\n        /* \"#utility.yul\":26395:26410   */\n      and\n        /* \"#utility.yul\":26385:26410   */\n      swap2\n      pop\n        /* \"#utility.yul\":26298:26416   */\n      pop\n        /* \"#utility.yul\":26247:26416   */\n      swap3\n      swap2\n      pop\n      pop\n      jump\t// out\n        /* \"#utility.yul\":26421:26716   */\n    tag_326:\n        /* \"#utility.yul\":26497:26501   */\n      0x00\n        /* \"#utility.yul\":26643:26672   */\n      tag_599\n        /* \"#utility.yul\":26668:26671   */\n      dup4\n        /* \"#utility.yul\":26662:26666   */\n      dup4\n        /* \"#utility.yul\":26643:26672   */\n      tag_325\n      jump\t// in\n    tag_599:\n        /* \"#utility.yul\":26635:26672   */\n      swap2\n      pop\n        /* \"#utility.yul\":26705:26708   */\n      dup3\n        /* \"#utility.yul\":26702:26703   */\n      0x02\n        /* \"#utility.yul\":26698:26709   */\n      mul\n        /* \"#utility.yul\":26692:26696   */\n      dup3\n        /* \"#utility.yul\":26689:26710   */\n      or\n        /* \"#utility.yul\":26681:26710   */\n      swap1\n      pop\n        /* \"#utility.yul\":26421:26716   */\n      swap3\n      swap2\n      pop\n      pop\n      jump\t// out\n        /* \"#utility.yul\":26721:28116   */\n    tag_165:\n        /* \"#utility.yul\":26838:26875   */\n      tag_601\n        /* \"#utility.yul\":26871:26874   */\n      dup3\n        /* \"#utility.yul\":26838:26875   */\n      tag_265\n      jump\t// in\n    tag_601:\n        /* \"#utility.yul\":26940:26958   */\n      0xffffffffffffffff\n        /* \"#utility.yul\":26932:26938   */\n      dup2\n        /* \"#utility.yul\":26929:26959   */\n      gt\n        /* \"#utility.yul\":26926:26982   */\n      iszero\n      tag_602\n      jumpi\n        /* \"#utility.yul\":26962:26980   */\n      tag_603\n      tag_192\n      jump\t// in\n    tag_603:\n        /* \"#utility.yul\":26926:26982   */\n    tag_602:\n        /* \"#utility.yul\":27006:27044   */\n      tag_604\n        /* \"#utility.yul\":27038:27042   */\n      dup3\n        /* \"#utility.yul\":27032:27043   */\n      sload\n        /* \"#utility.yul\":27006:27044   */\n      tag_144\n      jump\t// in\n    tag_604:\n        /* \"#utility.yul\":27091:27158   */\n      tag_605\n        /* \"#utility.yul\":27151:27157   */\n      dup3\n        /* \"#utility.yul\":27143:27149   */\n      dup3\n        /* \"#utility.yul\":27137:27141   */\n      dup6\n        /* \"#utility.yul\":27091:27158   */\n      tag_323\n      jump\t// in\n    tag_605:\n        /* \"#utility.yul\":27185:27186   */\n      0x00\n        /* \"#utility.yul\":27209:27213   */\n      0x20\n        /* \"#utility.yul\":27196:27213   */\n      swap1\n      pop\n        /* \"#utility.yul\":27241:27243   */\n      0x1f\n        /* \"#utility.yul\":27233:27239   */\n      dup4\n        /* \"#utility.yul\":27230:27244   */\n      gt\n        /* \"#utility.yul\":27258:27259   */\n      0x01\n        /* \"#utility.yul\":27253:27871   */\n      dup2\n      eq\n      tag_607\n      jumpi\n        /* \"#utility.yul\":27915:27916   */\n      0x00\n        /* \"#utility.yul\":27932:27938   */\n      dup5\n        /* \"#utility.yul\":27929:28006   */\n      iszero\n      tag_608\n      jumpi\n        /* \"#utility.yul\":27981:27990   */\n      dup3\n        /* \"#utility.yul\":27976:27979   */\n      dup8\n        /* \"#utility.yul\":27972:27991   */\n      add\n        /* \"#utility.yul\":27966:27992   */\n      mload\n        /* \"#utility.yul\":27957:27992   */\n      swap1\n      pop\n        /* \"#utility.yul\":27929:28006   */\n    tag_608:\n        /* \"#utility.yul\":28032:28099   */\n      tag_609\n        /* \"#utility.yul\":28092:28098   */\n      dup6\n        /* \"#utility.yul\":28085:28090   */\n      dup3\n        /* \"#utility.yul\":28032:28099   */\n      tag_326\n      jump\t// in\n    tag_609:\n        /* \"#utility.yul\":28026:28030   */\n      dup7\n        /* \"#utility.yul\":28019:28100   */\n      sstore\n        /* \"#utility.yul\":27888:28110   */\n      pop\n        /* \"#utility.yul\":27223:28110   */\n      jump(tag_606)\n        /* \"#utility.yul\":27253:27871   */\n    tag_607:\n        /* \"#utility.yul\":27305:27309   */\n      0x1f\n        /* \"#utility.yul\":27301:27310   */\n      not\n        /* \"#utility.yul\":27293:27299   */\n      dup5\n        /* \"#utility.yul\":27289:27311   */\n      and\n        /* \"#utility.yul\":27339:27376   */\n      tag_610\n        /* \"#utility.yul\":27371:27375   */\n      dup7\n        /* \"#utility.yul\":27339:27376   */\n      tag_312\n      jump\t// in\n    tag_610:\n        /* \"#utility.yul\":27398:27399   */\n      0x00\n        /* \"#utility.yul\":27412:27620   */\n    tag_611:\n        /* \"#utility.yul\":27426:27433   */\n      dup3\n        /* \"#utility.yul\":27423:27424   */\n      dup2\n        /* \"#utility.yul\":27420:27434   */\n      lt\n        /* \"#utility.yul\":27412:27620   */\n      iszero\n      tag_613\n      jumpi\n        /* \"#utility.yul\":27505:27514   */\n      dup5\n        /* \"#utility.yul\":27500:27503   */\n      dup10\n        /* \"#utility.yul\":27496:27515   */\n      add\n        /* \"#utility.yul\":27490:27516   */\n      mload\n        /* \"#utility.yul\":27482:27488   */\n      dup3\n        /* \"#utility.yul\":27475:27517   */\n      sstore\n        /* \"#utility.yul\":27556:27557   */\n      0x01\n        /* \"#utility.yul\":27548:27554   */\n      dup3\n        /* \"#utility.yul\":27544:27558   */\n      add\n        /* \"#utility.yul\":27534:27558   */\n      swap2\n      pop\n        /* \"#utility.yul\":27603:27605   */\n      0x20\n        /* \"#utility.yul\":27592:27601   */\n      dup6\n        /* \"#utility.yul\":27588:27606   */\n      add\n        /* \"#utility.yul\":27575:27606   */\n      swap5\n      pop\n        /* \"#utility.yul\":27449:27453   */\n      0x20\n        /* \"#utility.yul\":27446:27447   */\n      dup2\n        /* \"#utility.yul\":27442:27454   */\n      add\n        /* \"#utility.yul\":27437:27454   */\n      swap1\n      pop\n        /* \"#utility.yul\":27412:27620   */\n      jump(tag_611)\n    tag_613:\n        /* \"#utility.yul\":27648:27654   */\n      dup7\n        /* \"#utility.yul\":27639:27646   */\n      dup4\n        /* \"#utility.yul\":27636:27655   */\n      lt\n        /* \"#utility.yul\":27633:27812   */\n      iszero\n      tag_614\n      jumpi\n        /* \"#utility.yul\":27706:27715   */\n      dup5\n        /* \"#utility.yul\":27701:27704   */\n      dup10\n        /* \"#utility.yul\":27697:27716   */\n      add\n        /* \"#utility.yul\":27691:27717   */\n      mload\n        /* \"#utility.yul\":27749:27797   */\n      tag_615\n        /* \"#utility.yul\":27791:27795   */\n      0x1f\n        /* \"#utility.yul\":27783:27789   */\n      dup10\n        /* \"#utility.yul\":27779:27796   */\n      and\n        /* \"#utility.yul\":27768:27777   */\n      dup3\n        /* \"#utility.yul\":27749:27797   */\n      tag_325\n      jump\t// in\n    tag_615:\n        /* \"#utility.yul\":27741:27747   */\n      dup4\n        /* \"#utility.yul\":27734:27798   */\n      sstore\n        /* \"#utility.yul\":27656:27812   */\n      pop\n        /* \"#utility.yul\":27633:27812   */\n    tag_614:\n        /* \"#utility.yul\":27858:27859   */\n      0x01\n        /* \"#utility.yul\":27854:27855   */\n      0x02\n        /* \"#utility.yul\":27846:27852   */\n      dup9\n        /* \"#utility.yul\":27842:27856   */\n      mul\n        /* \"#utility.yul\":27838:27860   */\n      add\n        /* \"#utility.yul\":27832:27836   */\n      dup9\n        /* \"#utility.yul\":27825:27861   */\n      sstore\n        /* \"#utility.yul\":27260:27871   */\n      pop\n      pop\n      pop\n        /* \"#utility.yul\":27223:28110   */\n    tag_606:\n      pop\n        /* \"#utility.yul\":26813:28116   */\n      pop\n      pop\n      pop\n        /* \"#utility.yul\":26721:28116   */\n      pop\n      pop\n      jump\t// out\n        /* \"#utility.yul\":28122:28545   */\n    tag_168:\n        /* \"#utility.yul\":28263:28267   */\n      0x00\n        /* \"#utility.yul\":28301:28303   */\n      0x40\n        /* \"#utility.yul\":28290:28299   */\n      dup3\n        /* \"#utility.yul\":28286:28304   */\n      add\n        /* \"#utility.yul\":28278:28304   */\n      swap1\n      pop\n        /* \"#utility.yul\":28350:28359   */\n      dup2\n        /* \"#utility.yul\":28344:28348   */\n      dup2\n        /* \"#utility.yul\":28340:28360   */\n      sub\n        /* \"#utility.yul\":28336:28337   */\n      0x00\n        /* \"#utility.yul\":28325:28334   */\n      dup4\n        /* \"#utility.yul\":28321:28338   */\n      add\n        /* \"#utility.yul\":28314:28361   */\n      mstore\n        /* \"#utility.yul\":28378:28456   */\n      tag_617\n        /* \"#utility.yul\":28451:28455   */\n      dup2\n        /* \"#utility.yul\":28442:28448   */\n      dup6\n        /* \"#utility.yul\":28378:28456   */\n      tag_269\n      jump\t// in\n    tag_617:\n        /* \"#utility.yul\":28370:28456   */\n      swap1\n      pop\n        /* \"#utility.yul\":28466:28538   */\n      tag_618\n        /* \"#utility.yul\":28534:28536   */\n      0x20\n        /* \"#utility.yul\":28523:28532   */\n      dup4\n        /* \"#utility.yul\":28519:28537   */\n      add\n        /* \"#utility.yul\":28510:28516   */\n      dup5\n        /* \"#utility.yul\":28466:28538   */\n      tag_262\n      jump\t// in\n    tag_618:\n        /* \"#utility.yul\":28122:28545   */\n      swap4\n      swap3\n      pop\n      pop\n      pop\n      jump\t// out\n        /* \"#utility.yul\":28551:28723   */\n    tag_327:\n        /* \"#utility.yul\":28691:28715   */\n      0x43616e6e6f74207265706f727420796f757273656c6600000000000000000000\n        /* \"#utility.yul\":28687:28688   */\n      0x00\n        /* \"#utility.yul\":28679:28685   */\n      dup3\n        /* \"#utility.yul\":28675:28689   */\n      add\n        /* \"#utility.yul\":28668:28716   */\n      mstore\n        /* \"#utility.yul\":28551:28723   */\n      pop\n      jump\t// out\n        /* \"#utility.yul\":28729:29095   */\n    tag_328:\n        /* \"#utility.yul\":28871:28874   */\n      0x00\n        /* \"#utility.yul\":28892:28959   */\n      tag_621\n        /* \"#utility.yul\":28956:28958   */\n      0x16\n        /* \"#utility.yul\":28951:28954   */\n      dup4\n        /* \"#utility.yul\":28892:28959   */\n      tag_266\n      jump\t// in\n    tag_621:\n        /* \"#utility.yul\":28885:28959   */\n      swap2\n      pop\n        /* \"#utility.yul\":28968:29061   */\n      tag_622\n        /* \"#utility.yul\":29057:29060   */\n      dup3\n        /* \"#utility.yul\":28968:29061   */\n      tag_327\n      jump\t// in\n    tag_622:\n        /* \"#utility.yul\":29086:29088   */\n      0x20\n        /* \"#utility.yul\":29081:29084   */\n      dup3\n        /* \"#utility.yul\":29077:29089   */\n      add\n        /* \"#utility.yul\":29070:29089   */\n      swap1\n      pop\n        /* \"#utility.yul\":28729:29095   */\n      swap2\n      swap1\n      pop\n      jump\t// out\n        /* \"#utility.yul\":29101:29520   */\n    tag_173:\n        /* \"#utility.yul\":29267:29271   */\n      0x00\n        /* \"#utility.yul\":29305:29307   */\n      0x20\n        /* \"#utility.yul\":29294:29303   */\n      dup3\n        /* \"#utility.yul\":29290:29308   */\n      add\n        /* \"#utility.yul\":29282:29308   */\n      swap1\n      pop\n        /* \"#utility.yul\":29354:29363   */\n      dup2\n        /* \"#utility.yul\":29348:29352   */\n      dup2\n        /* \"#utility.yul\":29344:29364   */\n      sub\n        /* \"#utility.yul\":29340:29341   */\n      0x00\n        /* \"#utility.yul\":29329:29338   */\n      dup4\n        /* \"#utility.yul\":29325:29342   */\n      add\n        /* \"#utility.yul\":29318:29365   */\n      mstore\n        /* \"#utility.yul\":29382:29513   */\n      tag_624\n        /* \"#utility.yul\":29508:29512   */\n      dup2\n        /* \"#utility.yul\":29382:29513   */\n      tag_328\n      jump\t// in\n    tag_624:\n        /* \"#utility.yul\":29374:29513   */\n      swap1\n      pop\n        /* \"#utility.yul\":29101:29520   */\n      swap2\n      swap1\n      pop\n      jump\t// out\n        /* \"#utility.yul\":29526:29699   */\n    tag_329:\n        /* \"#utility.yul\":29666:29691   */\n      0x5573657220616c72656164792072656769737465726564000000000000000000\n        /* \"#utility.yul\":29662:29663   */\n      0x00\n        /* \"#utility.yul\":29654:29660   */\n      dup3\n        /* \"#utility.yul\":29650:29664   */\n      add\n        /* \"#utility.yul\":29643:29692   */\n      mstore\n        /* \"#utility.yul\":29526:29699   */\n      pop\n      jump\t// out\n        /* \"#utility.yul\":29705:30071   */\n    tag_330:\n        /* \"#utility.yul\":29847:29850   */\n      0x00\n        /* \"#utility.yul\":29868:29935   */\n      tag_627\n        /* \"#utility.yul\":29932:29934   */\n      0x17\n        /* \"#utility.yul\":29927:29930   */\n      dup4\n        /* \"#utility.yul\":29868:29935   */\n      tag_266\n      jump\t// in\n    tag_627:\n        /* \"#utility.yul\":29861:29935   */\n      swap2\n      pop\n        /* \"#utility.yul\":29944:30037   */\n      tag_628\n        /* \"#utility.yul\":30033:30036   */\n      dup3\n        /* \"#utility.yul\":29944:30037   */\n      tag_329\n      jump\t// in\n    tag_628:\n        /* \"#utility.yul\":30062:30064   */\n      0x20\n        /* \"#utility.yul\":30057:30060   */\n      dup3\n        /* \"#utility.yul\":30053:30065   */\n      add\n        /* \"#utility.yul\":30046:30065   */\n      swap1\n      pop\n        /* \"#utility.yul\":29705:30071   */\n      swap2\n      swap1\n      pop\n      jump\t// out\n        /* \"#utility.yul\":30077:30496   */\n    tag_182:\n        /* \"#utility.yul\":30243:30247   */\n      0x00\n        /* \"#utility.yul\":30281:30283   */\n      0x20\n        /* \"#utility.yul\":30270:30279   */\n      dup3\n        /* \"#utility.yul\":30266:30284   */\n      add\n        /* \"#utility.yul\":30258:30284   */\n      swap1\n      pop\n        /* \"#utility.yul\":30330:30339   */\n      dup2\n        /* \"#utility.yul\":30324:30328   */\n      dup2\n        /* \"#utility.yul\":30320:30340   */\n      sub\n        /* \"#utility.yul\":30316:30317   */\n      0x00\n        /* \"#utility.yul\":30305:30314   */\n      dup4\n        /* \"#utility.yul\":30301:30318   */\n      add\n        /* \"#utility.yul\":30294:30341   */\n      mstore\n        /* \"#utility.yul\":30358:30489   */\n      tag_630\n        /* \"#utility.yul\":30484:30488   */\n      dup2\n        /* \"#utility.yul\":30358:30489   */\n      tag_330\n      jump\t// in\n    tag_630:\n        /* \"#utility.yul\":30350:30489   */\n      swap1\n      pop\n        /* \"#utility.yul\":30077:30496   */\n      swap2\n      swap1\n      pop\n      jump\t// out\n        /* \"#utility.yul\":30502:30734   */\n    tag_331:\n        /* \"#utility.yul\":30642:30676   */\n      0x4f6e6c7920706c6174666f726d206f776e65722063616e206163636573732072\n        /* \"#utility.yul\":30638:30639   */\n      0x00\n        /* \"#utility.yul\":30630:30636   */\n      dup3\n        /* \"#utility.yul\":30626:30640   */\n      add\n        /* \"#utility.yul\":30619:30677   */\n      mstore\n        /* \"#utility.yul\":30711:30726   */\n      0x65706f7274656420757365727300000000000000000000000000000000000000\n        /* \"#utility.yul\":30706:30708   */\n      0x20\n        /* \"#utility.yul\":30698:30704   */\n      dup3\n        /* \"#utility.yul\":30694:30709   */\n      add\n        /* \"#utility.yul\":30687:30727   */\n      mstore\n        /* \"#utility.yul\":30502:30734   */\n      pop\n      jump\t// out\n        /* \"#utility.yul\":30740:31106   */\n    tag_332:\n        /* \"#utility.yul\":30882:30885   */\n      0x00\n        /* \"#utility.yul\":30903:30970   */\n      tag_633\n        /* \"#utility.yul\":30967:30969   */\n      0x2d\n        /* \"#utility.yul\":30962:30965   */\n      dup4\n        /* \"#utility.yul\":30903:30970   */\n      tag_266\n      jump\t// in\n    tag_633:\n        /* \"#utility.yul\":30896:30970   */\n      swap2\n      pop\n        /* \"#utility.yul\":30979:31072   */\n      tag_634\n        /* \"#utility.yul\":31068:31071   */\n      dup3\n        /* \"#utility.yul\":30979:31072   */\n      tag_331\n      jump\t// in\n    tag_634:\n        /* \"#utility.yul\":31097:31099   */\n      0x40\n        /* \"#utility.yul\":31092:31095   */\n      dup3\n        /* \"#utility.yul\":31088:31100   */\n      add\n        /* \"#utility.yul\":31081:31100   */\n      swap1\n      pop\n        /* \"#utility.yul\":30740:31106   */\n      swap2\n      swap1\n      pop\n      jump\t// out\n        /* \"#utility.yul\":31112:31531   */\n    tag_189:\n        /* \"#utility.yul\":31278:31282   */\n      0x00\n        /* \"#utility.yul\":31316:31318   */\n      0x20\n        /* \"#utility.yul\":31305:31314   */\n      dup3\n        /* \"#utility.yul\":31301:31319   */\n      add\n        /* \"#utility.yul\":31293:31319   */\n      swap1\n      pop\n        /* \"#utility.yul\":31365:31374   */\n      dup2\n        /* \"#utility.yul\":31359:31363   */\n      dup2\n        /* \"#utility.yul\":31355:31375   */\n      sub\n        /* \"#utility.yul\":31351:31352   */\n      0x00\n        /* \"#utility.yul\":31340:31349   */\n      dup4\n        /* \"#utility.yul\":31336:31353   */\n      add\n        /* \"#utility.yul\":31329:31376   */\n      mstore\n        /* \"#utility.yul\":31393:31524   */\n      tag_636\n        /* \"#utility.yul\":31519:31523   */\n      dup2\n        /* \"#utility.yul\":31393:31524   */\n      tag_332\n      jump\t// in\n    tag_636:\n        /* \"#utility.yul\":31385:31524   */\n      swap1\n      pop\n        /* \"#utility.yul\":31112:31531   */\n      swap2\n      swap1\n      pop\n      jump\t// out\n        /* \"#utility.yul\":31537:31717   */\n    tag_200:\n        /* \"#utility.yul\":31585:31662   */\n      0x4e487b7100000000000000000000000000000000000000000000000000000000\n        /* \"#utility.yul\":31582:31583   */\n      0x00\n        /* \"#utility.yul\":31575:31663   */\n      mstore\n        /* \"#utility.yul\":31682:31686   */\n      0x32\n        /* \"#utility.yul\":31679:31680   */\n      0x04\n        /* \"#utility.yul\":31672:31687   */\n      mstore\n        /* \"#utility.yul\":31706:31710   */\n      0x24\n        /* \"#utility.yul\":31703:31704   */\n      0x00\n        /* \"#utility.yul\":31696:31711   */\n      revert\n        /* \"#utility.yul\":31723:31960   */\n    tag_333:\n        /* \"#utility.yul\":31863:31897   */\n      0x4f6e6c7920726567697374657265642064617461206275796572732063616e20\n        /* \"#utility.yul\":31859:31860   */\n      0x00\n        /* \"#utility.yul\":31851:31857   */\n      dup3\n        /* \"#utility.yul\":31847:31861   */\n      add\n        /* \"#utility.yul\":31840:31898   */\n      mstore\n        /* \"#utility.yul\":31932:31952   */\n      0x7075726368617365206461746120736574730000000000000000000000000000\n        /* \"#utility.yul\":31927:31929   */\n      0x20\n        /* \"#utility.yul\":31919:31925   */\n      dup3\n        /* \"#utility.yul\":31915:31930   */\n      add\n        /* \"#utility.yul\":31908:31953   */\n      mstore\n        /* \"#utility.yul\":31723:31960   */\n      pop\n      jump\t// out\n        /* \"#utility.yul\":31966:32332   */\n    tag_334:\n        /* \"#utility.yul\":32108:32111   */\n      0x00\n        /* \"#utility.yul\":32129:32196   */\n      tag_640\n        /* \"#utility.yul\":32193:32195   */\n      0x32\n        /* \"#utility.yul\":32188:32191   */\n      dup4\n        /* \"#utility.yul\":32129:32196   */\n      tag_266\n      jump\t// in\n    tag_640:\n        /* \"#utility.yul\":32122:32196   */\n      swap2\n      pop\n        /* \"#utility.yul\":32205:32298   */\n      tag_641\n        /* \"#utility.yul\":32294:32297   */\n      dup3\n        /* \"#utility.yul\":32205:32298   */\n      tag_333\n      jump\t// in\n    tag_641:\n        /* \"#utility.yul\":32323:32325   */\n      0x40\n        /* \"#utility.yul\":32318:32321   */\n      dup3\n        /* \"#utility.yul\":32314:32326   */\n      add\n        /* \"#utility.yul\":32307:32326   */\n      swap1\n      pop\n        /* \"#utility.yul\":31966:32332   */\n      swap2\n      swap1\n      pop\n      jump\t// out\n        /* \"#utility.yul\":32338:32757   */\n    tag_205:\n        /* \"#utility.yul\":32504:32508   */\n      0x00\n        /* \"#utility.yul\":32542:32544   */\n      0x20\n        /* \"#utility.yul\":32531:32540   */\n      dup3\n        /* \"#utility.yul\":32527:32545   */\n      add\n        /* \"#utility.yul\":32519:32545   */\n      swap1\n      pop\n        /* \"#utility.yul\":32591:32600   */\n      dup2\n        /* \"#utility.yul\":32585:32589   */\n      dup2\n        /* \"#utility.yul\":32581:32601   */\n      sub\n        /* \"#utility.yul\":32577:32578   */\n      0x00\n        /* \"#utility.yul\":32566:32575   */\n      dup4\n        /* \"#utility.yul\":32562:32579   */\n      add\n        /* \"#utility.yul\":32555:32602   */\n      mstore\n        /* \"#utility.yul\":32619:32750   */\n      tag_643\n        /* \"#utility.yul\":32745:32749   */\n      dup2\n        /* \"#utility.yul\":32619:32750   */\n      tag_334\n      jump\t// in\n    tag_643:\n        /* \"#utility.yul\":32611:32750   */\n      swap1\n      pop\n        /* \"#utility.yul\":32338:32757   */\n      swap2\n      swap1\n      pop\n      jump\t// out\n        /* \"#utility.yul\":32763:32932   */\n    tag_335:\n        /* \"#utility.yul\":32903:32924   */\n      0x496e76616c696420646174612073657420494400000000000000000000000000\n        /* \"#utility.yul\":32899:32900   */\n      0x00\n        /* \"#utility.yul\":32891:32897   */\n      dup3\n        /* \"#utility.yul\":32887:32901   */\n      add\n        /* \"#utility.yul\":32880:32925   */\n      mstore\n        /* \"#utility.yul\":32763:32932   */\n      pop\n      jump\t// out\n        /* \"#utility.yul\":32938:33304   */\n    tag_336:\n        /* \"#utility.yul\":33080:33083   */\n      0x00\n        /* \"#utility.yul\":33101:33168   */\n      tag_646\n        /* \"#utility.yul\":33165:33167   */\n      0x13\n        /* \"#utility.yul\":33160:33163   */\n      dup4\n        /* \"#utility.yul\":33101:33168   */\n      tag_266\n      jump\t// in\n    tag_646:\n        /* \"#utility.yul\":33094:33168   */\n      swap2\n      pop\n        /* \"#utility.yul\":33177:33270   */\n      tag_647\n        /* \"#utility.yul\":33266:33269   */\n      dup3\n        /* \"#utility.yul\":33177:33270   */\n      tag_335\n      jump\t// in\n    tag_647:\n        /* \"#utility.yul\":33295:33297   */\n      0x20\n        /* \"#utility.yul\":33290:33293   */\n      dup3\n        /* \"#utility.yul\":33286:33298   */\n      add\n        /* \"#utility.yul\":33279:33298   */\n      swap1\n      pop\n        /* \"#utility.yul\":32938:33304   */\n      swap2\n      swap1\n      pop\n      jump\t// out\n        /* \"#utility.yul\":33310:33729   */\n    tag_210:\n        /* \"#utility.yul\":33476:33480   */\n      0x00\n        /* \"#utility.yul\":33514:33516   */\n      0x20\n        /* \"#utility.yul\":33503:33512   */\n      dup3\n        /* \"#utility.yul\":33499:33517   */\n      add\n        /* \"#utility.yul\":33491:33517   */\n      swap1\n      pop\n        /* \"#utility.yul\":33563:33572   */\n      dup2\n        /* \"#utility.yul\":33557:33561   */\n      dup2\n        /* \"#utility.yul\":33553:33573   */\n      sub\n        /* \"#utility.yul\":33549:33550   */\n      0x00\n        /* \"#utility.yul\":33538:33547   */\n      dup4\n        /* \"#utility.yul\":33534:33551   */\n      add\n        /* \"#utility.yul\":33527:33574   */\n      mstore\n        /* \"#utility.yul\":33591:33722   */\n      tag_649\n        /* \"#utility.yul\":33717:33721   */\n      dup2\n        /* \"#utility.yul\":33591:33722   */\n      tag_336\n      jump\t// in\n    tag_649:\n        /* \"#utility.yul\":33583:33722   */\n      swap1\n      pop\n        /* \"#utility.yul\":33310:33729   */\n      swap2\n      swap1\n      pop\n      jump\t// out\n        /* \"#utility.yul\":33735:33909   */\n    tag_337:\n        /* \"#utility.yul\":33875:33901   */\n      0x496e636f7272656374207061796d656e7420616d6f756e740000000000000000\n        /* \"#utility.yul\":33871:33872   */\n      0x00\n        /* \"#utility.yul\":33863:33869   */\n      dup3\n        /* \"#utility.yul\":33859:33873   */\n      add\n        /* \"#utility.yul\":33852:33902   */\n      mstore\n        /* \"#utility.yul\":33735:33909   */\n      pop\n      jump\t// out\n        /* \"#utility.yul\":33915:34281   */\n    tag_338:\n        /* \"#utility.yul\":34057:34060   */\n      0x00\n        /* \"#utility.yul\":34078:34145   */\n      tag_652\n        /* \"#utility.yul\":34142:34144   */\n      0x18\n        /* \"#utility.yul\":34137:34140   */\n      dup4\n        /* \"#utility.yul\":34078:34145   */\n      tag_266\n      jump\t// in\n    tag_652:\n        /* \"#utility.yul\":34071:34145   */\n      swap2\n      pop\n        /* \"#utility.yul\":34154:34247   */\n      tag_653\n        /* \"#utility.yul\":34243:34246   */\n      dup3\n        /* \"#utility.yul\":34154:34247   */\n      tag_337\n      jump\t// in\n    tag_653:\n        /* \"#utility.yul\":34272:34274   */\n      0x20\n        /* \"#utility.yul\":34267:34270   */\n      dup3\n        /* \"#utility.yul\":34263:34275   */\n      add\n        /* \"#utility.yul\":34256:34275   */\n      swap1\n      pop\n        /* \"#utility.yul\":33915:34281   */\n      swap2\n      swap1\n      pop\n      jump\t// out\n        /* \"#utility.yul\":34287:34706   */\n    tag_213:\n        /* \"#utility.yul\":34453:34457   */\n      0x00\n        /* \"#utility.yul\":34491:34493   */\n      0x20\n        /* \"#utility.yul\":34480:34489   */\n      dup3\n        /* \"#utility.yul\":34476:34494   */\n      add\n        /* \"#utility.yul\":34468:34494   */\n      swap1\n      pop\n        /* \"#utility.yul\":34540:34549   */\n      dup2\n        /* \"#utility.yul\":34534:34538   */\n      dup2\n        /* \"#utility.yul\":34530:34550   */\n      sub\n        /* \"#utility.yul\":34526:34527   */\n      0x00\n        /* \"#utility.yul\":34515:34524   */\n      dup4\n        /* \"#utility.yul\":34511:34528   */\n      add\n        /* \"#utility.yul\":34504:34551   */\n      mstore\n        /* \"#utility.yul\":34568:34699   */\n      tag_655\n        /* \"#utility.yul\":34694:34698   */\n      dup2\n        /* \"#utility.yul\":34568:34699   */\n      tag_338\n      jump\t// in\n    tag_655:\n        /* \"#utility.yul\":34560:34699   */\n      swap1\n      pop\n        /* \"#utility.yul\":34287:34706   */\n      swap2\n      swap1\n      pop\n      jump\t// out\n        /* \"#utility.yul\":34712:35122   */\n    tag_215:\n        /* \"#utility.yul\":34752:34759   */\n      0x00\n        /* \"#utility.yul\":34775:34795   */\n      tag_657\n        /* \"#utility.yul\":34793:34794   */\n      dup3\n        /* \"#utility.yul\":34775:34795   */\n      tag_261\n      jump\t// in\n    tag_657:\n        /* \"#utility.yul\":34770:34795   */\n      swap2\n      pop\n        /* \"#utility.yul\":34809:34829   */\n      tag_658\n        /* \"#utility.yul\":34827:34828   */\n      dup4\n        /* \"#utility.yul\":34809:34829   */\n      tag_261\n      jump\t// in\n    tag_658:\n        /* \"#utility.yul\":34804:34829   */\n      swap3\n      pop\n        /* \"#utility.yul\":34864:34865   */\n      dup3\n        /* \"#utility.yul\":34861:34862   */\n      dup3\n        /* \"#utility.yul\":34857:34866   */\n      mul\n        /* \"#utility.yul\":34886:34916   */\n      tag_659\n        /* \"#utility.yul\":34904:34915   */\n      dup2\n        /* \"#utility.yul\":34886:34916   */\n      tag_261\n      jump\t// in\n    tag_659:\n        /* \"#utility.yul\":34875:34916   */\n      swap2\n      pop\n        /* \"#utility.yul\":35065:35066   */\n      dup3\n        /* \"#utility.yul\":35056:35063   */\n      dup3\n        /* \"#utility.yul\":35052:35067   */\n      div\n        /* \"#utility.yul\":35049:35050   */\n      dup5\n        /* \"#utility.yul\":35046:35068   */\n      eq\n        /* \"#utility.yul\":35026:35027   */\n      dup4\n        /* \"#utility.yul\":35019:35028   */\n      iszero\n        /* \"#utility.yul\":34999:35082   */\n      or\n        /* \"#utility.yul\":34976:35115   */\n      tag_660\n      jumpi\n        /* \"#utility.yul\":35095:35113   */\n      tag_661\n      tag_304\n      jump\t// in\n    tag_661:\n        /* \"#utility.yul\":34976:35115   */\n    tag_660:\n        /* \"#utility.yul\":34760:35122   */\n      pop\n        /* \"#utility.yul\":34712:35122   */\n      swap3\n      swap2\n      pop\n      pop\n      jump\t// out\n        /* \"#utility.yul\":35128:35308   */\n    tag_339:\n        /* \"#utility.yul\":35176:35253   */\n      0x4e487b7100000000000000000000000000000000000000000000000000000000\n        /* \"#utility.yul\":35173:35174   */\n      0x00\n        /* \"#utility.yul\":35166:35254   */\n      mstore\n        /* \"#utility.yul\":35273:35277   */\n      0x12\n        /* \"#utility.yul\":35270:35271   */\n      0x04\n        /* \"#utility.yul\":35263:35278   */\n      mstore\n        /* \"#utility.yul\":35297:35301   */\n      0x24\n        /* \"#utility.yul\":35294:35295   */\n      0x00\n        /* \"#utility.yul\":35287:35302   */\n      revert\n        /* \"#utility.yul\":35314:35499   */\n    tag_217:\n        /* \"#utility.yul\":35354:35355   */\n      0x00\n        /* \"#utility.yul\":35371:35391   */\n      tag_664\n        /* \"#utility.yul\":35389:35390   */\n      dup3\n        /* \"#utility.yul\":35371:35391   */\n      tag_261\n      jump\t// in\n    tag_664:\n        /* \"#utility.yul\":35366:35391   */\n      swap2\n      pop\n        /* \"#utility.yul\":35405:35425   */\n      tag_665\n        /* \"#utility.yul\":35423:35424   */\n      dup4\n        /* \"#utility.yul\":35405:35425   */\n      tag_261\n      jump\t// in\n    tag_665:\n        /* \"#utility.yul\":35400:35425   */\n      swap3\n      pop\n        /* \"#utility.yul\":35444:35445   */\n      dup3\n        /* \"#utility.yul\":35434:35469   */\n      tag_666\n      jumpi\n        /* \"#utility.yul\":35449:35467   */\n      tag_667\n      tag_339\n      jump\t// in\n    tag_667:\n        /* \"#utility.yul\":35434:35469   */\n    tag_666:\n        /* \"#utility.yul\":35491:35492   */\n      dup3\n        /* \"#utility.yul\":35488:35489   */\n      dup3\n        /* \"#utility.yul\":35484:35493   */\n      div\n        /* \"#utility.yul\":35479:35493   */\n      swap1\n      pop\n        /* \"#utility.yul\":35314:35499   */\n      swap3\n      swap2\n      pop\n      pop\n      jump\t// out\n        /* \"#utility.yul\":35505:35699   */\n    tag_219:\n        /* \"#utility.yul\":35545:35549   */\n      0x00\n        /* \"#utility.yul\":35565:35585   */\n      tag_669\n        /* \"#utility.yul\":35583:35584   */\n      dup3\n        /* \"#utility.yul\":35565:35585   */\n      tag_261\n      jump\t// in\n    tag_669:\n        /* \"#utility.yul\":35560:35585   */\n      swap2\n      pop\n        /* \"#utility.yul\":35599:35619   */\n      tag_670\n        /* \"#utility.yul\":35617:35618   */\n      dup4\n        /* \"#utility.yul\":35599:35619   */\n      tag_261\n      jump\t// in\n    tag_670:\n        /* \"#utility.yul\":35594:35619   */\n      swap3\n      pop\n        /* \"#utility.yul\":35643:35644   */\n      dup3\n        /* \"#utility.yul\":35640:35641   */\n      dup3\n        /* \"#utility.yul\":35636:35645   */\n      sub\n        /* \"#utility.yul\":35628:35645   */\n      swap1\n      pop\n        /* \"#utility.yul\":35667:35668   */\n      dup2\n        /* \"#utility.yul\":35661:35665   */\n      dup2\n        /* \"#utility.yul\":35658:35669   */\n      gt\n        /* \"#utility.yul\":35655:35692   */\n      iszero\n      tag_671\n      jumpi\n        /* \"#utility.yul\":35672:35690   */\n      tag_672\n      tag_304\n      jump\t// in\n    tag_672:\n        /* \"#utility.yul\":35655:35692   */\n    tag_671:\n        /* \"#utility.yul\":35505:35699   */\n      swap3\n      swap2\n      pop\n      pop\n      jump\t// out\n        /* \"#utility.yul\":35705:36037   */\n    tag_225:\n        /* \"#utility.yul\":35826:35830   */\n      0x00\n        /* \"#utility.yul\":35864:35866   */\n      0x40\n        /* \"#utility.yul\":35853:35862   */\n      dup3\n        /* \"#utility.yul\":35849:35867   */\n      add\n        /* \"#utility.yul\":35841:35867   */\n      swap1\n      pop\n        /* \"#utility.yul\":35877:35948   */\n      tag_674\n        /* \"#utility.yul\":35945:35946   */\n      0x00\n        /* \"#utility.yul\":35934:35943   */\n      dup4\n        /* \"#utility.yul\":35930:35947   */\n      add\n        /* \"#utility.yul\":35921:35927   */\n      dup6\n        /* \"#utility.yul\":35877:35948   */\n      tag_262\n      jump\t// in\n    tag_674:\n        /* \"#utility.yul\":35958:36030   */\n      tag_675\n        /* \"#utility.yul\":36026:36028   */\n      0x20\n        /* \"#utility.yul\":36015:36024   */\n      dup4\n        /* \"#utility.yul\":36011:36029   */\n      add\n        /* \"#utility.yul\":36002:36008   */\n      dup5\n        /* \"#utility.yul\":35958:36030   */\n      tag_271\n      jump\t// in\n    tag_675:\n        /* \"#utility.yul\":35705:36037   */\n      swap4\n      swap3\n      pop\n      pop\n      pop\n      jump\t// out\n\n    auxdata: 0xa26469706673582212207a80aec49c593f04b9bfac8bf62aa01a13f59dd1514504bd00c806a013aeea7564736f6c63430008190033\n}\n",
				"bytecode": {
					"linkReferences": {},
					"object": "6080604052348015600e575f80fd5b503360065f6101000a81548173ffffffffffffffffffffffffffffffffffffffff021916908373ffffffffffffffffffffffffffffffffffffffff160217905550612d658061005c5f395ff3fe608060405260043610610117575f3560e01c80634df8ccb11161009f578063a87430ba11610063578063a87430ba14610393578063b73db8de146103d2578063bdaac056146103fa578063be932ebd1461043c578063eb6427d9146104785761011e565b80634df8ccb1146102be5780636570a82f146102e85780637201d32e146103105780639e5c3cba1461034d578063a6a37136146103775761011e565b806315548232116100e657806315548232146101de57806316b29706146102085780631a8d302914610244578063228f088a1461026c57806334db8f63146102965761011e565b806310d86b1f1461012257806312065fe01461014a57806312c983031461017457806313f53f621461019c5761011e565b3661011e57005b5f80fd5b34801561012d575f80fd5b5061014860048036038101906101439190611b05565b6104b5565b005b348015610155575f80fd5b5061015e61067f565b60405161016b9190611b48565b60405180910390f35b34801561017f575f80fd5b5061019a60048036038101906101959190611b8b565b610686565b005b3480156101a7575f80fd5b506101c260048036038101906101bd9190611bc9565b610855565b6040516101d59796959493929190611cb6565b60405180910390f35b3480156101e9575f80fd5b506101f26109cb565b6040516101ff9190611b48565b60405180910390f35b348015610213575f80fd5b5061022e60048036038101906102299190611d5b565b6109d0565b60405161023b9190611b48565b60405180910390f35b34801561024f575f80fd5b5061026a60048036038101906102659190611edc565b6109e5565b005b348015610277575f80fd5b50610280610ce8565b60405161028d9190611b48565b60405180910390f35b3480156102a1575f80fd5b506102bc60048036038101906102b79190611b05565b610cee565b005b3480156102c9575f80fd5b506102d2610e93565b6040516102df9190611f8b565b60405180910390f35b3480156102f3575f80fd5b5061030e60048036038101906103099190611fa4565b610eb8565b005b34801561031b575f80fd5b5061033660048036038101906103319190611b05565b6110c4565b604051610344929190612040565b60405180910390f35b348015610358575f80fd5b506103616110ef565b60405161036e919061211e565b60405180910390f35b610391600480360381019061038c9190611bc9565b6112fc565b005b34801561039e575f80fd5b506103b960048036038101906103b49190611b05565b611660565b6040516103c9949392919061213e565b60405180910390f35b3480156103dd575f80fd5b506103f860048036038101906103f39190611bc9565b6117b1565b005b348015610405575f80fd5b50610420600480360381019061041b9190611bc9565b611874565b604051610433979695949392919061219e565b60405180910390f35b348015610447575f80fd5b50610462600480360381019061045d9190611b05565b611a0a565b60405161046f9190611b48565b60405180910390f35b348015610483575f80fd5b5061049e60048036038101906104999190611b05565b611a7a565b6040516104ac929190612219565b60405180910390f35b60065f9054906101000a900473ffffffffffffffffffffffffffffffffffffffff1673ffffffffffffffffffffffffffffffffffffffff163373ffffffffffffffffffffffffffffffffffffffff1614610544576040517f08c379a000000000000000000000000000000000000000000000000000000000815260040161053b906122b0565b60405180910390fd5b60015f8273ffffffffffffffffffffffffffffffffffffffff1673ffffffffffffffffffffffffffffffffffffffff1681526020019081526020015f206002015f9054906101000a900460ff16806105e6575060015f8273ffffffffffffffffffffffffffffffffffffffff1673ffffffffffffffffffffffffffffffffffffffff1681526020019081526020015f2060020160019054906101000a900460ff165b610625576040517f08c379a000000000000000000000000000000000000000000000000000000000815260040161061c90612318565b60405180910390fd5b60015f808373ffffffffffffffffffffffffffffffffffffffff1673ffffffffffffffffffffffffffffffffffffffff1681526020019081526020015f206001015f6101000a81548160ff02191690831515021790555050565b5f47905090565b60015f3373ffffffffffffffffffffffffffffffffffffffff1673ffffffffffffffffffffffffffffffffffffffff1681526020019081526020015f2060020160019054906101000a900460ff16610713576040517f08c379a000000000000000000000000000000000000000000000000000000000815260040161070a906123a6565b60405180910390fd5b5f60025f8481526020019081526020015f2090508060040160019054906101000a900473ffffffffffffffffffffffffffffffffffffffff1673ffffffffffffffffffffffffffffffffffffffff163373ffffffffffffffffffffffffffffffffffffffff16036107b9576040517f08c379a00000000000000000000000000000000000000000000000000000000081526004016107b09061240e565b60405180910390fd5b5f60045f8360040160019054906101000a900473ffffffffffffffffffffffffffffffffffffffff1673ffffffffffffffffffffffffffffffffffffffff1673ffffffffffffffffffffffffffffffffffffffff1681526020019081526020015f209050805f015f81548092919061083090612459565b919050555082816001015f82825461084891906124a0565b9250508190555050505050565b6002602052805f5260405f205f91509050805f01805461087490612500565b80601f01602080910402602001604051908101604052809291908181526020018280546108a090612500565b80156108eb5780601f106108c2576101008083540402835291602001916108eb565b820191905f5260205f20905b8154815290600101906020018083116108ce57829003601f168201915b50505050509080600101805461090090612500565b80601f016020809104026020016040519081016040528092919081815260200182805461092c90612500565b80156109775780601f1061094e57610100808354040283529160200191610977565b820191905f5260205f20905b81548152906001019060200180831161095a57829003601f168201915b505050505090806002015490806003015490806004015f9054906101000a900460ff16908060040160019054906101000a900473ffffffffffffffffffffffffffffffffffffffff16908060050154905087565b606481565b6003602052805f5260405f205f915090505481565b60015f3373ffffffffffffffffffffffffffffffffffffffff1673ffffffffffffffffffffffffffffffffffffffff1681526020019081526020015f206002015f9054906101000a900460ff16610a71576040517f08c379a0000000000000000000000000000000000000000000000000000000008152600401610a68906125a0565b60405180910390fd5b5f803373ffffffffffffffffffffffffffffffffffffffff1673ffffffffffffffffffffffffffffffffffffffff1681526020019081526020015f206001015f9054906101000a900460ff1615610afd576040517f08c379a0000000000000000000000000000000000000000000000000000000008152600401610af490612608565b60405180910390fd5b5f60035f8581526020019081526020015f205414610b50576040517f08c379a0000000000000000000000000000000000000000000000000000000008152600401610b4790612696565b60405180910390fd5b6040518060e0016040528086815260200185815260200184815260200183815260200182151581526020013373ffffffffffffffffffffffffffffffffffffffff1681526020015f81525060025f60055481526020019081526020015f205f820151815f019081610bc19190612851565b506020820151816001019081610bd79190612851565b5060408201518160020155606082015181600301556080820151816004015f6101000a81548160ff02191690831515021790555060a08201518160040160016101000a81548173ffffffffffffffffffffffffffffffffffffffff021916908373ffffffffffffffffffffffffffffffffffffffff16021790555060c0820151816005015590505060055460035f8581526020019081526020015f20819055503373ffffffffffffffffffffffffffffffffffffffff166005547fa8e21f9641ee0a4b37add0642221f97ed1accf45d08ad495fac8fe05d90b92868785604051610cc2929190612920565b60405180910390a360055f815480929190610cdc90612459565b91905055505050505050565b60055481565b3373ffffffffffffffffffffffffffffffffffffffff168173ffffffffffffffffffffffffffffffffffffffff1603610d5c576040517f08c379a0000000000000000000000000000000000000000000000000000000008152600401610d5390612998565b60405180910390fd5b60015f8273ffffffffffffffffffffffffffffffffffffffff1673ffffffffffffffffffffffffffffffffffffffff1681526020019081526020015f206002015f9054906101000a900460ff1680610dfe575060015f8273ffffffffffffffffffffffffffffffffffffffff1673ffffffffffffffffffffffffffffffffffffffff1681526020019081526020015f2060020160019054906101000a900460ff165b610e3d576040517f08c379a0000000000000000000000000000000000000000000000000000000008152600401610e3490612318565b60405180910390fd5b5f808273ffffffffffffffffffffffffffffffffffffffff1673ffffffffffffffffffffffffffffffffffffffff1681526020019081526020015f205f015f815480929190610e8b90612459565b919050555050565b60065f9054906101000a900473ffffffffffffffffffffffffffffffffffffffff1681565b60015f3373ffffffffffffffffffffffffffffffffffffffff1673ffffffffffffffffffffffffffffffffffffffff1681526020019081526020015f206002015f9054906101000a900460ff16158015610f5d575060015f3373ffffffffffffffffffffffffffffffffffffffff1673ffffffffffffffffffffffffffffffffffffffff1681526020019081526020015f2060020160019054906101000a900460ff16155b610f9c576040517f08c379a0000000000000000000000000000000000000000000000000000000008152600401610f9390612a00565b60405180910390fd5b6040518060800160405280858152602001848152602001831515815260200182151581525060015f3373ffffffffffffffffffffffffffffffffffffffff1673ffffffffffffffffffffffffffffffffffffffff1681526020019081526020015f205f820151815f0190816110119190612851565b5060208201518160010190816110279190612851565b506040820151816002015f6101000a81548160ff02191690831515021790555060608201518160020160016101000a81548160ff0219169083151502179055509050503373ffffffffffffffffffffffffffffffffffffffff167fb56f6343b750b88da4b33d9b5a10ab1313d0c619682bc36fdfbb8bdfb4789fcf858585856040516110b6949392919061213e565b60405180910390a250505050565b5f602052805f5260405f205f91509050805f015490806001015f9054906101000a900460ff16905082565b606060065f9054906101000a900473ffffffffffffffffffffffffffffffffffffffff1673ffffffffffffffffffffffffffffffffffffffff163373ffffffffffffffffffffffffffffffffffffffff1614611180576040517f08c379a000000000000000000000000000000000000000000000000000000000815260040161117790612a8e565b60405180910390fd5b5f60055467ffffffffffffffff81111561119d5761119c611d8e565b5b6040519080825280602002602001820160405280156111cb5781602001602082028036833780820191505090505b5090505f805b6005548110156112f3575f805f60025f8581526020019081526020015f2060040160019054906101000a900473ffffffffffffffffffffffffffffffffffffffff1673ffffffffffffffffffffffffffffffffffffffff1673ffffffffffffffffffffffffffffffffffffffff1681526020019081526020015f205f015411156112e65760025f8281526020019081526020015f2060040160019054906101000a900473ffffffffffffffffffffffffffffffffffffffff1683838151811061129d5761129c612aac565b5b602002602001019073ffffffffffffffffffffffffffffffffffffffff16908173ffffffffffffffffffffffffffffffffffffffff168152505081806112e290612459565b9250505b80806001019150506111d1565b50819250505090565b60015f3373ffffffffffffffffffffffffffffffffffffffff1673ffffffffffffffffffffffffffffffffffffffff1681526020019081526020015f2060020160019054906101000a900460ff16611389576040517f08c379a000000000000000000000000000000000000000000000000000000000815260040161138090612b49565b60405180910390fd5b5f803373ffffffffffffffffffffffffffffffffffffffff1673ffffffffffffffffffffffffffffffffffffffff1681526020019081526020015f206001015f9054906101000a900460ff1615611415576040517f08c379a000000000000000000000000000000000000000000000000000000000815260040161140c90612608565b60405180910390fd5b5f60025f8381526020019081526020015f2090505f73ffffffffffffffffffffffffffffffffffffffff168160040160019054906101000a900473ffffffffffffffffffffffffffffffffffffffff1673ffffffffffffffffffffffffffffffffffffffff16036114bb576040517f08c379a00000000000000000000000000000000000000000000000000000000081526004016114b290612bb1565b60405180910390fd5b8060030154341015611502576040517f08c379a00000000000000000000000000000000000000000000000000000000081526004016114f990612c19565b60405180910390fd5b5f60648083600301546115159190612c37565b61151f9190612ca5565b90505f8183600301546115329190612cd5565b905060065f9054906101000a900473ffffffffffffffffffffffffffffffffffffffff1673ffffffffffffffffffffffffffffffffffffffff166108fc8390811502906040515f60405180830381858888f19350505050158015611598573d5f803e3d5ffd5b508260040160019054906101000a900473ffffffffffffffffffffffffffffffffffffffff1673ffffffffffffffffffffffffffffffffffffffff166108fc8290811502906040515f60405180830381858888f19350505050158015611600573d5f803e3d5ffd5b503373ffffffffffffffffffffffffffffffffffffffff16847ffb08275d0d7cf05c65ce58a6d8d7f027f5bd3e93df2fd4962b96e26ec1939ea085600301548660020154604051611652929190612d08565b60405180910390a350505050565b6001602052805f5260405f205f91509050805f01805461167f90612500565b80601f01602080910402602001604051908101604052809291908181526020018280546116ab90612500565b80156116f65780601f106116cd576101008083540402835291602001916116f6565b820191905f5260205f20905b8154815290600101906020018083116116d957829003601f168201915b50505050509080600101805461170b90612500565b80601f016020809104026020016040519081016040528092919081815260200182805461173790612500565b80156117825780601f1061175957610100808354040283529160200191611782565b820191905f5260205f20905b81548152906001019060200180831161176557829003601f168201915b505050505090806002015f9054906101000a900460ff16908060020160019054906101000a900460ff16905084565b5f60025f8381526020019081526020015f2090505f73ffffffffffffffffffffffffffffffffffffffff168160040160019054906101000a900473ffffffffffffffffffffffffffffffffffffffff1673ffffffffffffffffffffffffffffffffffffffff1603611857576040517f08c379a000000000000000000000000000000000000000000000000000000000815260040161184e90612bb1565b60405180910390fd5b806005015f81548092919061186b90612459565b91905055505050565b6060805f805f805f8060025f8a81526020019081526020015f209050805f018160010182600201548360030154846004015f9054906101000a900460ff168560040160019054906101000a900473ffffffffffffffffffffffffffffffffffffffff1686600501548680546118e890612500565b80601f016020809104026020016040519081016040528092919081815260200182805461191490612500565b801561195f5780601f106119365761010080835404028352916020019161195f565b820191905f5260205f20905b81548152906001019060200180831161194257829003601f168201915b5050505050965085805461197290612500565b80601f016020809104026020016040519081016040528092919081815260200182805461199e90612500565b80156119e95780601f106119c0576101008083540402835291602001916119e9565b820191905f5260205f20905b8154815290600101906020018083116119cc57829003601f168201915b50505050509550975097509750975097509750975050919395979092949650565b5f8060045f8473ffffffffffffffffffffffffffffffffffffffff1673ffffffffffffffffffffffffffffffffffffffff1681526020019081526020015f2090505f815f015403611a5e575f915050611a75565b805f01548160010154611a719190612ca5565b9150505b919050565b6004602052805f5260405f205f91509050805f0154908060010154905082565b5f604051905090565b5f80fd5b5f80fd5b5f73ffffffffffffffffffffffffffffffffffffffff82169050919050565b5f611ad482611aab565b9050919050565b611ae481611aca565b8114611aee575f80fd5b50565b5f81359050611aff81611adb565b92915050565b5f60208284031215611b1a57611b19611aa3565b5b5f611b2784828501611af1565b91505092915050565b5f819050919050565b611b4281611b30565b82525050565b5f602082019050611b5b5f830184611b39565b92915050565b611b6a81611b30565b8114611b74575f80fd5b50565b5f81359050611b8581611b61565b92915050565b5f8060408385031215611ba157611ba0611aa3565b5b5f611bae85828601611b77565b9250506020611bbf85828601611b77565b9150509250929050565b5f60208284031215611bde57611bdd611aa3565b5b5f611beb84828501611b77565b91505092915050565b5f81519050919050565b5f82825260208201905092915050565b8281835e5f83830152505050565b5f601f19601f8301169050919050565b5f611c3682611bf4565b611c408185611bfe565b9350611c50818560208601611c0e565b611c5981611c1c565b840191505092915050565b5f819050919050565b611c7681611c64565b82525050565b5f8115159050919050565b611c9081611c7c565b82525050565b5f611ca082611aab565b9050919050565b611cb081611c96565b82525050565b5f60e0820190508181035f830152611cce818a611c2c565b90508181036020830152611ce28189611c2c565b9050611cf16040830188611c6d565b611cfe6060830187611b39565b611d0b6080830186611c87565b611d1860a0830185611ca7565b611d2560c0830184611b39565b98975050505050505050565b611d3a81611c64565b8114611d44575f80fd5b50565b5f81359050611d5581611d31565b92915050565b5f60208284031215611d7057611d6f611aa3565b5b5f611d7d84828501611d47565b91505092915050565b5f80fd5b5f80fd5b7f4e487b71000000000000000000000000000000000000000000000000000000005f52604160045260245ffd5b611dc482611c1c565b810181811067ffffffffffffffff82111715611de357611de2611d8e565b5b80604052505050565b5f611df5611a9a565b9050611e018282611dbb565b919050565b5f67ffffffffffffffff821115611e2057611e1f611d8e565b5b611e2982611c1c565b9050602081019050919050565b828183375f83830152505050565b5f611e56611e5184611e06565b611dec565b905082815260208101848484011115611e7257611e71611d8a565b5b611e7d848285611e36565b509392505050565b5f82601f830112611e9957611e98611d86565b5b8135611ea9848260208601611e44565b91505092915050565b611ebb81611c7c565b8114611ec5575f80fd5b50565b5f81359050611ed681611eb2565b92915050565b5f805f805f60a08688031215611ef557611ef4611aa3565b5b5f86013567ffffffffffffffff811115611f1257611f11611aa7565b5b611f1e88828901611e85565b955050602086013567ffffffffffffffff811115611f3f57611f3e611aa7565b5b611f4b88828901611e85565b9450506040611f5c88828901611d47565b9350506060611f6d88828901611b77565b9250506080611f7e88828901611ec8565b9150509295509295909350565b5f602082019050611f9e5f830184611ca7565b92915050565b5f805f8060808587031215611fbc57611fbb611aa3565b5b5f85013567ffffffffffffffff811115611fd957611fd8611aa7565b5b611fe587828801611e85565b945050602085013567ffffffffffffffff81111561200657612005611aa7565b5b61201287828801611e85565b935050604061202387828801611ec8565b925050606061203487828801611ec8565b91505092959194509250565b5f6040820190506120535f830185611b39565b6120606020830184611c87565b9392505050565b5f81519050919050565b5f82825260208201905092915050565b5f819050602082019050919050565b61209981611aca565b82525050565b5f6120aa8383612090565b60208301905092915050565b5f602082019050919050565b5f6120cc82612067565b6120d68185612071565b93506120e183612081565b805f5b838110156121115781516120f8888261209f565b9750612103836120b6565b9250506001810190506120e4565b5085935050505092915050565b5f6020820190508181035f83015261213681846120c2565b905092915050565b5f6080820190508181035f8301526121568187611c2c565b9050818103602083015261216a8186611c2c565b90506121796040830185611c87565b6121866060830184611c87565b95945050505050565b61219881611aca565b82525050565b5f60e0820190508181035f8301526121b6818a611c2c565b905081810360208301526121ca8189611c2c565b90506121d96040830188611c6d565b6121e66060830187611b39565b6121f36080830186611c87565b61220060a083018561218f565b61220d60c0830184611b39565b98975050505050505050565b5f60408201905061222c5f830185611b39565b6122396020830184611b39565b9392505050565b7f4f6e6c7920706c6174666f726d206f776e65722063616e2062616e20757365725f8201527f7300000000000000000000000000000000000000000000000000000000000000602082015250565b5f61229a602183611bfe565b91506122a582612240565b604082019050919050565b5f6020820190508181035f8301526122c78161228e565b9050919050565b7f55736572206e6f742072656769737465726564000000000000000000000000005f82015250565b5f612302601383611bfe565b915061230d826122ce565b602082019050919050565b5f6020820190508181035f83015261232f816122f6565b9050919050565b7f4f6e6c7920726567697374657265642064617461206275796572732063616e205f8201527f726174652073656c6c6572730000000000000000000000000000000000000000602082015250565b5f612390602c83611bfe565b915061239b82612336565b604082019050919050565b5f6020820190508181035f8301526123bd81612384565b9050919050565b7f53656c6c6572732063616e6e6f742072617465207468656d73656c76657300005f82015250565b5f6123f8601e83611bfe565b9150612403826123c4565b602082019050919050565b5f6020820190508181035f830152612425816123ec565b9050919050565b7f4e487b71000000000000000000000000000000000000000000000000000000005f52601160045260245ffd5b5f61246382611b30565b91507fffffffffffffffffffffffffffffffffffffffffffffffffffffffffffffffff82036124955761249461242c565b5b600182019050919050565b5f6124aa82611b30565b91506124b583611b30565b92508282019050808211156124cd576124cc61242c565b5b92915050565b7f4e487b71000000000000000000000000000000000000000000000000000000005f52602260045260245ffd5b5f600282049050600182168061251757607f821691505b60208210810361252a576125296124d3565b5b50919050565b7f4f6e6c79207265676973746572656420646174612073656c6c6572732063616e5f8201527f2075706c6f616420646174612073657473000000000000000000000000000000602082015250565b5f61258a603183611bfe565b915061259582612530565b604082019050919050565b5f6020820190508181035f8301526125b78161257e565b9050919050565b7f557365722069732062616e6e65640000000000000000000000000000000000005f82015250565b5f6125f2600e83611bfe565b91506125fd826125be565b602082019050919050565b5f6020820190508181035f83015261261f816125e6565b9050919050565b7f44617461207365742077697468207468652073616d65206861736820616c72655f8201527f6164792065786973747300000000000000000000000000000000000000000000602082015250565b5f612680602a83611bfe565b915061268b82612626565b604082019050919050565b5f6020820190508181035f8301526126ad81612674565b9050919050565b5f819050815f5260205f209050919050565b5f6020601f8301049050919050565b5f82821b905092915050565b5f600883026127107fffffffffffffffffffffffffffffffffffffffffffffffffffffffffffffffff826126d5565b61271a86836126d5565b95508019841693508086168417925050509392505050565b5f819050919050565b5f61275561275061274b84611b30565b612732565b611b30565b9050919050565b5f819050919050565b61276e8361273b565b61278261277a8261275c565b8484546126e1565b825550505050565b5f90565b61279661278a565b6127a1818484612765565b505050565b5b818110156127c4576127b95f8261278e565b6001810190506127a7565b5050565b601f821115612809576127da816126b4565b6127e3846126c6565b810160208510156127f2578190505b6128066127fe856126c6565b8301826127a6565b50505b505050565b5f82821c905092915050565b5f6128295f198460080261280e565b1980831691505092915050565b5f612841838361281a565b9150826002028217905092915050565b61285a82611bf4565b67ffffffffffffffff81111561287357612872611d8e565b5b61287d8254612500565b6128888282856127c8565b5f60209050601f8311600181146128b9575f84156128a7578287015190505b6128b18582612836565b865550612918565b601f1984166128c7866126b4565b5f5b828110156128ee578489015182556001820191506020850194506020810190506128c9565b8683101561290b5784890151612907601f89168261281a565b8355505b6001600288020188555050505b505050505050565b5f6040820190508181035f8301526129388185611c2c565b90506129476020830184611b39565b9392505050565b7f43616e6e6f74207265706f727420796f757273656c66000000000000000000005f82015250565b5f612982601683611bfe565b915061298d8261294e565b602082019050919050565b5f6020820190508181035f8301526129af81612976565b9050919050565b7f5573657220616c726561647920726567697374657265640000000000000000005f82015250565b5f6129ea601783611bfe565b91506129f5826129b6565b602082019050919050565b5f6020820190508181035f830152612a17816129de565b9050919050565b7f4f6e6c7920706c6174666f726d206f776e65722063616e2061636365737320725f8201527f65706f7274656420757365727300000000000000000000000000000000000000602082015250565b5f612a78602d83611bfe565b9150612a8382612a1e565b604082019050919050565b5f6020820190508181035f830152612aa581612a6c565b9050919050565b7f4e487b71000000000000000000000000000000000000000000000000000000005f52603260045260245ffd5b7f4f6e6c7920726567697374657265642064617461206275796572732063616e205f8201527f7075726368617365206461746120736574730000000000000000000000000000602082015250565b5f612b33603283611bfe565b9150612b3e82612ad9565b604082019050919050565b5f6020820190508181035f830152612b6081612b27565b9050919050565b7f496e76616c6964206461746120736574204944000000000000000000000000005f82015250565b5f612b9b601383611bfe565b9150612ba682612b67565b602082019050919050565b5f6020820190508181035f830152612bc881612b8f565b9050919050565b7f496e636f7272656374207061796d656e7420616d6f756e7400000000000000005f82015250565b5f612c03601883611bfe565b9150612c0e82612bcf565b602082019050919050565b5f6020820190508181035f830152612c3081612bf7565b9050919050565b5f612c4182611b30565b9150612c4c83611b30565b9250828202612c5a81611b30565b91508282048414831517612c7157612c7061242c565b5b5092915050565b7f4e487b71000000000000000000000000000000000000000000000000000000005f52601260045260245ffd5b5f612caf82611b30565b9150612cba83611b30565b925082612cca57612cc9612c78565b5b828204905092915050565b5f612cdf82611b30565b9150612cea83611b30565b9250828203905081811115612d0257612d0161242c565b5b92915050565b5f604082019050612d1b5f830185611b39565b612d286020830184611c6d565b939250505056fea26469706673582212207a80aec49c593f04b9bfac8bf62aa01a13f59dd1514504bd00c806a013aeea7564736f6c63430008190033",
					"opcodes": "PUSH1 0x80 PUSH1 0x40 MSTORE CALLVALUE DUP1 ISZERO PUSH1 0xE JUMPI PUSH0 DUP1 REVERT JUMPDEST POP CALLER PUSH1 0x6 PUSH0 PUSH2 0x100 EXP DUP2 SLOAD DUP2 PUSH20 0xFFFFFFFFFFFFFFFFFFFFFFFFFFFFFFFFFFFFFFFF MUL NOT AND SWAP1 DUP4 PUSH20 0xFFFFFFFFFFFFFFFFFFFFFFFFFFFFFFFFFFFFFFFF AND MUL OR SWAP1 SSTORE POP PUSH2 0x2D65 DUP1 PUSH2 0x5C PUSH0 CODECOPY PUSH0 RETURN INVALID PUSH1 0x80 PUSH1 0x40 MSTORE PUSH1 0x4 CALLDATASIZE LT PUSH2 0x117 JUMPI PUSH0 CALLDATALOAD PUSH1 0xE0 SHR DUP1 PUSH4 0x4DF8CCB1 GT PUSH2 0x9F JUMPI DUP1 PUSH4 0xA87430BA GT PUSH2 0x63 JUMPI DUP1 PUSH4 0xA87430BA EQ PUSH2 0x393 JUMPI DUP1 PUSH4 0xB73DB8DE EQ PUSH2 0x3D2 JUMPI DUP1 PUSH4 0xBDAAC056 EQ PUSH2 0x3FA JUMPI DUP1 PUSH4 0xBE932EBD EQ PUSH2 0x43C JUMPI DUP1 PUSH4 0xEB6427D9 EQ PUSH2 0x478 JUMPI PUSH2 0x11E JUMP JUMPDEST DUP1 PUSH4 0x4DF8CCB1 EQ PUSH2 0x2BE JUMPI DUP1 PUSH4 0x6570A82F EQ PUSH2 0x2E8 JUMPI DUP1 PUSH4 0x7201D32E EQ PUSH2 0x310 JUMPI DUP1 PUSH4 0x9E5C3CBA EQ PUSH2 0x34D JUMPI DUP1 PUSH4 0xA6A37136 EQ PUSH2 0x377 JUMPI PUSH2 0x11E JUMP JUMPDEST DUP1 PUSH4 0x15548232 GT PUSH2 0xE6 JUMPI DUP1 PUSH4 0x15548232 EQ PUSH2 0x1DE JUMPI DUP1 PUSH4 0x16B29706 EQ PUSH2 0x208 JUMPI DUP1 PUSH4 0x1A8D3029 EQ PUSH2 0x244 JUMPI DUP1 PUSH4 0x228F088A EQ PUSH2 0x26C JUMPI DUP1 PUSH4 0x34DB8F63 EQ PUSH2 0x296 JUMPI PUSH2 0x11E JUMP JUMPDEST DUP1 PUSH4 0x10D86B1F EQ PUSH2 0x122 JUMPI DUP1 PUSH4 0x12065FE0 EQ PUSH2 0x14A JUMPI DUP1 PUSH4 0x12C98303 EQ PUSH2 0x174 JUMPI DUP1 PUSH4 0x13F53F62 EQ PUSH2 0x19C JUMPI PUSH2 0x11E JUMP JUMPDEST CALLDATASIZE PUSH2 0x11E JUMPI STOP JUMPDEST PUSH0 DUP1 REVERT JUMPDEST CALLVALUE DUP1 ISZERO PUSH2 0x12D JUMPI PUSH0 DUP1 REVERT JUMPDEST POP PUSH2 0x148 PUSH1 0x4 DUP1 CALLDATASIZE SUB DUP2 ADD SWAP1 PUSH2 0x143 SWAP2 SWAP1 PUSH2 0x1B05 JUMP JUMPDEST PUSH2 0x4B5 JUMP JUMPDEST STOP JUMPDEST CALLVALUE DUP1 ISZERO PUSH2 0x155 JUMPI PUSH0 DUP1 REVERT JUMPDEST POP PUSH2 0x15E PUSH2 0x67F JUMP JUMPDEST PUSH1 0x40 MLOAD PUSH2 0x16B SWAP2 SWAP1 PUSH2 0x1B48 JUMP JUMPDEST PUSH1 0x40 MLOAD DUP1 SWAP2 SUB SWAP1 RETURN JUMPDEST CALLVALUE DUP1 ISZERO PUSH2 0x17F JUMPI PUSH0 DUP1 REVERT JUMPDEST POP PUSH2 0x19A PUSH1 0x4 DUP1 CALLDATASIZE SUB DUP2 ADD SWAP1 PUSH2 0x195 SWAP2 SWAP1 PUSH2 0x1B8B JUMP JUMPDEST PUSH2 0x686 JUMP JUMPDEST STOP JUMPDEST CALLVALUE DUP1 ISZERO PUSH2 0x1A7 JUMPI PUSH0 DUP1 REVERT JUMPDEST POP PUSH2 0x1C2 PUSH1 0x4 DUP1 CALLDATASIZE SUB DUP2 ADD SWAP1 PUSH2 0x1BD SWAP2 SWAP1 PUSH2 0x1BC9 JUMP JUMPDEST PUSH2 0x855 JUMP JUMPDEST PUSH1 0x40 MLOAD PUSH2 0x1D5 SWAP8 SWAP7 SWAP6 SWAP5 SWAP4 SWAP3 SWAP2 SWAP1 PUSH2 0x1CB6 JUMP JUMPDEST PUSH1 0x40 MLOAD DUP1 SWAP2 SUB SWAP1 RETURN JUMPDEST CALLVALUE DUP1 ISZERO PUSH2 0x1E9 JUMPI PUSH0 DUP1 REVERT JUMPDEST POP PUSH2 0x1F2 PUSH2 0x9CB JUMP JUMPDEST PUSH1 0x40 MLOAD PUSH2 0x1FF SWAP2 SWAP1 PUSH2 0x1B48 JUMP JUMPDEST PUSH1 0x40 MLOAD DUP1 SWAP2 SUB SWAP1 RETURN JUMPDEST CALLVALUE DUP1 ISZERO PUSH2 0x213 JUMPI PUSH0 DUP1 REVERT JUMPDEST POP PUSH2 0x22E PUSH1 0x4 DUP1 CALLDATASIZE SUB DUP2 ADD SWAP1 PUSH2 0x229 SWAP2 SWAP1 PUSH2 0x1D5B JUMP JUMPDEST PUSH2 0x9D0 JUMP JUMPDEST PUSH1 0x40 MLOAD PUSH2 0x23B SWAP2 SWAP1 PUSH2 0x1B48 JUMP JUMPDEST PUSH1 0x40 MLOAD DUP1 SWAP2 SUB SWAP1 RETURN JUMPDEST CALLVALUE DUP1 ISZERO PUSH2 0x24F JUMPI PUSH0 DUP1 REVERT JUMPDEST POP PUSH2 0x26A PUSH1 0x4 DUP1 CALLDATASIZE SUB DUP2 ADD SWAP1 PUSH2 0x265 SWAP2 SWAP1 PUSH2 0x1EDC JUMP JUMPDEST PUSH2 0x9E5 JUMP JUMPDEST STOP JUMPDEST CALLVALUE DUP1 ISZERO PUSH2 0x277 JUMPI PUSH0 DUP1 REVERT JUMPDEST POP PUSH2 0x280 PUSH2 0xCE8 JUMP JUMPDEST PUSH1 0x40 MLOAD PUSH2 0x28D SWAP2 SWAP1 PUSH2 0x1B48 JUMP JUMPDEST PUSH1 0x40 MLOAD DUP1 SWAP2 SUB SWAP1 RETURN JUMPDEST CALLVALUE DUP1 ISZERO PUSH2 0x2A1 JUMPI PUSH0 DUP1 REVERT JUMPDEST POP PUSH2 0x2BC PUSH1 0x4 DUP1 CALLDATASIZE SUB DUP2 ADD SWAP1 PUSH2 0x2B7 SWAP2 SWAP1 PUSH2 0x1B05 JUMP JUMPDEST PUSH2 0xCEE JUMP JUMPDEST STOP JUMPDEST CALLVALUE DUP1 ISZERO PUSH2 0x2C9 JUMPI PUSH0 DUP1 REVERT JUMPDEST POP PUSH2 0x2D2 PUSH2 0xE93 JUMP JUMPDEST PUSH1 0x40 MLOAD PUSH2 0x2DF SWAP2 SWAP1 PUSH2 0x1F8B JUMP JUMPDEST PUSH1 0x40 MLOAD DUP1 SWAP2 SUB SWAP1 RETURN JUMPDEST CALLVALUE DUP1 ISZERO PUSH2 0x2F3 JUMPI PUSH0 DUP1 REVERT JUMPDEST POP PUSH2 0x30E PUSH1 0x4 DUP1 CALLDATASIZE SUB DUP2 ADD SWAP1 PUSH2 0x309 SWAP2 SWAP1 PUSH2 0x1FA4 JUMP JUMPDEST PUSH2 0xEB8 JUMP JUMPDEST STOP JUMPDEST CALLVALUE DUP1 ISZERO PUSH2 0x31B JUMPI PUSH0 DUP1 REVERT JUMPDEST POP PUSH2 0x336 PUSH1 0x4 DUP1 CALLDATASIZE SUB DUP2 ADD SWAP1 PUSH2 0x331 SWAP2 SWAP1 PUSH2 0x1B05 JUMP JUMPDEST PUSH2 0x10C4 JUMP JUMPDEST PUSH1 0x40 MLOAD PUSH2 0x344 SWAP3 SWAP2 SWAP1 PUSH2 0x2040 JUMP JUMPDEST PUSH1 0x40 MLOAD DUP1 SWAP2 SUB SWAP1 RETURN JUMPDEST CALLVALUE DUP1 ISZERO PUSH2 0x358 JUMPI PUSH0 DUP1 REVERT JUMPDEST POP PUSH2 0x361 PUSH2 0x10EF JUMP JUMPDEST PUSH1 0x40 MLOAD PUSH2 0x36E SWAP2 SWAP1 PUSH2 0x211E JUMP JUMPDEST PUSH1 0x40 MLOAD DUP1 SWAP2 SUB SWAP1 RETURN JUMPDEST PUSH2 0x391 PUSH1 0x4 DUP1 CALLDATASIZE SUB DUP2 ADD SWAP1 PUSH2 0x38C SWAP2 SWAP1 PUSH2 0x1BC9 JUMP JUMPDEST PUSH2 0x12FC JUMP JUMPDEST STOP JUMPDEST CALLVALUE DUP1 ISZERO PUSH2 0x39E JUMPI PUSH0 DUP1 REVERT JUMPDEST POP PUSH2 0x3B9 PUSH1 0x4 DUP1 CALLDATASIZE SUB DUP2 ADD SWAP1 PUSH2 0x3B4 SWAP2 SWAP1 PUSH2 0x1B05 JUMP JUMPDEST PUSH2 0x1660 JUMP JUMPDEST PUSH1 0x40 MLOAD PUSH2 0x3C9 SWAP5 SWAP4 SWAP3 SWAP2 SWAP1 PUSH2 0x213E JUMP JUMPDEST PUSH1 0x40 MLOAD DUP1 SWAP2 SUB SWAP1 RETURN JUMPDEST CALLVALUE DUP1 ISZERO PUSH2 0x3DD JUMPI PUSH0 DUP1 REVERT JUMPDEST POP PUSH2 0x3F8 PUSH1 0x4 DUP1 CALLDATASIZE SUB DUP2 ADD SWAP1 PUSH2 0x3F3 SWAP2 SWAP1 PUSH2 0x1BC9 JUMP JUMPDEST PUSH2 0x17B1 JUMP JUMPDEST STOP JUMPDEST CALLVALUE DUP1 ISZERO PUSH2 0x405 JUMPI PUSH0 DUP1 REVERT JUMPDEST POP PUSH2 0x420 PUSH1 0x4 DUP1 CALLDATASIZE SUB DUP2 ADD SWAP1 PUSH2 0x41B SWAP2 SWAP1 PUSH2 0x1BC9 JUMP JUMPDEST PUSH2 0x1874 JUMP JUMPDEST PUSH1 0x40 MLOAD PUSH2 0x433 SWAP8 SWAP7 SWAP6 SWAP5 SWAP4 SWAP3 SWAP2 SWAP1 PUSH2 0x219E JUMP JUMPDEST PUSH1 0x40 MLOAD DUP1 SWAP2 SUB SWAP1 RETURN JUMPDEST CALLVALUE DUP1 ISZERO PUSH2 0x447 JUMPI PUSH0 DUP1 REVERT JUMPDEST POP PUSH2 0x462 PUSH1 0x4 DUP1 CALLDATASIZE SUB DUP2 ADD SWAP1 PUSH2 0x45D SWAP2 SWAP1 PUSH2 0x1B05 JUMP JUMPDEST PUSH2 0x1A0A JUMP JUMPDEST PUSH1 0x40 MLOAD PUSH2 0x46F SWAP2 SWAP1 PUSH2 0x1B48 JUMP JUMPDEST PUSH1 0x40 MLOAD DUP1 SWAP2 SUB SWAP1 RETURN JUMPDEST CALLVALUE DUP1 ISZERO PUSH2 0x483 JUMPI PUSH0 DUP1 REVERT JUMPDEST POP PUSH2 0x49E PUSH1 0x4 DUP1 CALLDATASIZE SUB DUP2 ADD SWAP1 PUSH2 0x499 SWAP2 SWAP1 PUSH2 0x1B05 JUMP JUMPDEST PUSH2 0x1A7A JUMP JUMPDEST PUSH1 0x40 MLOAD PUSH2 0x4AC SWAP3 SWAP2 SWAP1 PUSH2 0x2219 JUMP JUMPDEST PUSH1 0x40 MLOAD DUP1 SWAP2 SUB SWAP1 RETURN JUMPDEST PUSH1 0x6 PUSH0 SWAP1 SLOAD SWAP1 PUSH2 0x100 EXP SWAP1 DIV PUSH20 0xFFFFFFFFFFFFFFFFFFFFFFFFFFFFFFFFFFFFFFFF AND PUSH20 0xFFFFFFFFFFFFFFFFFFFFFFFFFFFFFFFFFFFFFFFF AND CALLER PUSH20 0xFFFFFFFFFFFFFFFFFFFFFFFFFFFFFFFFFFFFFFFF AND EQ PUSH2 0x544 JUMPI PUSH1 0x40 MLOAD PUSH32 0x8C379A000000000000000000000000000000000000000000000000000000000 DUP2 MSTORE PUSH1 0x4 ADD PUSH2 0x53B SWAP1 PUSH2 0x22B0 JUMP JUMPDEST PUSH1 0x40 MLOAD DUP1 SWAP2 SUB SWAP1 REVERT JUMPDEST PUSH1 0x1 PUSH0 DUP3 PUSH20 0xFFFFFFFFFFFFFFFFFFFFFFFFFFFFFFFFFFFFFFFF AND PUSH20 0xFFFFFFFFFFFFFFFFFFFFFFFFFFFFFFFFFFFFFFFF AND DUP2 MSTORE PUSH1 0x20 ADD SWAP1 DUP2 MSTORE PUSH1 0x20 ADD PUSH0 KECCAK256 PUSH1 0x2 ADD PUSH0 SWAP1 SLOAD SWAP1 PUSH2 0x100 EXP SWAP1 DIV PUSH1 0xFF AND DUP1 PUSH2 0x5E6 JUMPI POP PUSH1 0x1 PUSH0 DUP3 PUSH20 0xFFFFFFFFFFFFFFFFFFFFFFFFFFFFFFFFFFFFFFFF AND PUSH20 0xFFFFFFFFFFFFFFFFFFFFFFFFFFFFFFFFFFFFFFFF AND DUP2 MSTORE PUSH1 0x20 ADD SWAP1 DUP2 MSTORE PUSH1 0x20 ADD PUSH0 KECCAK256 PUSH1 0x2 ADD PUSH1 0x1 SWAP1 SLOAD SWAP1 PUSH2 0x100 EXP SWAP1 DIV PUSH1 0xFF AND JUMPDEST PUSH2 0x625 JUMPI PUSH1 0x40 MLOAD PUSH32 0x8C379A000000000000000000000000000000000000000000000000000000000 DUP2 MSTORE PUSH1 0x4 ADD PUSH2 0x61C SWAP1 PUSH2 0x2318 JUMP JUMPDEST PUSH1 0x40 MLOAD DUP1 SWAP2 SUB SWAP1 REVERT JUMPDEST PUSH1 0x1 PUSH0 DUP1 DUP4 PUSH20 0xFFFFFFFFFFFFFFFFFFFFFFFFFFFFFFFFFFFFFFFF AND PUSH20 0xFFFFFFFFFFFFFFFFFFFFFFFFFFFFFFFFFFFFFFFF AND DUP2 MSTORE PUSH1 0x20 ADD SWAP1 DUP2 MSTORE PUSH1 0x20 ADD PUSH0 KECCAK256 PUSH1 0x1 ADD PUSH0 PUSH2 0x100 EXP DUP2 SLOAD DUP2 PUSH1 0xFF MUL NOT AND SWAP1 DUP4 ISZERO ISZERO MUL OR SWAP1 SSTORE POP POP JUMP JUMPDEST PUSH0 SELFBALANCE SWAP1 POP SWAP1 JUMP JUMPDEST PUSH1 0x1 PUSH0 CALLER PUSH20 0xFFFFFFFFFFFFFFFFFFFFFFFFFFFFFFFFFFFFFFFF AND PUSH20 0xFFFFFFFFFFFFFFFFFFFFFFFFFFFFFFFFFFFFFFFF AND DUP2 MSTORE PUSH1 0x20 ADD SWAP1 DUP2 MSTORE PUSH1 0x20 ADD PUSH0 KECCAK256 PUSH1 0x2 ADD PUSH1 0x1 SWAP1 SLOAD SWAP1 PUSH2 0x100 EXP SWAP1 DIV PUSH1 0xFF AND PUSH2 0x713 JUMPI PUSH1 0x40 MLOAD PUSH32 0x8C379A000000000000000000000000000000000000000000000000000000000 DUP2 MSTORE PUSH1 0x4 ADD PUSH2 0x70A SWAP1 PUSH2 0x23A6 JUMP JUMPDEST PUSH1 0x40 MLOAD DUP1 SWAP2 SUB SWAP1 REVERT JUMPDEST PUSH0 PUSH1 0x2 PUSH0 DUP5 DUP2 MSTORE PUSH1 0x20 ADD SWAP1 DUP2 MSTORE PUSH1 0x20 ADD PUSH0 KECCAK256 SWAP1 POP DUP1 PUSH1 0x4 ADD PUSH1 0x1 SWAP1 SLOAD SWAP1 PUSH2 0x100 EXP SWAP1 DIV PUSH20 0xFFFFFFFFFFFFFFFFFFFFFFFFFFFFFFFFFFFFFFFF AND PUSH20 0xFFFFFFFFFFFFFFFFFFFFFFFFFFFFFFFFFFFFFFFF AND CALLER PUSH20 0xFFFFFFFFFFFFFFFFFFFFFFFFFFFFFFFFFFFFFFFF AND SUB PUSH2 0x7B9 JUMPI PUSH1 0x40 MLOAD PUSH32 0x8C379A000000000000000000000000000000000000000000000000000000000 DUP2 MSTORE PUSH1 0x4 ADD PUSH2 0x7B0 SWAP1 PUSH2 0x240E JUMP JUMPDEST PUSH1 0x40 MLOAD DUP1 SWAP2 SUB SWAP1 REVERT JUMPDEST PUSH0 PUSH1 0x4 PUSH0 DUP4 PUSH1 0x4 ADD PUSH1 0x1 SWAP1 SLOAD SWAP1 PUSH2 0x100 EXP SWAP1 DIV PUSH20 0xFFFFFFFFFFFFFFFFFFFFFFFFFFFFFFFFFFFFFFFF AND PUSH20 0xFFFFFFFFFFFFFFFFFFFFFFFFFFFFFFFFFFFFFFFF AND PUSH20 0xFFFFFFFFFFFFFFFFFFFFFFFFFFFFFFFFFFFFFFFF AND DUP2 MSTORE PUSH1 0x20 ADD SWAP1 DUP2 MSTORE PUSH1 0x20 ADD PUSH0 KECCAK256 SWAP1 POP DUP1 PUSH0 ADD PUSH0 DUP2 SLOAD DUP1 SWAP3 SWAP2 SWAP1 PUSH2 0x830 SWAP1 PUSH2 0x2459 JUMP JUMPDEST SWAP2 SWAP1 POP SSTORE POP DUP3 DUP2 PUSH1 0x1 ADD PUSH0 DUP3 DUP3 SLOAD PUSH2 0x848 SWAP2 SWAP1 PUSH2 0x24A0 JUMP JUMPDEST SWAP3 POP POP DUP2 SWAP1 SSTORE POP POP POP POP POP JUMP JUMPDEST PUSH1 0x2 PUSH1 0x20 MSTORE DUP1 PUSH0 MSTORE PUSH1 0x40 PUSH0 KECCAK256 PUSH0 SWAP2 POP SWAP1 POP DUP1 PUSH0 ADD DUP1 SLOAD PUSH2 0x874 SWAP1 PUSH2 0x2500 JUMP JUMPDEST DUP1 PUSH1 0x1F ADD PUSH1 0x20 DUP1 SWAP2 DIV MUL PUSH1 0x20 ADD PUSH1 0x40 MLOAD SWAP1 DUP2 ADD PUSH1 0x40 MSTORE DUP1 SWAP3 SWAP2 SWAP1 DUP2 DUP2 MSTORE PUSH1 0x20 ADD DUP3 DUP1 SLOAD PUSH2 0x8A0 SWAP1 PUSH2 0x2500 JUMP JUMPDEST DUP1 ISZERO PUSH2 0x8EB JUMPI DUP1 PUSH1 0x1F LT PUSH2 0x8C2 JUMPI PUSH2 0x100 DUP1 DUP4 SLOAD DIV MUL DUP4 MSTORE SWAP2 PUSH1 0x20 ADD SWAP2 PUSH2 0x8EB JUMP JUMPDEST DUP3 ADD SWAP2 SWAP1 PUSH0 MSTORE PUSH1 0x20 PUSH0 KECCAK256 SWAP1 JUMPDEST DUP2 SLOAD DUP2 MSTORE SWAP1 PUSH1 0x1 ADD SWAP1 PUSH1 0x20 ADD DUP1 DUP4 GT PUSH2 0x8CE JUMPI DUP3 SWAP1 SUB PUSH1 0x1F AND DUP3 ADD SWAP2 JUMPDEST POP POP POP POP POP SWAP1 DUP1 PUSH1 0x1 ADD DUP1 SLOAD PUSH2 0x900 SWAP1 PUSH2 0x2500 JUMP JUMPDEST DUP1 PUSH1 0x1F ADD PUSH1 0x20 DUP1 SWAP2 DIV MUL PUSH1 0x20 ADD PUSH1 0x40 MLOAD SWAP1 DUP2 ADD PUSH1 0x40 MSTORE DUP1 SWAP3 SWAP2 SWAP1 DUP2 DUP2 MSTORE PUSH1 0x20 ADD DUP3 DUP1 SLOAD PUSH2 0x92C SWAP1 PUSH2 0x2500 JUMP JUMPDEST DUP1 ISZERO PUSH2 0x977 JUMPI DUP1 PUSH1 0x1F LT PUSH2 0x94E JUMPI PUSH2 0x100 DUP1 DUP4 SLOAD DIV MUL DUP4 MSTORE SWAP2 PUSH1 0x20 ADD SWAP2 PUSH2 0x977 JUMP JUMPDEST DUP3 ADD SWAP2 SWAP1 PUSH0 MSTORE PUSH1 0x20 PUSH0 KECCAK256 SWAP1 JUMPDEST DUP2 SLOAD DUP2 MSTORE SWAP1 PUSH1 0x1 ADD SWAP1 PUSH1 0x20 ADD DUP1 DUP4 GT PUSH2 0x95A JUMPI DUP3 SWAP1 SUB PUSH1 0x1F AND DUP3 ADD SWAP2 JUMPDEST POP POP POP POP POP SWAP1 DUP1 PUSH1 0x2 ADD SLOAD SWAP1 DUP1 PUSH1 0x3 ADD SLOAD SWAP1 DUP1 PUSH1 0x4 ADD PUSH0 SWAP1 SLOAD SWAP1 PUSH2 0x100 EXP SWAP1 DIV PUSH1 0xFF AND SWAP1 DUP1 PUSH1 0x4 ADD PUSH1 0x1 SWAP1 SLOAD SWAP1 PUSH2 0x100 EXP SWAP1 DIV PUSH20 0xFFFFFFFFFFFFFFFFFFFFFFFFFFFFFFFFFFFFFFFF AND SWAP1 DUP1 PUSH1 0x5 ADD SLOAD SWAP1 POP DUP8 JUMP JUMPDEST PUSH1 0x64 DUP2 JUMP JUMPDEST PUSH1 0x3 PUSH1 0x20 MSTORE DUP1 PUSH0 MSTORE PUSH1 0x40 PUSH0 KECCAK256 PUSH0 SWAP2 POP SWAP1 POP SLOAD DUP2 JUMP JUMPDEST PUSH1 0x1 PUSH0 CALLER PUSH20 0xFFFFFFFFFFFFFFFFFFFFFFFFFFFFFFFFFFFFFFFF AND PUSH20 0xFFFFFFFFFFFFFFFFFFFFFFFFFFFFFFFFFFFFFFFF AND DUP2 MSTORE PUSH1 0x20 ADD SWAP1 DUP2 MSTORE PUSH1 0x20 ADD PUSH0 KECCAK256 PUSH1 0x2 ADD PUSH0 SWAP1 SLOAD SWAP1 PUSH2 0x100 EXP SWAP1 DIV PUSH1 0xFF AND PUSH2 0xA71 JUMPI PUSH1 0x40 MLOAD PUSH32 0x8C379A000000000000000000000000000000000000000000000000000000000 DUP2 MSTORE PUSH1 0x4 ADD PUSH2 0xA68 SWAP1 PUSH2 0x25A0 JUMP JUMPDEST PUSH1 0x40 MLOAD DUP1 SWAP2 SUB SWAP1 REVERT JUMPDEST PUSH0 DUP1 CALLER PUSH20 0xFFFFFFFFFFFFFFFFFFFFFFFFFFFFFFFFFFFFFFFF AND PUSH20 0xFFFFFFFFFFFFFFFFFFFFFFFFFFFFFFFFFFFFFFFF AND DUP2 MSTORE PUSH1 0x20 ADD SWAP1 DUP2 MSTORE PUSH1 0x20 ADD PUSH0 KECCAK256 PUSH1 0x1 ADD PUSH0 SWAP1 SLOAD SWAP1 PUSH2 0x100 EXP SWAP1 DIV PUSH1 0xFF AND ISZERO PUSH2 0xAFD JUMPI PUSH1 0x40 MLOAD PUSH32 0x8C379A000000000000000000000000000000000000000000000000000000000 DUP2 MSTORE PUSH1 0x4 ADD PUSH2 0xAF4 SWAP1 PUSH2 0x2608 JUMP JUMPDEST PUSH1 0x40 MLOAD DUP1 SWAP2 SUB SWAP1 REVERT JUMPDEST PUSH0 PUSH1 0x3 PUSH0 DUP6 DUP2 MSTORE PUSH1 0x20 ADD SWAP1 DUP2 MSTORE PUSH1 0x20 ADD PUSH0 KECCAK256 SLOAD EQ PUSH2 0xB50 JUMPI PUSH1 0x40 MLOAD PUSH32 0x8C379A000000000000000000000000000000000000000000000000000000000 DUP2 MSTORE PUSH1 0x4 ADD PUSH2 0xB47 SWAP1 PUSH2 0x2696 JUMP JUMPDEST PUSH1 0x40 MLOAD DUP1 SWAP2 SUB SWAP1 REVERT JUMPDEST PUSH1 0x40 MLOAD DUP1 PUSH1 0xE0 ADD PUSH1 0x40 MSTORE DUP1 DUP7 DUP2 MSTORE PUSH1 0x20 ADD DUP6 DUP2 MSTORE PUSH1 0x20 ADD DUP5 DUP2 MSTORE PUSH1 0x20 ADD DUP4 DUP2 MSTORE PUSH1 0x20 ADD DUP3 ISZERO ISZERO DUP2 MSTORE PUSH1 0x20 ADD CALLER PUSH20 0xFFFFFFFFFFFFFFFFFFFFFFFFFFFFFFFFFFFFFFFF AND DUP2 MSTORE PUSH1 0x20 ADD PUSH0 DUP2 MSTORE POP PUSH1 0x2 PUSH0 PUSH1 0x5 SLOAD DUP2 MSTORE PUSH1 0x20 ADD SWAP1 DUP2 MSTORE PUSH1 0x20 ADD PUSH0 KECCAK256 PUSH0 DUP3 ADD MLOAD DUP2 PUSH0 ADD SWAP1 DUP2 PUSH2 0xBC1 SWAP2 SWAP1 PUSH2 0x2851 JUMP JUMPDEST POP PUSH1 0x20 DUP3 ADD MLOAD DUP2 PUSH1 0x1 ADD SWAP1 DUP2 PUSH2 0xBD7 SWAP2 SWAP1 PUSH2 0x2851 JUMP JUMPDEST POP PUSH1 0x40 DUP3 ADD MLOAD DUP2 PUSH1 0x2 ADD SSTORE PUSH1 0x60 DUP3 ADD MLOAD DUP2 PUSH1 0x3 ADD SSTORE PUSH1 0x80 DUP3 ADD MLOAD DUP2 PUSH1 0x4 ADD PUSH0 PUSH2 0x100 EXP DUP2 SLOAD DUP2 PUSH1 0xFF MUL NOT AND SWAP1 DUP4 ISZERO ISZERO MUL OR SWAP1 SSTORE POP PUSH1 0xA0 DUP3 ADD MLOAD DUP2 PUSH1 0x4 ADD PUSH1 0x1 PUSH2 0x100 EXP DUP2 SLOAD DUP2 PUSH20 0xFFFFFFFFFFFFFFFFFFFFFFFFFFFFFFFFFFFFFFFF MUL NOT AND SWAP1 DUP4 PUSH20 0xFFFFFFFFFFFFFFFFFFFFFFFFFFFFFFFFFFFFFFFF AND MUL OR SWAP1 SSTORE POP PUSH1 0xC0 DUP3 ADD MLOAD DUP2 PUSH1 0x5 ADD SSTORE SWAP1 POP POP PUSH1 0x5 SLOAD PUSH1 0x3 PUSH0 DUP6 DUP2 MSTORE PUSH1 0x20 ADD SWAP1 DUP2 MSTORE PUSH1 0x20 ADD PUSH0 KECCAK256 DUP2 SWAP1 SSTORE POP CALLER PUSH20 0xFFFFFFFFFFFFFFFFFFFFFFFFFFFFFFFFFFFFFFFF AND PUSH1 0x5 SLOAD PUSH32 0xA8E21F9641EE0A4B37ADD0642221F97ED1ACCF45D08AD495FAC8FE05D90B9286 DUP8 DUP6 PUSH1 0x40 MLOAD PUSH2 0xCC2 SWAP3 SWAP2 SWAP1 PUSH2 0x2920 JUMP JUMPDEST PUSH1 0x40 MLOAD DUP1 SWAP2 SUB SWAP1 LOG3 PUSH1 0x5 PUSH0 DUP2 SLOAD DUP1 SWAP3 SWAP2 SWAP1 PUSH2 0xCDC SWAP1 PUSH2 0x2459 JUMP JUMPDEST SWAP2 SWAP1 POP SSTORE POP POP POP POP POP POP JUMP JUMPDEST PUSH1 0x5 SLOAD DUP2 JUMP JUMPDEST CALLER PUSH20 0xFFFFFFFFFFFFFFFFFFFFFFFFFFFFFFFFFFFFFFFF AND DUP2 PUSH20 0xFFFFFFFFFFFFFFFFFFFFFFFFFFFFFFFFFFFFFFFF AND SUB PUSH2 0xD5C JUMPI PUSH1 0x40 MLOAD PUSH32 0x8C379A000000000000000000000000000000000000000000000000000000000 DUP2 MSTORE PUSH1 0x4 ADD PUSH2 0xD53 SWAP1 PUSH2 0x2998 JUMP JUMPDEST PUSH1 0x40 MLOAD DUP1 SWAP2 SUB SWAP1 REVERT JUMPDEST PUSH1 0x1 PUSH0 DUP3 PUSH20 0xFFFFFFFFFFFFFFFFFFFFFFFFFFFFFFFFFFFFFFFF AND PUSH20 0xFFFFFFFFFFFFFFFFFFFFFFFFFFFFFFFFFFFFFFFF AND DUP2 MSTORE PUSH1 0x20 ADD SWAP1 DUP2 MSTORE PUSH1 0x20 ADD PUSH0 KECCAK256 PUSH1 0x2 ADD PUSH0 SWAP1 SLOAD SWAP1 PUSH2 0x100 EXP SWAP1 DIV PUSH1 0xFF AND DUP1 PUSH2 0xDFE JUMPI POP PUSH1 0x1 PUSH0 DUP3 PUSH20 0xFFFFFFFFFFFFFFFFFFFFFFFFFFFFFFFFFFFFFFFF AND PUSH20 0xFFFFFFFFFFFFFFFFFFFFFFFFFFFFFFFFFFFFFFFF AND DUP2 MSTORE PUSH1 0x20 ADD SWAP1 DUP2 MSTORE PUSH1 0x20 ADD PUSH0 KECCAK256 PUSH1 0x2 ADD PUSH1 0x1 SWAP1 SLOAD SWAP1 PUSH2 0x100 EXP SWAP1 DIV PUSH1 0xFF AND JUMPDEST PUSH2 0xE3D JUMPI PUSH1 0x40 MLOAD PUSH32 0x8C379A000000000000000000000000000000000000000000000000000000000 DUP2 MSTORE PUSH1 0x4 ADD PUSH2 0xE34 SWAP1 PUSH2 0x2318 JUMP JUMPDEST PUSH1 0x40 MLOAD DUP1 SWAP2 SUB SWAP1 REVERT JUMPDEST PUSH0 DUP1 DUP3 PUSH20 0xFFFFFFFFFFFFFFFFFFFFFFFFFFFFFFFFFFFFFFFF AND PUSH20 0xFFFFFFFFFFFFFFFFFFFFFFFFFFFFFFFFFFFFFFFF AND DUP2 MSTORE PUSH1 0x20 ADD SWAP1 DUP2 MSTORE PUSH1 0x20 ADD PUSH0 KECCAK256 PUSH0 ADD PUSH0 DUP2 SLOAD DUP1 SWAP3 SWAP2 SWAP1 PUSH2 0xE8B SWAP1 PUSH2 0x2459 JUMP JUMPDEST SWAP2 SWAP1 POP SSTORE POP POP JUMP JUMPDEST PUSH1 0x6 PUSH0 SWAP1 SLOAD SWAP1 PUSH2 0x100 EXP SWAP1 DIV PUSH20 0xFFFFFFFFFFFFFFFFFFFFFFFFFFFFFFFFFFFFFFFF AND DUP2 JUMP JUMPDEST PUSH1 0x1 PUSH0 CALLER PUSH20 0xFFFFFFFFFFFFFFFFFFFFFFFFFFFFFFFFFFFFFFFF AND PUSH20 0xFFFFFFFFFFFFFFFFFFFFFFFFFFFFFFFFFFFFFFFF AND DUP2 MSTORE PUSH1 0x20 ADD SWAP1 DUP2 MSTORE PUSH1 0x20 ADD PUSH0 KECCAK256 PUSH1 0x2 ADD PUSH0 SWAP1 SLOAD SWAP1 PUSH2 0x100 EXP SWAP1 DIV PUSH1 0xFF AND ISZERO DUP1 ISZERO PUSH2 0xF5D JUMPI POP PUSH1 0x1 PUSH0 CALLER PUSH20 0xFFFFFFFFFFFFFFFFFFFFFFFFFFFFFFFFFFFFFFFF AND PUSH20 0xFFFFFFFFFFFFFFFFFFFFFFFFFFFFFFFFFFFFFFFF AND DUP2 MSTORE PUSH1 0x20 ADD SWAP1 DUP2 MSTORE PUSH1 0x20 ADD PUSH0 KECCAK256 PUSH1 0x2 ADD PUSH1 0x1 SWAP1 SLOAD SWAP1 PUSH2 0x100 EXP SWAP1 DIV PUSH1 0xFF AND ISZERO JUMPDEST PUSH2 0xF9C JUMPI PUSH1 0x40 MLOAD PUSH32 0x8C379A000000000000000000000000000000000000000000000000000000000 DUP2 MSTORE PUSH1 0x4 ADD PUSH2 0xF93 SWAP1 PUSH2 0x2A00 JUMP JUMPDEST PUSH1 0x40 MLOAD DUP1 SWAP2 SUB SWAP1 REVERT JUMPDEST PUSH1 0x40 MLOAD DUP1 PUSH1 0x80 ADD PUSH1 0x40 MSTORE DUP1 DUP6 DUP2 MSTORE PUSH1 0x20 ADD DUP5 DUP2 MSTORE PUSH1 0x20 ADD DUP4 ISZERO ISZERO DUP2 MSTORE PUSH1 0x20 ADD DUP3 ISZERO ISZERO DUP2 MSTORE POP PUSH1 0x1 PUSH0 CALLER PUSH20 0xFFFFFFFFFFFFFFFFFFFFFFFFFFFFFFFFFFFFFFFF AND PUSH20 0xFFFFFFFFFFFFFFFFFFFFFFFFFFFFFFFFFFFFFFFF AND DUP2 MSTORE PUSH1 0x20 ADD SWAP1 DUP2 MSTORE PUSH1 0x20 ADD PUSH0 KECCAK256 PUSH0 DUP3 ADD MLOAD DUP2 PUSH0 ADD SWAP1 DUP2 PUSH2 0x1011 SWAP2 SWAP1 PUSH2 0x2851 JUMP JUMPDEST POP PUSH1 0x20 DUP3 ADD MLOAD DUP2 PUSH1 0x1 ADD SWAP1 DUP2 PUSH2 0x1027 SWAP2 SWAP1 PUSH2 0x2851 JUMP JUMPDEST POP PUSH1 0x40 DUP3 ADD MLOAD DUP2 PUSH1 0x2 ADD PUSH0 PUSH2 0x100 EXP DUP2 SLOAD DUP2 PUSH1 0xFF MUL NOT AND SWAP1 DUP4 ISZERO ISZERO MUL OR SWAP1 SSTORE POP PUSH1 0x60 DUP3 ADD MLOAD DUP2 PUSH1 0x2 ADD PUSH1 0x1 PUSH2 0x100 EXP DUP2 SLOAD DUP2 PUSH1 0xFF MUL NOT AND SWAP1 DUP4 ISZERO ISZERO MUL OR SWAP1 SSTORE POP SWAP1 POP POP CALLER PUSH20 0xFFFFFFFFFFFFFFFFFFFFFFFFFFFFFFFFFFFFFFFF AND PUSH32 0xB56F6343B750B88DA4B33D9B5A10AB1313D0C619682BC36FDFBB8BDFB4789FCF DUP6 DUP6 DUP6 DUP6 PUSH1 0x40 MLOAD PUSH2 0x10B6 SWAP5 SWAP4 SWAP3 SWAP2 SWAP1 PUSH2 0x213E JUMP JUMPDEST PUSH1 0x40 MLOAD DUP1 SWAP2 SUB SWAP1 LOG2 POP POP POP POP JUMP JUMPDEST PUSH0 PUSH1 0x20 MSTORE DUP1 PUSH0 MSTORE PUSH1 0x40 PUSH0 KECCAK256 PUSH0 SWAP2 POP SWAP1 POP DUP1 PUSH0 ADD SLOAD SWAP1 DUP1 PUSH1 0x1 ADD PUSH0 SWAP1 SLOAD SWAP1 PUSH2 0x100 EXP SWAP1 DIV PUSH1 0xFF AND SWAP1 POP DUP3 JUMP JUMPDEST PUSH1 0x60 PUSH1 0x6 PUSH0 SWAP1 SLOAD SWAP1 PUSH2 0x100 EXP SWAP1 DIV PUSH20 0xFFFFFFFFFFFFFFFFFFFFFFFFFFFFFFFFFFFFFFFF AND PUSH20 0xFFFFFFFFFFFFFFFFFFFFFFFFFFFFFFFFFFFFFFFF AND CALLER PUSH20 0xFFFFFFFFFFFFFFFFFFFFFFFFFFFFFFFFFFFFFFFF AND EQ PUSH2 0x1180 JUMPI PUSH1 0x40 MLOAD PUSH32 0x8C379A000000000000000000000000000000000000000000000000000000000 DUP2 MSTORE PUSH1 0x4 ADD PUSH2 0x1177 SWAP1 PUSH2 0x2A8E JUMP JUMPDEST PUSH1 0x40 MLOAD DUP1 SWAP2 SUB SWAP1 REVERT JUMPDEST PUSH0 PUSH1 0x5 SLOAD PUSH8 0xFFFFFFFFFFFFFFFF DUP2 GT ISZERO PUSH2 0x119D JUMPI PUSH2 0x119C PUSH2 0x1D8E JUMP JUMPDEST JUMPDEST PUSH1 0x40 MLOAD SWAP1 DUP1 DUP3 MSTORE DUP1 PUSH1 0x20 MUL PUSH1 0x20 ADD DUP3 ADD PUSH1 0x40 MSTORE DUP1 ISZERO PUSH2 0x11CB JUMPI DUP2 PUSH1 0x20 ADD PUSH1 0x20 DUP3 MUL DUP1 CALLDATASIZE DUP4 CALLDATACOPY DUP1 DUP3 ADD SWAP2 POP POP SWAP1 POP JUMPDEST POP SWAP1 POP PUSH0 DUP1 JUMPDEST PUSH1 0x5 SLOAD DUP2 LT ISZERO PUSH2 0x12F3 JUMPI PUSH0 DUP1 PUSH0 PUSH1 0x2 PUSH0 DUP6 DUP2 MSTORE PUSH1 0x20 ADD SWAP1 DUP2 MSTORE PUSH1 0x20 ADD PUSH0 KECCAK256 PUSH1 0x4 ADD PUSH1 0x1 SWAP1 SLOAD SWAP1 PUSH2 0x100 EXP SWAP1 DIV PUSH20 0xFFFFFFFFFFFFFFFFFFFFFFFFFFFFFFFFFFFFFFFF AND PUSH20 0xFFFFFFFFFFFFFFFFFFFFFFFFFFFFFFFFFFFFFFFF AND PUSH20 0xFFFFFFFFFFFFFFFFFFFFFFFFFFFFFFFFFFFFFFFF AND DUP2 MSTORE PUSH1 0x20 ADD SWAP1 DUP2 MSTORE PUSH1 0x20 ADD PUSH0 KECCAK256 PUSH0 ADD SLOAD GT ISZERO PUSH2 0x12E6 JUMPI PUSH1 0x2 PUSH0 DUP3 DUP2 MSTORE PUSH1 0x20 ADD SWAP1 DUP2 MSTORE PUSH1 0x20 ADD PUSH0 KECCAK256 PUSH1 0x4 ADD PUSH1 0x1 SWAP1 SLOAD SWAP1 PUSH2 0x100 EXP SWAP1 DIV PUSH20 0xFFFFFFFFFFFFFFFFFFFFFFFFFFFFFFFFFFFFFFFF AND DUP4 DUP4 DUP2 MLOAD DUP2 LT PUSH2 0x129D JUMPI PUSH2 0x129C PUSH2 0x2AAC JUMP JUMPDEST JUMPDEST PUSH1 0x20 MUL PUSH1 0x20 ADD ADD SWAP1 PUSH20 0xFFFFFFFFFFFFFFFFFFFFFFFFFFFFFFFFFFFFFFFF AND SWAP1 DUP2 PUSH20 0xFFFFFFFFFFFFFFFFFFFFFFFFFFFFFFFFFFFFFFFF AND DUP2 MSTORE POP POP DUP2 DUP1 PUSH2 0x12E2 SWAP1 PUSH2 0x2459 JUMP JUMPDEST SWAP3 POP POP JUMPDEST DUP1 DUP1 PUSH1 0x1 ADD SWAP2 POP POP PUSH2 0x11D1 JUMP JUMPDEST POP DUP2 SWAP3 POP POP POP SWAP1 JUMP JUMPDEST PUSH1 0x1 PUSH0 CALLER PUSH20 0xFFFFFFFFFFFFFFFFFFFFFFFFFFFFFFFFFFFFFFFF AND PUSH20 0xFFFFFFFFFFFFFFFFFFFFFFFFFFFFFFFFFFFFFFFF AND DUP2 MSTORE PUSH1 0x20 ADD SWAP1 DUP2 MSTORE PUSH1 0x20 ADD PUSH0 KECCAK256 PUSH1 0x2 ADD PUSH1 0x1 SWAP1 SLOAD SWAP1 PUSH2 0x100 EXP SWAP1 DIV PUSH1 0xFF AND PUSH2 0x1389 JUMPI PUSH1 0x40 MLOAD PUSH32 0x8C379A000000000000000000000000000000000000000000000000000000000 DUP2 MSTORE PUSH1 0x4 ADD PUSH2 0x1380 SWAP1 PUSH2 0x2B49 JUMP JUMPDEST PUSH1 0x40 MLOAD DUP1 SWAP2 SUB SWAP1 REVERT JUMPDEST PUSH0 DUP1 CALLER PUSH20 0xFFFFFFFFFFFFFFFFFFFFFFFFFFFFFFFFFFFFFFFF AND PUSH20 0xFFFFFFFFFFFFFFFFFFFFFFFFFFFFFFFFFFFFFFFF AND DUP2 MSTORE PUSH1 0x20 ADD SWAP1 DUP2 MSTORE PUSH1 0x20 ADD PUSH0 KECCAK256 PUSH1 0x1 ADD PUSH0 SWAP1 SLOAD SWAP1 PUSH2 0x100 EXP SWAP1 DIV PUSH1 0xFF AND ISZERO PUSH2 0x1415 JUMPI PUSH1 0x40 MLOAD PUSH32 0x8C379A000000000000000000000000000000000000000000000000000000000 DUP2 MSTORE PUSH1 0x4 ADD PUSH2 0x140C SWAP1 PUSH2 0x2608 JUMP JUMPDEST PUSH1 0x40 MLOAD DUP1 SWAP2 SUB SWAP1 REVERT JUMPDEST PUSH0 PUSH1 0x2 PUSH0 DUP4 DUP2 MSTORE PUSH1 0x20 ADD SWAP1 DUP2 MSTORE PUSH1 0x20 ADD PUSH0 KECCAK256 SWAP1 POP PUSH0 PUSH20 0xFFFFFFFFFFFFFFFFFFFFFFFFFFFFFFFFFFFFFFFF AND DUP2 PUSH1 0x4 ADD PUSH1 0x1 SWAP1 SLOAD SWAP1 PUSH2 0x100 EXP SWAP1 DIV PUSH20 0xFFFFFFFFFFFFFFFFFFFFFFFFFFFFFFFFFFFFFFFF AND PUSH20 0xFFFFFFFFFFFFFFFFFFFFFFFFFFFFFFFFFFFFFFFF AND SUB PUSH2 0x14BB JUMPI PUSH1 0x40 MLOAD PUSH32 0x8C379A000000000000000000000000000000000000000000000000000000000 DUP2 MSTORE PUSH1 0x4 ADD PUSH2 0x14B2 SWAP1 PUSH2 0x2BB1 JUMP JUMPDEST PUSH1 0x40 MLOAD DUP1 SWAP2 SUB SWAP1 REVERT JUMPDEST DUP1 PUSH1 0x3 ADD SLOAD CALLVALUE LT ISZERO PUSH2 0x1502 JUMPI PUSH1 0x40 MLOAD PUSH32 0x8C379A000000000000000000000000000000000000000000000000000000000 DUP2 MSTORE PUSH1 0x4 ADD PUSH2 0x14F9 SWAP1 PUSH2 0x2C19 JUMP JUMPDEST PUSH1 0x40 MLOAD DUP1 SWAP2 SUB SWAP1 REVERT JUMPDEST PUSH0 PUSH1 0x64 DUP1 DUP4 PUSH1 0x3 ADD SLOAD PUSH2 0x1515 SWAP2 SWAP1 PUSH2 0x2C37 JUMP JUMPDEST PUSH2 0x151F SWAP2 SWAP1 PUSH2 0x2CA5 JUMP JUMPDEST SWAP1 POP PUSH0 DUP2 DUP4 PUSH1 0x3 ADD SLOAD PUSH2 0x1532 SWAP2 SWAP1 PUSH2 0x2CD5 JUMP JUMPDEST SWAP1 POP PUSH1 0x6 PUSH0 SWAP1 SLOAD SWAP1 PUSH2 0x100 EXP SWAP1 DIV PUSH20 0xFFFFFFFFFFFFFFFFFFFFFFFFFFFFFFFFFFFFFFFF AND PUSH20 0xFFFFFFFFFFFFFFFFFFFFFFFFFFFFFFFFFFFFFFFF AND PUSH2 0x8FC DUP4 SWAP1 DUP2 ISZERO MUL SWAP1 PUSH1 0x40 MLOAD PUSH0 PUSH1 0x40 MLOAD DUP1 DUP4 SUB DUP2 DUP6 DUP9 DUP9 CALL SWAP4 POP POP POP POP ISZERO DUP1 ISZERO PUSH2 0x1598 JUMPI RETURNDATASIZE PUSH0 DUP1 RETURNDATACOPY RETURNDATASIZE PUSH0 REVERT JUMPDEST POP DUP3 PUSH1 0x4 ADD PUSH1 0x1 SWAP1 SLOAD SWAP1 PUSH2 0x100 EXP SWAP1 DIV PUSH20 0xFFFFFFFFFFFFFFFFFFFFFFFFFFFFFFFFFFFFFFFF AND PUSH20 0xFFFFFFFFFFFFFFFFFFFFFFFFFFFFFFFFFFFFFFFF AND PUSH2 0x8FC DUP3 SWAP1 DUP2 ISZERO MUL SWAP1 PUSH1 0x40 MLOAD PUSH0 PUSH1 0x40 MLOAD DUP1 DUP4 SUB DUP2 DUP6 DUP9 DUP9 CALL SWAP4 POP POP POP POP ISZERO DUP1 ISZERO PUSH2 0x1600 JUMPI RETURNDATASIZE PUSH0 DUP1 RETURNDATACOPY RETURNDATASIZE PUSH0 REVERT JUMPDEST POP CALLER PUSH20 0xFFFFFFFFFFFFFFFFFFFFFFFFFFFFFFFFFFFFFFFF AND DUP5 PUSH32 0xFB08275D0D7CF05C65CE58A6D8D7F027F5BD3E93DF2FD4962B96E26EC1939EA0 DUP6 PUSH1 0x3 ADD SLOAD DUP7 PUSH1 0x2 ADD SLOAD PUSH1 0x40 MLOAD PUSH2 0x1652 SWAP3 SWAP2 SWAP1 PUSH2 0x2D08 JUMP JUMPDEST PUSH1 0x40 MLOAD DUP1 SWAP2 SUB SWAP1 LOG3 POP POP POP POP JUMP JUMPDEST PUSH1 0x1 PUSH1 0x20 MSTORE DUP1 PUSH0 MSTORE PUSH1 0x40 PUSH0 KECCAK256 PUSH0 SWAP2 POP SWAP1 POP DUP1 PUSH0 ADD DUP1 SLOAD PUSH2 0x167F SWAP1 PUSH2 0x2500 JUMP JUMPDEST DUP1 PUSH1 0x1F ADD PUSH1 0x20 DUP1 SWAP2 DIV MUL PUSH1 0x20 ADD PUSH1 0x40 MLOAD SWAP1 DUP2 ADD PUSH1 0x40 MSTORE DUP1 SWAP3 SWAP2 SWAP1 DUP2 DUP2 MSTORE PUSH1 0x20 ADD DUP3 DUP1 SLOAD PUSH2 0x16AB SWAP1 PUSH2 0x2500 JUMP JUMPDEST DUP1 ISZERO PUSH2 0x16F6 JUMPI DUP1 PUSH1 0x1F LT PUSH2 0x16CD JUMPI PUSH2 0x100 DUP1 DUP4 SLOAD DIV MUL DUP4 MSTORE SWAP2 PUSH1 0x20 ADD SWAP2 PUSH2 0x16F6 JUMP JUMPDEST DUP3 ADD SWAP2 SWAP1 PUSH0 MSTORE PUSH1 0x20 PUSH0 KECCAK256 SWAP1 JUMPDEST DUP2 SLOAD DUP2 MSTORE SWAP1 PUSH1 0x1 ADD SWAP1 PUSH1 0x20 ADD DUP1 DUP4 GT PUSH2 0x16D9 JUMPI DUP3 SWAP1 SUB PUSH1 0x1F AND DUP3 ADD SWAP2 JUMPDEST POP POP POP POP POP SWAP1 DUP1 PUSH1 0x1 ADD DUP1 SLOAD PUSH2 0x170B SWAP1 PUSH2 0x2500 JUMP JUMPDEST DUP1 PUSH1 0x1F ADD PUSH1 0x20 DUP1 SWAP2 DIV MUL PUSH1 0x20 ADD PUSH1 0x40 MLOAD SWAP1 DUP2 ADD PUSH1 0x40 MSTORE DUP1 SWAP3 SWAP2 SWAP1 DUP2 DUP2 MSTORE PUSH1 0x20 ADD DUP3 DUP1 SLOAD PUSH2 0x1737 SWAP1 PUSH2 0x2500 JUMP JUMPDEST DUP1 ISZERO PUSH2 0x1782 JUMPI DUP1 PUSH1 0x1F LT PUSH2 0x1759 JUMPI PUSH2 0x100 DUP1 DUP4 SLOAD DIV MUL DUP4 MSTORE SWAP2 PUSH1 0x20 ADD SWAP2 PUSH2 0x1782 JUMP JUMPDEST DUP3 ADD SWAP2 SWAP1 PUSH0 MSTORE PUSH1 0x20 PUSH0 KECCAK256 SWAP1 JUMPDEST DUP2 SLOAD DUP2 MSTORE SWAP1 PUSH1 0x1 ADD SWAP1 PUSH1 0x20 ADD DUP1 DUP4 GT PUSH2 0x1765 JUMPI DUP3 SWAP1 SUB PUSH1 0x1F AND DUP3 ADD SWAP2 JUMPDEST POP POP POP POP POP SWAP1 DUP1 PUSH1 0x2 ADD PUSH0 SWAP1 SLOAD SWAP1 PUSH2 0x100 EXP SWAP1 DIV PUSH1 0xFF AND SWAP1 DUP1 PUSH1 0x2 ADD PUSH1 0x1 SWAP1 SLOAD SWAP1 PUSH2 0x100 EXP SWAP1 DIV PUSH1 0xFF AND SWAP1 POP DUP5 JUMP JUMPDEST PUSH0 PUSH1 0x2 PUSH0 DUP4 DUP2 MSTORE PUSH1 0x20 ADD SWAP1 DUP2 MSTORE PUSH1 0x20 ADD PUSH0 KECCAK256 SWAP1 POP PUSH0 PUSH20 0xFFFFFFFFFFFFFFFFFFFFFFFFFFFFFFFFFFFFFFFF AND DUP2 PUSH1 0x4 ADD PUSH1 0x1 SWAP1 SLOAD SWAP1 PUSH2 0x100 EXP SWAP1 DIV PUSH20 0xFFFFFFFFFFFFFFFFFFFFFFFFFFFFFFFFFFFFFFFF AND PUSH20 0xFFFFFFFFFFFFFFFFFFFFFFFFFFFFFFFFFFFFFFFF AND SUB PUSH2 0x1857 JUMPI PUSH1 0x40 MLOAD PUSH32 0x8C379A000000000000000000000000000000000000000000000000000000000 DUP2 MSTORE PUSH1 0x4 ADD PUSH2 0x184E SWAP1 PUSH2 0x2BB1 JUMP JUMPDEST PUSH1 0x40 MLOAD DUP1 SWAP2 SUB SWAP1 REVERT JUMPDEST DUP1 PUSH1 0x5 ADD PUSH0 DUP2 SLOAD DUP1 SWAP3 SWAP2 SWAP1 PUSH2 0x186B SWAP1 PUSH2 0x2459 JUMP JUMPDEST SWAP2 SWAP1 POP SSTORE POP POP POP JUMP JUMPDEST PUSH1 0x60 DUP1 PUSH0 DUP1 PUSH0 DUP1 PUSH0 DUP1 PUSH1 0x2 PUSH0 DUP11 DUP2 MSTORE PUSH1 0x20 ADD SWAP1 DUP2 MSTORE PUSH1 0x20 ADD PUSH0 KECCAK256 SWAP1 POP DUP1 PUSH0 ADD DUP2 PUSH1 0x1 ADD DUP3 PUSH1 0x2 ADD SLOAD DUP4 PUSH1 0x3 ADD SLOAD DUP5 PUSH1 0x4 ADD PUSH0 SWAP1 SLOAD SWAP1 PUSH2 0x100 EXP SWAP1 DIV PUSH1 0xFF AND DUP6 PUSH1 0x4 ADD PUSH1 0x1 SWAP1 SLOAD SWAP1 PUSH2 0x100 EXP SWAP1 DIV PUSH20 0xFFFFFFFFFFFFFFFFFFFFFFFFFFFFFFFFFFFFFFFF AND DUP7 PUSH1 0x5 ADD SLOAD DUP7 DUP1 SLOAD PUSH2 0x18E8 SWAP1 PUSH2 0x2500 JUMP JUMPDEST DUP1 PUSH1 0x1F ADD PUSH1 0x20 DUP1 SWAP2 DIV MUL PUSH1 0x20 ADD PUSH1 0x40 MLOAD SWAP1 DUP2 ADD PUSH1 0x40 MSTORE DUP1 SWAP3 SWAP2 SWAP1 DUP2 DUP2 MSTORE PUSH1 0x20 ADD DUP3 DUP1 SLOAD PUSH2 0x1914 SWAP1 PUSH2 0x2500 JUMP JUMPDEST DUP1 ISZERO PUSH2 0x195F JUMPI DUP1 PUSH1 0x1F LT PUSH2 0x1936 JUMPI PUSH2 0x100 DUP1 DUP4 SLOAD DIV MUL DUP4 MSTORE SWAP2 PUSH1 0x20 ADD SWAP2 PUSH2 0x195F JUMP JUMPDEST DUP3 ADD SWAP2 SWAP1 PUSH0 MSTORE PUSH1 0x20 PUSH0 KECCAK256 SWAP1 JUMPDEST DUP2 SLOAD DUP2 MSTORE SWAP1 PUSH1 0x1 ADD SWAP1 PUSH1 0x20 ADD DUP1 DUP4 GT PUSH2 0x1942 JUMPI DUP3 SWAP1 SUB PUSH1 0x1F AND DUP3 ADD SWAP2 JUMPDEST POP POP POP POP POP SWAP7 POP DUP6 DUP1 SLOAD PUSH2 0x1972 SWAP1 PUSH2 0x2500 JUMP JUMPDEST DUP1 PUSH1 0x1F ADD PUSH1 0x20 DUP1 SWAP2 DIV MUL PUSH1 0x20 ADD PUSH1 0x40 MLOAD SWAP1 DUP2 ADD PUSH1 0x40 MSTORE DUP1 SWAP3 SWAP2 SWAP1 DUP2 DUP2 MSTORE PUSH1 0x20 ADD DUP3 DUP1 SLOAD PUSH2 0x199E SWAP1 PUSH2 0x2500 JUMP JUMPDEST DUP1 ISZERO PUSH2 0x19E9 JUMPI DUP1 PUSH1 0x1F LT PUSH2 0x19C0 JUMPI PUSH2 0x100 DUP1 DUP4 SLOAD DIV MUL DUP4 MSTORE SWAP2 PUSH1 0x20 ADD SWAP2 PUSH2 0x19E9 JUMP JUMPDEST DUP3 ADD SWAP2 SWAP1 PUSH0 MSTORE PUSH1 0x20 PUSH0 KECCAK256 SWAP1 JUMPDEST DUP2 SLOAD DUP2 MSTORE SWAP1 PUSH1 0x1 ADD SWAP1 PUSH1 0x20 ADD DUP1 DUP4 GT PUSH2 0x19CC JUMPI DUP3 SWAP1 SUB PUSH1 0x1F AND DUP3 ADD SWAP2 JUMPDEST POP POP POP POP POP SWAP6 POP SWAP8 POP SWAP8 POP SWAP8 POP SWAP8 POP SWAP8 POP SWAP8 POP SWAP8 POP POP SWAP2 SWAP4 SWAP6 SWAP8 SWAP1 SWAP3 SWAP5 SWAP7 POP JUMP JUMPDEST PUSH0 DUP1 PUSH1 0x4 PUSH0 DUP5 PUSH20 0xFFFFFFFFFFFFFFFFFFFFFFFFFFFFFFFFFFFFFFFF AND PUSH20 0xFFFFFFFFFFFFFFFFFFFFFFFFFFFFFFFFFFFFFFFF AND DUP2 MSTORE PUSH1 0x20 ADD SWAP1 DUP2 MSTORE PUSH1 0x20 ADD PUSH0 KECCAK256 SWAP1 POP PUSH0 DUP2 PUSH0 ADD SLOAD SUB PUSH2 0x1A5E JUMPI PUSH0 SWAP2 POP POP PUSH2 0x1A75 JUMP JUMPDEST DUP1 PUSH0 ADD SLOAD DUP2 PUSH1 0x1 ADD SLOAD PUSH2 0x1A71 SWAP2 SWAP1 PUSH2 0x2CA5 JUMP JUMPDEST SWAP2 POP POP JUMPDEST SWAP2 SWAP1 POP JUMP JUMPDEST PUSH1 0x4 PUSH1 0x20 MSTORE DUP1 PUSH0 MSTORE PUSH1 0x40 PUSH0 KECCAK256 PUSH0 SWAP2 POP SWAP1 POP DUP1 PUSH0 ADD SLOAD SWAP1 DUP1 PUSH1 0x1 ADD SLOAD SWAP1 POP DUP3 JUMP JUMPDEST PUSH0 PUSH1 0x40 MLOAD SWAP1 POP SWAP1 JUMP JUMPDEST PUSH0 DUP1 REVERT JUMPDEST PUSH0 DUP1 REVERT JUMPDEST PUSH0 PUSH20 0xFFFFFFFFFFFFFFFFFFFFFFFFFFFFFFFFFFFFFFFF DUP3 AND SWAP1 POP SWAP2 SWAP1 POP JUMP JUMPDEST PUSH0 PUSH2 0x1AD4 DUP3 PUSH2 0x1AAB JUMP JUMPDEST SWAP1 POP SWAP2 SWAP1 POP JUMP JUMPDEST PUSH2 0x1AE4 DUP2 PUSH2 0x1ACA JUMP JUMPDEST DUP2 EQ PUSH2 0x1AEE JUMPI PUSH0 DUP1 REVERT JUMPDEST POP JUMP JUMPDEST PUSH0 DUP2 CALLDATALOAD SWAP1 POP PUSH2 0x1AFF DUP2 PUSH2 0x1ADB JUMP JUMPDEST SWAP3 SWAP2 POP POP JUMP JUMPDEST PUSH0 PUSH1 0x20 DUP3 DUP5 SUB SLT ISZERO PUSH2 0x1B1A JUMPI PUSH2 0x1B19 PUSH2 0x1AA3 JUMP JUMPDEST JUMPDEST PUSH0 PUSH2 0x1B27 DUP5 DUP3 DUP6 ADD PUSH2 0x1AF1 JUMP JUMPDEST SWAP2 POP POP SWAP3 SWAP2 POP POP JUMP JUMPDEST PUSH0 DUP2 SWAP1 POP SWAP2 SWAP1 POP JUMP JUMPDEST PUSH2 0x1B42 DUP2 PUSH2 0x1B30 JUMP JUMPDEST DUP3 MSTORE POP POP JUMP JUMPDEST PUSH0 PUSH1 0x20 DUP3 ADD SWAP1 POP PUSH2 0x1B5B PUSH0 DUP4 ADD DUP5 PUSH2 0x1B39 JUMP JUMPDEST SWAP3 SWAP2 POP POP JUMP JUMPDEST PUSH2 0x1B6A DUP2 PUSH2 0x1B30 JUMP JUMPDEST DUP2 EQ PUSH2 0x1B74 JUMPI PUSH0 DUP1 REVERT JUMPDEST POP JUMP JUMPDEST PUSH0 DUP2 CALLDATALOAD SWAP1 POP PUSH2 0x1B85 DUP2 PUSH2 0x1B61 JUMP JUMPDEST SWAP3 SWAP2 POP POP JUMP JUMPDEST PUSH0 DUP1 PUSH1 0x40 DUP4 DUP6 SUB SLT ISZERO PUSH2 0x1BA1 JUMPI PUSH2 0x1BA0 PUSH2 0x1AA3 JUMP JUMPDEST JUMPDEST PUSH0 PUSH2 0x1BAE DUP6 DUP3 DUP7 ADD PUSH2 0x1B77 JUMP JUMPDEST SWAP3 POP POP PUSH1 0x20 PUSH2 0x1BBF DUP6 DUP3 DUP7 ADD PUSH2 0x1B77 JUMP JUMPDEST SWAP2 POP POP SWAP3 POP SWAP3 SWAP1 POP JUMP JUMPDEST PUSH0 PUSH1 0x20 DUP3 DUP5 SUB SLT ISZERO PUSH2 0x1BDE JUMPI PUSH2 0x1BDD PUSH2 0x1AA3 JUMP JUMPDEST JUMPDEST PUSH0 PUSH2 0x1BEB DUP5 DUP3 DUP6 ADD PUSH2 0x1B77 JUMP JUMPDEST SWAP2 POP POP SWAP3 SWAP2 POP POP JUMP JUMPDEST PUSH0 DUP2 MLOAD SWAP1 POP SWAP2 SWAP1 POP JUMP JUMPDEST PUSH0 DUP3 DUP3 MSTORE PUSH1 0x20 DUP3 ADD SWAP1 POP SWAP3 SWAP2 POP POP JUMP JUMPDEST DUP3 DUP2 DUP4 MCOPY PUSH0 DUP4 DUP4 ADD MSTORE POP POP POP JUMP JUMPDEST PUSH0 PUSH1 0x1F NOT PUSH1 0x1F DUP4 ADD AND SWAP1 POP SWAP2 SWAP1 POP JUMP JUMPDEST PUSH0 PUSH2 0x1C36 DUP3 PUSH2 0x1BF4 JUMP JUMPDEST PUSH2 0x1C40 DUP2 DUP6 PUSH2 0x1BFE JUMP JUMPDEST SWAP4 POP PUSH2 0x1C50 DUP2 DUP6 PUSH1 0x20 DUP7 ADD PUSH2 0x1C0E JUMP JUMPDEST PUSH2 0x1C59 DUP2 PUSH2 0x1C1C JUMP JUMPDEST DUP5 ADD SWAP2 POP POP SWAP3 SWAP2 POP POP JUMP JUMPDEST PUSH0 DUP2 SWAP1 POP SWAP2 SWAP1 POP JUMP JUMPDEST PUSH2 0x1C76 DUP2 PUSH2 0x1C64 JUMP JUMPDEST DUP3 MSTORE POP POP JUMP JUMPDEST PUSH0 DUP2 ISZERO ISZERO SWAP1 POP SWAP2 SWAP1 POP JUMP JUMPDEST PUSH2 0x1C90 DUP2 PUSH2 0x1C7C JUMP JUMPDEST DUP3 MSTORE POP POP JUMP JUMPDEST PUSH0 PUSH2 0x1CA0 DUP3 PUSH2 0x1AAB JUMP JUMPDEST SWAP1 POP SWAP2 SWAP1 POP JUMP JUMPDEST PUSH2 0x1CB0 DUP2 PUSH2 0x1C96 JUMP JUMPDEST DUP3 MSTORE POP POP JUMP JUMPDEST PUSH0 PUSH1 0xE0 DUP3 ADD SWAP1 POP DUP2 DUP2 SUB PUSH0 DUP4 ADD MSTORE PUSH2 0x1CCE DUP2 DUP11 PUSH2 0x1C2C JUMP JUMPDEST SWAP1 POP DUP2 DUP2 SUB PUSH1 0x20 DUP4 ADD MSTORE PUSH2 0x1CE2 DUP2 DUP10 PUSH2 0x1C2C JUMP JUMPDEST SWAP1 POP PUSH2 0x1CF1 PUSH1 0x40 DUP4 ADD DUP9 PUSH2 0x1C6D JUMP JUMPDEST PUSH2 0x1CFE PUSH1 0x60 DUP4 ADD DUP8 PUSH2 0x1B39 JUMP JUMPDEST PUSH2 0x1D0B PUSH1 0x80 DUP4 ADD DUP7 PUSH2 0x1C87 JUMP JUMPDEST PUSH2 0x1D18 PUSH1 0xA0 DUP4 ADD DUP6 PUSH2 0x1CA7 JUMP JUMPDEST PUSH2 0x1D25 PUSH1 0xC0 DUP4 ADD DUP5 PUSH2 0x1B39 JUMP JUMPDEST SWAP9 SWAP8 POP POP POP POP POP POP POP POP JUMP JUMPDEST PUSH2 0x1D3A DUP2 PUSH2 0x1C64 JUMP JUMPDEST DUP2 EQ PUSH2 0x1D44 JUMPI PUSH0 DUP1 REVERT JUMPDEST POP JUMP JUMPDEST PUSH0 DUP2 CALLDATALOAD SWAP1 POP PUSH2 0x1D55 DUP2 PUSH2 0x1D31 JUMP JUMPDEST SWAP3 SWAP2 POP POP JUMP JUMPDEST PUSH0 PUSH1 0x20 DUP3 DUP5 SUB SLT ISZERO PUSH2 0x1D70 JUMPI PUSH2 0x1D6F PUSH2 0x1AA3 JUMP JUMPDEST JUMPDEST PUSH0 PUSH2 0x1D7D DUP5 DUP3 DUP6 ADD PUSH2 0x1D47 JUMP JUMPDEST SWAP2 POP POP SWAP3 SWAP2 POP POP JUMP JUMPDEST PUSH0 DUP1 REVERT JUMPDEST PUSH0 DUP1 REVERT JUMPDEST PUSH32 0x4E487B7100000000000000000000000000000000000000000000000000000000 PUSH0 MSTORE PUSH1 0x41 PUSH1 0x4 MSTORE PUSH1 0x24 PUSH0 REVERT JUMPDEST PUSH2 0x1DC4 DUP3 PUSH2 0x1C1C JUMP JUMPDEST DUP2 ADD DUP2 DUP2 LT PUSH8 0xFFFFFFFFFFFFFFFF DUP3 GT OR ISZERO PUSH2 0x1DE3 JUMPI PUSH2 0x1DE2 PUSH2 0x1D8E JUMP JUMPDEST JUMPDEST DUP1 PUSH1 0x40 MSTORE POP POP POP JUMP JUMPDEST PUSH0 PUSH2 0x1DF5 PUSH2 0x1A9A JUMP JUMPDEST SWAP1 POP PUSH2 0x1E01 DUP3 DUP3 PUSH2 0x1DBB JUMP JUMPDEST SWAP2 SWAP1 POP JUMP JUMPDEST PUSH0 PUSH8 0xFFFFFFFFFFFFFFFF DUP3 GT ISZERO PUSH2 0x1E20 JUMPI PUSH2 0x1E1F PUSH2 0x1D8E JUMP JUMPDEST JUMPDEST PUSH2 0x1E29 DUP3 PUSH2 0x1C1C JUMP JUMPDEST SWAP1 POP PUSH1 0x20 DUP2 ADD SWAP1 POP SWAP2 SWAP1 POP JUMP JUMPDEST DUP3 DUP2 DUP4 CALLDATACOPY PUSH0 DUP4 DUP4 ADD MSTORE POP POP POP JUMP JUMPDEST PUSH0 PUSH2 0x1E56 PUSH2 0x1E51 DUP5 PUSH2 0x1E06 JUMP JUMPDEST PUSH2 0x1DEC JUMP JUMPDEST SWAP1 POP DUP3 DUP2 MSTORE PUSH1 0x20 DUP2 ADD DUP5 DUP5 DUP5 ADD GT ISZERO PUSH2 0x1E72 JUMPI PUSH2 0x1E71 PUSH2 0x1D8A JUMP JUMPDEST JUMPDEST PUSH2 0x1E7D DUP5 DUP3 DUP6 PUSH2 0x1E36 JUMP JUMPDEST POP SWAP4 SWAP3 POP POP POP JUMP JUMPDEST PUSH0 DUP3 PUSH1 0x1F DUP4 ADD SLT PUSH2 0x1E99 JUMPI PUSH2 0x1E98 PUSH2 0x1D86 JUMP JUMPDEST JUMPDEST DUP2 CALLDATALOAD PUSH2 0x1EA9 DUP5 DUP3 PUSH1 0x20 DUP7 ADD PUSH2 0x1E44 JUMP JUMPDEST SWAP2 POP POP SWAP3 SWAP2 POP POP JUMP JUMPDEST PUSH2 0x1EBB DUP2 PUSH2 0x1C7C JUMP JUMPDEST DUP2 EQ PUSH2 0x1EC5 JUMPI PUSH0 DUP1 REVERT JUMPDEST POP JUMP JUMPDEST PUSH0 DUP2 CALLDATALOAD SWAP1 POP PUSH2 0x1ED6 DUP2 PUSH2 0x1EB2 JUMP JUMPDEST SWAP3 SWAP2 POP POP JUMP JUMPDEST PUSH0 DUP1 PUSH0 DUP1 PUSH0 PUSH1 0xA0 DUP7 DUP9 SUB SLT ISZERO PUSH2 0x1EF5 JUMPI PUSH2 0x1EF4 PUSH2 0x1AA3 JUMP JUMPDEST JUMPDEST PUSH0 DUP7 ADD CALLDATALOAD PUSH8 0xFFFFFFFFFFFFFFFF DUP2 GT ISZERO PUSH2 0x1F12 JUMPI PUSH2 0x1F11 PUSH2 0x1AA7 JUMP JUMPDEST JUMPDEST PUSH2 0x1F1E DUP9 DUP3 DUP10 ADD PUSH2 0x1E85 JUMP JUMPDEST SWAP6 POP POP PUSH1 0x20 DUP7 ADD CALLDATALOAD PUSH8 0xFFFFFFFFFFFFFFFF DUP2 GT ISZERO PUSH2 0x1F3F JUMPI PUSH2 0x1F3E PUSH2 0x1AA7 JUMP JUMPDEST JUMPDEST PUSH2 0x1F4B DUP9 DUP3 DUP10 ADD PUSH2 0x1E85 JUMP JUMPDEST SWAP5 POP POP PUSH1 0x40 PUSH2 0x1F5C DUP9 DUP3 DUP10 ADD PUSH2 0x1D47 JUMP JUMPDEST SWAP4 POP POP PUSH1 0x60 PUSH2 0x1F6D DUP9 DUP3 DUP10 ADD PUSH2 0x1B77 JUMP JUMPDEST SWAP3 POP POP PUSH1 0x80 PUSH2 0x1F7E DUP9 DUP3 DUP10 ADD PUSH2 0x1EC8 JUMP JUMPDEST SWAP2 POP POP SWAP3 SWAP6 POP SWAP3 SWAP6 SWAP1 SWAP4 POP JUMP JUMPDEST PUSH0 PUSH1 0x20 DUP3 ADD SWAP1 POP PUSH2 0x1F9E PUSH0 DUP4 ADD DUP5 PUSH2 0x1CA7 JUMP JUMPDEST SWAP3 SWAP2 POP POP JUMP JUMPDEST PUSH0 DUP1 PUSH0 DUP1 PUSH1 0x80 DUP6 DUP8 SUB SLT ISZERO PUSH2 0x1FBC JUMPI PUSH2 0x1FBB PUSH2 0x1AA3 JUMP JUMPDEST JUMPDEST PUSH0 DUP6 ADD CALLDATALOAD PUSH8 0xFFFFFFFFFFFFFFFF DUP2 GT ISZERO PUSH2 0x1FD9 JUMPI PUSH2 0x1FD8 PUSH2 0x1AA7 JUMP JUMPDEST JUMPDEST PUSH2 0x1FE5 DUP8 DUP3 DUP9 ADD PUSH2 0x1E85 JUMP JUMPDEST SWAP5 POP POP PUSH1 0x20 DUP6 ADD CALLDATALOAD PUSH8 0xFFFFFFFFFFFFFFFF DUP2 GT ISZERO PUSH2 0x2006 JUMPI PUSH2 0x2005 PUSH2 0x1AA7 JUMP JUMPDEST JUMPDEST PUSH2 0x2012 DUP8 DUP3 DUP9 ADD PUSH2 0x1E85 JUMP JUMPDEST SWAP4 POP POP PUSH1 0x40 PUSH2 0x2023 DUP8 DUP3 DUP9 ADD PUSH2 0x1EC8 JUMP JUMPDEST SWAP3 POP POP PUSH1 0x60 PUSH2 0x2034 DUP8 DUP3 DUP9 ADD PUSH2 0x1EC8 JUMP JUMPDEST SWAP2 POP POP SWAP3 SWAP6 SWAP2 SWAP5 POP SWAP3 POP JUMP JUMPDEST PUSH0 PUSH1 0x40 DUP3 ADD SWAP1 POP PUSH2 0x2053 PUSH0 DUP4 ADD DUP6 PUSH2 0x1B39 JUMP JUMPDEST PUSH2 0x2060 PUSH1 0x20 DUP4 ADD DUP5 PUSH2 0x1C87 JUMP JUMPDEST SWAP4 SWAP3 POP POP POP JUMP JUMPDEST PUSH0 DUP2 MLOAD SWAP1 POP SWAP2 SWAP1 POP JUMP JUMPDEST PUSH0 DUP3 DUP3 MSTORE PUSH1 0x20 DUP3 ADD SWAP1 POP SWAP3 SWAP2 POP POP JUMP JUMPDEST PUSH0 DUP2 SWAP1 POP PUSH1 0x20 DUP3 ADD SWAP1 POP SWAP2 SWAP1 POP JUMP JUMPDEST PUSH2 0x2099 DUP2 PUSH2 0x1ACA JUMP JUMPDEST DUP3 MSTORE POP POP JUMP JUMPDEST PUSH0 PUSH2 0x20AA DUP4 DUP4 PUSH2 0x2090 JUMP JUMPDEST PUSH1 0x20 DUP4 ADD SWAP1 POP SWAP3 SWAP2 POP POP JUMP JUMPDEST PUSH0 PUSH1 0x20 DUP3 ADD SWAP1 POP SWAP2 SWAP1 POP JUMP JUMPDEST PUSH0 PUSH2 0x20CC DUP3 PUSH2 0x2067 JUMP JUMPDEST PUSH2 0x20D6 DUP2 DUP6 PUSH2 0x2071 JUMP JUMPDEST SWAP4 POP PUSH2 0x20E1 DUP4 PUSH2 0x2081 JUMP JUMPDEST DUP1 PUSH0 JUMPDEST DUP4 DUP2 LT ISZERO PUSH2 0x2111 JUMPI DUP2 MLOAD PUSH2 0x20F8 DUP9 DUP3 PUSH2 0x209F JUMP JUMPDEST SWAP8 POP PUSH2 0x2103 DUP4 PUSH2 0x20B6 JUMP JUMPDEST SWAP3 POP POP PUSH1 0x1 DUP2 ADD SWAP1 POP PUSH2 0x20E4 JUMP JUMPDEST POP DUP6 SWAP4 POP POP POP POP SWAP3 SWAP2 POP POP JUMP JUMPDEST PUSH0 PUSH1 0x20 DUP3 ADD SWAP1 POP DUP2 DUP2 SUB PUSH0 DUP4 ADD MSTORE PUSH2 0x2136 DUP2 DUP5 PUSH2 0x20C2 JUMP JUMPDEST SWAP1 POP SWAP3 SWAP2 POP POP JUMP JUMPDEST PUSH0 PUSH1 0x80 DUP3 ADD SWAP1 POP DUP2 DUP2 SUB PUSH0 DUP4 ADD MSTORE PUSH2 0x2156 DUP2 DUP8 PUSH2 0x1C2C JUMP JUMPDEST SWAP1 POP DUP2 DUP2 SUB PUSH1 0x20 DUP4 ADD MSTORE PUSH2 0x216A DUP2 DUP7 PUSH2 0x1C2C JUMP JUMPDEST SWAP1 POP PUSH2 0x2179 PUSH1 0x40 DUP4 ADD DUP6 PUSH2 0x1C87 JUMP JUMPDEST PUSH2 0x2186 PUSH1 0x60 DUP4 ADD DUP5 PUSH2 0x1C87 JUMP JUMPDEST SWAP6 SWAP5 POP POP POP POP POP JUMP JUMPDEST PUSH2 0x2198 DUP2 PUSH2 0x1ACA JUMP JUMPDEST DUP3 MSTORE POP POP JUMP JUMPDEST PUSH0 PUSH1 0xE0 DUP3 ADD SWAP1 POP DUP2 DUP2 SUB PUSH0 DUP4 ADD MSTORE PUSH2 0x21B6 DUP2 DUP11 PUSH2 0x1C2C JUMP JUMPDEST SWAP1 POP DUP2 DUP2 SUB PUSH1 0x20 DUP4 ADD MSTORE PUSH2 0x21CA DUP2 DUP10 PUSH2 0x1C2C JUMP JUMPDEST SWAP1 POP PUSH2 0x21D9 PUSH1 0x40 DUP4 ADD DUP9 PUSH2 0x1C6D JUMP JUMPDEST PUSH2 0x21E6 PUSH1 0x60 DUP4 ADD DUP8 PUSH2 0x1B39 JUMP JUMPDEST PUSH2 0x21F3 PUSH1 0x80 DUP4 ADD DUP7 PUSH2 0x1C87 JUMP JUMPDEST PUSH2 0x2200 PUSH1 0xA0 DUP4 ADD DUP6 PUSH2 0x218F JUMP JUMPDEST PUSH2 0x220D PUSH1 0xC0 DUP4 ADD DUP5 PUSH2 0x1B39 JUMP JUMPDEST SWAP9 SWAP8 POP POP POP POP POP POP POP POP JUMP JUMPDEST PUSH0 PUSH1 0x40 DUP3 ADD SWAP1 POP PUSH2 0x222C PUSH0 DUP4 ADD DUP6 PUSH2 0x1B39 JUMP JUMPDEST PUSH2 0x2239 PUSH1 0x20 DUP4 ADD DUP5 PUSH2 0x1B39 JUMP JUMPDEST SWAP4 SWAP3 POP POP POP JUMP JUMPDEST PUSH32 0x4F6E6C7920706C6174666F726D206F776E65722063616E2062616E2075736572 PUSH0 DUP3 ADD MSTORE PUSH32 0x7300000000000000000000000000000000000000000000000000000000000000 PUSH1 0x20 DUP3 ADD MSTORE POP JUMP JUMPDEST PUSH0 PUSH2 0x229A PUSH1 0x21 DUP4 PUSH2 0x1BFE JUMP JUMPDEST SWAP2 POP PUSH2 0x22A5 DUP3 PUSH2 0x2240 JUMP JUMPDEST PUSH1 0x40 DUP3 ADD SWAP1 POP SWAP2 SWAP1 POP JUMP JUMPDEST PUSH0 PUSH1 0x20 DUP3 ADD SWAP1 POP DUP2 DUP2 SUB PUSH0 DUP4 ADD MSTORE PUSH2 0x22C7 DUP2 PUSH2 0x228E JUMP JUMPDEST SWAP1 POP SWAP2 SWAP1 POP JUMP JUMPDEST PUSH32 0x55736572206E6F74207265676973746572656400000000000000000000000000 PUSH0 DUP3 ADD MSTORE POP JUMP JUMPDEST PUSH0 PUSH2 0x2302 PUSH1 0x13 DUP4 PUSH2 0x1BFE JUMP JUMPDEST SWAP2 POP PUSH2 0x230D DUP3 PUSH2 0x22CE JUMP JUMPDEST PUSH1 0x20 DUP3 ADD SWAP1 POP SWAP2 SWAP1 POP JUMP JUMPDEST PUSH0 PUSH1 0x20 DUP3 ADD SWAP1 POP DUP2 DUP2 SUB PUSH0 DUP4 ADD MSTORE PUSH2 0x232F DUP2 PUSH2 0x22F6 JUMP JUMPDEST SWAP1 POP SWAP2 SWAP1 POP JUMP JUMPDEST PUSH32 0x4F6E6C7920726567697374657265642064617461206275796572732063616E20 PUSH0 DUP3 ADD MSTORE PUSH32 0x726174652073656C6C6572730000000000000000000000000000000000000000 PUSH1 0x20 DUP3 ADD MSTORE POP JUMP JUMPDEST PUSH0 PUSH2 0x2390 PUSH1 0x2C DUP4 PUSH2 0x1BFE JUMP JUMPDEST SWAP2 POP PUSH2 0x239B DUP3 PUSH2 0x2336 JUMP JUMPDEST PUSH1 0x40 DUP3 ADD SWAP1 POP SWAP2 SWAP1 POP JUMP JUMPDEST PUSH0 PUSH1 0x20 DUP3 ADD SWAP1 POP DUP2 DUP2 SUB PUSH0 DUP4 ADD MSTORE PUSH2 0x23BD DUP2 PUSH2 0x2384 JUMP JUMPDEST SWAP1 POP SWAP2 SWAP1 POP JUMP JUMPDEST PUSH32 0x53656C6C6572732063616E6E6F742072617465207468656D73656C7665730000 PUSH0 DUP3 ADD MSTORE POP JUMP JUMPDEST PUSH0 PUSH2 0x23F8 PUSH1 0x1E DUP4 PUSH2 0x1BFE JUMP JUMPDEST SWAP2 POP PUSH2 0x2403 DUP3 PUSH2 0x23C4 JUMP JUMPDEST PUSH1 0x20 DUP3 ADD SWAP1 POP SWAP2 SWAP1 POP JUMP JUMPDEST PUSH0 PUSH1 0x20 DUP3 ADD SWAP1 POP DUP2 DUP2 SUB PUSH0 DUP4 ADD MSTORE PUSH2 0x2425 DUP2 PUSH2 0x23EC JUMP JUMPDEST SWAP1 POP SWAP2 SWAP1 POP JUMP JUMPDEST PUSH32 0x4E487B7100000000000000000000000000000000000000000000000000000000 PUSH0 MSTORE PUSH1 0x11 PUSH1 0x4 MSTORE PUSH1 0x24 PUSH0 REVERT JUMPDEST PUSH0 PUSH2 0x2463 DUP3 PUSH2 0x1B30 JUMP JUMPDEST SWAP2 POP PUSH32 0xFFFFFFFFFFFFFFFFFFFFFFFFFFFFFFFFFFFFFFFFFFFFFFFFFFFFFFFFFFFFFFFF DUP3 SUB PUSH2 0x2495 JUMPI PUSH2 0x2494 PUSH2 0x242C JUMP JUMPDEST JUMPDEST PUSH1 0x1 DUP3 ADD SWAP1 POP SWAP2 SWAP1 POP JUMP JUMPDEST PUSH0 PUSH2 0x24AA DUP3 PUSH2 0x1B30 JUMP JUMPDEST SWAP2 POP PUSH2 0x24B5 DUP4 PUSH2 0x1B30 JUMP JUMPDEST SWAP3 POP DUP3 DUP3 ADD SWAP1 POP DUP1 DUP3 GT ISZERO PUSH2 0x24CD JUMPI PUSH2 0x24CC PUSH2 0x242C JUMP JUMPDEST JUMPDEST SWAP3 SWAP2 POP POP JUMP JUMPDEST PUSH32 0x4E487B7100000000000000000000000000000000000000000000000000000000 PUSH0 MSTORE PUSH1 0x22 PUSH1 0x4 MSTORE PUSH1 0x24 PUSH0 REVERT JUMPDEST PUSH0 PUSH1 0x2 DUP3 DIV SWAP1 POP PUSH1 0x1 DUP3 AND DUP1 PUSH2 0x2517 JUMPI PUSH1 0x7F DUP3 AND SWAP2 POP JUMPDEST PUSH1 0x20 DUP3 LT DUP2 SUB PUSH2 0x252A JUMPI PUSH2 0x2529 PUSH2 0x24D3 JUMP JUMPDEST JUMPDEST POP SWAP2 SWAP1 POP JUMP JUMPDEST PUSH32 0x4F6E6C79207265676973746572656420646174612073656C6C6572732063616E PUSH0 DUP3 ADD MSTORE PUSH32 0x2075706C6F616420646174612073657473000000000000000000000000000000 PUSH1 0x20 DUP3 ADD MSTORE POP JUMP JUMPDEST PUSH0 PUSH2 0x258A PUSH1 0x31 DUP4 PUSH2 0x1BFE JUMP JUMPDEST SWAP2 POP PUSH2 0x2595 DUP3 PUSH2 0x2530 JUMP JUMPDEST PUSH1 0x40 DUP3 ADD SWAP1 POP SWAP2 SWAP1 POP JUMP JUMPDEST PUSH0 PUSH1 0x20 DUP3 ADD SWAP1 POP DUP2 DUP2 SUB PUSH0 DUP4 ADD MSTORE PUSH2 0x25B7 DUP2 PUSH2 0x257E JUMP JUMPDEST SWAP1 POP SWAP2 SWAP1 POP JUMP JUMPDEST PUSH32 0x557365722069732062616E6E6564000000000000000000000000000000000000 PUSH0 DUP3 ADD MSTORE POP JUMP JUMPDEST PUSH0 PUSH2 0x25F2 PUSH1 0xE DUP4 PUSH2 0x1BFE JUMP JUMPDEST SWAP2 POP PUSH2 0x25FD DUP3 PUSH2 0x25BE JUMP JUMPDEST PUSH1 0x20 DUP3 ADD SWAP1 POP SWAP2 SWAP1 POP JUMP JUMPDEST PUSH0 PUSH1 0x20 DUP3 ADD SWAP1 POP DUP2 DUP2 SUB PUSH0 DUP4 ADD MSTORE PUSH2 0x261F DUP2 PUSH2 0x25E6 JUMP JUMPDEST SWAP1 POP SWAP2 SWAP1 POP JUMP JUMPDEST PUSH32 0x44617461207365742077697468207468652073616D65206861736820616C7265 PUSH0 DUP3 ADD MSTORE PUSH32 0x6164792065786973747300000000000000000000000000000000000000000000 PUSH1 0x20 DUP3 ADD MSTORE POP JUMP JUMPDEST PUSH0 PUSH2 0x2680 PUSH1 0x2A DUP4 PUSH2 0x1BFE JUMP JUMPDEST SWAP2 POP PUSH2 0x268B DUP3 PUSH2 0x2626 JUMP JUMPDEST PUSH1 0x40 DUP3 ADD SWAP1 POP SWAP2 SWAP1 POP JUMP JUMPDEST PUSH0 PUSH1 0x20 DUP3 ADD SWAP1 POP DUP2 DUP2 SUB PUSH0 DUP4 ADD MSTORE PUSH2 0x26AD DUP2 PUSH2 0x2674 JUMP JUMPDEST SWAP1 POP SWAP2 SWAP1 POP JUMP JUMPDEST PUSH0 DUP2 SWAP1 POP DUP2 PUSH0 MSTORE PUSH1 0x20 PUSH0 KECCAK256 SWAP1 POP SWAP2 SWAP1 POP JUMP JUMPDEST PUSH0 PUSH1 0x20 PUSH1 0x1F DUP4 ADD DIV SWAP1 POP SWAP2 SWAP1 POP JUMP JUMPDEST PUSH0 DUP3 DUP3 SHL SWAP1 POP SWAP3 SWAP2 POP POP JUMP JUMPDEST PUSH0 PUSH1 0x8 DUP4 MUL PUSH2 0x2710 PUSH32 0xFFFFFFFFFFFFFFFFFFFFFFFFFFFFFFFFFFFFFFFFFFFFFFFFFFFFFFFFFFFFFFFF DUP3 PUSH2 0x26D5 JUMP JUMPDEST PUSH2 0x271A DUP7 DUP4 PUSH2 0x26D5 JUMP JUMPDEST SWAP6 POP DUP1 NOT DUP5 AND SWAP4 POP DUP1 DUP7 AND DUP5 OR SWAP3 POP POP POP SWAP4 SWAP3 POP POP POP JUMP JUMPDEST PUSH0 DUP2 SWAP1 POP SWAP2 SWAP1 POP JUMP JUMPDEST PUSH0 PUSH2 0x2755 PUSH2 0x2750 PUSH2 0x274B DUP5 PUSH2 0x1B30 JUMP JUMPDEST PUSH2 0x2732 JUMP JUMPDEST PUSH2 0x1B30 JUMP JUMPDEST SWAP1 POP SWAP2 SWAP1 POP JUMP JUMPDEST PUSH0 DUP2 SWAP1 POP SWAP2 SWAP1 POP JUMP JUMPDEST PUSH2 0x276E DUP4 PUSH2 0x273B JUMP JUMPDEST PUSH2 0x2782 PUSH2 0x277A DUP3 PUSH2 0x275C JUMP JUMPDEST DUP5 DUP5 SLOAD PUSH2 0x26E1 JUMP JUMPDEST DUP3 SSTORE POP POP POP POP JUMP JUMPDEST PUSH0 SWAP1 JUMP JUMPDEST PUSH2 0x2796 PUSH2 0x278A JUMP JUMPDEST PUSH2 0x27A1 DUP2 DUP5 DUP5 PUSH2 0x2765 JUMP JUMPDEST POP POP POP JUMP JUMPDEST JUMPDEST DUP2 DUP2 LT ISZERO PUSH2 0x27C4 JUMPI PUSH2 0x27B9 PUSH0 DUP3 PUSH2 0x278E JUMP JUMPDEST PUSH1 0x1 DUP2 ADD SWAP1 POP PUSH2 0x27A7 JUMP JUMPDEST POP POP JUMP JUMPDEST PUSH1 0x1F DUP3 GT ISZERO PUSH2 0x2809 JUMPI PUSH2 0x27DA DUP2 PUSH2 0x26B4 JUMP JUMPDEST PUSH2 0x27E3 DUP5 PUSH2 0x26C6 JUMP JUMPDEST DUP2 ADD PUSH1 0x20 DUP6 LT ISZERO PUSH2 0x27F2 JUMPI DUP2 SWAP1 POP JUMPDEST PUSH2 0x2806 PUSH2 0x27FE DUP6 PUSH2 0x26C6 JUMP JUMPDEST DUP4 ADD DUP3 PUSH2 0x27A6 JUMP JUMPDEST POP POP JUMPDEST POP POP POP JUMP JUMPDEST PUSH0 DUP3 DUP3 SHR SWAP1 POP SWAP3 SWAP2 POP POP JUMP JUMPDEST PUSH0 PUSH2 0x2829 PUSH0 NOT DUP5 PUSH1 0x8 MUL PUSH2 0x280E JUMP JUMPDEST NOT DUP1 DUP4 AND SWAP2 POP POP SWAP3 SWAP2 POP POP JUMP JUMPDEST PUSH0 PUSH2 0x2841 DUP4 DUP4 PUSH2 0x281A JUMP JUMPDEST SWAP2 POP DUP3 PUSH1 0x2 MUL DUP3 OR SWAP1 POP SWAP3 SWAP2 POP POP JUMP JUMPDEST PUSH2 0x285A DUP3 PUSH2 0x1BF4 JUMP JUMPDEST PUSH8 0xFFFFFFFFFFFFFFFF DUP2 GT ISZERO PUSH2 0x2873 JUMPI PUSH2 0x2872 PUSH2 0x1D8E JUMP JUMPDEST JUMPDEST PUSH2 0x287D DUP3 SLOAD PUSH2 0x2500 JUMP JUMPDEST PUSH2 0x2888 DUP3 DUP3 DUP6 PUSH2 0x27C8 JUMP JUMPDEST PUSH0 PUSH1 0x20 SWAP1 POP PUSH1 0x1F DUP4 GT PUSH1 0x1 DUP2 EQ PUSH2 0x28B9 JUMPI PUSH0 DUP5 ISZERO PUSH2 0x28A7 JUMPI DUP3 DUP8 ADD MLOAD SWAP1 POP JUMPDEST PUSH2 0x28B1 DUP6 DUP3 PUSH2 0x2836 JUMP JUMPDEST DUP7 SSTORE POP PUSH2 0x2918 JUMP JUMPDEST PUSH1 0x1F NOT DUP5 AND PUSH2 0x28C7 DUP7 PUSH2 0x26B4 JUMP JUMPDEST PUSH0 JUMPDEST DUP3 DUP2 LT ISZERO PUSH2 0x28EE JUMPI DUP5 DUP10 ADD MLOAD DUP3 SSTORE PUSH1 0x1 DUP3 ADD SWAP2 POP PUSH1 0x20 DUP6 ADD SWAP5 POP PUSH1 0x20 DUP2 ADD SWAP1 POP PUSH2 0x28C9 JUMP JUMPDEST DUP7 DUP4 LT ISZERO PUSH2 0x290B JUMPI DUP5 DUP10 ADD MLOAD PUSH2 0x2907 PUSH1 0x1F DUP10 AND DUP3 PUSH2 0x281A JUMP JUMPDEST DUP4 SSTORE POP JUMPDEST PUSH1 0x1 PUSH1 0x2 DUP9 MUL ADD DUP9 SSTORE POP POP POP JUMPDEST POP POP POP POP POP POP JUMP JUMPDEST PUSH0 PUSH1 0x40 DUP3 ADD SWAP1 POP DUP2 DUP2 SUB PUSH0 DUP4 ADD MSTORE PUSH2 0x2938 DUP2 DUP6 PUSH2 0x1C2C JUMP JUMPDEST SWAP1 POP PUSH2 0x2947 PUSH1 0x20 DUP4 ADD DUP5 PUSH2 0x1B39 JUMP JUMPDEST SWAP4 SWAP3 POP POP POP JUMP JUMPDEST PUSH32 0x43616E6E6F74207265706F727420796F757273656C6600000000000000000000 PUSH0 DUP3 ADD MSTORE POP JUMP JUMPDEST PUSH0 PUSH2 0x2982 PUSH1 0x16 DUP4 PUSH2 0x1BFE JUMP JUMPDEST SWAP2 POP PUSH2 0x298D DUP3 PUSH2 0x294E JUMP JUMPDEST PUSH1 0x20 DUP3 ADD SWAP1 POP SWAP2 SWAP1 POP JUMP JUMPDEST PUSH0 PUSH1 0x20 DUP3 ADD SWAP1 POP DUP2 DUP2 SUB PUSH0 DUP4 ADD MSTORE PUSH2 0x29AF DUP2 PUSH2 0x2976 JUMP JUMPDEST SWAP1 POP SWAP2 SWAP1 POP JUMP JUMPDEST PUSH32 0x5573657220616C72656164792072656769737465726564000000000000000000 PUSH0 DUP3 ADD MSTORE POP JUMP JUMPDEST PUSH0 PUSH2 0x29EA PUSH1 0x17 DUP4 PUSH2 0x1BFE JUMP JUMPDEST SWAP2 POP PUSH2 0x29F5 DUP3 PUSH2 0x29B6 JUMP JUMPDEST PUSH1 0x20 DUP3 ADD SWAP1 POP SWAP2 SWAP1 POP JUMP JUMPDEST PUSH0 PUSH1 0x20 DUP3 ADD SWAP1 POP DUP2 DUP2 SUB PUSH0 DUP4 ADD MSTORE PUSH2 0x2A17 DUP2 PUSH2 0x29DE JUMP JUMPDEST SWAP1 POP SWAP2 SWAP1 POP JUMP JUMPDEST PUSH32 0x4F6E6C7920706C6174666F726D206F776E65722063616E206163636573732072 PUSH0 DUP3 ADD MSTORE PUSH32 0x65706F7274656420757365727300000000000000000000000000000000000000 PUSH1 0x20 DUP3 ADD MSTORE POP JUMP JUMPDEST PUSH0 PUSH2 0x2A78 PUSH1 0x2D DUP4 PUSH2 0x1BFE JUMP JUMPDEST SWAP2 POP PUSH2 0x2A83 DUP3 PUSH2 0x2A1E JUMP JUMPDEST PUSH1 0x40 DUP3 ADD SWAP1 POP SWAP2 SWAP1 POP JUMP JUMPDEST PUSH0 PUSH1 0x20 DUP3 ADD SWAP1 POP DUP2 DUP2 SUB PUSH0 DUP4 ADD MSTORE PUSH2 0x2AA5 DUP2 PUSH2 0x2A6C JUMP JUMPDEST SWAP1 POP SWAP2 SWAP1 POP JUMP JUMPDEST PUSH32 0x4E487B7100000000000000000000000000000000000000000000000000000000 PUSH0 MSTORE PUSH1 0x32 PUSH1 0x4 MSTORE PUSH1 0x24 PUSH0 REVERT JUMPDEST PUSH32 0x4F6E6C7920726567697374657265642064617461206275796572732063616E20 PUSH0 DUP3 ADD MSTORE PUSH32 0x7075726368617365206461746120736574730000000000000000000000000000 PUSH1 0x20 DUP3 ADD MSTORE POP JUMP JUMPDEST PUSH0 PUSH2 0x2B33 PUSH1 0x32 DUP4 PUSH2 0x1BFE JUMP JUMPDEST SWAP2 POP PUSH2 0x2B3E DUP3 PUSH2 0x2AD9 JUMP JUMPDEST PUSH1 0x40 DUP3 ADD SWAP1 POP SWAP2 SWAP1 POP JUMP JUMPDEST PUSH0 PUSH1 0x20 DUP3 ADD SWAP1 POP DUP2 DUP2 SUB PUSH0 DUP4 ADD MSTORE PUSH2 0x2B60 DUP2 PUSH2 0x2B27 JUMP JUMPDEST SWAP1 POP SWAP2 SWAP1 POP JUMP JUMPDEST PUSH32 0x496E76616C696420646174612073657420494400000000000000000000000000 PUSH0 DUP3 ADD MSTORE POP JUMP JUMPDEST PUSH0 PUSH2 0x2B9B PUSH1 0x13 DUP4 PUSH2 0x1BFE JUMP JUMPDEST SWAP2 POP PUSH2 0x2BA6 DUP3 PUSH2 0x2B67 JUMP JUMPDEST PUSH1 0x20 DUP3 ADD SWAP1 POP SWAP2 SWAP1 POP JUMP JUMPDEST PUSH0 PUSH1 0x20 DUP3 ADD SWAP1 POP DUP2 DUP2 SUB PUSH0 DUP4 ADD MSTORE PUSH2 0x2BC8 DUP2 PUSH2 0x2B8F JUMP JUMPDEST SWAP1 POP SWAP2 SWAP1 POP JUMP JUMPDEST PUSH32 0x496E636F7272656374207061796D656E7420616D6F756E740000000000000000 PUSH0 DUP3 ADD MSTORE POP JUMP JUMPDEST PUSH0 PUSH2 0x2C03 PUSH1 0x18 DUP4 PUSH2 0x1BFE JUMP JUMPDEST SWAP2 POP PUSH2 0x2C0E DUP3 PUSH2 0x2BCF JUMP JUMPDEST PUSH1 0x20 DUP3 ADD SWAP1 POP SWAP2 SWAP1 POP JUMP JUMPDEST PUSH0 PUSH1 0x20 DUP3 ADD SWAP1 POP DUP2 DUP2 SUB PUSH0 DUP4 ADD MSTORE PUSH2 0x2C30 DUP2 PUSH2 0x2BF7 JUMP JUMPDEST SWAP1 POP SWAP2 SWAP1 POP JUMP JUMPDEST PUSH0 PUSH2 0x2C41 DUP3 PUSH2 0x1B30 JUMP JUMPDEST SWAP2 POP PUSH2 0x2C4C DUP4 PUSH2 0x1B30 JUMP JUMPDEST SWAP3 POP DUP3 DUP3 MUL PUSH2 0x2C5A DUP2 PUSH2 0x1B30 JUMP JUMPDEST SWAP2 POP DUP3 DUP3 DIV DUP5 EQ DUP4 ISZERO OR PUSH2 0x2C71 JUMPI PUSH2 0x2C70 PUSH2 0x242C JUMP JUMPDEST JUMPDEST POP SWAP3 SWAP2 POP POP JUMP JUMPDEST PUSH32 0x4E487B7100000000000000000000000000000000000000000000000000000000 PUSH0 MSTORE PUSH1 0x12 PUSH1 0x4 MSTORE PUSH1 0x24 PUSH0 REVERT JUMPDEST PUSH0 PUSH2 0x2CAF DUP3 PUSH2 0x1B30 JUMP JUMPDEST SWAP2 POP PUSH2 0x2CBA DUP4 PUSH2 0x1B30 JUMP JUMPDEST SWAP3 POP DUP3 PUSH2 0x2CCA JUMPI PUSH2 0x2CC9 PUSH2 0x2C78 JUMP JUMPDEST JUMPDEST DUP3 DUP3 DIV SWAP1 POP SWAP3 SWAP2 POP POP JUMP JUMPDEST PUSH0 PUSH2 0x2CDF DUP3 PUSH2 0x1B30 JUMP JUMPDEST SWAP2 POP PUSH2 0x2CEA DUP4 PUSH2 0x1B30 JUMP JUMPDEST SWAP3 POP DUP3 DUP3 SUB SWAP1 POP DUP2 DUP2 GT ISZERO PUSH2 0x2D02 JUMPI PUSH2 0x2D01 PUSH2 0x242C JUMP JUMPDEST JUMPDEST SWAP3 SWAP2 POP POP JUMP JUMPDEST PUSH0 PUSH1 0x40 DUP3 ADD SWAP1 POP PUSH2 0x2D1B PUSH0 DUP4 ADD DUP6 PUSH2 0x1B39 JUMP JUMPDEST PUSH2 0x2D28 PUSH1 0x20 DUP4 ADD DUP5 PUSH2 0x1C6D JUMP JUMPDEST SWAP4 SWAP3 POP POP POP JUMP INVALID LOG2 PUSH5 0x6970667358 0x22 SLT KECCAK256 PUSH27 0x80AEC49C593F04B9BFAC8BF62AA01A13F59DD1514504BD00C806A0 SGT 0xAE 0xEA PUSH22 0x64736F6C634300081900330000000000000000000000 "
				},
				"gasEstimates": {
					"creation": {
						"codeDepositCost": "2324200",
						"executionCost": "26756",
						"totalCost": "2350956"
					},
					"external": {
						"PLATFORM_FEE_PERCENTAGE()": "348",
						"banUser(address)": "31550",
						"dataHashToDataSetId(bytes32)": "2799",
						"dataSetCount()": "2514",
						"dataSets(uint256)": "infinite",
						"getBalance()": "380",
						"getDataSet(uint256)": "infinite",
						"getReportedUsers()": "infinite",
						"getSellerAverageRating(address)": "infinite",
						"platformOwner()": "2531",
						"purchaseDataSet(uint256)": "infinite",
						"rateSeller(uint256,uint256)": "infinite",
						"registerUser(string,string,bool,bool)": "infinite",
						"reportDataSet(uint256)": "infinite",
						"reportUser(address)": "29589",
						"reportedUsers(address)": "5133",
						"sellerReputations(address)": "infinite",
						"uploadDataSet(string,string,bytes32,uint256,bool)": "infinite",
						"users(address)": "infinite"
					}
				},
				"methodIdentifiers": {
					"PLATFORM_FEE_PERCENTAGE()": "15548232",
					"banUser(address)": "10d86b1f",
					"dataHashToDataSetId(bytes32)": "16b29706",
					"dataSetCount()": "228f088a",
					"dataSets(uint256)": "13f53f62",
					"getBalance()": "12065fe0",
					"getDataSet(uint256)": "bdaac056",
					"getReportedUsers()": "9e5c3cba",
					"getSellerAverageRating(address)": "be932ebd",
					"platformOwner()": "4df8ccb1",
					"purchaseDataSet(uint256)": "a6a37136",
					"rateSeller(uint256,uint256)": "12c98303",
					"registerUser(string,string,bool,bool)": "6570a82f",
					"reportDataSet(uint256)": "b73db8de",
					"reportUser(address)": "34db8f63",
					"reportedUsers(address)": "7201d32e",
					"sellerReputations(address)": "eb6427d9",
					"uploadDataSet(string,string,bytes32,uint256,bool)": "1a8d3029",
					"users(address)": "a87430ba"
				}
			},
			"storageLayout": {
				"storage": [
					{
						"astId": 40,
						"contract": "contracts/Marketplace.sol:DataMarketplace",
						"label": "reportedUsers",
						"offset": 0,
						"slot": "0",
						"type": "t_mapping(t_address,t_struct(ReportedUser)35_storage)"
					},
					{
						"astId": 45,
						"contract": "contracts/Marketplace.sol:DataMarketplace",
						"label": "users",
						"offset": 0,
						"slot": "1",
						"type": "t_mapping(t_address,t_struct(User)10_storage)"
					},
					{
						"astId": 50,
						"contract": "contracts/Marketplace.sol:DataMarketplace",
						"label": "dataSets",
						"offset": 0,
						"slot": "2",
						"type": "t_mapping(t_uint256,t_struct(DataSet)25_storage)"
					},
					{
						"astId": 54,
						"contract": "contracts/Marketplace.sol:DataMarketplace",
						"label": "dataHashToDataSetId",
						"offset": 0,
						"slot": "3",
						"type": "t_mapping(t_bytes32,t_uint256)"
					},
					{
						"astId": 59,
						"contract": "contracts/Marketplace.sol:DataMarketplace",
						"label": "sellerReputations",
						"offset": 0,
						"slot": "4",
						"type": "t_mapping(t_address,t_struct(SellerReputation)30_storage)"
					},
					{
						"astId": 61,
						"contract": "contracts/Marketplace.sol:DataMarketplace",
						"label": "dataSetCount",
						"offset": 0,
						"slot": "5",
						"type": "t_uint256"
					},
					{
						"astId": 63,
						"contract": "contracts/Marketplace.sol:DataMarketplace",
						"label": "platformOwner",
						"offset": 0,
						"slot": "6",
						"type": "t_address_payable"
					}
				],
				"types": {
					"t_address": {
						"encoding": "inplace",
						"label": "address",
						"numberOfBytes": "20"
					},
					"t_address_payable": {
						"encoding": "inplace",
						"label": "address payable",
						"numberOfBytes": "20"
					},
					"t_bool": {
						"encoding": "inplace",
						"label": "bool",
						"numberOfBytes": "1"
					},
					"t_bytes32": {
						"encoding": "inplace",
						"label": "bytes32",
						"numberOfBytes": "32"
					},
					"t_mapping(t_address,t_struct(ReportedUser)35_storage)": {
						"encoding": "mapping",
						"key": "t_address",
						"label": "mapping(address => struct DataMarketplace.ReportedUser)",
						"numberOfBytes": "32",
						"value": "t_struct(ReportedUser)35_storage"
					},
					"t_mapping(t_address,t_struct(SellerReputation)30_storage)": {
						"encoding": "mapping",
						"key": "t_address",
						"label": "mapping(address => struct DataMarketplace.SellerReputation)",
						"numberOfBytes": "32",
						"value": "t_struct(SellerReputation)30_storage"
					},
					"t_mapping(t_address,t_struct(User)10_storage)": {
						"encoding": "mapping",
						"key": "t_address",
						"label": "mapping(address => struct DataMarketplace.User)",
						"numberOfBytes": "32",
						"value": "t_struct(User)10_storage"
					},
					"t_mapping(t_bytes32,t_uint256)": {
						"encoding": "mapping",
						"key": "t_bytes32",
						"label": "mapping(bytes32 => uint256)",
						"numberOfBytes": "32",
						"value": "t_uint256"
					},
					"t_mapping(t_uint256,t_struct(DataSet)25_storage)": {
						"encoding": "mapping",
						"key": "t_uint256",
						"label": "mapping(uint256 => struct DataMarketplace.DataSet)",
						"numberOfBytes": "32",
						"value": "t_struct(DataSet)25_storage"
					},
					"t_string_storage": {
						"encoding": "bytes",
						"label": "string",
						"numberOfBytes": "32"
					},
					"t_struct(DataSet)25_storage": {
						"encoding": "inplace",
						"label": "struct DataMarketplace.DataSet",
						"members": [
							{
								"astId": 12,
								"contract": "contracts/Marketplace.sol:DataMarketplace",
								"label": "name",
								"offset": 0,
								"slot": "0",
								"type": "t_string_storage"
							},
							{
								"astId": 14,
								"contract": "contracts/Marketplace.sol:DataMarketplace",
								"label": "description",
								"offset": 0,
								"slot": "1",
								"type": "t_string_storage"
							},
							{
								"astId": 16,
								"contract": "contracts/Marketplace.sol:DataMarketplace",
								"label": "dataHash",
								"offset": 0,
								"slot": "2",
								"type": "t_bytes32"
							},
							{
								"astId": 18,
								"contract": "contracts/Marketplace.sol:DataMarketplace",
								"label": "price",
								"offset": 0,
								"slot": "3",
								"type": "t_uint256"
							},
							{
								"astId": 20,
								"contract": "contracts/Marketplace.sol:DataMarketplace",
								"label": "isEncrypted",
								"offset": 0,
								"slot": "4",
								"type": "t_bool"
							},
							{
								"astId": 22,
								"contract": "contracts/Marketplace.sol:DataMarketplace",
								"label": "seller",
								"offset": 1,
								"slot": "4",
								"type": "t_address_payable"
							},
							{
								"astId": 24,
								"contract": "contracts/Marketplace.sol:DataMarketplace",
								"label": "reportCount",
								"offset": 0,
								"slot": "5",
								"type": "t_uint256"
							}
						],
						"numberOfBytes": "192"
					},
					"t_struct(ReportedUser)35_storage": {
						"encoding": "inplace",
						"label": "struct DataMarketplace.ReportedUser",
						"members": [
							{
								"astId": 32,
								"contract": "contracts/Marketplace.sol:DataMarketplace",
								"label": "reportCount",
								"offset": 0,
								"slot": "0",
								"type": "t_uint256"
							},
							{
								"astId": 34,
								"contract": "contracts/Marketplace.sol:DataMarketplace",
								"label": "isBanned",
								"offset": 0,
								"slot": "1",
								"type": "t_bool"
							}
						],
						"numberOfBytes": "64"
					},
					"t_struct(SellerReputation)30_storage": {
						"encoding": "inplace",
						"label": "struct DataMarketplace.SellerReputation",
						"members": [
							{
								"astId": 27,
								"contract": "contracts/Marketplace.sol:DataMarketplace",
								"label": "totalRatings",
								"offset": 0,
								"slot": "0",
								"type": "t_uint256"
							},
							{
								"astId": 29,
								"contract": "contracts/Marketplace.sol:DataMarketplace",
								"label": "sumOfRatings",
								"offset": 0,
								"slot": "1",
								"type": "t_uint256"
							}
						],
						"numberOfBytes": "64"
					},
					"t_struct(User)10_storage": {
						"encoding": "inplace",
						"label": "struct DataMarketplace.User",
						"members": [
							{
								"astId": 3,
								"contract": "contracts/Marketplace.sol:DataMarketplace",
								"label": "name",
								"offset": 0,
								"slot": "0",
								"type": "t_string_storage"
							},
							{
								"astId": 5,
								"contract": "contracts/Marketplace.sol:DataMarketplace",
								"label": "email",
								"offset": 0,
								"slot": "1",
								"type": "t_string_storage"
							},
							{
								"astId": 7,
								"contract": "contracts/Marketplace.sol:DataMarketplace",
								"label": "isDataSeller",
								"offset": 0,
								"slot": "2",
								"type": "t_bool"
							},
							{
								"astId": 9,
								"contract": "contracts/Marketplace.sol:DataMarketplace",
								"label": "isDataBuyer",
								"offset": 1,
								"slot": "2",
								"type": "t_bool"
							}
						],
						"numberOfBytes": "96"
					},
					"t_uint256": {
						"encoding": "inplace",
						"label": "uint256",
						"numberOfBytes": "32"
					}
				}
			},
			"userdoc": {
				"kind": "user",
				"methods": {},
				"version": 1
			}
		}
	}
}