{
	"contracts/MarketTest.sol": {
		"DataMarketplace": {
			"abi": [
				{
					"inputs": [],
					"stateMutability": "nonpayable",
					"type": "constructor"
				},
				{
					"anonymous": false,
					"inputs": [
						{
							"indexed": true,
							"internalType": "uint256",
							"name": "dataSetId",
							"type": "uint256"
						},
						{
							"indexed": true,
							"internalType": "address",
							"name": "buyer",
							"type": "address"
						},
						{
							"indexed": false,
							"internalType": "uint256",
							"name": "price",
							"type": "uint256"
						},
						{
							"indexed": false,
							"internalType": "bytes32",
							"name": "dataHash",
							"type": "bytes32"
						}
					],
					"name": "DataSetPurchased",
					"type": "event"
				},
				{
					"anonymous": false,
					"inputs": [
						{
							"indexed": true,
							"internalType": "uint256",
							"name": "dataSetId",
							"type": "uint256"
						},
						{
							"indexed": false,
							"internalType": "string",
							"name": "name",
							"type": "string"
						},
						{
							"indexed": false,
							"internalType": "uint256",
							"name": "price",
							"type": "uint256"
						},
						{
							"indexed": true,
							"internalType": "address",
							"name": "seller",
							"type": "address"
						}
					],
					"name": "DataSetUploaded",
					"type": "event"
				},
				{
					"anonymous": false,
					"inputs": [
						{
							"indexed": true,
							"internalType": "address",
							"name": "user",
							"type": "address"
						},
						{
							"indexed": false,
							"internalType": "string",
							"name": "name",
							"type": "string"
						},
						{
							"indexed": false,
							"internalType": "string",
							"name": "email",
							"type": "string"
						},
						{
							"indexed": false,
							"internalType": "bool",
							"name": "isDataSeller",
							"type": "bool"
						},
						{
							"indexed": false,
							"internalType": "bool",
							"name": "isDataBuyer",
							"type": "bool"
						}
					],
					"name": "UserRegistered",
					"type": "event"
				},
				{
					"inputs": [],
					"name": "PLATFORM_FEE_PERCENTAGE",
					"outputs": [
						{
							"internalType": "uint256",
							"name": "",
							"type": "uint256"
						}
					],
					"stateMutability": "view",
					"type": "function"
				},
				{
					"inputs": [
						{
							"internalType": "bytes32",
							"name": "",
							"type": "bytes32"
						}
					],
					"name": "dataHashToDataSetId",
					"outputs": [
						{
							"internalType": "uint256",
							"name": "",
							"type": "uint256"
						}
					],
					"stateMutability": "view",
					"type": "function"
				},
				{
					"inputs": [],
					"name": "dataSetCount",
					"outputs": [
						{
							"internalType": "uint256",
							"name": "",
							"type": "uint256"
						}
					],
					"stateMutability": "view",
					"type": "function"
				},
				{
					"inputs": [
						{
							"internalType": "uint256",
							"name": "",
							"type": "uint256"
						}
					],
					"name": "dataSetEncryptionKeys",
					"outputs": [
						{
							"internalType": "bytes32",
							"name": "key",
							"type": "bytes32"
						}
					],
					"stateMutability": "view",
					"type": "function"
				},
				{
					"inputs": [
						{
							"internalType": "uint256",
							"name": "",
							"type": "uint256"
						},
						{
							"internalType": "uint256",
							"name": "",
							"type": "uint256"
						}
					],
					"name": "dataSetReports",
					"outputs": [
						{
							"internalType": "address",
							"name": "reporter",
							"type": "address"
						},
						{
							"internalType": "string",
							"name": "description",
							"type": "string"
						},
						{
							"internalType": "uint256",
							"name": "timestamp",
							"type": "uint256"
						}
					],
					"stateMutability": "view",
					"type": "function"
				},
				{
					"inputs": [
						{
							"internalType": "uint256",
							"name": "",
							"type": "uint256"
						}
					],
					"name": "dataSets",
					"outputs": [
						{
							"internalType": "string",
							"name": "name",
							"type": "string"
						},
						{
							"internalType": "string",
							"name": "description",
							"type": "string"
						},
						{
							"internalType": "bytes32",
							"name": "dataHash",
							"type": "bytes32"
						},
						{
							"internalType": "uint256",
							"name": "price",
							"type": "uint256"
						},
						{
							"internalType": "bool",
							"name": "isEncrypted",
							"type": "bool"
						},
						{
							"internalType": "address payable",
							"name": "seller",
							"type": "address"
						},
						{
							"internalType": "uint256",
							"name": "uploadTimestamp",
							"type": "uint256"
						},
						{
							"internalType": "uint256",
							"name": "purchaseTimestamp",
							"type": "uint256"
						}
					],
					"stateMutability": "view",
					"type": "function"
				},
				{
					"inputs": [],
					"name": "getBalance",
					"outputs": [
						{
							"internalType": "uint256",
							"name": "",
							"type": "uint256"
						}
					],
					"stateMutability": "view",
					"type": "function"
				},
				{
					"inputs": [
						{
							"internalType": "uint256",
							"name": "_dataSetId",
							"type": "uint256"
						}
					],
					"name": "getDataSet",
					"outputs": [
						{
							"internalType": "string",
							"name": "",
							"type": "string"
						},
						{
							"internalType": "string",
							"name": "",
							"type": "string"
						},
						{
							"internalType": "bytes32",
							"name": "",
							"type": "bytes32"
						},
						{
							"internalType": "uint256",
							"name": "",
							"type": "uint256"
						},
						{
							"internalType": "bool",
							"name": "",
							"type": "bool"
						},
						{
							"internalType": "address",
							"name": "",
							"type": "address"
						},
						{
							"internalType": "uint256",
							"name": "",
							"type": "uint256"
						},
						{
							"internalType": "uint256",
							"name": "",
							"type": "uint256"
						}
					],
					"stateMutability": "view",
					"type": "function"
				},
				{
					"inputs": [
						{
							"internalType": "address",
							"name": "_seller",
							"type": "address"
						}
					],
					"name": "getSellerAverageRating",
					"outputs": [
						{
							"internalType": "uint256",
							"name": "",
							"type": "uint256"
						}
					],
					"stateMutability": "view",
					"type": "function"
				},
				{
					"inputs": [],
					"name": "platformOwner",
					"outputs": [
						{
							"internalType": "address payable",
							"name": "",
							"type": "address"
						}
					],
					"stateMutability": "view",
					"type": "function"
				},
				{
					"inputs": [
						{
							"internalType": "uint256",
							"name": "_dataSetId",
							"type": "uint256"
						}
					],
					"name": "purchaseDataSet",
					"outputs": [],
					"stateMutability": "payable",
					"type": "function"
				},
				{
					"inputs": [
						{
							"internalType": "uint256",
							"name": "_dataSetId",
							"type": "uint256"
						},
						{
							"internalType": "uint256",
							"name": "_rating",
							"type": "uint256"
						}
					],
					"name": "rateSeller",
					"outputs": [],
					"stateMutability": "nonpayable",
					"type": "function"
				},
				{
					"inputs": [
						{
							"internalType": "string",
							"name": "_name",
							"type": "string"
						},
						{
							"internalType": "string",
							"name": "_email",
							"type": "string"
						},
						{
							"internalType": "bool",
							"name": "_isDataSeller",
							"type": "bool"
						},
						{
							"internalType": "bool",
							"name": "_isDataBuyer",
							"type": "bool"
						}
					],
					"name": "registerUser",
					"outputs": [],
					"stateMutability": "nonpayable",
					"type": "function"
				},
				{
					"inputs": [
						{
							"internalType": "uint256",
							"name": "_dataSetId",
							"type": "uint256"
						},
						{
							"internalType": "string",
							"name": "_description",
							"type": "string"
						}
					],
					"name": "reportDataSet",
					"outputs": [],
					"stateMutability": "nonpayable",
					"type": "function"
				},
				{
					"inputs": [
						{
							"internalType": "address",
							"name": "",
							"type": "address"
						}
					],
					"name": "sellerReputations",
					"outputs": [
						{
							"internalType": "uint256",
							"name": "totalRatings",
							"type": "uint256"
						},
						{
							"internalType": "uint256",
							"name": "sumOfRatings",
							"type": "uint256"
						}
					],
					"stateMutability": "view",
					"type": "function"
				},
				{
					"inputs": [
						{
							"internalType": "uint256",
							"name": "_dataSetId",
							"type": "uint256"
						},
						{
							"internalType": "bytes32",
							"name": "_key",
							"type": "bytes32"
						},
						{
							"internalType": "address[]",
							"name": "_authorizedBuyers",
							"type": "address[]"
						}
					],
					"name": "setEncryptionKey",
					"outputs": [],
					"stateMutability": "nonpayable",
					"type": "function"
				},
				{
					"inputs": [
						{
							"internalType": "string",
							"name": "_name",
							"type": "string"
						},
						{
							"internalType": "string",
							"name": "_description",
							"type": "string"
						},
						{
							"internalType": "bytes",
							"name": "_data",
							"type": "bytes"
						},
						{
							"internalType": "uint256",
							"name": "_price",
							"type": "uint256"
						},
						{
							"internalType": "bool",
							"name": "_isEncrypted",
							"type": "bool"
						}
					],
					"name": "uploadDataSet",
					"outputs": [],
					"stateMutability": "nonpayable",
					"type": "function"
				},
				{
					"inputs": [
						{
							"internalType": "address",
							"name": "",
							"type": "address"
						}
					],
					"name": "users",
					"outputs": [
						{
							"internalType": "string",
							"name": "name",
							"type": "string"
						},
						{
							"internalType": "string",
							"name": "email",
							"type": "string"
						},
						{
							"internalType": "bool",
							"name": "isDataSeller",
							"type": "bool"
						},
						{
							"internalType": "bool",
							"name": "isDataBuyer",
							"type": "bool"
						}
					],
					"stateMutability": "view",
					"type": "function"
				},
				{
					"stateMutability": "payable",
					"type": "receive"
				}
			],
			"devdoc": {
				"kind": "dev",
				"methods": {},
				"version": 1
			},
			"evm": {
				"assembly": "    /* \"contracts/MarketTest.sol\":61:5700  contract DataMarketplace {... */\n  mstore(0x40, 0x80)\n    /* \"contracts/MarketTest.sol\":1618:1686  constructor() {... */\n  callvalue\n  dup1\n  iszero\n  tag_1\n  jumpi\n  0x00\n  dup1\n  revert\ntag_1:\n  pop\n    /* \"contracts/MarketTest.sol\":1667:1677  msg.sender */\n  caller\n    /* \"contracts/MarketTest.sol\":1643:1656  platformOwner */\n  0x07\n  0x00\n    /* \"contracts/MarketTest.sol\":1643:1678  platformOwner = payable(msg.sender) */\n  0x0100\n  exp\n  dup2\n  sload\n  dup2\n  0xffffffffffffffffffffffffffffffffffffffff\n  mul\n  not\n  and\n  swap1\n  dup4\n  0xffffffffffffffffffffffffffffffffffffffff\n  and\n  mul\n  or\n  swap1\n  sstore\n  pop\n    /* \"contracts/MarketTest.sol\":61:5700  contract DataMarketplace {... */\n  dataSize(sub_0)\n  dup1\n  dataOffset(sub_0)\n  0x00\n  codecopy\n  0x00\n  return\nstop\n\nsub_0: assembly {\n        /* \"contracts/MarketTest.sol\":61:5700  contract DataMarketplace {... */\n      mstore(0x40, 0x80)\n      jumpi(tag_1, lt(calldatasize, 0x04))\n      shr(0xe0, calldataload(0x00))\n      dup1\n      0x7ab87217\n      gt\n      tag_21\n      jumpi\n      dup1\n      0xbdaac056\n      gt\n      tag_22\n      jumpi\n      dup1\n      0xbdaac056\n      eq\n      tag_16\n      jumpi\n      dup1\n      0xbe932ebd\n      eq\n      tag_17\n      jumpi\n      dup1\n      0xc54fb04f\n      eq\n      tag_18\n      jumpi\n      dup1\n      0xeb6427d9\n      eq\n      tag_19\n      jumpi\n      dup1\n      0xffecc0ee\n      eq\n      tag_20\n      jumpi\n      jump(tag_2)\n    tag_22:\n      dup1\n      0x7ab87217\n      eq\n      tag_12\n      jumpi\n      dup1\n      0xa38a3905\n      eq\n      tag_13\n      jumpi\n      dup1\n      0xa6a37136\n      eq\n      tag_14\n      jumpi\n      dup1\n      0xa87430ba\n      eq\n      tag_15\n      jumpi\n      jump(tag_2)\n    tag_21:\n      dup1\n      0x16b29706\n      gt\n      tag_23\n      jumpi\n      dup1\n      0x16b29706\n      eq\n      tag_7\n      jumpi\n      dup1\n      0x193af994\n      eq\n      tag_8\n      jumpi\n      dup1\n      0x228f088a\n      eq\n      tag_9\n      jumpi\n      dup1\n      0x4df8ccb1\n      eq\n      tag_10\n      jumpi\n      dup1\n      0x6570a82f\n      eq\n      tag_11\n      jumpi\n      jump(tag_2)\n    tag_23:\n      dup1\n      0x12065fe0\n      eq\n      tag_3\n      jumpi\n      dup1\n      0x12c98303\n      eq\n      tag_4\n      jumpi\n      dup1\n      0x13f53f62\n      eq\n      tag_5\n      jumpi\n      dup1\n      0x15548232\n      eq\n      tag_6\n      jumpi\n      jump(tag_2)\n    tag_1:\n      jumpi(tag_2, calldatasize)\n      stop\n    tag_2:\n      0x00\n      dup1\n      revert\n        /* \"contracts/MarketTest.sol\":1694:1792  function getBalance() external view returns (uint) {... */\n    tag_3:\n      callvalue\n      dup1\n      iszero\n      tag_26\n      jumpi\n      0x00\n      dup1\n      revert\n    tag_26:\n      pop\n      tag_27\n      tag_28\n      jump\t// in\n    tag_27:\n      mload(0x40)\n      tag_29\n      swap2\n      swap1\n      tag_30\n      jump\t// in\n    tag_29:\n      mload(0x40)\n      dup1\n      swap2\n      sub\n      swap1\n      return\n        /* \"contracts/MarketTest.sol\":4518:4991  function rateSeller(uint256 _dataSetId, uint256 _rating) public {... */\n    tag_4:\n      callvalue\n      dup1\n      iszero\n      tag_31\n      jumpi\n      0x00\n      dup1\n      revert\n    tag_31:\n      pop\n      tag_32\n      0x04\n      dup1\n      calldatasize\n      sub\n      dup2\n      add\n      swap1\n      tag_33\n      swap2\n      swap1\n      tag_34\n      jump\t// in\n    tag_33:\n      tag_35\n      jump\t// in\n    tag_32:\n      stop\n        /* \"contracts/MarketTest.sol\":840:883  mapping(uint256 => DataSet) public dataSets */\n    tag_5:\n      callvalue\n      dup1\n      iszero\n      tag_36\n      jumpi\n      0x00\n      dup1\n      revert\n    tag_36:\n      pop\n      tag_37\n      0x04\n      dup1\n      calldatasize\n      sub\n      dup2\n      add\n      swap1\n      tag_38\n      swap2\n      swap1\n      tag_39\n      jump\t// in\n    tag_38:\n      tag_40\n      jump\t// in\n    tag_37:\n      mload(0x40)\n      tag_41\n      swap9\n      swap8\n      swap7\n      swap6\n      swap5\n      swap4\n      swap3\n      swap2\n      swap1\n      tag_42\n      jump\t// in\n    tag_41:\n      mload(0x40)\n      dup1\n      swap2\n      sub\n      swap1\n      return\n        /* \"contracts/MarketTest.sol\":1222:1275  uint256 public constant PLATFORM_FEE_PERCENTAGE = 100 */\n    tag_6:\n      callvalue\n      dup1\n      iszero\n      tag_43\n      jumpi\n      0x00\n      dup1\n      revert\n    tag_43:\n      pop\n      tag_44\n      tag_45\n      jump\t// in\n    tag_44:\n      mload(0x40)\n      tag_46\n      swap2\n      swap1\n      tag_30\n      jump\t// in\n    tag_46:\n      mload(0x40)\n      dup1\n      swap2\n      sub\n      swap1\n      return\n        /* \"contracts/MarketTest.sol\":890:944  mapping(bytes32 => uint256) public dataHashToDataSetId */\n    tag_7:\n      callvalue\n      dup1\n      iszero\n      tag_47\n      jumpi\n      0x00\n      dup1\n      revert\n    tag_47:\n      pop\n      tag_48\n      0x04\n      dup1\n      calldatasize\n      sub\n      dup2\n      add\n      swap1\n      tag_49\n      swap2\n      swap1\n      tag_50\n      jump\t// in\n    tag_49:\n      tag_51\n      jump\t// in\n    tag_48:\n      mload(0x40)\n      tag_52\n      swap2\n      swap1\n      tag_30\n      jump\t// in\n    tag_52:\n      mload(0x40)\n      dup1\n      swap2\n      sub\n      swap1\n      return\n        /* \"contracts/MarketTest.sol\":1020:1070  mapping(uint256 => Report[]) public dataSetReports */\n    tag_8:\n      callvalue\n      dup1\n      iszero\n      tag_53\n      jumpi\n      0x00\n      dup1\n      revert\n    tag_53:\n      pop\n      tag_54\n      0x04\n      dup1\n      calldatasize\n      sub\n      dup2\n      add\n      swap1\n      tag_55\n      swap2\n      swap1\n      tag_34\n      jump\t// in\n    tag_55:\n      tag_56\n      jump\t// in\n    tag_54:\n      mload(0x40)\n      tag_57\n      swap4\n      swap3\n      swap2\n      swap1\n      tag_58\n      jump\t// in\n    tag_57:\n      mload(0x40)\n      dup1\n      swap2\n      sub\n      swap1\n      return\n        /* \"contracts/MarketTest.sol\":1145:1172  uint256 public dataSetCount */\n    tag_9:\n      callvalue\n      dup1\n      iszero\n      tag_59\n      jumpi\n      0x00\n      dup1\n      revert\n    tag_59:\n      pop\n      tag_60\n      tag_61\n      jump\t// in\n    tag_60:\n      mload(0x40)\n      tag_62\n      swap2\n      swap1\n      tag_30\n      jump\t// in\n    tag_62:\n      mload(0x40)\n      dup1\n      swap2\n      sub\n      swap1\n      return\n        /* \"contracts/MarketTest.sol\":1179:1215  address payable public platformOwner */\n    tag_10:\n      callvalue\n      dup1\n      iszero\n      tag_63\n      jumpi\n      0x00\n      dup1\n      revert\n    tag_63:\n      pop\n      tag_64\n      tag_65\n      jump\t// in\n    tag_64:\n      mload(0x40)\n      tag_66\n      swap2\n      swap1\n      tag_67\n      jump\t// in\n    tag_66:\n      mload(0x40)\n      dup1\n      swap2\n      sub\n      swap1\n      return\n        /* \"contracts/MarketTest.sol\":1837:2233  function registerUser(string memory _name, string memory _email, bool _isDataSeller, bool _isDataBuyer) public {... */\n    tag_11:\n      callvalue\n      dup1\n      iszero\n      tag_68\n      jumpi\n      0x00\n      dup1\n      revert\n    tag_68:\n      pop\n      tag_69\n      0x04\n      dup1\n      calldatasize\n      sub\n      dup2\n      add\n      swap1\n      tag_70\n      swap2\n      swap1\n      tag_71\n      jump\t// in\n    tag_70:\n      tag_72\n      jump\t// in\n    tag_69:\n      stop\n        /* \"contracts/MarketTest.sol\":4230:4510  function reportDataSet(uint256 _dataSetId, string memory _description) public {... */\n    tag_12:\n      callvalue\n      dup1\n      iszero\n      tag_73\n      jumpi\n      0x00\n      dup1\n      revert\n    tag_73:\n      pop\n      tag_74\n      0x04\n      dup1\n      calldatasize\n      sub\n      dup2\n      add\n      swap1\n      tag_75\n      swap2\n      swap1\n      tag_76\n      jump\t// in\n    tag_75:\n      tag_77\n      jump\t// in\n    tag_74:\n      stop\n        /* \"contracts/MarketTest.sol\":2909:3362  function setEncryptionKey(uint256 _dataSetId, bytes32 _key, address[] memory _authorizedBuyers) public {... */\n    tag_13:\n      callvalue\n      dup1\n      iszero\n      tag_78\n      jumpi\n      0x00\n      dup1\n      revert\n    tag_78:\n      pop\n      tag_79\n      0x04\n      dup1\n      calldatasize\n      sub\n      dup2\n      add\n      swap1\n      tag_80\n      swap2\n      swap1\n      tag_81\n      jump\t// in\n    tag_80:\n      tag_82\n      jump\t// in\n    tag_79:\n      stop\n        /* \"contracts/MarketTest.sol\":3370:4222  function purchaseDataSet(uint256 _dataSetId) public payable {... */\n    tag_14:\n      tag_83\n      0x04\n      dup1\n      calldatasize\n      sub\n      dup2\n      add\n      swap1\n      tag_84\n      swap2\n      swap1\n      tag_39\n      jump\t// in\n    tag_84:\n      tag_85\n      jump\t// in\n    tag_83:\n      stop\n        /* \"contracts/MarketTest.sol\":796:833  mapping(address => User) public users */\n    tag_15:\n      callvalue\n      dup1\n      iszero\n      tag_86\n      jumpi\n      0x00\n      dup1\n      revert\n    tag_86:\n      pop\n      tag_87\n      0x04\n      dup1\n      calldatasize\n      sub\n      dup2\n      add\n      swap1\n      tag_88\n      swap2\n      swap1\n      tag_89\n      jump\t// in\n    tag_88:\n      tag_90\n      jump\t// in\n    tag_87:\n      mload(0x40)\n      tag_91\n      swap5\n      swap4\n      swap3\n      swap2\n      swap1\n      tag_92\n      jump\t// in\n    tag_91:\n      mload(0x40)\n      dup1\n      swap2\n      sub\n      swap1\n      return\n        /* \"contracts/MarketTest.sol\":5315:5697  function getDataSet(uint256 _dataSetId) public view returns (string memory, string memory, bytes32, uint256, bool, address, uint256, uint256) {... */\n    tag_16:\n      callvalue\n      dup1\n      iszero\n      tag_93\n      jumpi\n      0x00\n      dup1\n      revert\n    tag_93:\n      pop\n      tag_94\n      0x04\n      dup1\n      calldatasize\n      sub\n      dup2\n      add\n      swap1\n      tag_95\n      swap2\n      swap1\n      tag_39\n      jump\t// in\n    tag_95:\n      tag_96\n      jump\t// in\n    tag_94:\n      mload(0x40)\n      tag_97\n      swap9\n      swap8\n      swap7\n      swap6\n      swap5\n      swap4\n      swap3\n      swap2\n      swap1\n      tag_98\n      jump\t// in\n    tag_97:\n      mload(0x40)\n      dup1\n      swap2\n      sub\n      swap1\n      return\n        /* \"contracts/MarketTest.sol\":4999:5307  function getSellerAverageRating(address _seller) public view returns (uint256) {... */\n    tag_17:\n      callvalue\n      dup1\n      iszero\n      tag_99\n      jumpi\n      0x00\n      dup1\n      revert\n    tag_99:\n      pop\n      tag_100\n      0x04\n      dup1\n      calldatasize\n      sub\n      dup2\n      add\n      swap1\n      tag_101\n      swap2\n      swap1\n      tag_89\n      jump\t// in\n    tag_101:\n      tag_102\n      jump\t// in\n    tag_100:\n      mload(0x40)\n      tag_103\n      swap2\n      swap1\n      tag_30\n      jump\t// in\n    tag_103:\n      mload(0x40)\n      dup1\n      swap2\n      sub\n      swap1\n      return\n        /* \"contracts/MarketTest.sol\":951:1013  mapping(uint256 => EncryptionKey) public dataSetEncryptionKeys */\n    tag_18:\n      callvalue\n      dup1\n      iszero\n      tag_104\n      jumpi\n      0x00\n      dup1\n      revert\n    tag_104:\n      pop\n      tag_105\n      0x04\n      dup1\n      calldatasize\n      sub\n      dup2\n      add\n      swap1\n      tag_106\n      swap2\n      swap1\n      tag_39\n      jump\t// in\n    tag_106:\n      tag_107\n      jump\t// in\n    tag_105:\n      mload(0x40)\n      tag_108\n      swap2\n      swap1\n      tag_109\n      jump\t// in\n    tag_108:\n      mload(0x40)\n      dup1\n      swap2\n      sub\n      swap1\n      return\n        /* \"contracts/MarketTest.sol\":1077:1138  mapping(address => SellerReputation) public sellerReputations */\n    tag_19:\n      callvalue\n      dup1\n      iszero\n      tag_110\n      jumpi\n      0x00\n      dup1\n      revert\n    tag_110:\n      pop\n      tag_111\n      0x04\n      dup1\n      calldatasize\n      sub\n      dup2\n      add\n      swap1\n      tag_112\n      swap2\n      swap1\n      tag_89\n      jump\t// in\n    tag_112:\n      tag_113\n      jump\t// in\n    tag_111:\n      mload(0x40)\n      tag_114\n      swap3\n      swap2\n      swap1\n      tag_115\n      jump\t// in\n    tag_114:\n      mload(0x40)\n      dup1\n      swap2\n      sub\n      swap1\n      return\n        /* \"contracts/MarketTest.sol\":2241:2901  function uploadDataSet(string memory _name, string memory _description, bytes memory _data, uint256 _price, bool _isEncrypted) public {... */\n    tag_20:\n      callvalue\n      dup1\n      iszero\n      tag_116\n      jumpi\n      0x00\n      dup1\n      revert\n    tag_116:\n      pop\n      tag_117\n      0x04\n      dup1\n      calldatasize\n      sub\n      dup2\n      add\n      swap1\n      tag_118\n      swap2\n      swap1\n      tag_119\n      jump\t// in\n    tag_118:\n      tag_120\n      jump\t// in\n    tag_117:\n      stop\n        /* \"contracts/MarketTest.sol\":1694:1792  function getBalance() external view returns (uint) {... */\n    tag_28:\n        /* \"contracts/MarketTest.sol\":1739:1743  uint */\n      0x00\n        /* \"contracts/MarketTest.sol\":1763:1784  address(this).balance */\n      selfbalance\n        /* \"contracts/MarketTest.sol\":1756:1784  return address(this).balance */\n      swap1\n      pop\n        /* \"contracts/MarketTest.sol\":1694:1792  function getBalance() external view returns (uint) {... */\n      swap1\n      jump\t// out\n        /* \"contracts/MarketTest.sol\":4518:4991  function rateSeller(uint256 _dataSetId, uint256 _rating) public {... */\n    tag_35:\n        /* \"contracts/MarketTest.sol\":4601:4606  users */\n      0x00\n        /* \"contracts/MarketTest.sol\":4601:4618  users[msg.sender] */\n      dup1\n        /* \"contracts/MarketTest.sol\":4607:4617  msg.sender */\n      caller\n        /* \"contracts/MarketTest.sol\":4601:4618  users[msg.sender] */\n      0xffffffffffffffffffffffffffffffffffffffff\n      and\n      0xffffffffffffffffffffffffffffffffffffffff\n      and\n      dup2\n      mstore\n      0x20\n      add\n      swap1\n      dup2\n      mstore\n      0x20\n      add\n      0x00\n      keccak256\n        /* \"contracts/MarketTest.sol\":4601:4630  users[msg.sender].isDataBuyer */\n      0x02\n      add\n      0x01\n      swap1\n      sload\n      swap1\n      0x0100\n      exp\n      swap1\n      div\n      0xff\n      and\n        /* \"contracts/MarketTest.sol\":4593:4679  require(users[msg.sender].isDataBuyer, \"Only registered data buyers can rate sellers\") */\n      tag_123\n      jumpi\n      mload(0x40)\n      0x08c379a000000000000000000000000000000000000000000000000000000000\n      dup2\n      mstore\n      0x04\n      add\n      tag_124\n      swap1\n      tag_125\n      jump\t// in\n    tag_124:\n      mload(0x40)\n      dup1\n      swap2\n      sub\n      swap1\n      revert\n    tag_123:\n        /* \"contracts/MarketTest.sol\":4690:4713  DataSet storage dataSet */\n      0x00\n        /* \"contracts/MarketTest.sol\":4716:4724  dataSets */\n      0x01\n        /* \"contracts/MarketTest.sol\":4716:4736  dataSets[_dataSetId] */\n      0x00\n        /* \"contracts/MarketTest.sol\":4725:4735  _dataSetId */\n      dup5\n        /* \"contracts/MarketTest.sol\":4716:4736  dataSets[_dataSetId] */\n      dup2\n      mstore\n      0x20\n      add\n      swap1\n      dup2\n      mstore\n      0x20\n      add\n      0x00\n      keccak256\n        /* \"contracts/MarketTest.sol\":4690:4736  DataSet storage dataSet = dataSets[_dataSetId] */\n      swap1\n      pop\n        /* \"contracts/MarketTest.sol\":4769:4776  dataSet */\n      dup1\n        /* \"contracts/MarketTest.sol\":4769:4783  dataSet.seller */\n      0x04\n      add\n      0x01\n      swap1\n      sload\n      swap1\n      0x0100\n      exp\n      swap1\n      div\n      0xffffffffffffffffffffffffffffffffffffffff\n      and\n        /* \"contracts/MarketTest.sol\":4755:4783  msg.sender != dataSet.seller */\n      0xffffffffffffffffffffffffffffffffffffffff\n      and\n        /* \"contracts/MarketTest.sol\":4755:4765  msg.sender */\n      caller\n        /* \"contracts/MarketTest.sol\":4755:4783  msg.sender != dataSet.seller */\n      0xffffffffffffffffffffffffffffffffffffffff\n      and\n      sub\n        /* \"contracts/MarketTest.sol\":4747:4818  require(msg.sender != dataSet.seller, \"Sellers cannot rate themselves\") */\n      tag_126\n      jumpi\n      mload(0x40)\n      0x08c379a000000000000000000000000000000000000000000000000000000000\n      dup2\n      mstore\n      0x04\n      add\n      tag_127\n      swap1\n      tag_128\n      jump\t// in\n    tag_127:\n      mload(0x40)\n      dup1\n      swap2\n      sub\n      swap1\n      revert\n    tag_126:\n        /* \"contracts/MarketTest.sol\":4831:4866  SellerReputation storage reputation */\n      0x00\n        /* \"contracts/MarketTest.sol\":4869:4886  sellerReputations */\n      0x05\n        /* \"contracts/MarketTest.sol\":4869:4902  sellerReputations[dataSet.seller] */\n      0x00\n        /* \"contracts/MarketTest.sol\":4887:4894  dataSet */\n      dup4\n        /* \"contracts/MarketTest.sol\":4887:4901  dataSet.seller */\n      0x04\n      add\n      0x01\n      swap1\n      sload\n      swap1\n      0x0100\n      exp\n      swap1\n      div\n      0xffffffffffffffffffffffffffffffffffffffff\n      and\n        /* \"contracts/MarketTest.sol\":4869:4902  sellerReputations[dataSet.seller] */\n      0xffffffffffffffffffffffffffffffffffffffff\n      and\n      0xffffffffffffffffffffffffffffffffffffffff\n      and\n      dup2\n      mstore\n      0x20\n      add\n      swap1\n      dup2\n      mstore\n      0x20\n      add\n      0x00\n      keccak256\n        /* \"contracts/MarketTest.sol\":4831:4902  SellerReputation storage reputation = sellerReputations[dataSet.seller] */\n      swap1\n      pop\n        /* \"contracts/MarketTest.sol\":4913:4923  reputation */\n      dup1\n        /* \"contracts/MarketTest.sol\":4913:4936  reputation.totalRatings */\n      0x00\n      add\n      0x00\n        /* \"contracts/MarketTest.sol\":4913:4938  reputation.totalRatings++ */\n      dup2\n      sload\n      dup1\n      swap3\n      swap2\n      swap1\n      tag_129\n      swap1\n      tag_130\n      jump\t// in\n    tag_129:\n      swap2\n      swap1\n      pop\n      sstore\n      pop\n        /* \"contracts/MarketTest.sol\":4976:4983  _rating */\n      dup3\n        /* \"contracts/MarketTest.sol\":4949:4959  reputation */\n      dup2\n        /* \"contracts/MarketTest.sol\":4949:4972  reputation.sumOfRatings */\n      0x01\n      add\n      0x00\n        /* \"contracts/MarketTest.sol\":4949:4983  reputation.sumOfRatings += _rating */\n      dup3\n      dup3\n      sload\n      tag_131\n      swap2\n      swap1\n      tag_132\n      jump\t// in\n    tag_131:\n      swap3\n      pop\n      pop\n      dup2\n      swap1\n      sstore\n      pop\n        /* \"contracts/MarketTest.sol\":4582:4991  {... */\n      pop\n      pop\n        /* \"contracts/MarketTest.sol\":4518:4991  function rateSeller(uint256 _dataSetId, uint256 _rating) public {... */\n      pop\n      pop\n      jump\t// out\n        /* \"contracts/MarketTest.sol\":840:883  mapping(uint256 => DataSet) public dataSets */\n    tag_40:\n      mstore(0x20, 0x01)\n      dup1\n      0x00\n      mstore\n      keccak256(0x00, 0x40)\n      0x00\n      swap2\n      pop\n      swap1\n      pop\n      dup1\n      0x00\n      add\n      dup1\n      sload\n      tag_133\n      swap1\n      tag_134\n      jump\t// in\n    tag_133:\n      dup1\n      0x1f\n      add\n      0x20\n      dup1\n      swap2\n      div\n      mul\n      0x20\n      add\n      mload(0x40)\n      swap1\n      dup2\n      add\n      0x40\n      mstore\n      dup1\n      swap3\n      swap2\n      swap1\n      dup2\n      dup2\n      mstore\n      0x20\n      add\n      dup3\n      dup1\n      sload\n      tag_135\n      swap1\n      tag_134\n      jump\t// in\n    tag_135:\n      dup1\n      iszero\n      tag_136\n      jumpi\n      dup1\n      0x1f\n      lt\n      tag_137\n      jumpi\n      0x0100\n      dup1\n      dup4\n      sload\n      div\n      mul\n      dup4\n      mstore\n      swap2\n      0x20\n      add\n      swap2\n      jump(tag_136)\n    tag_137:\n      dup3\n      add\n      swap2\n      swap1\n      0x00\n      mstore\n      keccak256(0x00, 0x20)\n      swap1\n    tag_138:\n      dup2\n      sload\n      dup2\n      mstore\n      swap1\n      0x01\n      add\n      swap1\n      0x20\n      add\n      dup1\n      dup4\n      gt\n      tag_138\n      jumpi\n      dup3\n      swap1\n      sub\n      0x1f\n      and\n      dup3\n      add\n      swap2\n    tag_136:\n      pop\n      pop\n      pop\n      pop\n      pop\n      swap1\n      dup1\n      0x01\n      add\n      dup1\n      sload\n      tag_139\n      swap1\n      tag_134\n      jump\t// in\n    tag_139:\n      dup1\n      0x1f\n      add\n      0x20\n      dup1\n      swap2\n      div\n      mul\n      0x20\n      add\n      mload(0x40)\n      swap1\n      dup2\n      add\n      0x40\n      mstore\n      dup1\n      swap3\n      swap2\n      swap1\n      dup2\n      dup2\n      mstore\n      0x20\n      add\n      dup3\n      dup1\n      sload\n      tag_140\n      swap1\n      tag_134\n      jump\t// in\n    tag_140:\n      dup1\n      iszero\n      tag_141\n      jumpi\n      dup1\n      0x1f\n      lt\n      tag_142\n      jumpi\n      0x0100\n      dup1\n      dup4\n      sload\n      div\n      mul\n      dup4\n      mstore\n      swap2\n      0x20\n      add\n      swap2\n      jump(tag_141)\n    tag_142:\n      dup3\n      add\n      swap2\n      swap1\n      0x00\n      mstore\n      keccak256(0x00, 0x20)\n      swap1\n    tag_143:\n      dup2\n      sload\n      dup2\n      mstore\n      swap1\n      0x01\n      add\n      swap1\n      0x20\n      add\n      dup1\n      dup4\n      gt\n      tag_143\n      jumpi\n      dup3\n      swap1\n      sub\n      0x1f\n      and\n      dup3\n      add\n      swap2\n    tag_141:\n      pop\n      pop\n      pop\n      pop\n      pop\n      swap1\n      dup1\n      0x02\n      add\n      sload\n      swap1\n      dup1\n      0x03\n      add\n      sload\n      swap1\n      dup1\n      0x04\n      add\n      0x00\n      swap1\n      sload\n      swap1\n      0x0100\n      exp\n      swap1\n      div\n      0xff\n      and\n      swap1\n      dup1\n      0x04\n      add\n      0x01\n      swap1\n      sload\n      swap1\n      0x0100\n      exp\n      swap1\n      div\n      0xffffffffffffffffffffffffffffffffffffffff\n      and\n      swap1\n      dup1\n      0x05\n      add\n      sload\n      swap1\n      dup1\n      0x06\n      add\n      sload\n      swap1\n      pop\n      dup9\n      jump\t// out\n        /* \"contracts/MarketTest.sol\":1222:1275  uint256 public constant PLATFORM_FEE_PERCENTAGE = 100 */\n    tag_45:\n        /* \"contracts/MarketTest.sol\":1272:1275  100 */\n      0x64\n        /* \"contracts/MarketTest.sol\":1222:1275  uint256 public constant PLATFORM_FEE_PERCENTAGE = 100 */\n      dup2\n      jump\t// out\n        /* \"contracts/MarketTest.sol\":890:944  mapping(bytes32 => uint256) public dataHashToDataSetId */\n    tag_51:\n      mstore(0x20, 0x02)\n      dup1\n      0x00\n      mstore\n      keccak256(0x00, 0x40)\n      0x00\n      swap2\n      pop\n      swap1\n      pop\n      sload\n      dup2\n      jump\t// out\n        /* \"contracts/MarketTest.sol\":1020:1070  mapping(uint256 => Report[]) public dataSetReports */\n    tag_56:\n      mstore(0x20, 0x04)\n      dup2\n      0x00\n      mstore\n      keccak256(0x00, 0x40)\n      dup2\n      dup2\n      sload\n      dup2\n      lt\n      tag_144\n      jumpi\n      0x00\n      dup1\n      revert\n    tag_144:\n      swap1\n      0x00\n      mstore\n      keccak256(0x00, 0x20)\n      swap1\n      0x03\n      mul\n      add\n      0x00\n      swap2\n      pop\n      swap2\n      pop\n      pop\n      dup1\n      0x00\n      add\n      0x00\n      swap1\n      sload\n      swap1\n      0x0100\n      exp\n      swap1\n      div\n      0xffffffffffffffffffffffffffffffffffffffff\n      and\n      swap1\n      dup1\n      0x01\n      add\n      dup1\n      sload\n      tag_146\n      swap1\n      tag_134\n      jump\t// in\n    tag_146:\n      dup1\n      0x1f\n      add\n      0x20\n      dup1\n      swap2\n      div\n      mul\n      0x20\n      add\n      mload(0x40)\n      swap1\n      dup2\n      add\n      0x40\n      mstore\n      dup1\n      swap3\n      swap2\n      swap1\n      dup2\n      dup2\n      mstore\n      0x20\n      add\n      dup3\n      dup1\n      sload\n      tag_147\n      swap1\n      tag_134\n      jump\t// in\n    tag_147:\n      dup1\n      iszero\n      tag_148\n      jumpi\n      dup1\n      0x1f\n      lt\n      tag_149\n      jumpi\n      0x0100\n      dup1\n      dup4\n      sload\n      div\n      mul\n      dup4\n      mstore\n      swap2\n      0x20\n      add\n      swap2\n      jump(tag_148)\n    tag_149:\n      dup3\n      add\n      swap2\n      swap1\n      0x00\n      mstore\n      keccak256(0x00, 0x20)\n      swap1\n    tag_150:\n      dup2\n      sload\n      dup2\n      mstore\n      swap1\n      0x01\n      add\n      swap1\n      0x20\n      add\n      dup1\n      dup4\n      gt\n      tag_150\n      jumpi\n      dup3\n      swap1\n      sub\n      0x1f\n      and\n      dup3\n      add\n      swap2\n    tag_148:\n      pop\n      pop\n      pop\n      pop\n      pop\n      swap1\n      dup1\n      0x02\n      add\n      sload\n      swap1\n      pop\n      dup4\n      jump\t// out\n        /* \"contracts/MarketTest.sol\":1145:1172  uint256 public dataSetCount */\n    tag_61:\n      sload(0x06)\n      dup2\n      jump\t// out\n        /* \"contracts/MarketTest.sol\":1179:1215  address payable public platformOwner */\n    tag_65:\n      0x07\n      0x00\n      swap1\n      sload\n      swap1\n      0x0100\n      exp\n      swap1\n      div\n      0xffffffffffffffffffffffffffffffffffffffff\n      and\n      dup2\n      jump\t// out\n        /* \"contracts/MarketTest.sol\":1837:2233  function registerUser(string memory _name, string memory _email, bool _isDataSeller, bool _isDataBuyer) public {... */\n    tag_72:\n        /* \"contracts/MarketTest.sol\":1968:1973  users */\n      0x00\n        /* \"contracts/MarketTest.sol\":1968:1985  users[msg.sender] */\n      dup1\n        /* \"contracts/MarketTest.sol\":1974:1984  msg.sender */\n      caller\n        /* \"contracts/MarketTest.sol\":1968:1985  users[msg.sender] */\n      0xffffffffffffffffffffffffffffffffffffffff\n      and\n      0xffffffffffffffffffffffffffffffffffffffff\n      and\n      dup2\n      mstore\n      0x20\n      add\n      swap1\n      dup2\n      mstore\n      0x20\n      add\n      0x00\n      keccak256\n        /* \"contracts/MarketTest.sol\":1968:1998  users[msg.sender].isDataSeller */\n      0x02\n      add\n      0x00\n      swap1\n      sload\n      swap1\n      0x0100\n      exp\n      swap1\n      div\n      0xff\n      and\n        /* \"contracts/MarketTest.sol\":1967:1998  !users[msg.sender].isDataSeller */\n      iszero\n        /* \"contracts/MarketTest.sol\":1967:2032  !users[msg.sender].isDataSeller && !users[msg.sender].isDataBuyer */\n      dup1\n      iszero\n      tag_152\n      jumpi\n      pop\n        /* \"contracts/MarketTest.sol\":2003:2008  users */\n      0x00\n        /* \"contracts/MarketTest.sol\":2003:2020  users[msg.sender] */\n      dup1\n        /* \"contracts/MarketTest.sol\":2009:2019  msg.sender */\n      caller\n        /* \"contracts/MarketTest.sol\":2003:2020  users[msg.sender] */\n      0xffffffffffffffffffffffffffffffffffffffff\n      and\n      0xffffffffffffffffffffffffffffffffffffffff\n      and\n      dup2\n      mstore\n      0x20\n      add\n      swap1\n      dup2\n      mstore\n      0x20\n      add\n      0x00\n      keccak256\n        /* \"contracts/MarketTest.sol\":2003:2032  users[msg.sender].isDataBuyer */\n      0x02\n      add\n      0x01\n      swap1\n      sload\n      swap1\n      0x0100\n      exp\n      swap1\n      div\n      0xff\n      and\n        /* \"contracts/MarketTest.sol\":2002:2032  !users[msg.sender].isDataBuyer */\n      iszero\n        /* \"contracts/MarketTest.sol\":1967:2032  !users[msg.sender].isDataSeller && !users[msg.sender].isDataBuyer */\n    tag_152:\n        /* \"contracts/MarketTest.sol\":1959:2060  require(!users[msg.sender].isDataSeller && !users[msg.sender].isDataBuyer, \"User already registered\") */\n      tag_153\n      jumpi\n      mload(0x40)\n      0x08c379a000000000000000000000000000000000000000000000000000000000\n      dup2\n      mstore\n      0x04\n      add\n      tag_154\n      swap1\n      tag_155\n      jump\t// in\n    tag_154:\n      mload(0x40)\n      dup1\n      swap2\n      sub\n      swap1\n      revert\n    tag_153:\n        /* \"contracts/MarketTest.sol\":2091:2139  User(_name, _email, _isDataSeller, _isDataBuyer) */\n      mload(0x40)\n      dup1\n      0x80\n      add\n      0x40\n      mstore\n      dup1\n        /* \"contracts/MarketTest.sol\":2096:2101  _name */\n      dup6\n        /* \"contracts/MarketTest.sol\":2091:2139  User(_name, _email, _isDataSeller, _isDataBuyer) */\n      dup2\n      mstore\n      0x20\n      add\n        /* \"contracts/MarketTest.sol\":2103:2109  _email */\n      dup5\n        /* \"contracts/MarketTest.sol\":2091:2139  User(_name, _email, _isDataSeller, _isDataBuyer) */\n      dup2\n      mstore\n      0x20\n      add\n        /* \"contracts/MarketTest.sol\":2111:2124  _isDataSeller */\n      dup4\n        /* \"contracts/MarketTest.sol\":2091:2139  User(_name, _email, _isDataSeller, _isDataBuyer) */\n      iszero\n      iszero\n      dup2\n      mstore\n      0x20\n      add\n        /* \"contracts/MarketTest.sol\":2126:2138  _isDataBuyer */\n      dup3\n        /* \"contracts/MarketTest.sol\":2091:2139  User(_name, _email, _isDataSeller, _isDataBuyer) */\n      iszero\n      iszero\n      dup2\n      mstore\n      pop\n        /* \"contracts/MarketTest.sol\":2071:2076  users */\n      0x00\n        /* \"contracts/MarketTest.sol\":2071:2088  users[msg.sender] */\n      dup1\n        /* \"contracts/MarketTest.sol\":2077:2087  msg.sender */\n      caller\n        /* \"contracts/MarketTest.sol\":2071:2088  users[msg.sender] */\n      0xffffffffffffffffffffffffffffffffffffffff\n      and\n      0xffffffffffffffffffffffffffffffffffffffff\n      and\n      dup2\n      mstore\n      0x20\n      add\n      swap1\n      dup2\n      mstore\n      0x20\n      add\n      0x00\n      keccak256\n        /* \"contracts/MarketTest.sol\":2071:2139  users[msg.sender] = User(_name, _email, _isDataSeller, _isDataBuyer) */\n      0x00\n      dup3\n      add\n      mload\n      dup2\n      0x00\n      add\n      swap1\n      dup2\n      tag_156\n      swap2\n      swap1\n      tag_157\n      jump\t// in\n    tag_156:\n      pop\n      0x20\n      dup3\n      add\n      mload\n      dup2\n      0x01\n      add\n      swap1\n      dup2\n      tag_158\n      swap2\n      swap1\n      tag_157\n      jump\t// in\n    tag_158:\n      pop\n      0x40\n      dup3\n      add\n      mload\n      dup2\n      0x02\n      add\n      exp(0x0100, 0x00)\n      dup2\n      sload\n      dup2\n      0xff\n      mul\n      not\n      and\n      swap1\n      dup4\n      iszero\n      iszero\n      mul\n      or\n      swap1\n      sstore\n      pop\n      0x60\n      dup3\n      add\n      mload\n      dup2\n      0x02\n      add\n      exp(0x0100, 0x01)\n      dup2\n      sload\n      dup2\n      0xff\n      mul\n      not\n      and\n      swap1\n      dup4\n      iszero\n      iszero\n      mul\n      or\n      swap1\n      sstore\n      pop\n      swap1\n      pop\n      pop\n        /* \"contracts/MarketTest.sol\":2170:2180  msg.sender */\n      caller\n        /* \"contracts/MarketTest.sol\":2155:2225  UserRegistered(msg.sender, _name, _email, _isDataSeller, _isDataBuyer) */\n      0xffffffffffffffffffffffffffffffffffffffff\n      and\n      0xb56f6343b750b88da4b33d9b5a10ab1313d0c619682bc36fdfbb8bdfb4789fcf\n        /* \"contracts/MarketTest.sol\":2182:2187  _name */\n      dup6\n        /* \"contracts/MarketTest.sol\":2189:2195  _email */\n      dup6\n        /* \"contracts/MarketTest.sol\":2197:2210  _isDataSeller */\n      dup6\n        /* \"contracts/MarketTest.sol\":2212:2224  _isDataBuyer */\n      dup6\n        /* \"contracts/MarketTest.sol\":2155:2225  UserRegistered(msg.sender, _name, _email, _isDataSeller, _isDataBuyer) */\n      mload(0x40)\n      tag_159\n      swap5\n      swap4\n      swap3\n      swap2\n      swap1\n      tag_92\n      jump\t// in\n    tag_159:\n      mload(0x40)\n      dup1\n      swap2\n      sub\n      swap1\n      log2\n        /* \"contracts/MarketTest.sol\":1837:2233  function registerUser(string memory _name, string memory _email, bool _isDataSeller, bool _isDataBuyer) public {... */\n      pop\n      pop\n      pop\n      pop\n      jump\t// out\n        /* \"contracts/MarketTest.sol\":4230:4510  function reportDataSet(uint256 _dataSetId, string memory _description) public {... */\n    tag_77:\n        /* \"contracts/MarketTest.sol\":4327:4332  users */\n      0x00\n        /* \"contracts/MarketTest.sol\":4327:4344  users[msg.sender] */\n      dup1\n        /* \"contracts/MarketTest.sol\":4333:4343  msg.sender */\n      caller\n        /* \"contracts/MarketTest.sol\":4327:4344  users[msg.sender] */\n      0xffffffffffffffffffffffffffffffffffffffff\n      and\n      0xffffffffffffffffffffffffffffffffffffffff\n      and\n      dup2\n      mstore\n      0x20\n      add\n      swap1\n      dup2\n      mstore\n      0x20\n      add\n      0x00\n      keccak256\n        /* \"contracts/MarketTest.sol\":4327:4356  users[msg.sender].isDataBuyer */\n      0x02\n      add\n      0x01\n      swap1\n      sload\n      swap1\n      0x0100\n      exp\n      swap1\n      div\n      0xff\n      and\n        /* \"contracts/MarketTest.sol\":4319:4409  require(users[msg.sender].isDataBuyer, \"Only registered data buyers can report data sets\") */\n      tag_161\n      jumpi\n      mload(0x40)\n      0x08c379a000000000000000000000000000000000000000000000000000000000\n      dup2\n      mstore\n      0x04\n      add\n      tag_162\n      swap1\n      tag_163\n      jump\t// in\n    tag_162:\n      mload(0x40)\n      dup1\n      swap2\n      sub\n      swap1\n      revert\n    tag_161:\n        /* \"contracts/MarketTest.sol\":4420:4434  dataSetReports */\n      0x04\n        /* \"contracts/MarketTest.sol\":4420:4446  dataSetReports[_dataSetId] */\n      0x00\n        /* \"contracts/MarketTest.sol\":4435:4445  _dataSetId */\n      dup4\n        /* \"contracts/MarketTest.sol\":4420:4446  dataSetReports[_dataSetId] */\n      dup2\n      mstore\n      0x20\n      add\n      swap1\n      dup2\n      mstore\n      0x20\n      add\n      0x00\n      keccak256\n        /* \"contracts/MarketTest.sol\":4452:4501  Report(msg.sender, _description, block.timestamp) */\n      mload(0x40)\n      dup1\n      0x60\n      add\n      0x40\n      mstore\n      dup1\n        /* \"contracts/MarketTest.sol\":4459:4469  msg.sender */\n      caller\n        /* \"contracts/MarketTest.sol\":4452:4501  Report(msg.sender, _description, block.timestamp) */\n      0xffffffffffffffffffffffffffffffffffffffff\n      and\n      dup2\n      mstore\n      0x20\n      add\n        /* \"contracts/MarketTest.sol\":4471:4483  _description */\n      dup4\n        /* \"contracts/MarketTest.sol\":4452:4501  Report(msg.sender, _description, block.timestamp) */\n      dup2\n      mstore\n      0x20\n      add\n        /* \"contracts/MarketTest.sol\":4485:4500  block.timestamp */\n      timestamp\n        /* \"contracts/MarketTest.sol\":4452:4501  Report(msg.sender, _description, block.timestamp) */\n      dup2\n      mstore\n      pop\n        /* \"contracts/MarketTest.sol\":4420:4502  dataSetReports[_dataSetId].push(Report(msg.sender, _description, block.timestamp)) */\n      swap1\n      dup1\n      0x01\n      dup2\n      sload\n      add\n      dup1\n      dup3\n      sstore\n      dup1\n      swap2\n      pop\n      pop\n      0x01\n      swap1\n      sub\n      swap1\n      0x00\n      mstore\n      keccak256(0x00, 0x20)\n      swap1\n      0x03\n      mul\n      add\n      0x00\n      swap1\n      swap2\n      swap1\n      swap2\n      swap1\n      swap2\n      pop\n      0x00\n      dup3\n      add\n      mload\n      dup2\n      0x00\n      add\n      exp(0x0100, 0x00)\n      dup2\n      sload\n      dup2\n      0xffffffffffffffffffffffffffffffffffffffff\n      mul\n      not\n      and\n      swap1\n      dup4\n      0xffffffffffffffffffffffffffffffffffffffff\n      and\n      mul\n      or\n      swap1\n      sstore\n      pop\n      0x20\n      dup3\n      add\n      mload\n      dup2\n      0x01\n      add\n      swap1\n      dup2\n      tag_165\n      swap2\n      swap1\n      tag_157\n      jump\t// in\n    tag_165:\n      pop\n      0x40\n      dup3\n      add\n      mload\n      dup2\n      0x02\n      add\n      sstore\n      pop\n      pop\n        /* \"contracts/MarketTest.sol\":4230:4510  function reportDataSet(uint256 _dataSetId, string memory _description) public {... */\n      pop\n      pop\n      jump\t// out\n        /* \"contracts/MarketTest.sol\":2909:3362  function setEncryptionKey(uint256 _dataSetId, bytes32 _key, address[] memory _authorizedBuyers) public {... */\n    tag_82:\n        /* \"contracts/MarketTest.sol\":3031:3036  users */\n      0x00\n        /* \"contracts/MarketTest.sol\":3031:3048  users[msg.sender] */\n      dup1\n        /* \"contracts/MarketTest.sol\":3037:3047  msg.sender */\n      caller\n        /* \"contracts/MarketTest.sol\":3031:3048  users[msg.sender] */\n      0xffffffffffffffffffffffffffffffffffffffff\n      and\n      0xffffffffffffffffffffffffffffffffffffffff\n      and\n      dup2\n      mstore\n      0x20\n      add\n      swap1\n      dup2\n      mstore\n      0x20\n      add\n      0x00\n      keccak256\n        /* \"contracts/MarketTest.sol\":3031:3061  users[msg.sender].isDataSeller */\n      0x02\n      add\n      0x00\n      swap1\n      sload\n      swap1\n      0x0100\n      exp\n      swap1\n      div\n      0xff\n      and\n        /* \"contracts/MarketTest.sol\":3023:3118  require(users[msg.sender].isDataSeller, \"Only registered data sellers can set encryption keys\") */\n      tag_167\n      jumpi\n      mload(0x40)\n      0x08c379a000000000000000000000000000000000000000000000000000000000\n      dup2\n      mstore\n      0x04\n      add\n      tag_168\n      swap1\n      tag_169\n      jump\t// in\n    tag_168:\n      mload(0x40)\n      dup1\n      swap2\n      sub\n      swap1\n      revert\n    tag_167:\n        /* \"contracts/MarketTest.sol\":3129:3152  DataSet storage dataSet */\n      0x00\n        /* \"contracts/MarketTest.sol\":3155:3163  dataSets */\n      0x01\n        /* \"contracts/MarketTest.sol\":3155:3175  dataSets[_dataSetId] */\n      0x00\n        /* \"contracts/MarketTest.sol\":3164:3174  _dataSetId */\n      dup6\n        /* \"contracts/MarketTest.sol\":3155:3175  dataSets[_dataSetId] */\n      dup2\n      mstore\n      0x20\n      add\n      swap1\n      dup2\n      mstore\n      0x20\n      add\n      0x00\n      keccak256\n        /* \"contracts/MarketTest.sol\":3129:3175  DataSet storage dataSet = dataSets[_dataSetId] */\n      swap1\n      pop\n        /* \"contracts/MarketTest.sol\":3212:3222  msg.sender */\n      caller\n        /* \"contracts/MarketTest.sol\":3194:3222  dataSet.seller == msg.sender */\n      0xffffffffffffffffffffffffffffffffffffffff\n      and\n        /* \"contracts/MarketTest.sol\":3194:3201  dataSet */\n      dup2\n        /* \"contracts/MarketTest.sol\":3194:3208  dataSet.seller */\n      0x04\n      add\n      0x01\n      swap1\n      sload\n      swap1\n      0x0100\n      exp\n      swap1\n      div\n      0xffffffffffffffffffffffffffffffffffffffff\n      and\n        /* \"contracts/MarketTest.sol\":3194:3222  dataSet.seller == msg.sender */\n      0xffffffffffffffffffffffffffffffffffffffff\n      and\n      eq\n        /* \"contracts/MarketTest.sol\":3186:3269  require(dataSet.seller == msg.sender, \"Only the seller can set the encryption key\") */\n      tag_170\n      jumpi\n      mload(0x40)\n      0x08c379a000000000000000000000000000000000000000000000000000000000\n      dup2\n      mstore\n      0x04\n      add\n      tag_171\n      swap1\n      tag_172\n      jump\t// in\n    tag_171:\n      mload(0x40)\n      dup1\n      swap2\n      sub\n      swap1\n      revert\n    tag_170:\n        /* \"contracts/MarketTest.sol\":3316:3354  EncryptionKey(_key, _authorizedBuyers) */\n      mload(0x40)\n      dup1\n      0x40\n      add\n      0x40\n      mstore\n      dup1\n        /* \"contracts/MarketTest.sol\":3330:3334  _key */\n      dup5\n        /* \"contracts/MarketTest.sol\":3316:3354  EncryptionKey(_key, _authorizedBuyers) */\n      dup2\n      mstore\n      0x20\n      add\n        /* \"contracts/MarketTest.sol\":3336:3353  _authorizedBuyers */\n      dup4\n        /* \"contracts/MarketTest.sol\":3316:3354  EncryptionKey(_key, _authorizedBuyers) */\n      dup2\n      mstore\n      pop\n        /* \"contracts/MarketTest.sol\":3280:3301  dataSetEncryptionKeys */\n      0x03\n        /* \"contracts/MarketTest.sol\":3280:3313  dataSetEncryptionKeys[_dataSetId] */\n      0x00\n        /* \"contracts/MarketTest.sol\":3302:3312  _dataSetId */\n      dup7\n        /* \"contracts/MarketTest.sol\":3280:3313  dataSetEncryptionKeys[_dataSetId] */\n      dup2\n      mstore\n      0x20\n      add\n      swap1\n      dup2\n      mstore\n      0x20\n      add\n      0x00\n      keccak256\n        /* \"contracts/MarketTest.sol\":3280:3354  dataSetEncryptionKeys[_dataSetId] = EncryptionKey(_key, _authorizedBuyers) */\n      0x00\n      dup3\n      add\n      mload\n      dup2\n      0x00\n      add\n      sstore\n      0x20\n      dup3\n      add\n      mload\n      dup2\n      0x01\n      add\n      swap1\n      dup1\n      mload\n      swap1\n      0x20\n      add\n      swap1\n      tag_173\n      swap3\n      swap2\n      swap1\n      tag_174\n      jump\t// in\n    tag_173:\n      pop\n      swap1\n      pop\n      pop\n        /* \"contracts/MarketTest.sol\":3012:3362  {... */\n      pop\n        /* \"contracts/MarketTest.sol\":2909:3362  function setEncryptionKey(uint256 _dataSetId, bytes32 _key, address[] memory _authorizedBuyers) public {... */\n      pop\n      pop\n      pop\n      jump\t// out\n        /* \"contracts/MarketTest.sol\":3370:4222  function purchaseDataSet(uint256 _dataSetId) public payable {... */\n    tag_85:\n        /* \"contracts/MarketTest.sol\":3449:3454  users */\n      0x00\n        /* \"contracts/MarketTest.sol\":3449:3466  users[msg.sender] */\n      dup1\n        /* \"contracts/MarketTest.sol\":3455:3465  msg.sender */\n      caller\n        /* \"contracts/MarketTest.sol\":3449:3466  users[msg.sender] */\n      0xffffffffffffffffffffffffffffffffffffffff\n      and\n      0xffffffffffffffffffffffffffffffffffffffff\n      and\n      dup2\n      mstore\n      0x20\n      add\n      swap1\n      dup2\n      mstore\n      0x20\n      add\n      0x00\n      keccak256\n        /* \"contracts/MarketTest.sol\":3449:3478  users[msg.sender].isDataBuyer */\n      0x02\n      add\n      0x01\n      swap1\n      sload\n      swap1\n      0x0100\n      exp\n      swap1\n      div\n      0xff\n      and\n        /* \"contracts/MarketTest.sol\":3441:3533  require(users[msg.sender].isDataBuyer, \"Only registered data buyers can purchase data sets\") */\n      tag_176\n      jumpi\n      mload(0x40)\n      0x08c379a000000000000000000000000000000000000000000000000000000000\n      dup2\n      mstore\n      0x04\n      add\n      tag_177\n      swap1\n      tag_178\n      jump\t// in\n    tag_177:\n      mload(0x40)\n      dup1\n      swap2\n      sub\n      swap1\n      revert\n    tag_176:\n        /* \"contracts/MarketTest.sol\":3544:3567  DataSet storage dataSet */\n      0x00\n        /* \"contracts/MarketTest.sol\":3570:3578  dataSets */\n      0x01\n        /* \"contracts/MarketTest.sol\":3570:3590  dataSets[_dataSetId] */\n      0x00\n        /* \"contracts/MarketTest.sol\":3579:3589  _dataSetId */\n      dup4\n        /* \"contracts/MarketTest.sol\":3570:3590  dataSets[_dataSetId] */\n      dup2\n      mstore\n      0x20\n      add\n      swap1\n      dup2\n      mstore\n      0x20\n      add\n      0x00\n      keccak256\n        /* \"contracts/MarketTest.sol\":3544:3590  DataSet storage dataSet = dataSets[_dataSetId] */\n      swap1\n      pop\n        /* \"contracts/MarketTest.sol\":3635:3636  0 */\n      0x00\n        /* \"contracts/MarketTest.sol\":3609:3637  dataSet.seller != address(0) */\n      0xffffffffffffffffffffffffffffffffffffffff\n      and\n        /* \"contracts/MarketTest.sol\":3609:3616  dataSet */\n      dup2\n        /* \"contracts/MarketTest.sol\":3609:3623  dataSet.seller */\n      0x04\n      add\n      0x01\n      swap1\n      sload\n      swap1\n      0x0100\n      exp\n      swap1\n      div\n      0xffffffffffffffffffffffffffffffffffffffff\n      and\n        /* \"contracts/MarketTest.sol\":3609:3637  dataSet.seller != address(0) */\n      0xffffffffffffffffffffffffffffffffffffffff\n      and\n      sub\n        /* \"contracts/MarketTest.sol\":3601:3661  require(dataSet.seller != address(0), \"Invalid data set ID\") */\n      tag_179\n      jumpi\n      mload(0x40)\n      0x08c379a000000000000000000000000000000000000000000000000000000000\n      dup2\n      mstore\n      0x04\n      add\n      tag_180\n      swap1\n      tag_181\n      jump\t// in\n    tag_180:\n      mload(0x40)\n      dup1\n      swap2\n      sub\n      swap1\n      revert\n    tag_179:\n        /* \"contracts/MarketTest.sol\":3695:3702  dataSet */\n      dup1\n        /* \"contracts/MarketTest.sol\":3695:3708  dataSet.price */\n      0x03\n      add\n      sload\n        /* \"contracts/MarketTest.sol\":3682:3691  msg.value */\n      callvalue\n        /* \"contracts/MarketTest.sol\":3682:3708  msg.value >= dataSet.price */\n      lt\n      iszero\n        /* \"contracts/MarketTest.sol\":3674:3737  require(msg.value >= dataSet.price, \"Incorrect payment amount\") */\n      tag_182\n      jumpi\n      mload(0x40)\n      0x08c379a000000000000000000000000000000000000000000000000000000000\n      dup2\n      mstore\n      0x04\n      add\n      tag_183\n      swap1\n      tag_184\n      jump\t// in\n    tag_183:\n      mload(0x40)\n      dup1\n      swap2\n      sub\n      swap1\n      revert\n    tag_182:\n        /* \"contracts/MarketTest.sol\":3750:3769  uint256 platformFee */\n      0x00\n        /* \"contracts/MarketTest.sol\":3816:3819  100 */\n      0x64\n        /* \"contracts/MarketTest.sol\":1272:1275  100 */\n      dup1\n        /* \"contracts/MarketTest.sol\":3773:3780  dataSet */\n      dup4\n        /* \"contracts/MarketTest.sol\":3773:3786  dataSet.price */\n      0x03\n      add\n      sload\n        /* \"contracts/MarketTest.sol\":3773:3812  dataSet.price * PLATFORM_FEE_PERCENTAGE */\n      tag_185\n      swap2\n      swap1\n      tag_186\n      jump\t// in\n    tag_185:\n        /* \"contracts/MarketTest.sol\":3772:3819  (dataSet.price * PLATFORM_FEE_PERCENTAGE) / 100 */\n      tag_187\n      swap2\n      swap1\n      tag_188\n      jump\t// in\n    tag_187:\n        /* \"contracts/MarketTest.sol\":3750:3819  uint256 platformFee = (dataSet.price * PLATFORM_FEE_PERCENTAGE) / 100 */\n      swap1\n      pop\n        /* \"contracts/MarketTest.sol\":3830:3850  uint256 sellerAmount */\n      0x00\n        /* \"contracts/MarketTest.sol\":3869:3880  platformFee */\n      dup2\n        /* \"contracts/MarketTest.sol\":3853:3860  dataSet */\n      dup4\n        /* \"contracts/MarketTest.sol\":3853:3866  dataSet.price */\n      0x03\n      add\n      sload\n        /* \"contracts/MarketTest.sol\":3853:3880  dataSet.price - platformFee */\n      tag_189\n      swap2\n      swap1\n      tag_190\n      jump\t// in\n    tag_189:\n        /* \"contracts/MarketTest.sol\":3830:3880  uint256 sellerAmount = dataSet.price - platformFee */\n      swap1\n      pop\n        /* \"contracts/MarketTest.sol\":3893:3906  platformOwner */\n      0x07\n      0x00\n      swap1\n      sload\n      swap1\n      0x0100\n      exp\n      swap1\n      div\n      0xffffffffffffffffffffffffffffffffffffffff\n      and\n        /* \"contracts/MarketTest.sol\":3893:3915  platformOwner.transfer */\n      0xffffffffffffffffffffffffffffffffffffffff\n      and\n        /* \"contracts/MarketTest.sol\":3893:3928  platformOwner.transfer(platformFee) */\n      0x08fc\n        /* \"contracts/MarketTest.sol\":3916:3927  platformFee */\n      dup4\n        /* \"contracts/MarketTest.sol\":3893:3928  platformOwner.transfer(platformFee) */\n      swap1\n      dup2\n      iszero\n      mul\n      swap1\n      mload(0x40)\n      0x00\n      mload(0x40)\n      dup1\n      dup4\n      sub\n      dup2\n      dup6\n      dup9\n      dup9\n      call\n      swap4\n      pop\n      pop\n      pop\n      pop\n      iszero\n      dup1\n      iszero\n      tag_192\n      jumpi\n      returndatasize\n      0x00\n      dup1\n      returndatacopy\n      revert(0x00, returndatasize)\n    tag_192:\n      pop\n        /* \"contracts/MarketTest.sol\":3939:3946  dataSet */\n      dup3\n        /* \"contracts/MarketTest.sol\":3939:3953  dataSet.seller */\n      0x04\n      add\n      0x01\n      swap1\n      sload\n      swap1\n      0x0100\n      exp\n      swap1\n      div\n      0xffffffffffffffffffffffffffffffffffffffff\n      and\n        /* \"contracts/MarketTest.sol\":3939:3962  dataSet.seller.transfer */\n      0xffffffffffffffffffffffffffffffffffffffff\n      and\n        /* \"contracts/MarketTest.sol\":3939:3976  dataSet.seller.transfer(sellerAmount) */\n      0x08fc\n        /* \"contracts/MarketTest.sol\":3963:3975  sellerAmount */\n      dup3\n        /* \"contracts/MarketTest.sol\":3939:3976  dataSet.seller.transfer(sellerAmount) */\n      swap1\n      dup2\n      iszero\n      mul\n      swap1\n      mload(0x40)\n      0x00\n      mload(0x40)\n      dup1\n      dup4\n      sub\n      dup2\n      dup6\n      dup9\n      dup9\n      call\n      swap4\n      pop\n      pop\n      pop\n      pop\n      iszero\n      dup1\n      iszero\n      tag_194\n      jumpi\n      returndatasize\n      0x00\n      dup1\n      returndatacopy\n      revert(0x00, returndatasize)\n    tag_194:\n      pop\n        /* \"contracts/MarketTest.sol\":3989:4010  dataSetEncryptionKeys */\n      0x03\n        /* \"contracts/MarketTest.sol\":3989:4022  dataSetEncryptionKeys[_dataSetId] */\n      0x00\n        /* \"contracts/MarketTest.sol\":4011:4021  _dataSetId */\n      dup6\n        /* \"contracts/MarketTest.sol\":3989:4022  dataSetEncryptionKeys[_dataSetId] */\n      dup2\n      mstore\n      0x20\n      add\n      swap1\n      dup2\n      mstore\n      0x20\n      add\n      0x00\n      keccak256\n        /* \"contracts/MarketTest.sol\":3989:4039  dataSetEncryptionKeys[_dataSetId].authorizedBuyers */\n      0x01\n      add\n        /* \"contracts/MarketTest.sol\":4045:4055  msg.sender */\n      caller\n        /* \"contracts/MarketTest.sol\":3989:4056  dataSetEncryptionKeys[_dataSetId].authorizedBuyers.push(msg.sender) */\n      swap1\n      dup1\n      0x01\n      dup2\n      sload\n      add\n      dup1\n      dup3\n      sstore\n      dup1\n      swap2\n      pop\n      pop\n      0x01\n      swap1\n      sub\n      swap1\n      0x00\n      mstore\n      keccak256(0x00, 0x20)\n      add\n      0x00\n      swap1\n      swap2\n      swap1\n      swap2\n      swap1\n      swap2\n      0x0100\n      exp\n      dup2\n      sload\n      dup2\n      0xffffffffffffffffffffffffffffffffffffffff\n      mul\n      not\n      and\n      swap1\n      dup4\n      0xffffffffffffffffffffffffffffffffffffffff\n      and\n      mul\n      or\n      swap1\n      sstore\n      pop\n        /* \"contracts/MarketTest.sol\":4108:4123  block.timestamp */\n      timestamp\n        /* \"contracts/MarketTest.sol\":4067:4075  dataSets */\n      0x01\n        /* \"contracts/MarketTest.sol\":4067:4087  dataSets[_dataSetId] */\n      0x00\n        /* \"contracts/MarketTest.sol\":4076:4086  _dataSetId */\n      dup7\n        /* \"contracts/MarketTest.sol\":4067:4087  dataSets[_dataSetId] */\n      dup2\n      mstore\n      0x20\n      add\n      swap1\n      dup2\n      mstore\n      0x20\n      add\n      0x00\n      keccak256\n        /* \"contracts/MarketTest.sol\":4067:4105  dataSets[_dataSetId].purchaseTimestamp */\n      0x06\n      add\n        /* \"contracts/MarketTest.sol\":4067:4123  dataSets[_dataSetId].purchaseTimestamp = block.timestamp */\n      dup2\n      swap1\n      sstore\n      pop\n        /* \"contracts/MarketTest.sol\":4170:4180  msg.sender */\n      caller\n        /* \"contracts/MarketTest.sol\":4141:4214  DataSetPurchased(_dataSetId, msg.sender, dataSet.price, dataSet.dataHash) */\n      0xffffffffffffffffffffffffffffffffffffffff\n      and\n        /* \"contracts/MarketTest.sol\":4158:4168  _dataSetId */\n      dup5\n        /* \"contracts/MarketTest.sol\":4141:4214  DataSetPurchased(_dataSetId, msg.sender, dataSet.price, dataSet.dataHash) */\n      0xfb08275d0d7cf05c65ce58a6d8d7f027f5bd3e93df2fd4962b96e26ec1939ea0\n        /* \"contracts/MarketTest.sol\":4182:4189  dataSet */\n      dup6\n        /* \"contracts/MarketTest.sol\":4182:4195  dataSet.price */\n      0x03\n      add\n      sload\n        /* \"contracts/MarketTest.sol\":4197:4204  dataSet */\n      dup7\n        /* \"contracts/MarketTest.sol\":4197:4213  dataSet.dataHash */\n      0x02\n      add\n      sload\n        /* \"contracts/MarketTest.sol\":4141:4214  DataSetPurchased(_dataSetId, msg.sender, dataSet.price, dataSet.dataHash) */\n      mload(0x40)\n      tag_196\n      swap3\n      swap2\n      swap1\n      tag_197\n      jump\t// in\n    tag_196:\n      mload(0x40)\n      dup1\n      swap2\n      sub\n      swap1\n      log3\n        /* \"contracts/MarketTest.sol\":3430:4222  {... */\n      pop\n      pop\n      pop\n        /* \"contracts/MarketTest.sol\":3370:4222  function purchaseDataSet(uint256 _dataSetId) public payable {... */\n      pop\n      jump\t// out\n        /* \"contracts/MarketTest.sol\":796:833  mapping(address => User) public users */\n    tag_90:\n      mstore(0x20, 0x00)\n      dup1\n      0x00\n      mstore\n      keccak256(0x00, 0x40)\n      0x00\n      swap2\n      pop\n      swap1\n      pop\n      dup1\n      0x00\n      add\n      dup1\n      sload\n      tag_198\n      swap1\n      tag_134\n      jump\t// in\n    tag_198:\n      dup1\n      0x1f\n      add\n      0x20\n      dup1\n      swap2\n      div\n      mul\n      0x20\n      add\n      mload(0x40)\n      swap1\n      dup2\n      add\n      0x40\n      mstore\n      dup1\n      swap3\n      swap2\n      swap1\n      dup2\n      dup2\n      mstore\n      0x20\n      add\n      dup3\n      dup1\n      sload\n      tag_199\n      swap1\n      tag_134\n      jump\t// in\n    tag_199:\n      dup1\n      iszero\n      tag_200\n      jumpi\n      dup1\n      0x1f\n      lt\n      tag_201\n      jumpi\n      0x0100\n      dup1\n      dup4\n      sload\n      div\n      mul\n      dup4\n      mstore\n      swap2\n      0x20\n      add\n      swap2\n      jump(tag_200)\n    tag_201:\n      dup3\n      add\n      swap2\n      swap1\n      0x00\n      mstore\n      keccak256(0x00, 0x20)\n      swap1\n    tag_202:\n      dup2\n      sload\n      dup2\n      mstore\n      swap1\n      0x01\n      add\n      swap1\n      0x20\n      add\n      dup1\n      dup4\n      gt\n      tag_202\n      jumpi\n      dup3\n      swap1\n      sub\n      0x1f\n      and\n      dup3\n      add\n      swap2\n    tag_200:\n      pop\n      pop\n      pop\n      pop\n      pop\n      swap1\n      dup1\n      0x01\n      add\n      dup1\n      sload\n      tag_203\n      swap1\n      tag_134\n      jump\t// in\n    tag_203:\n      dup1\n      0x1f\n      add\n      0x20\n      dup1\n      swap2\n      div\n      mul\n      0x20\n      add\n      mload(0x40)\n      swap1\n      dup2\n      add\n      0x40\n      mstore\n      dup1\n      swap3\n      swap2\n      swap1\n      dup2\n      dup2\n      mstore\n      0x20\n      add\n      dup3\n      dup1\n      sload\n      tag_204\n      swap1\n      tag_134\n      jump\t// in\n    tag_204:\n      dup1\n      iszero\n      tag_205\n      jumpi\n      dup1\n      0x1f\n      lt\n      tag_206\n      jumpi\n      0x0100\n      dup1\n      dup4\n      sload\n      div\n      mul\n      dup4\n      mstore\n      swap2\n      0x20\n      add\n      swap2\n      jump(tag_205)\n    tag_206:\n      dup3\n      add\n      swap2\n      swap1\n      0x00\n      mstore\n      keccak256(0x00, 0x20)\n      swap1\n    tag_207:\n      dup2\n      sload\n      dup2\n      mstore\n      swap1\n      0x01\n      add\n      swap1\n      0x20\n      add\n      dup1\n      dup4\n      gt\n      tag_207\n      jumpi\n      dup3\n      swap1\n      sub\n      0x1f\n      and\n      dup3\n      add\n      swap2\n    tag_205:\n      pop\n      pop\n      pop\n      pop\n      pop\n      swap1\n      dup1\n      0x02\n      add\n      0x00\n      swap1\n      sload\n      swap1\n      0x0100\n      exp\n      swap1\n      div\n      0xff\n      and\n      swap1\n      dup1\n      0x02\n      add\n      0x01\n      swap1\n      sload\n      swap1\n      0x0100\n      exp\n      swap1\n      div\n      0xff\n      and\n      swap1\n      pop\n      dup5\n      jump\t// out\n        /* \"contracts/MarketTest.sol\":5315:5697  function getDataSet(uint256 _dataSetId) public view returns (string memory, string memory, bytes32, uint256, bool, address, uint256, uint256) {... */\n    tag_96:\n        /* \"contracts/MarketTest.sol\":5376:5389  string memory */\n      0x60\n        /* \"contracts/MarketTest.sol\":5391:5404  string memory */\n      dup1\n        /* \"contracts/MarketTest.sol\":5406:5413  bytes32 */\n      0x00\n        /* \"contracts/MarketTest.sol\":5415:5422  uint256 */\n      dup1\n        /* \"contracts/MarketTest.sol\":5424:5428  bool */\n      0x00\n        /* \"contracts/MarketTest.sol\":5430:5437  address */\n      dup1\n        /* \"contracts/MarketTest.sol\":5439:5446  uint256 */\n      0x00\n        /* \"contracts/MarketTest.sol\":5448:5455  uint256 */\n      dup1\n        /* \"contracts/MarketTest.sol\":5468:5491  DataSet storage dataSet */\n      0x00\n        /* \"contracts/MarketTest.sol\":5494:5502  dataSets */\n      0x01\n        /* \"contracts/MarketTest.sol\":5494:5514  dataSets[_dataSetId] */\n      0x00\n        /* \"contracts/MarketTest.sol\":5503:5513  _dataSetId */\n      dup12\n        /* \"contracts/MarketTest.sol\":5494:5514  dataSets[_dataSetId] */\n      dup2\n      mstore\n      0x20\n      add\n      swap1\n      dup2\n      mstore\n      0x20\n      add\n      0x00\n      keccak256\n        /* \"contracts/MarketTest.sol\":5468:5514  DataSet storage dataSet = dataSets[_dataSetId] */\n      swap1\n      pop\n        /* \"contracts/MarketTest.sol\":5533:5540  dataSet */\n      dup1\n        /* \"contracts/MarketTest.sol\":5533:5545  dataSet.name */\n      0x00\n      add\n        /* \"contracts/MarketTest.sol\":5547:5554  dataSet */\n      dup2\n        /* \"contracts/MarketTest.sol\":5547:5566  dataSet.description */\n      0x01\n      add\n        /* \"contracts/MarketTest.sol\":5568:5575  dataSet */\n      dup3\n        /* \"contracts/MarketTest.sol\":5568:5584  dataSet.dataHash */\n      0x02\n      add\n      sload\n        /* \"contracts/MarketTest.sol\":5586:5593  dataSet */\n      dup4\n        /* \"contracts/MarketTest.sol\":5586:5599  dataSet.price */\n      0x03\n      add\n      sload\n        /* \"contracts/MarketTest.sol\":5601:5608  dataSet */\n      dup5\n        /* \"contracts/MarketTest.sol\":5601:5620  dataSet.isEncrypted */\n      0x04\n      add\n      0x00\n      swap1\n      sload\n      swap1\n      0x0100\n      exp\n      swap1\n      div\n      0xff\n      and\n        /* \"contracts/MarketTest.sol\":5622:5629  dataSet */\n      dup6\n        /* \"contracts/MarketTest.sol\":5622:5636  dataSet.seller */\n      0x04\n      add\n      0x01\n      swap1\n      sload\n      swap1\n      0x0100\n      exp\n      swap1\n      div\n      0xffffffffffffffffffffffffffffffffffffffff\n      and\n        /* \"contracts/MarketTest.sol\":5638:5645  dataSet */\n      dup7\n        /* \"contracts/MarketTest.sol\":5638:5661  dataSet.uploadTimestamp */\n      0x05\n      add\n      sload\n        /* \"contracts/MarketTest.sol\":5663:5670  dataSet */\n      dup8\n        /* \"contracts/MarketTest.sol\":5663:5688  dataSet.purchaseTimestamp */\n      0x06\n      add\n      sload\n        /* \"contracts/MarketTest.sol\":5525:5689  return (dataSet.name, dataSet.description, dataSet.dataHash, dataSet.price, dataSet.isEncrypted, dataSet.seller, dataSet.uploadTimestamp, dataSet.purchaseTimestamp) */\n      dup8\n      dup1\n      sload\n      tag_209\n      swap1\n      tag_134\n      jump\t// in\n    tag_209:\n      dup1\n      0x1f\n      add\n      0x20\n      dup1\n      swap2\n      div\n      mul\n      0x20\n      add\n      mload(0x40)\n      swap1\n      dup2\n      add\n      0x40\n      mstore\n      dup1\n      swap3\n      swap2\n      swap1\n      dup2\n      dup2\n      mstore\n      0x20\n      add\n      dup3\n      dup1\n      sload\n      tag_210\n      swap1\n      tag_134\n      jump\t// in\n    tag_210:\n      dup1\n      iszero\n      tag_211\n      jumpi\n      dup1\n      0x1f\n      lt\n      tag_212\n      jumpi\n      0x0100\n      dup1\n      dup4\n      sload\n      div\n      mul\n      dup4\n      mstore\n      swap2\n      0x20\n      add\n      swap2\n      jump(tag_211)\n    tag_212:\n      dup3\n      add\n      swap2\n      swap1\n      0x00\n      mstore\n      keccak256(0x00, 0x20)\n      swap1\n    tag_213:\n      dup2\n      sload\n      dup2\n      mstore\n      swap1\n      0x01\n      add\n      swap1\n      0x20\n      add\n      dup1\n      dup4\n      gt\n      tag_213\n      jumpi\n      dup3\n      swap1\n      sub\n      0x1f\n      and\n      dup3\n      add\n      swap2\n    tag_211:\n      pop\n      pop\n      pop\n      pop\n      pop\n      swap8\n      pop\n      dup7\n      dup1\n      sload\n      tag_214\n      swap1\n      tag_134\n      jump\t// in\n    tag_214:\n      dup1\n      0x1f\n      add\n      0x20\n      dup1\n      swap2\n      div\n      mul\n      0x20\n      add\n      mload(0x40)\n      swap1\n      dup2\n      add\n      0x40\n      mstore\n      dup1\n      swap3\n      swap2\n      swap1\n      dup2\n      dup2\n      mstore\n      0x20\n      add\n      dup3\n      dup1\n      sload\n      tag_215\n      swap1\n      tag_134\n      jump\t// in\n    tag_215:\n      dup1\n      iszero\n      tag_216\n      jumpi\n      dup1\n      0x1f\n      lt\n      tag_217\n      jumpi\n      0x0100\n      dup1\n      dup4\n      sload\n      div\n      mul\n      dup4\n      mstore\n      swap2\n      0x20\n      add\n      swap2\n      jump(tag_216)\n    tag_217:\n      dup3\n      add\n      swap2\n      swap1\n      0x00\n      mstore\n      keccak256(0x00, 0x20)\n      swap1\n    tag_218:\n      dup2\n      sload\n      dup2\n      mstore\n      swap1\n      0x01\n      add\n      swap1\n      0x20\n      add\n      dup1\n      dup4\n      gt\n      tag_218\n      jumpi\n      dup3\n      swap1\n      sub\n      0x1f\n      and\n      dup3\n      add\n      swap2\n    tag_216:\n      pop\n      pop\n      pop\n      pop\n      pop\n      swap7\n      pop\n      swap9\n      pop\n      swap9\n      pop\n      swap9\n      pop\n      swap9\n      pop\n      swap9\n      pop\n      swap9\n      pop\n      swap9\n      pop\n      swap9\n      pop\n      pop\n        /* \"contracts/MarketTest.sol\":5315:5697  function getDataSet(uint256 _dataSetId) public view returns (string memory, string memory, bytes32, uint256, bool, address, uint256, uint256) {... */\n      swap2\n      swap4\n      swap6\n      swap8\n      pop\n      swap2\n      swap4\n      swap6\n      swap8\n      jump\t// out\n        /* \"contracts/MarketTest.sol\":4999:5307  function getSellerAverageRating(address _seller) public view returns (uint256) {... */\n    tag_102:\n        /* \"contracts/MarketTest.sol\":5069:5076  uint256 */\n      0x00\n        /* \"contracts/MarketTest.sol\":5089:5124  SellerReputation storage reputation */\n      dup1\n        /* \"contracts/MarketTest.sol\":5127:5144  sellerReputations */\n      0x05\n        /* \"contracts/MarketTest.sol\":5127:5153  sellerReputations[_seller] */\n      0x00\n        /* \"contracts/MarketTest.sol\":5145:5152  _seller */\n      dup5\n        /* \"contracts/MarketTest.sol\":5127:5153  sellerReputations[_seller] */\n      0xffffffffffffffffffffffffffffffffffffffff\n      and\n      0xffffffffffffffffffffffffffffffffffffffff\n      and\n      dup2\n      mstore\n      0x20\n      add\n      swap1\n      dup2\n      mstore\n      0x20\n      add\n      0x00\n      keccak256\n        /* \"contracts/MarketTest.sol\":5089:5153  SellerReputation storage reputation = sellerReputations[_seller] */\n      swap1\n      pop\n        /* \"contracts/MarketTest.sol\":5195:5196  0 */\n      0x00\n        /* \"contracts/MarketTest.sol\":5168:5178  reputation */\n      dup2\n        /* \"contracts/MarketTest.sol\":5168:5191  reputation.totalRatings */\n      0x00\n      add\n      sload\n        /* \"contracts/MarketTest.sol\":5168:5196  reputation.totalRatings == 0 */\n      sub\n        /* \"contracts/MarketTest.sol\":5164:5233  if (reputation.totalRatings == 0) {... */\n      tag_220\n      jumpi\n        /* \"contracts/MarketTest.sol\":5220:5221  0 */\n      0x00\n        /* \"contracts/MarketTest.sol\":5213:5221  return 0 */\n      swap2\n      pop\n      pop\n      jump(tag_219)\n        /* \"contracts/MarketTest.sol\":5164:5233  if (reputation.totalRatings == 0) {... */\n    tag_220:\n        /* \"contracts/MarketTest.sol\":5276:5286  reputation */\n      dup1\n        /* \"contracts/MarketTest.sol\":5276:5299  reputation.totalRatings */\n      0x00\n      add\n      sload\n        /* \"contracts/MarketTest.sol\":5250:5260  reputation */\n      dup2\n        /* \"contracts/MarketTest.sol\":5250:5273  reputation.sumOfRatings */\n      0x01\n      add\n      sload\n        /* \"contracts/MarketTest.sol\":5250:5299  reputation.sumOfRatings / reputation.totalRatings */\n      tag_221\n      swap2\n      swap1\n      tag_188\n      jump\t// in\n    tag_221:\n        /* \"contracts/MarketTest.sol\":5243:5299  return reputation.sumOfRatings / reputation.totalRatings */\n      swap2\n      pop\n      pop\n        /* \"contracts/MarketTest.sol\":4999:5307  function getSellerAverageRating(address _seller) public view returns (uint256) {... */\n    tag_219:\n      swap2\n      swap1\n      pop\n      jump\t// out\n        /* \"contracts/MarketTest.sol\":951:1013  mapping(uint256 => EncryptionKey) public dataSetEncryptionKeys */\n    tag_107:\n      mstore(0x20, 0x03)\n      dup1\n      0x00\n      mstore\n      keccak256(0x00, 0x40)\n      0x00\n      swap2\n      pop\n      swap1\n      pop\n      dup1\n      0x00\n      add\n      sload\n      swap1\n      pop\n      dup2\n      jump\t// out\n        /* \"contracts/MarketTest.sol\":1077:1138  mapping(address => SellerReputation) public sellerReputations */\n    tag_113:\n      mstore(0x20, 0x05)\n      dup1\n      0x00\n      mstore\n      keccak256(0x00, 0x40)\n      0x00\n      swap2\n      pop\n      swap1\n      pop\n      dup1\n      0x00\n      add\n      sload\n      swap1\n      dup1\n      0x01\n      add\n      sload\n      swap1\n      pop\n      dup3\n      jump\t// out\n        /* \"contracts/MarketTest.sol\":2241:2901  function uploadDataSet(string memory _name, string memory _description, bytes memory _data, uint256 _price, bool _isEncrypted) public {... */\n    tag_120:\n        /* \"contracts/MarketTest.sol\":2390:2395  users */\n      0x00\n        /* \"contracts/MarketTest.sol\":2390:2407  users[msg.sender] */\n      dup1\n        /* \"contracts/MarketTest.sol\":2396:2406  msg.sender */\n      caller\n        /* \"contracts/MarketTest.sol\":2390:2407  users[msg.sender] */\n      0xffffffffffffffffffffffffffffffffffffffff\n      and\n      0xffffffffffffffffffffffffffffffffffffffff\n      and\n      dup2\n      mstore\n      0x20\n      add\n      swap1\n      dup2\n      mstore\n      0x20\n      add\n      0x00\n      keccak256\n        /* \"contracts/MarketTest.sol\":2390:2420  users[msg.sender].isDataSeller */\n      0x02\n      add\n      0x00\n      swap1\n      sload\n      swap1\n      0x0100\n      exp\n      swap1\n      div\n      0xff\n      and\n        /* \"contracts/MarketTest.sol\":2382:2474  require(users[msg.sender].isDataSeller, \"Only registered data sellers can upload data sets\") */\n      tag_223\n      jumpi\n      mload(0x40)\n      0x08c379a000000000000000000000000000000000000000000000000000000000\n      dup2\n      mstore\n      0x04\n      add\n      tag_224\n      swap1\n      tag_225\n      jump\t// in\n    tag_224:\n      mload(0x40)\n      dup1\n      swap2\n      sub\n      swap1\n      revert\n    tag_223:\n        /* \"contracts/MarketTest.sol\":2483:2500  bytes32 _dataHash */\n      0x00\n        /* \"contracts/MarketTest.sol\":2513:2518  _data */\n      dup4\n        /* \"contracts/MarketTest.sol\":2503:2519  keccak256(_data) */\n      dup1\n      mload\n      swap1\n      0x20\n      add\n      keccak256\n        /* \"contracts/MarketTest.sol\":2483:2519  bytes32 _dataHash = keccak256(_data) */\n      swap1\n      pop\n        /* \"contracts/MarketTest.sol\":2570:2571  0 */\n      0x00\n        /* \"contracts/MarketTest.sol\":2536:2555  dataHashToDataSetId */\n      0x02\n        /* \"contracts/MarketTest.sol\":2536:2566  dataHashToDataSetId[_dataHash] */\n      0x00\n        /* \"contracts/MarketTest.sol\":2556:2565  _dataHash */\n      dup4\n        /* \"contracts/MarketTest.sol\":2536:2566  dataHashToDataSetId[_dataHash] */\n      dup2\n      mstore\n      0x20\n      add\n      swap1\n      dup2\n      mstore\n      0x20\n      add\n      0x00\n      keccak256\n      sload\n        /* \"contracts/MarketTest.sol\":2536:2571  dataHashToDataSetId[_dataHash] == 0 */\n      eq\n        /* \"contracts/MarketTest.sol\":2528:2618  require(dataHashToDataSetId[_dataHash] == 0, \"Data set with the same hash already exists\") */\n      tag_226\n      jumpi\n      mload(0x40)\n      0x08c379a000000000000000000000000000000000000000000000000000000000\n      dup2\n      mstore\n      0x04\n      add\n      tag_227\n      swap1\n      tag_228\n      jump\t// in\n    tag_227:\n      mload(0x40)\n      dup1\n      swap2\n      sub\n      swap1\n      revert\n    tag_226:\n        /* \"contracts/MarketTest.sol\":2652:2754  DataSet(_name, _description, _dataHash, _price, _isEncrypted, payable(msg.sender), block.timestamp, 0) */\n      mload(0x40)\n      dup1\n      0x0100\n      add\n      0x40\n      mstore\n      dup1\n        /* \"contracts/MarketTest.sol\":2660:2665  _name */\n      dup8\n        /* \"contracts/MarketTest.sol\":2652:2754  DataSet(_name, _description, _dataHash, _price, _isEncrypted, payable(msg.sender), block.timestamp, 0) */\n      dup2\n      mstore\n      0x20\n      add\n        /* \"contracts/MarketTest.sol\":2667:2679  _description */\n      dup7\n        /* \"contracts/MarketTest.sol\":2652:2754  DataSet(_name, _description, _dataHash, _price, _isEncrypted, payable(msg.sender), block.timestamp, 0) */\n      dup2\n      mstore\n      0x20\n      add\n        /* \"contracts/MarketTest.sol\":2681:2690  _dataHash */\n      dup3\n        /* \"contracts/MarketTest.sol\":2652:2754  DataSet(_name, _description, _dataHash, _price, _isEncrypted, payable(msg.sender), block.timestamp, 0) */\n      dup2\n      mstore\n      0x20\n      add\n        /* \"contracts/MarketTest.sol\":2692:2698  _price */\n      dup5\n        /* \"contracts/MarketTest.sol\":2652:2754  DataSet(_name, _description, _dataHash, _price, _isEncrypted, payable(msg.sender), block.timestamp, 0) */\n      dup2\n      mstore\n      0x20\n      add\n        /* \"contracts/MarketTest.sol\":2700:2712  _isEncrypted */\n      dup4\n        /* \"contracts/MarketTest.sol\":2652:2754  DataSet(_name, _description, _dataHash, _price, _isEncrypted, payable(msg.sender), block.timestamp, 0) */\n      iszero\n      iszero\n      dup2\n      mstore\n      0x20\n      add\n        /* \"contracts/MarketTest.sol\":2722:2732  msg.sender */\n      caller\n        /* \"contracts/MarketTest.sol\":2652:2754  DataSet(_name, _description, _dataHash, _price, _isEncrypted, payable(msg.sender), block.timestamp, 0) */\n      0xffffffffffffffffffffffffffffffffffffffff\n      and\n      dup2\n      mstore\n      0x20\n      add\n        /* \"contracts/MarketTest.sol\":2735:2750  block.timestamp */\n      timestamp\n        /* \"contracts/MarketTest.sol\":2652:2754  DataSet(_name, _description, _dataHash, _price, _isEncrypted, payable(msg.sender), block.timestamp, 0) */\n      dup2\n      mstore\n      0x20\n      add\n        /* \"contracts/MarketTest.sol\":2752:2753  0 */\n      0x00\n        /* \"contracts/MarketTest.sol\":2652:2754  DataSet(_name, _description, _dataHash, _price, _isEncrypted, payable(msg.sender), block.timestamp, 0) */\n      dup2\n      mstore\n      pop\n        /* \"contracts/MarketTest.sol\":2627:2635  dataSets */\n      0x01\n        /* \"contracts/MarketTest.sol\":2627:2649  dataSets[dataSetCount] */\n      0x00\n        /* \"contracts/MarketTest.sol\":2636:2648  dataSetCount */\n      sload(0x06)\n        /* \"contracts/MarketTest.sol\":2627:2649  dataSets[dataSetCount] */\n      dup2\n      mstore\n      0x20\n      add\n      swap1\n      dup2\n      mstore\n      0x20\n      add\n      0x00\n      keccak256\n        /* \"contracts/MarketTest.sol\":2627:2754  dataSets[dataSetCount] = DataSet(_name, _description, _dataHash, _price, _isEncrypted, payable(msg.sender), block.timestamp, 0) */\n      0x00\n      dup3\n      add\n      mload\n      dup2\n      0x00\n      add\n      swap1\n      dup2\n      tag_229\n      swap2\n      swap1\n      tag_157\n      jump\t// in\n    tag_229:\n      pop\n      0x20\n      dup3\n      add\n      mload\n      dup2\n      0x01\n      add\n      swap1\n      dup2\n      tag_230\n      swap2\n      swap1\n      tag_157\n      jump\t// in\n    tag_230:\n      pop\n      0x40\n      dup3\n      add\n      mload\n      dup2\n      0x02\n      add\n      sstore\n      0x60\n      dup3\n      add\n      mload\n      dup2\n      0x03\n      add\n      sstore\n      0x80\n      dup3\n      add\n      mload\n      dup2\n      0x04\n      add\n      exp(0x0100, 0x00)\n      dup2\n      sload\n      dup2\n      0xff\n      mul\n      not\n      and\n      swap1\n      dup4\n      iszero\n      iszero\n      mul\n      or\n      swap1\n      sstore\n      pop\n      0xa0\n      dup3\n      add\n      mload\n      dup2\n      0x04\n      add\n      exp(0x0100, 0x01)\n      dup2\n      sload\n      dup2\n      0xffffffffffffffffffffffffffffffffffffffff\n      mul\n      not\n      and\n      swap1\n      dup4\n      0xffffffffffffffffffffffffffffffffffffffff\n      and\n      mul\n      or\n      swap1\n      sstore\n      pop\n      0xc0\n      dup3\n      add\n      mload\n      dup2\n      0x05\n      add\n      sstore\n      0xe0\n      dup3\n      add\n      mload\n      dup2\n      0x06\n      add\n      sstore\n      swap1\n      pop\n      pop\n        /* \"contracts/MarketTest.sol\":2794:2806  dataSetCount */\n      sload(0x06)\n        /* \"contracts/MarketTest.sol\":2761:2780  dataHashToDataSetId */\n      0x02\n        /* \"contracts/MarketTest.sol\":2761:2791  dataHashToDataSetId[_dataHash] */\n      0x00\n        /* \"contracts/MarketTest.sol\":2781:2790  _dataHash */\n      dup4\n        /* \"contracts/MarketTest.sol\":2761:2791  dataHashToDataSetId[_dataHash] */\n      dup2\n      mstore\n      0x20\n      add\n      swap1\n      dup2\n      mstore\n      0x20\n      add\n      0x00\n      keccak256\n        /* \"contracts/MarketTest.sol\":2761:2806  dataHashToDataSetId[_dataHash] = dataSetCount */\n      dup2\n      swap1\n      sstore\n      pop\n        /* \"contracts/MarketTest.sol\":2865:2875  msg.sender */\n      caller\n        /* \"contracts/MarketTest.sol\":2820:2876  DataSetUploaded(dataSetCount, _name, _price, msg.sender) */\n      0xffffffffffffffffffffffffffffffffffffffff\n      and\n        /* \"contracts/MarketTest.sol\":2836:2848  dataSetCount */\n      sload(0x06)\n        /* \"contracts/MarketTest.sol\":2820:2876  DataSetUploaded(dataSetCount, _name, _price, msg.sender) */\n      0xa8e21f9641ee0a4b37add0642221f97ed1accf45d08ad495fac8fe05d90b9286\n        /* \"contracts/MarketTest.sol\":2850:2855  _name */\n      dup9\n        /* \"contracts/MarketTest.sol\":2857:2863  _price */\n      dup7\n        /* \"contracts/MarketTest.sol\":2820:2876  DataSetUploaded(dataSetCount, _name, _price, msg.sender) */\n      mload(0x40)\n      tag_231\n      swap3\n      swap2\n      swap1\n      tag_232\n      jump\t// in\n    tag_231:\n      mload(0x40)\n      dup1\n      swap2\n      sub\n      swap1\n      log3\n        /* \"contracts/MarketTest.sol\":2883:2895  dataSetCount */\n      0x06\n      0x00\n        /* \"contracts/MarketTest.sol\":2883:2897  dataSetCount++ */\n      dup2\n      sload\n      dup1\n      swap3\n      swap2\n      swap1\n      tag_233\n      swap1\n      tag_130\n      jump\t// in\n    tag_233:\n      swap2\n      swap1\n      pop\n      sstore\n      pop\n        /* \"contracts/MarketTest.sol\":2375:2901  {... */\n      pop\n        /* \"contracts/MarketTest.sol\":2241:2901  function uploadDataSet(string memory _name, string memory _description, bytes memory _data, uint256 _price, bool _isEncrypted) public {... */\n      pop\n      pop\n      pop\n      pop\n      pop\n      jump\t// out\n    tag_174:\n      dup3\n      dup1\n      sload\n      dup3\n      dup3\n      sstore\n      swap1\n      0x00\n      mstore\n      keccak256(0x00, 0x20)\n      swap1\n      dup2\n      add\n      swap3\n      dup3\n      iszero\n      tag_234\n      jumpi\n      swap2\n      0x20\n      mul\n      dup3\n      add\n    tag_235:\n      dup3\n      dup2\n      gt\n      iszero\n      tag_236\n      jumpi\n      dup3\n      mload\n      dup3\n      exp(0x0100, 0x00)\n      dup2\n      sload\n      dup2\n      0xffffffffffffffffffffffffffffffffffffffff\n      mul\n      not\n      and\n      swap1\n      dup4\n      0xffffffffffffffffffffffffffffffffffffffff\n      and\n      mul\n      or\n      swap1\n      sstore\n      pop\n      swap2\n      0x20\n      add\n      swap2\n      swap1\n      0x01\n      add\n      swap1\n      jump(tag_235)\n    tag_236:\n    tag_234:\n      pop\n      swap1\n      pop\n      tag_237\n      swap2\n      swap1\n      tag_238\n      jump\t// in\n    tag_237:\n      pop\n      swap1\n      jump\t// out\n    tag_238:\n    tag_239:\n      dup1\n      dup3\n      gt\n      iszero\n      tag_240\n      jumpi\n      0x00\n      dup2\n      0x00\n      swap1\n      sstore\n      pop\n      0x01\n      add\n      jump(tag_239)\n    tag_240:\n      pop\n      swap1\n      jump\t// out\n        /* \"#utility.yul\":7:84   */\n    tag_241:\n        /* \"#utility.yul\":44:51   */\n      0x00\n        /* \"#utility.yul\":73:78   */\n      dup2\n        /* \"#utility.yul\":62:78   */\n      swap1\n      pop\n        /* \"#utility.yul\":7:84   */\n      swap2\n      swap1\n      pop\n      jump\t// out\n        /* \"#utility.yul\":90:208   */\n    tag_242:\n        /* \"#utility.yul\":177:201   */\n      tag_327\n        /* \"#utility.yul\":195:200   */\n      dup2\n        /* \"#utility.yul\":177:201   */\n      tag_241\n      jump\t// in\n    tag_327:\n        /* \"#utility.yul\":172:175   */\n      dup3\n        /* \"#utility.yul\":165:202   */\n      mstore\n        /* \"#utility.yul\":90:208   */\n      pop\n      pop\n      jump\t// out\n        /* \"#utility.yul\":214:436   */\n    tag_30:\n        /* \"#utility.yul\":307:311   */\n      0x00\n        /* \"#utility.yul\":345:347   */\n      0x20\n        /* \"#utility.yul\":334:343   */\n      dup3\n        /* \"#utility.yul\":330:348   */\n      add\n        /* \"#utility.yul\":322:348   */\n      swap1\n      pop\n        /* \"#utility.yul\":358:429   */\n      tag_329\n        /* \"#utility.yul\":426:427   */\n      0x00\n        /* \"#utility.yul\":415:424   */\n      dup4\n        /* \"#utility.yul\":411:428   */\n      add\n        /* \"#utility.yul\":402:408   */\n      dup5\n        /* \"#utility.yul\":358:429   */\n      tag_242\n      jump\t// in\n    tag_329:\n        /* \"#utility.yul\":214:436   */\n      swap3\n      swap2\n      pop\n      pop\n      jump\t// out\n        /* \"#utility.yul\":442:517   */\n    tag_243:\n        /* \"#utility.yul\":475:481   */\n      0x00\n        /* \"#utility.yul\":508:510   */\n      0x40\n        /* \"#utility.yul\":502:511   */\n      mload\n        /* \"#utility.yul\":492:511   */\n      swap1\n      pop\n        /* \"#utility.yul\":442:517   */\n      swap1\n      jump\t// out\n        /* \"#utility.yul\":523:640   */\n    tag_244:\n        /* \"#utility.yul\":632:633   */\n      0x00\n        /* \"#utility.yul\":629:630   */\n      dup1\n        /* \"#utility.yul\":622:634   */\n      revert\n        /* \"#utility.yul\":646:763   */\n    tag_245:\n        /* \"#utility.yul\":755:756   */\n      0x00\n        /* \"#utility.yul\":752:753   */\n      dup1\n        /* \"#utility.yul\":745:757   */\n      revert\n        /* \"#utility.yul\":769:891   */\n    tag_246:\n        /* \"#utility.yul\":842:866   */\n      tag_334\n        /* \"#utility.yul\":860:865   */\n      dup2\n        /* \"#utility.yul\":842:866   */\n      tag_241\n      jump\t// in\n    tag_334:\n        /* \"#utility.yul\":835:840   */\n      dup2\n        /* \"#utility.yul\":832:867   */\n      eq\n        /* \"#utility.yul\":822:885   */\n      tag_335\n      jumpi\n        /* \"#utility.yul\":881:882   */\n      0x00\n        /* \"#utility.yul\":878:879   */\n      dup1\n        /* \"#utility.yul\":871:883   */\n      revert\n        /* \"#utility.yul\":822:885   */\n    tag_335:\n        /* \"#utility.yul\":769:891   */\n      pop\n      jump\t// out\n        /* \"#utility.yul\":897:1036   */\n    tag_247:\n        /* \"#utility.yul\":943:948   */\n      0x00\n        /* \"#utility.yul\":981:987   */\n      dup2\n        /* \"#utility.yul\":968:988   */\n      calldataload\n        /* \"#utility.yul\":959:988   */\n      swap1\n      pop\n        /* \"#utility.yul\":997:1030   */\n      tag_337\n        /* \"#utility.yul\":1024:1029   */\n      dup2\n        /* \"#utility.yul\":997:1030   */\n      tag_246\n      jump\t// in\n    tag_337:\n        /* \"#utility.yul\":897:1036   */\n      swap3\n      swap2\n      pop\n      pop\n      jump\t// out\n        /* \"#utility.yul\":1042:1516   */\n    tag_34:\n        /* \"#utility.yul\":1110:1116   */\n      0x00\n        /* \"#utility.yul\":1118:1124   */\n      dup1\n        /* \"#utility.yul\":1167:1169   */\n      0x40\n        /* \"#utility.yul\":1155:1164   */\n      dup4\n        /* \"#utility.yul\":1146:1153   */\n      dup6\n        /* \"#utility.yul\":1142:1165   */\n      sub\n        /* \"#utility.yul\":1138:1170   */\n      slt\n        /* \"#utility.yul\":1135:1254   */\n      iszero\n      tag_339\n      jumpi\n        /* \"#utility.yul\":1173:1252   */\n      tag_340\n      tag_244\n      jump\t// in\n    tag_340:\n        /* \"#utility.yul\":1135:1254   */\n    tag_339:\n        /* \"#utility.yul\":1293:1294   */\n      0x00\n        /* \"#utility.yul\":1318:1371   */\n      tag_341\n        /* \"#utility.yul\":1363:1370   */\n      dup6\n        /* \"#utility.yul\":1354:1360   */\n      dup3\n        /* \"#utility.yul\":1343:1352   */\n      dup7\n        /* \"#utility.yul\":1339:1361   */\n      add\n        /* \"#utility.yul\":1318:1371   */\n      tag_247\n      jump\t// in\n    tag_341:\n        /* \"#utility.yul\":1308:1371   */\n      swap3\n      pop\n        /* \"#utility.yul\":1264:1381   */\n      pop\n        /* \"#utility.yul\":1420:1422   */\n      0x20\n        /* \"#utility.yul\":1446:1499   */\n      tag_342\n        /* \"#utility.yul\":1491:1498   */\n      dup6\n        /* \"#utility.yul\":1482:1488   */\n      dup3\n        /* \"#utility.yul\":1471:1480   */\n      dup7\n        /* \"#utility.yul\":1467:1489   */\n      add\n        /* \"#utility.yul\":1446:1499   */\n      tag_247\n      jump\t// in\n    tag_342:\n        /* \"#utility.yul\":1436:1499   */\n      swap2\n      pop\n        /* \"#utility.yul\":1391:1509   */\n      pop\n        /* \"#utility.yul\":1042:1516   */\n      swap3\n      pop\n      swap3\n      swap1\n      pop\n      jump\t// out\n        /* \"#utility.yul\":1522:1851   */\n    tag_39:\n        /* \"#utility.yul\":1581:1587   */\n      0x00\n        /* \"#utility.yul\":1630:1632   */\n      0x20\n        /* \"#utility.yul\":1618:1627   */\n      dup3\n        /* \"#utility.yul\":1609:1616   */\n      dup5\n        /* \"#utility.yul\":1605:1628   */\n      sub\n        /* \"#utility.yul\":1601:1633   */\n      slt\n        /* \"#utility.yul\":1598:1717   */\n      iszero\n      tag_344\n      jumpi\n        /* \"#utility.yul\":1636:1715   */\n      tag_345\n      tag_244\n      jump\t// in\n    tag_345:\n        /* \"#utility.yul\":1598:1717   */\n    tag_344:\n        /* \"#utility.yul\":1756:1757   */\n      0x00\n        /* \"#utility.yul\":1781:1834   */\n      tag_346\n        /* \"#utility.yul\":1826:1833   */\n      dup5\n        /* \"#utility.yul\":1817:1823   */\n      dup3\n        /* \"#utility.yul\":1806:1815   */\n      dup6\n        /* \"#utility.yul\":1802:1824   */\n      add\n        /* \"#utility.yul\":1781:1834   */\n      tag_247\n      jump\t// in\n    tag_346:\n        /* \"#utility.yul\":1771:1834   */\n      swap2\n      pop\n        /* \"#utility.yul\":1727:1844   */\n      pop\n        /* \"#utility.yul\":1522:1851   */\n      swap3\n      swap2\n      pop\n      pop\n      jump\t// out\n        /* \"#utility.yul\":1857:1956   */\n    tag_248:\n        /* \"#utility.yul\":1909:1915   */\n      0x00\n        /* \"#utility.yul\":1943:1948   */\n      dup2\n        /* \"#utility.yul\":1937:1949   */\n      mload\n        /* \"#utility.yul\":1927:1949   */\n      swap1\n      pop\n        /* \"#utility.yul\":1857:1956   */\n      swap2\n      swap1\n      pop\n      jump\t// out\n        /* \"#utility.yul\":1962:2131   */\n    tag_249:\n        /* \"#utility.yul\":2046:2057   */\n      0x00\n        /* \"#utility.yul\":2080:2086   */\n      dup3\n        /* \"#utility.yul\":2075:2078   */\n      dup3\n        /* \"#utility.yul\":2068:2087   */\n      mstore\n        /* \"#utility.yul\":2120:2124   */\n      0x20\n        /* \"#utility.yul\":2115:2118   */\n      dup3\n        /* \"#utility.yul\":2111:2125   */\n      add\n        /* \"#utility.yul\":2096:2125   */\n      swap1\n      pop\n        /* \"#utility.yul\":1962:2131   */\n      swap3\n      swap2\n      pop\n      pop\n      jump\t// out\n        /* \"#utility.yul\":2137:2276   */\n    tag_250:\n        /* \"#utility.yul\":2226:2232   */\n      dup3\n        /* \"#utility.yul\":2221:2224   */\n      dup2\n        /* \"#utility.yul\":2216:2219   */\n      dup4\n        /* \"#utility.yul\":2210:2233   */\n      mcopy\n        /* \"#utility.yul\":2267:2268   */\n      0x00\n        /* \"#utility.yul\":2258:2264   */\n      dup4\n        /* \"#utility.yul\":2253:2256   */\n      dup4\n        /* \"#utility.yul\":2249:2265   */\n      add\n        /* \"#utility.yul\":2242:2269   */\n      mstore\n        /* \"#utility.yul\":2137:2276   */\n      pop\n      pop\n      pop\n      jump\t// out\n        /* \"#utility.yul\":2282:2384   */\n    tag_251:\n        /* \"#utility.yul\":2323:2329   */\n      0x00\n        /* \"#utility.yul\":2374:2376   */\n      0x1f\n        /* \"#utility.yul\":2370:2377   */\n      not\n        /* \"#utility.yul\":2365:2367   */\n      0x1f\n        /* \"#utility.yul\":2358:2363   */\n      dup4\n        /* \"#utility.yul\":2354:2368   */\n      add\n        /* \"#utility.yul\":2350:2378   */\n      and\n        /* \"#utility.yul\":2340:2378   */\n      swap1\n      pop\n        /* \"#utility.yul\":2282:2384   */\n      swap2\n      swap1\n      pop\n      jump\t// out\n        /* \"#utility.yul\":2390:2767   */\n    tag_252:\n        /* \"#utility.yul\":2478:2481   */\n      0x00\n        /* \"#utility.yul\":2506:2545   */\n      tag_352\n        /* \"#utility.yul\":2539:2544   */\n      dup3\n        /* \"#utility.yul\":2506:2545   */\n      tag_248\n      jump\t// in\n    tag_352:\n        /* \"#utility.yul\":2561:2632   */\n      tag_353\n        /* \"#utility.yul\":2625:2631   */\n      dup2\n        /* \"#utility.yul\":2620:2623   */\n      dup6\n        /* \"#utility.yul\":2561:2632   */\n      tag_249\n      jump\t// in\n    tag_353:\n        /* \"#utility.yul\":2554:2632   */\n      swap4\n      pop\n        /* \"#utility.yul\":2641:2706   */\n      tag_354\n        /* \"#utility.yul\":2699:2705   */\n      dup2\n        /* \"#utility.yul\":2694:2697   */\n      dup6\n        /* \"#utility.yul\":2687:2691   */\n      0x20\n        /* \"#utility.yul\":2680:2685   */\n      dup7\n        /* \"#utility.yul\":2676:2692   */\n      add\n        /* \"#utility.yul\":2641:2706   */\n      tag_250\n      jump\t// in\n    tag_354:\n        /* \"#utility.yul\":2731:2760   */\n      tag_355\n        /* \"#utility.yul\":2753:2759   */\n      dup2\n        /* \"#utility.yul\":2731:2760   */\n      tag_251\n      jump\t// in\n    tag_355:\n        /* \"#utility.yul\":2726:2729   */\n      dup5\n        /* \"#utility.yul\":2722:2761   */\n      add\n        /* \"#utility.yul\":2715:2761   */\n      swap2\n      pop\n        /* \"#utility.yul\":2482:2767   */\n      pop\n        /* \"#utility.yul\":2390:2767   */\n      swap3\n      swap2\n      pop\n      pop\n      jump\t// out\n        /* \"#utility.yul\":2773:2850   */\n    tag_253:\n        /* \"#utility.yul\":2810:2817   */\n      0x00\n        /* \"#utility.yul\":2839:2844   */\n      dup2\n        /* \"#utility.yul\":2828:2844   */\n      swap1\n      pop\n        /* \"#utility.yul\":2773:2850   */\n      swap2\n      swap1\n      pop\n      jump\t// out\n        /* \"#utility.yul\":2856:2974   */\n    tag_254:\n        /* \"#utility.yul\":2943:2967   */\n      tag_358\n        /* \"#utility.yul\":2961:2966   */\n      dup2\n        /* \"#utility.yul\":2943:2967   */\n      tag_253\n      jump\t// in\n    tag_358:\n        /* \"#utility.yul\":2938:2941   */\n      dup3\n        /* \"#utility.yul\":2931:2968   */\n      mstore\n        /* \"#utility.yul\":2856:2974   */\n      pop\n      pop\n      jump\t// out\n        /* \"#utility.yul\":2980:3070   */\n    tag_255:\n        /* \"#utility.yul\":3014:3021   */\n      0x00\n        /* \"#utility.yul\":3057:3062   */\n      dup2\n        /* \"#utility.yul\":3050:3063   */\n      iszero\n        /* \"#utility.yul\":3043:3064   */\n      iszero\n        /* \"#utility.yul\":3032:3064   */\n      swap1\n      pop\n        /* \"#utility.yul\":2980:3070   */\n      swap2\n      swap1\n      pop\n      jump\t// out\n        /* \"#utility.yul\":3076:3185   */\n    tag_256:\n        /* \"#utility.yul\":3157:3178   */\n      tag_361\n        /* \"#utility.yul\":3172:3177   */\n      dup2\n        /* \"#utility.yul\":3157:3178   */\n      tag_255\n      jump\t// in\n    tag_361:\n        /* \"#utility.yul\":3152:3155   */\n      dup3\n        /* \"#utility.yul\":3145:3179   */\n      mstore\n        /* \"#utility.yul\":3076:3185   */\n      pop\n      pop\n      jump\t// out\n        /* \"#utility.yul\":3191:3317   */\n    tag_257:\n        /* \"#utility.yul\":3228:3235   */\n      0x00\n        /* \"#utility.yul\":3268:3310   */\n      0xffffffffffffffffffffffffffffffffffffffff\n        /* \"#utility.yul\":3261:3266   */\n      dup3\n        /* \"#utility.yul\":3257:3311   */\n      and\n        /* \"#utility.yul\":3246:3311   */\n      swap1\n      pop\n        /* \"#utility.yul\":3191:3317   */\n      swap2\n      swap1\n      pop\n      jump\t// out\n        /* \"#utility.yul\":3323:3427   */\n    tag_258:\n        /* \"#utility.yul\":3368:3375   */\n      0x00\n        /* \"#utility.yul\":3397:3421   */\n      tag_364\n        /* \"#utility.yul\":3415:3420   */\n      dup3\n        /* \"#utility.yul\":3397:3421   */\n      tag_257\n      jump\t// in\n    tag_364:\n        /* \"#utility.yul\":3386:3421   */\n      swap1\n      pop\n        /* \"#utility.yul\":3323:3427   */\n      swap2\n      swap1\n      pop\n      jump\t// out\n        /* \"#utility.yul\":3433:3575   */\n    tag_259:\n        /* \"#utility.yul\":3536:3568   */\n      tag_366\n        /* \"#utility.yul\":3562:3567   */\n      dup2\n        /* \"#utility.yul\":3536:3568   */\n      tag_258\n      jump\t// in\n    tag_366:\n        /* \"#utility.yul\":3531:3534   */\n      dup3\n        /* \"#utility.yul\":3524:3569   */\n      mstore\n        /* \"#utility.yul\":3433:3575   */\n      pop\n      pop\n      jump\t// out\n        /* \"#utility.yul\":3581:4780   */\n    tag_42:\n        /* \"#utility.yul\":3920:3924   */\n      0x00\n        /* \"#utility.yul\":3958:3961   */\n      0x0100\n        /* \"#utility.yul\":3947:3956   */\n      dup3\n        /* \"#utility.yul\":3943:3962   */\n      add\n        /* \"#utility.yul\":3935:3962   */\n      swap1\n      pop\n        /* \"#utility.yul\":4008:4017   */\n      dup2\n        /* \"#utility.yul\":4002:4006   */\n      dup2\n        /* \"#utility.yul\":3998:4018   */\n      sub\n        /* \"#utility.yul\":3994:3995   */\n      0x00\n        /* \"#utility.yul\":3983:3992   */\n      dup4\n        /* \"#utility.yul\":3979:3996   */\n      add\n        /* \"#utility.yul\":3972:4019   */\n      mstore\n        /* \"#utility.yul\":4036:4114   */\n      tag_368\n        /* \"#utility.yul\":4109:4113   */\n      dup2\n        /* \"#utility.yul\":4100:4106   */\n      dup12\n        /* \"#utility.yul\":4036:4114   */\n      tag_252\n      jump\t// in\n    tag_368:\n        /* \"#utility.yul\":4028:4114   */\n      swap1\n      pop\n        /* \"#utility.yul\":4161:4170   */\n      dup2\n        /* \"#utility.yul\":4155:4159   */\n      dup2\n        /* \"#utility.yul\":4151:4171   */\n      sub\n        /* \"#utility.yul\":4146:4148   */\n      0x20\n        /* \"#utility.yul\":4135:4144   */\n      dup4\n        /* \"#utility.yul\":4131:4149   */\n      add\n        /* \"#utility.yul\":4124:4172   */\n      mstore\n        /* \"#utility.yul\":4189:4267   */\n      tag_369\n        /* \"#utility.yul\":4262:4266   */\n      dup2\n        /* \"#utility.yul\":4253:4259   */\n      dup11\n        /* \"#utility.yul\":4189:4267   */\n      tag_252\n      jump\t// in\n    tag_369:\n        /* \"#utility.yul\":4181:4267   */\n      swap1\n      pop\n        /* \"#utility.yul\":4277:4349   */\n      tag_370\n        /* \"#utility.yul\":4345:4347   */\n      0x40\n        /* \"#utility.yul\":4334:4343   */\n      dup4\n        /* \"#utility.yul\":4330:4348   */\n      add\n        /* \"#utility.yul\":4321:4327   */\n      dup10\n        /* \"#utility.yul\":4277:4349   */\n      tag_254\n      jump\t// in\n    tag_370:\n        /* \"#utility.yul\":4359:4431   */\n      tag_371\n        /* \"#utility.yul\":4427:4429   */\n      0x60\n        /* \"#utility.yul\":4416:4425   */\n      dup4\n        /* \"#utility.yul\":4412:4430   */\n      add\n        /* \"#utility.yul\":4403:4409   */\n      dup9\n        /* \"#utility.yul\":4359:4431   */\n      tag_242\n      jump\t// in\n    tag_371:\n        /* \"#utility.yul\":4441:4508   */\n      tag_372\n        /* \"#utility.yul\":4503:4506   */\n      0x80\n        /* \"#utility.yul\":4492:4501   */\n      dup4\n        /* \"#utility.yul\":4488:4507   */\n      add\n        /* \"#utility.yul\":4479:4485   */\n      dup8\n        /* \"#utility.yul\":4441:4508   */\n      tag_256\n      jump\t// in\n    tag_372:\n        /* \"#utility.yul\":4518:4607   */\n      tag_373\n        /* \"#utility.yul\":4602:4605   */\n      0xa0\n        /* \"#utility.yul\":4591:4600   */\n      dup4\n        /* \"#utility.yul\":4587:4606   */\n      add\n        /* \"#utility.yul\":4578:4584   */\n      dup7\n        /* \"#utility.yul\":4518:4607   */\n      tag_259\n      jump\t// in\n    tag_373:\n        /* \"#utility.yul\":4617:4690   */\n      tag_374\n        /* \"#utility.yul\":4685:4688   */\n      0xc0\n        /* \"#utility.yul\":4674:4683   */\n      dup4\n        /* \"#utility.yul\":4670:4689   */\n      add\n        /* \"#utility.yul\":4661:4667   */\n      dup6\n        /* \"#utility.yul\":4617:4690   */\n      tag_242\n      jump\t// in\n    tag_374:\n        /* \"#utility.yul\":4700:4773   */\n      tag_375\n        /* \"#utility.yul\":4768:4771   */\n      0xe0\n        /* \"#utility.yul\":4757:4766   */\n      dup4\n        /* \"#utility.yul\":4753:4772   */\n      add\n        /* \"#utility.yul\":4744:4750   */\n      dup5\n        /* \"#utility.yul\":4700:4773   */\n      tag_242\n      jump\t// in\n    tag_375:\n        /* \"#utility.yul\":3581:4780   */\n      swap10\n      swap9\n      pop\n      pop\n      pop\n      pop\n      pop\n      pop\n      pop\n      pop\n      pop\n      jump\t// out\n        /* \"#utility.yul\":4786:4908   */\n    tag_260:\n        /* \"#utility.yul\":4859:4883   */\n      tag_377\n        /* \"#utility.yul\":4877:4882   */\n      dup2\n        /* \"#utility.yul\":4859:4883   */\n      tag_253\n      jump\t// in\n    tag_377:\n        /* \"#utility.yul\":4852:4857   */\n      dup2\n        /* \"#utility.yul\":4849:4884   */\n      eq\n        /* \"#utility.yul\":4839:4902   */\n      tag_378\n      jumpi\n        /* \"#utility.yul\":4898:4899   */\n      0x00\n        /* \"#utility.yul\":4895:4896   */\n      dup1\n        /* \"#utility.yul\":4888:4900   */\n      revert\n        /* \"#utility.yul\":4839:4902   */\n    tag_378:\n        /* \"#utility.yul\":4786:4908   */\n      pop\n      jump\t// out\n        /* \"#utility.yul\":4914:5053   */\n    tag_261:\n        /* \"#utility.yul\":4960:4965   */\n      0x00\n        /* \"#utility.yul\":4998:5004   */\n      dup2\n        /* \"#utility.yul\":4985:5005   */\n      calldataload\n        /* \"#utility.yul\":4976:5005   */\n      swap1\n      pop\n        /* \"#utility.yul\":5014:5047   */\n      tag_380\n        /* \"#utility.yul\":5041:5046   */\n      dup2\n        /* \"#utility.yul\":5014:5047   */\n      tag_260\n      jump\t// in\n    tag_380:\n        /* \"#utility.yul\":4914:5053   */\n      swap3\n      swap2\n      pop\n      pop\n      jump\t// out\n        /* \"#utility.yul\":5059:5388   */\n    tag_50:\n        /* \"#utility.yul\":5118:5124   */\n      0x00\n        /* \"#utility.yul\":5167:5169   */\n      0x20\n        /* \"#utility.yul\":5155:5164   */\n      dup3\n        /* \"#utility.yul\":5146:5153   */\n      dup5\n        /* \"#utility.yul\":5142:5165   */\n      sub\n        /* \"#utility.yul\":5138:5170   */\n      slt\n        /* \"#utility.yul\":5135:5254   */\n      iszero\n      tag_382\n      jumpi\n        /* \"#utility.yul\":5173:5252   */\n      tag_383\n      tag_244\n      jump\t// in\n    tag_383:\n        /* \"#utility.yul\":5135:5254   */\n    tag_382:\n        /* \"#utility.yul\":5293:5294   */\n      0x00\n        /* \"#utility.yul\":5318:5371   */\n      tag_384\n        /* \"#utility.yul\":5363:5370   */\n      dup5\n        /* \"#utility.yul\":5354:5360   */\n      dup3\n        /* \"#utility.yul\":5343:5352   */\n      dup6\n        /* \"#utility.yul\":5339:5361   */\n      add\n        /* \"#utility.yul\":5318:5371   */\n      tag_261\n      jump\t// in\n    tag_384:\n        /* \"#utility.yul\":5308:5371   */\n      swap2\n      pop\n        /* \"#utility.yul\":5264:5381   */\n      pop\n        /* \"#utility.yul\":5059:5388   */\n      swap3\n      swap2\n      pop\n      pop\n      jump\t// out\n        /* \"#utility.yul\":5394:5490   */\n    tag_262:\n        /* \"#utility.yul\":5431:5438   */\n      0x00\n        /* \"#utility.yul\":5460:5484   */\n      tag_386\n        /* \"#utility.yul\":5478:5483   */\n      dup3\n        /* \"#utility.yul\":5460:5484   */\n      tag_257\n      jump\t// in\n    tag_386:\n        /* \"#utility.yul\":5449:5484   */\n      swap1\n      pop\n        /* \"#utility.yul\":5394:5490   */\n      swap2\n      swap1\n      pop\n      jump\t// out\n        /* \"#utility.yul\":5496:5614   */\n    tag_263:\n        /* \"#utility.yul\":5583:5607   */\n      tag_388\n        /* \"#utility.yul\":5601:5606   */\n      dup2\n        /* \"#utility.yul\":5583:5607   */\n      tag_262\n      jump\t// in\n    tag_388:\n        /* \"#utility.yul\":5578:5581   */\n      dup3\n        /* \"#utility.yul\":5571:5608   */\n      mstore\n        /* \"#utility.yul\":5496:5614   */\n      pop\n      pop\n      jump\t// out\n        /* \"#utility.yul\":5620:6153   */\n    tag_58:\n        /* \"#utility.yul\":5789:5793   */\n      0x00\n        /* \"#utility.yul\":5827:5829   */\n      0x60\n        /* \"#utility.yul\":5816:5825   */\n      dup3\n        /* \"#utility.yul\":5812:5830   */\n      add\n        /* \"#utility.yul\":5804:5830   */\n      swap1\n      pop\n        /* \"#utility.yul\":5840:5911   */\n      tag_390\n        /* \"#utility.yul\":5908:5909   */\n      0x00\n        /* \"#utility.yul\":5897:5906   */\n      dup4\n        /* \"#utility.yul\":5893:5910   */\n      add\n        /* \"#utility.yul\":5884:5890   */\n      dup7\n        /* \"#utility.yul\":5840:5911   */\n      tag_263\n      jump\t// in\n    tag_390:\n        /* \"#utility.yul\":5958:5967   */\n      dup2\n        /* \"#utility.yul\":5952:5956   */\n      dup2\n        /* \"#utility.yul\":5948:5968   */\n      sub\n        /* \"#utility.yul\":5943:5945   */\n      0x20\n        /* \"#utility.yul\":5932:5941   */\n      dup4\n        /* \"#utility.yul\":5928:5946   */\n      add\n        /* \"#utility.yul\":5921:5969   */\n      mstore\n        /* \"#utility.yul\":5986:6064   */\n      tag_391\n        /* \"#utility.yul\":6059:6063   */\n      dup2\n        /* \"#utility.yul\":6050:6056   */\n      dup6\n        /* \"#utility.yul\":5986:6064   */\n      tag_252\n      jump\t// in\n    tag_391:\n        /* \"#utility.yul\":5978:6064   */\n      swap1\n      pop\n        /* \"#utility.yul\":6074:6146   */\n      tag_392\n        /* \"#utility.yul\":6142:6144   */\n      0x40\n        /* \"#utility.yul\":6131:6140   */\n      dup4\n        /* \"#utility.yul\":6127:6145   */\n      add\n        /* \"#utility.yul\":6118:6124   */\n      dup5\n        /* \"#utility.yul\":6074:6146   */\n      tag_242\n      jump\t// in\n    tag_392:\n        /* \"#utility.yul\":5620:6153   */\n      swap5\n      swap4\n      pop\n      pop\n      pop\n      pop\n      jump\t// out\n        /* \"#utility.yul\":6159:6413   */\n    tag_67:\n        /* \"#utility.yul\":6268:6272   */\n      0x00\n        /* \"#utility.yul\":6306:6308   */\n      0x20\n        /* \"#utility.yul\":6295:6304   */\n      dup3\n        /* \"#utility.yul\":6291:6309   */\n      add\n        /* \"#utility.yul\":6283:6309   */\n      swap1\n      pop\n        /* \"#utility.yul\":6319:6406   */\n      tag_394\n        /* \"#utility.yul\":6403:6404   */\n      0x00\n        /* \"#utility.yul\":6392:6401   */\n      dup4\n        /* \"#utility.yul\":6388:6405   */\n      add\n        /* \"#utility.yul\":6379:6385   */\n      dup5\n        /* \"#utility.yul\":6319:6406   */\n      tag_259\n      jump\t// in\n    tag_394:\n        /* \"#utility.yul\":6159:6413   */\n      swap3\n      swap2\n      pop\n      pop\n      jump\t// out\n        /* \"#utility.yul\":6419:6536   */\n    tag_264:\n        /* \"#utility.yul\":6528:6529   */\n      0x00\n        /* \"#utility.yul\":6525:6526   */\n      dup1\n        /* \"#utility.yul\":6518:6530   */\n      revert\n        /* \"#utility.yul\":6542:6659   */\n    tag_265:\n        /* \"#utility.yul\":6651:6652   */\n      0x00\n        /* \"#utility.yul\":6648:6649   */\n      dup1\n        /* \"#utility.yul\":6641:6653   */\n      revert\n        /* \"#utility.yul\":6665:6845   */\n    tag_266:\n        /* \"#utility.yul\":6713:6790   */\n      0x4e487b7100000000000000000000000000000000000000000000000000000000\n        /* \"#utility.yul\":6710:6711   */\n      0x00\n        /* \"#utility.yul\":6703:6791   */\n      mstore\n        /* \"#utility.yul\":6810:6814   */\n      0x41\n        /* \"#utility.yul\":6807:6808   */\n      0x04\n        /* \"#utility.yul\":6800:6815   */\n      mstore\n        /* \"#utility.yul\":6834:6838   */\n      0x24\n        /* \"#utility.yul\":6831:6832   */\n      0x00\n        /* \"#utility.yul\":6824:6839   */\n      revert\n        /* \"#utility.yul\":6851:7132   */\n    tag_267:\n        /* \"#utility.yul\":6934:6961   */\n      tag_399\n        /* \"#utility.yul\":6956:6960   */\n      dup3\n        /* \"#utility.yul\":6934:6961   */\n      tag_251\n      jump\t// in\n    tag_399:\n        /* \"#utility.yul\":6926:6932   */\n      dup2\n        /* \"#utility.yul\":6922:6962   */\n      add\n        /* \"#utility.yul\":7064:7070   */\n      dup2\n        /* \"#utility.yul\":7052:7062   */\n      dup2\n        /* \"#utility.yul\":7049:7071   */\n      lt\n        /* \"#utility.yul\":7028:7046   */\n      0xffffffffffffffff\n        /* \"#utility.yul\":7016:7026   */\n      dup3\n        /* \"#utility.yul\":7013:7047   */\n      gt\n        /* \"#utility.yul\":7010:7072   */\n      or\n        /* \"#utility.yul\":7007:7095   */\n      iszero\n      tag_400\n      jumpi\n        /* \"#utility.yul\":7075:7093   */\n      tag_401\n      tag_266\n      jump\t// in\n    tag_401:\n        /* \"#utility.yul\":7007:7095   */\n    tag_400:\n        /* \"#utility.yul\":7115:7125   */\n      dup1\n        /* \"#utility.yul\":7111:7113   */\n      0x40\n        /* \"#utility.yul\":7104:7126   */\n      mstore\n        /* \"#utility.yul\":6894:7132   */\n      pop\n        /* \"#utility.yul\":6851:7132   */\n      pop\n      pop\n      jump\t// out\n        /* \"#utility.yul\":7138:7267   */\n    tag_268:\n        /* \"#utility.yul\":7172:7178   */\n      0x00\n        /* \"#utility.yul\":7199:7219   */\n      tag_403\n      tag_243\n      jump\t// in\n    tag_403:\n        /* \"#utility.yul\":7189:7219   */\n      swap1\n      pop\n        /* \"#utility.yul\":7228:7261   */\n      tag_404\n        /* \"#utility.yul\":7256:7260   */\n      dup3\n        /* \"#utility.yul\":7248:7254   */\n      dup3\n        /* \"#utility.yul\":7228:7261   */\n      tag_267\n      jump\t// in\n    tag_404:\n        /* \"#utility.yul\":7138:7267   */\n      swap2\n      swap1\n      pop\n      jump\t// out\n        /* \"#utility.yul\":7273:7581   */\n    tag_269:\n        /* \"#utility.yul\":7335:7339   */\n      0x00\n        /* \"#utility.yul\":7425:7443   */\n      0xffffffffffffffff\n        /* \"#utility.yul\":7417:7423   */\n      dup3\n        /* \"#utility.yul\":7414:7444   */\n      gt\n        /* \"#utility.yul\":7411:7467   */\n      iszero\n      tag_406\n      jumpi\n        /* \"#utility.yul\":7447:7465   */\n      tag_407\n      tag_266\n      jump\t// in\n    tag_407:\n        /* \"#utility.yul\":7411:7467   */\n    tag_406:\n        /* \"#utility.yul\":7485:7514   */\n      tag_408\n        /* \"#utility.yul\":7507:7513   */\n      dup3\n        /* \"#utility.yul\":7485:7514   */\n      tag_251\n      jump\t// in\n    tag_408:\n        /* \"#utility.yul\":7477:7514   */\n      swap1\n      pop\n        /* \"#utility.yul\":7569:7573   */\n      0x20\n        /* \"#utility.yul\":7563:7567   */\n      dup2\n        /* \"#utility.yul\":7559:7574   */\n      add\n        /* \"#utility.yul\":7551:7574   */\n      swap1\n      pop\n        /* \"#utility.yul\":7273:7581   */\n      swap2\n      swap1\n      pop\n      jump\t// out\n        /* \"#utility.yul\":7587:7735   */\n    tag_270:\n        /* \"#utility.yul\":7685:7691   */\n      dup3\n        /* \"#utility.yul\":7680:7683   */\n      dup2\n        /* \"#utility.yul\":7675:7678   */\n      dup4\n        /* \"#utility.yul\":7662:7692   */\n      calldatacopy\n        /* \"#utility.yul\":7726:7727   */\n      0x00\n        /* \"#utility.yul\":7717:7723   */\n      dup4\n        /* \"#utility.yul\":7712:7715   */\n      dup4\n        /* \"#utility.yul\":7708:7724   */\n      add\n        /* \"#utility.yul\":7701:7728   */\n      mstore\n        /* \"#utility.yul\":7587:7735   */\n      pop\n      pop\n      pop\n      jump\t// out\n        /* \"#utility.yul\":7741:8166   */\n    tag_271:\n        /* \"#utility.yul\":7819:7824   */\n      0x00\n        /* \"#utility.yul\":7844:7910   */\n      tag_411\n        /* \"#utility.yul\":7860:7909   */\n      tag_412\n        /* \"#utility.yul\":7902:7908   */\n      dup5\n        /* \"#utility.yul\":7860:7909   */\n      tag_269\n      jump\t// in\n    tag_412:\n        /* \"#utility.yul\":7844:7910   */\n      tag_268\n      jump\t// in\n    tag_411:\n        /* \"#utility.yul\":7835:7910   */\n      swap1\n      pop\n        /* \"#utility.yul\":7933:7939   */\n      dup3\n        /* \"#utility.yul\":7926:7931   */\n      dup2\n        /* \"#utility.yul\":7919:7940   */\n      mstore\n        /* \"#utility.yul\":7971:7975   */\n      0x20\n        /* \"#utility.yul\":7964:7969   */\n      dup2\n        /* \"#utility.yul\":7960:7976   */\n      add\n        /* \"#utility.yul\":8009:8012   */\n      dup5\n        /* \"#utility.yul\":8000:8006   */\n      dup5\n        /* \"#utility.yul\":7995:7998   */\n      dup5\n        /* \"#utility.yul\":7991:8007   */\n      add\n        /* \"#utility.yul\":7988:8013   */\n      gt\n        /* \"#utility.yul\":7985:8097   */\n      iszero\n      tag_413\n      jumpi\n        /* \"#utility.yul\":8016:8095   */\n      tag_414\n      tag_265\n      jump\t// in\n    tag_414:\n        /* \"#utility.yul\":7985:8097   */\n    tag_413:\n        /* \"#utility.yul\":8106:8160   */\n      tag_415\n        /* \"#utility.yul\":8153:8159   */\n      dup5\n        /* \"#utility.yul\":8148:8151   */\n      dup3\n        /* \"#utility.yul\":8143:8146   */\n      dup6\n        /* \"#utility.yul\":8106:8160   */\n      tag_270\n      jump\t// in\n    tag_415:\n        /* \"#utility.yul\":7825:8166   */\n      pop\n        /* \"#utility.yul\":7741:8166   */\n      swap4\n      swap3\n      pop\n      pop\n      pop\n      jump\t// out\n        /* \"#utility.yul\":8186:8526   */\n    tag_272:\n        /* \"#utility.yul\":8242:8247   */\n      0x00\n        /* \"#utility.yul\":8291:8294   */\n      dup3\n        /* \"#utility.yul\":8284:8288   */\n      0x1f\n        /* \"#utility.yul\":8276:8282   */\n      dup4\n        /* \"#utility.yul\":8272:8289   */\n      add\n        /* \"#utility.yul\":8268:8295   */\n      slt\n        /* \"#utility.yul\":8258:8380   */\n      tag_417\n      jumpi\n        /* \"#utility.yul\":8299:8378   */\n      tag_418\n      tag_264\n      jump\t// in\n    tag_418:\n        /* \"#utility.yul\":8258:8380   */\n    tag_417:\n        /* \"#utility.yul\":8416:8422   */\n      dup2\n        /* \"#utility.yul\":8403:8423   */\n      calldataload\n        /* \"#utility.yul\":8441:8520   */\n      tag_419\n        /* \"#utility.yul\":8516:8519   */\n      dup5\n        /* \"#utility.yul\":8508:8514   */\n      dup3\n        /* \"#utility.yul\":8501:8505   */\n      0x20\n        /* \"#utility.yul\":8493:8499   */\n      dup7\n        /* \"#utility.yul\":8489:8506   */\n      add\n        /* \"#utility.yul\":8441:8520   */\n      tag_271\n      jump\t// in\n    tag_419:\n        /* \"#utility.yul\":8432:8520   */\n      swap2\n      pop\n        /* \"#utility.yul\":8248:8526   */\n      pop\n        /* \"#utility.yul\":8186:8526   */\n      swap3\n      swap2\n      pop\n      pop\n      jump\t// out\n        /* \"#utility.yul\":8532:8648   */\n    tag_273:\n        /* \"#utility.yul\":8602:8623   */\n      tag_421\n        /* \"#utility.yul\":8617:8622   */\n      dup2\n        /* \"#utility.yul\":8602:8623   */\n      tag_255\n      jump\t// in\n    tag_421:\n        /* \"#utility.yul\":8595:8600   */\n      dup2\n        /* \"#utility.yul\":8592:8624   */\n      eq\n        /* \"#utility.yul\":8582:8642   */\n      tag_422\n      jumpi\n        /* \"#utility.yul\":8638:8639   */\n      0x00\n        /* \"#utility.yul\":8635:8636   */\n      dup1\n        /* \"#utility.yul\":8628:8640   */\n      revert\n        /* \"#utility.yul\":8582:8642   */\n    tag_422:\n        /* \"#utility.yul\":8532:8648   */\n      pop\n      jump\t// out\n        /* \"#utility.yul\":8654:8787   */\n    tag_274:\n        /* \"#utility.yul\":8697:8702   */\n      0x00\n        /* \"#utility.yul\":8735:8741   */\n      dup2\n        /* \"#utility.yul\":8722:8742   */\n      calldataload\n        /* \"#utility.yul\":8713:8742   */\n      swap1\n      pop\n        /* \"#utility.yul\":8751:8781   */\n      tag_424\n        /* \"#utility.yul\":8775:8780   */\n      dup2\n        /* \"#utility.yul\":8751:8781   */\n      tag_273\n      jump\t// in\n    tag_424:\n        /* \"#utility.yul\":8654:8787   */\n      swap3\n      swap2\n      pop\n      pop\n      jump\t// out\n        /* \"#utility.yul\":8793:9906   */\n    tag_71:\n        /* \"#utility.yul\":8893:8899   */\n      0x00\n        /* \"#utility.yul\":8901:8907   */\n      dup1\n        /* \"#utility.yul\":8909:8915   */\n      0x00\n        /* \"#utility.yul\":8917:8923   */\n      dup1\n        /* \"#utility.yul\":8966:8969   */\n      0x80\n        /* \"#utility.yul\":8954:8963   */\n      dup6\n        /* \"#utility.yul\":8945:8952   */\n      dup8\n        /* \"#utility.yul\":8941:8964   */\n      sub\n        /* \"#utility.yul\":8937:8970   */\n      slt\n        /* \"#utility.yul\":8934:9054   */\n      iszero\n      tag_426\n      jumpi\n        /* \"#utility.yul\":8973:9052   */\n      tag_427\n      tag_244\n      jump\t// in\n    tag_427:\n        /* \"#utility.yul\":8934:9054   */\n    tag_426:\n        /* \"#utility.yul\":9121:9122   */\n      0x00\n        /* \"#utility.yul\":9110:9119   */\n      dup6\n        /* \"#utility.yul\":9106:9123   */\n      add\n        /* \"#utility.yul\":9093:9124   */\n      calldataload\n        /* \"#utility.yul\":9151:9169   */\n      0xffffffffffffffff\n        /* \"#utility.yul\":9143:9149   */\n      dup2\n        /* \"#utility.yul\":9140:9170   */\n      gt\n        /* \"#utility.yul\":9137:9254   */\n      iszero\n      tag_428\n      jumpi\n        /* \"#utility.yul\":9173:9252   */\n      tag_429\n      tag_245\n      jump\t// in\n    tag_429:\n        /* \"#utility.yul\":9137:9254   */\n    tag_428:\n        /* \"#utility.yul\":9278:9341   */\n      tag_430\n        /* \"#utility.yul\":9333:9340   */\n      dup8\n        /* \"#utility.yul\":9324:9330   */\n      dup3\n        /* \"#utility.yul\":9313:9322   */\n      dup9\n        /* \"#utility.yul\":9309:9331   */\n      add\n        /* \"#utility.yul\":9278:9341   */\n      tag_272\n      jump\t// in\n    tag_430:\n        /* \"#utility.yul\":9268:9341   */\n      swap5\n      pop\n        /* \"#utility.yul\":9064:9351   */\n      pop\n        /* \"#utility.yul\":9418:9420   */\n      0x20\n        /* \"#utility.yul\":9407:9416   */\n      dup6\n        /* \"#utility.yul\":9403:9421   */\n      add\n        /* \"#utility.yul\":9390:9422   */\n      calldataload\n        /* \"#utility.yul\":9449:9467   */\n      0xffffffffffffffff\n        /* \"#utility.yul\":9441:9447   */\n      dup2\n        /* \"#utility.yul\":9438:9468   */\n      gt\n        /* \"#utility.yul\":9435:9552   */\n      iszero\n      tag_431\n      jumpi\n        /* \"#utility.yul\":9471:9550   */\n      tag_432\n      tag_245\n      jump\t// in\n    tag_432:\n        /* \"#utility.yul\":9435:9552   */\n    tag_431:\n        /* \"#utility.yul\":9576:9639   */\n      tag_433\n        /* \"#utility.yul\":9631:9638   */\n      dup8\n        /* \"#utility.yul\":9622:9628   */\n      dup3\n        /* \"#utility.yul\":9611:9620   */\n      dup9\n        /* \"#utility.yul\":9607:9629   */\n      add\n        /* \"#utility.yul\":9576:9639   */\n      tag_272\n      jump\t// in\n    tag_433:\n        /* \"#utility.yul\":9566:9639   */\n      swap4\n      pop\n        /* \"#utility.yul\":9361:9649   */\n      pop\n        /* \"#utility.yul\":9688:9690   */\n      0x40\n        /* \"#utility.yul\":9714:9764   */\n      tag_434\n        /* \"#utility.yul\":9756:9763   */\n      dup8\n        /* \"#utility.yul\":9747:9753   */\n      dup3\n        /* \"#utility.yul\":9736:9745   */\n      dup9\n        /* \"#utility.yul\":9732:9754   */\n      add\n        /* \"#utility.yul\":9714:9764   */\n      tag_274\n      jump\t// in\n    tag_434:\n        /* \"#utility.yul\":9704:9764   */\n      swap3\n      pop\n        /* \"#utility.yul\":9659:9774   */\n      pop\n        /* \"#utility.yul\":9813:9815   */\n      0x60\n        /* \"#utility.yul\":9839:9889   */\n      tag_435\n        /* \"#utility.yul\":9881:9888   */\n      dup8\n        /* \"#utility.yul\":9872:9878   */\n      dup3\n        /* \"#utility.yul\":9861:9870   */\n      dup9\n        /* \"#utility.yul\":9857:9879   */\n      add\n        /* \"#utility.yul\":9839:9889   */\n      tag_274\n      jump\t// in\n    tag_435:\n        /* \"#utility.yul\":9829:9889   */\n      swap2\n      pop\n        /* \"#utility.yul\":9784:9899   */\n      pop\n        /* \"#utility.yul\":8793:9906   */\n      swap3\n      swap6\n      swap2\n      swap5\n      pop\n      swap3\n      pop\n      jump\t// out\n        /* \"#utility.yul\":9912:10566   */\n    tag_76:\n        /* \"#utility.yul\":9990:9996   */\n      0x00\n        /* \"#utility.yul\":9998:10004   */\n      dup1\n        /* \"#utility.yul\":10047:10049   */\n      0x40\n        /* \"#utility.yul\":10035:10044   */\n      dup4\n        /* \"#utility.yul\":10026:10033   */\n      dup6\n        /* \"#utility.yul\":10022:10045   */\n      sub\n        /* \"#utility.yul\":10018:10050   */\n      slt\n        /* \"#utility.yul\":10015:10134   */\n      iszero\n      tag_437\n      jumpi\n        /* \"#utility.yul\":10053:10132   */\n      tag_438\n      tag_244\n      jump\t// in\n    tag_438:\n        /* \"#utility.yul\":10015:10134   */\n    tag_437:\n        /* \"#utility.yul\":10173:10174   */\n      0x00\n        /* \"#utility.yul\":10198:10251   */\n      tag_439\n        /* \"#utility.yul\":10243:10250   */\n      dup6\n        /* \"#utility.yul\":10234:10240   */\n      dup3\n        /* \"#utility.yul\":10223:10232   */\n      dup7\n        /* \"#utility.yul\":10219:10241   */\n      add\n        /* \"#utility.yul\":10198:10251   */\n      tag_247\n      jump\t// in\n    tag_439:\n        /* \"#utility.yul\":10188:10251   */\n      swap3\n      pop\n        /* \"#utility.yul\":10144:10261   */\n      pop\n        /* \"#utility.yul\":10328:10330   */\n      0x20\n        /* \"#utility.yul\":10317:10326   */\n      dup4\n        /* \"#utility.yul\":10313:10331   */\n      add\n        /* \"#utility.yul\":10300:10332   */\n      calldataload\n        /* \"#utility.yul\":10359:10377   */\n      0xffffffffffffffff\n        /* \"#utility.yul\":10351:10357   */\n      dup2\n        /* \"#utility.yul\":10348:10378   */\n      gt\n        /* \"#utility.yul\":10345:10462   */\n      iszero\n      tag_440\n      jumpi\n        /* \"#utility.yul\":10381:10460   */\n      tag_441\n      tag_245\n      jump\t// in\n    tag_441:\n        /* \"#utility.yul\":10345:10462   */\n    tag_440:\n        /* \"#utility.yul\":10486:10549   */\n      tag_442\n        /* \"#utility.yul\":10541:10548   */\n      dup6\n        /* \"#utility.yul\":10532:10538   */\n      dup3\n        /* \"#utility.yul\":10521:10530   */\n      dup7\n        /* \"#utility.yul\":10517:10539   */\n      add\n        /* \"#utility.yul\":10486:10549   */\n      tag_272\n      jump\t// in\n    tag_442:\n        /* \"#utility.yul\":10476:10549   */\n      swap2\n      pop\n        /* \"#utility.yul\":10271:10559   */\n      pop\n        /* \"#utility.yul\":9912:10566   */\n      swap3\n      pop\n      swap3\n      swap1\n      pop\n      jump\t// out\n        /* \"#utility.yul\":10572:10883   */\n    tag_275:\n        /* \"#utility.yul\":10649:10653   */\n      0x00\n        /* \"#utility.yul\":10739:10757   */\n      0xffffffffffffffff\n        /* \"#utility.yul\":10731:10737   */\n      dup3\n        /* \"#utility.yul\":10728:10758   */\n      gt\n        /* \"#utility.yul\":10725:10781   */\n      iszero\n      tag_444\n      jumpi\n        /* \"#utility.yul\":10761:10779   */\n      tag_445\n      tag_266\n      jump\t// in\n    tag_445:\n        /* \"#utility.yul\":10725:10781   */\n    tag_444:\n        /* \"#utility.yul\":10811:10815   */\n      0x20\n        /* \"#utility.yul\":10803:10809   */\n      dup3\n        /* \"#utility.yul\":10799:10816   */\n      mul\n        /* \"#utility.yul\":10791:10816   */\n      swap1\n      pop\n        /* \"#utility.yul\":10871:10875   */\n      0x20\n        /* \"#utility.yul\":10865:10869   */\n      dup2\n        /* \"#utility.yul\":10861:10876   */\n      add\n        /* \"#utility.yul\":10853:10876   */\n      swap1\n      pop\n        /* \"#utility.yul\":10572:10883   */\n      swap2\n      swap1\n      pop\n      jump\t// out\n        /* \"#utility.yul\":10889:11006   */\n    tag_276:\n        /* \"#utility.yul\":10998:10999   */\n      0x00\n        /* \"#utility.yul\":10995:10996   */\n      dup1\n        /* \"#utility.yul\":10988:11000   */\n      revert\n        /* \"#utility.yul\":11012:11134   */\n    tag_277:\n        /* \"#utility.yul\":11085:11109   */\n      tag_448\n        /* \"#utility.yul\":11103:11108   */\n      dup2\n        /* \"#utility.yul\":11085:11109   */\n      tag_262\n      jump\t// in\n    tag_448:\n        /* \"#utility.yul\":11078:11083   */\n      dup2\n        /* \"#utility.yul\":11075:11110   */\n      eq\n        /* \"#utility.yul\":11065:11128   */\n      tag_449\n      jumpi\n        /* \"#utility.yul\":11124:11125   */\n      0x00\n        /* \"#utility.yul\":11121:11122   */\n      dup1\n        /* \"#utility.yul\":11114:11126   */\n      revert\n        /* \"#utility.yul\":11065:11128   */\n    tag_449:\n        /* \"#utility.yul\":11012:11134   */\n      pop\n      jump\t// out\n        /* \"#utility.yul\":11140:11279   */\n    tag_278:\n        /* \"#utility.yul\":11186:11191   */\n      0x00\n        /* \"#utility.yul\":11224:11230   */\n      dup2\n        /* \"#utility.yul\":11211:11231   */\n      calldataload\n        /* \"#utility.yul\":11202:11231   */\n      swap1\n      pop\n        /* \"#utility.yul\":11240:11273   */\n      tag_451\n        /* \"#utility.yul\":11267:11272   */\n      dup2\n        /* \"#utility.yul\":11240:11273   */\n      tag_277\n      jump\t// in\n    tag_451:\n        /* \"#utility.yul\":11140:11279   */\n      swap3\n      swap2\n      pop\n      pop\n      jump\t// out\n        /* \"#utility.yul\":11302:12012   */\n    tag_279:\n        /* \"#utility.yul\":11398:11403   */\n      0x00\n        /* \"#utility.yul\":11423:11504   */\n      tag_453\n        /* \"#utility.yul\":11439:11503   */\n      tag_454\n        /* \"#utility.yul\":11496:11502   */\n      dup5\n        /* \"#utility.yul\":11439:11503   */\n      tag_275\n      jump\t// in\n    tag_454:\n        /* \"#utility.yul\":11423:11504   */\n      tag_268\n      jump\t// in\n    tag_453:\n        /* \"#utility.yul\":11414:11504   */\n      swap1\n      pop\n        /* \"#utility.yul\":11524:11529   */\n      dup1\n        /* \"#utility.yul\":11553:11559   */\n      dup4\n        /* \"#utility.yul\":11546:11551   */\n      dup3\n        /* \"#utility.yul\":11539:11560   */\n      mstore\n        /* \"#utility.yul\":11587:11591   */\n      0x20\n        /* \"#utility.yul\":11580:11585   */\n      dup3\n        /* \"#utility.yul\":11576:11592   */\n      add\n        /* \"#utility.yul\":11569:11592   */\n      swap1\n      pop\n        /* \"#utility.yul\":11640:11644   */\n      0x20\n        /* \"#utility.yul\":11632:11638   */\n      dup5\n        /* \"#utility.yul\":11628:11645   */\n      mul\n        /* \"#utility.yul\":11620:11626   */\n      dup4\n        /* \"#utility.yul\":11616:11646   */\n      add\n        /* \"#utility.yul\":11669:11672   */\n      dup6\n        /* \"#utility.yul\":11661:11667   */\n      dup2\n        /* \"#utility.yul\":11658:11673   */\n      gt\n        /* \"#utility.yul\":11655:11777   */\n      iszero\n      tag_455\n      jumpi\n        /* \"#utility.yul\":11688:11767   */\n      tag_456\n      tag_276\n      jump\t// in\n    tag_456:\n        /* \"#utility.yul\":11655:11777   */\n    tag_455:\n        /* \"#utility.yul\":11803:11809   */\n      dup4\n        /* \"#utility.yul\":11786:12006   */\n    tag_457:\n        /* \"#utility.yul\":11820:11826   */\n      dup2\n        /* \"#utility.yul\":11815:11818   */\n      dup2\n        /* \"#utility.yul\":11812:11827   */\n      lt\n        /* \"#utility.yul\":11786:12006   */\n      iszero\n      tag_459\n      jumpi\n        /* \"#utility.yul\":11895:11898   */\n      dup1\n        /* \"#utility.yul\":11924:11961   */\n      tag_460\n        /* \"#utility.yul\":11957:11960   */\n      dup9\n        /* \"#utility.yul\":11945:11955   */\n      dup3\n        /* \"#utility.yul\":11924:11961   */\n      tag_278\n      jump\t// in\n    tag_460:\n        /* \"#utility.yul\":11919:11922   */\n      dup5\n        /* \"#utility.yul\":11912:11962   */\n      mstore\n        /* \"#utility.yul\":11991:11995   */\n      0x20\n        /* \"#utility.yul\":11986:11989   */\n      dup5\n        /* \"#utility.yul\":11982:11996   */\n      add\n        /* \"#utility.yul\":11975:11996   */\n      swap4\n      pop\n        /* \"#utility.yul\":11862:12006   */\n      pop\n        /* \"#utility.yul\":11846:11850   */\n      0x20\n        /* \"#utility.yul\":11841:11844   */\n      dup2\n        /* \"#utility.yul\":11837:11851   */\n      add\n        /* \"#utility.yul\":11830:11851   */\n      swap1\n      pop\n        /* \"#utility.yul\":11786:12006   */\n      jump(tag_457)\n    tag_459:\n        /* \"#utility.yul\":11790:11811   */\n      pop\n        /* \"#utility.yul\":11404:12012   */\n      pop\n      pop\n        /* \"#utility.yul\":11302:12012   */\n      swap4\n      swap3\n      pop\n      pop\n      pop\n      jump\t// out\n        /* \"#utility.yul\":12035:12405   */\n    tag_280:\n        /* \"#utility.yul\":12106:12111   */\n      0x00\n        /* \"#utility.yul\":12155:12158   */\n      dup3\n        /* \"#utility.yul\":12148:12152   */\n      0x1f\n        /* \"#utility.yul\":12140:12146   */\n      dup4\n        /* \"#utility.yul\":12136:12153   */\n      add\n        /* \"#utility.yul\":12132:12159   */\n      slt\n        /* \"#utility.yul\":12122:12244   */\n      tag_462\n      jumpi\n        /* \"#utility.yul\":12163:12242   */\n      tag_463\n      tag_264\n      jump\t// in\n    tag_463:\n        /* \"#utility.yul\":12122:12244   */\n    tag_462:\n        /* \"#utility.yul\":12280:12286   */\n      dup2\n        /* \"#utility.yul\":12267:12287   */\n      calldataload\n        /* \"#utility.yul\":12305:12399   */\n      tag_464\n        /* \"#utility.yul\":12395:12398   */\n      dup5\n        /* \"#utility.yul\":12387:12393   */\n      dup3\n        /* \"#utility.yul\":12380:12384   */\n      0x20\n        /* \"#utility.yul\":12372:12378   */\n      dup7\n        /* \"#utility.yul\":12368:12385   */\n      add\n        /* \"#utility.yul\":12305:12399   */\n      tag_279\n      jump\t// in\n    tag_464:\n        /* \"#utility.yul\":12296:12399   */\n      swap2\n      pop\n        /* \"#utility.yul\":12112:12405   */\n      pop\n        /* \"#utility.yul\":12035:12405   */\n      swap3\n      swap2\n      pop\n      pop\n      jump\t// out\n        /* \"#utility.yul\":12411:13240   */\n    tag_81:\n        /* \"#utility.yul\":12513:12519   */\n      0x00\n        /* \"#utility.yul\":12521:12527   */\n      dup1\n        /* \"#utility.yul\":12529:12535   */\n      0x00\n        /* \"#utility.yul\":12578:12580   */\n      0x60\n        /* \"#utility.yul\":12566:12575   */\n      dup5\n        /* \"#utility.yul\":12557:12564   */\n      dup7\n        /* \"#utility.yul\":12553:12576   */\n      sub\n        /* \"#utility.yul\":12549:12581   */\n      slt\n        /* \"#utility.yul\":12546:12665   */\n      iszero\n      tag_466\n      jumpi\n        /* \"#utility.yul\":12584:12663   */\n      tag_467\n      tag_244\n      jump\t// in\n    tag_467:\n        /* \"#utility.yul\":12546:12665   */\n    tag_466:\n        /* \"#utility.yul\":12704:12705   */\n      0x00\n        /* \"#utility.yul\":12729:12782   */\n      tag_468\n        /* \"#utility.yul\":12774:12781   */\n      dup7\n        /* \"#utility.yul\":12765:12771   */\n      dup3\n        /* \"#utility.yul\":12754:12763   */\n      dup8\n        /* \"#utility.yul\":12750:12772   */\n      add\n        /* \"#utility.yul\":12729:12782   */\n      tag_247\n      jump\t// in\n    tag_468:\n        /* \"#utility.yul\":12719:12782   */\n      swap4\n      pop\n        /* \"#utility.yul\":12675:12792   */\n      pop\n        /* \"#utility.yul\":12831:12833   */\n      0x20\n        /* \"#utility.yul\":12857:12910   */\n      tag_469\n        /* \"#utility.yul\":12902:12909   */\n      dup7\n        /* \"#utility.yul\":12893:12899   */\n      dup3\n        /* \"#utility.yul\":12882:12891   */\n      dup8\n        /* \"#utility.yul\":12878:12900   */\n      add\n        /* \"#utility.yul\":12857:12910   */\n      tag_261\n      jump\t// in\n    tag_469:\n        /* \"#utility.yul\":12847:12910   */\n      swap3\n      pop\n        /* \"#utility.yul\":12802:12920   */\n      pop\n        /* \"#utility.yul\":12987:12989   */\n      0x40\n        /* \"#utility.yul\":12976:12985   */\n      dup5\n        /* \"#utility.yul\":12972:12990   */\n      add\n        /* \"#utility.yul\":12959:12991   */\n      calldataload\n        /* \"#utility.yul\":13018:13036   */\n      0xffffffffffffffff\n        /* \"#utility.yul\":13010:13016   */\n      dup2\n        /* \"#utility.yul\":13007:13037   */\n      gt\n        /* \"#utility.yul\":13004:13121   */\n      iszero\n      tag_470\n      jumpi\n        /* \"#utility.yul\":13040:13119   */\n      tag_471\n      tag_245\n      jump\t// in\n    tag_471:\n        /* \"#utility.yul\":13004:13121   */\n    tag_470:\n        /* \"#utility.yul\":13145:13223   */\n      tag_472\n        /* \"#utility.yul\":13215:13222   */\n      dup7\n        /* \"#utility.yul\":13206:13212   */\n      dup3\n        /* \"#utility.yul\":13195:13204   */\n      dup8\n        /* \"#utility.yul\":13191:13213   */\n      add\n        /* \"#utility.yul\":13145:13223   */\n      tag_280\n      jump\t// in\n    tag_472:\n        /* \"#utility.yul\":13135:13223   */\n      swap2\n      pop\n        /* \"#utility.yul\":12930:13233   */\n      pop\n        /* \"#utility.yul\":12411:13240   */\n      swap3\n      pop\n      swap3\n      pop\n      swap3\n      jump\t// out\n        /* \"#utility.yul\":13246:13575   */\n    tag_89:\n        /* \"#utility.yul\":13305:13311   */\n      0x00\n        /* \"#utility.yul\":13354:13356   */\n      0x20\n        /* \"#utility.yul\":13342:13351   */\n      dup3\n        /* \"#utility.yul\":13333:13340   */\n      dup5\n        /* \"#utility.yul\":13329:13352   */\n      sub\n        /* \"#utility.yul\":13325:13357   */\n      slt\n        /* \"#utility.yul\":13322:13441   */\n      iszero\n      tag_474\n      jumpi\n        /* \"#utility.yul\":13360:13439   */\n      tag_475\n      tag_244\n      jump\t// in\n    tag_475:\n        /* \"#utility.yul\":13322:13441   */\n    tag_474:\n        /* \"#utility.yul\":13480:13481   */\n      0x00\n        /* \"#utility.yul\":13505:13558   */\n      tag_476\n        /* \"#utility.yul\":13550:13557   */\n      dup5\n        /* \"#utility.yul\":13541:13547   */\n      dup3\n        /* \"#utility.yul\":13530:13539   */\n      dup6\n        /* \"#utility.yul\":13526:13548   */\n      add\n        /* \"#utility.yul\":13505:13558   */\n      tag_278\n      jump\t// in\n    tag_476:\n        /* \"#utility.yul\":13495:13558   */\n      swap2\n      pop\n        /* \"#utility.yul\":13451:13568   */\n      pop\n        /* \"#utility.yul\":13246:13575   */\n      swap3\n      swap2\n      pop\n      pop\n      jump\t// out\n        /* \"#utility.yul\":13581:14292   */\n    tag_92:\n        /* \"#utility.yul\":13786:13790   */\n      0x00\n        /* \"#utility.yul\":13824:13827   */\n      0x80\n        /* \"#utility.yul\":13813:13822   */\n      dup3\n        /* \"#utility.yul\":13809:13828   */\n      add\n        /* \"#utility.yul\":13801:13828   */\n      swap1\n      pop\n        /* \"#utility.yul\":13874:13883   */\n      dup2\n        /* \"#utility.yul\":13868:13872   */\n      dup2\n        /* \"#utility.yul\":13864:13884   */\n      sub\n        /* \"#utility.yul\":13860:13861   */\n      0x00\n        /* \"#utility.yul\":13849:13858   */\n      dup4\n        /* \"#utility.yul\":13845:13862   */\n      add\n        /* \"#utility.yul\":13838:13885   */\n      mstore\n        /* \"#utility.yul\":13902:13980   */\n      tag_478\n        /* \"#utility.yul\":13975:13979   */\n      dup2\n        /* \"#utility.yul\":13966:13972   */\n      dup8\n        /* \"#utility.yul\":13902:13980   */\n      tag_252\n      jump\t// in\n    tag_478:\n        /* \"#utility.yul\":13894:13980   */\n      swap1\n      pop\n        /* \"#utility.yul\":14027:14036   */\n      dup2\n        /* \"#utility.yul\":14021:14025   */\n      dup2\n        /* \"#utility.yul\":14017:14037   */\n      sub\n        /* \"#utility.yul\":14012:14014   */\n      0x20\n        /* \"#utility.yul\":14001:14010   */\n      dup4\n        /* \"#utility.yul\":13997:14015   */\n      add\n        /* \"#utility.yul\":13990:14038   */\n      mstore\n        /* \"#utility.yul\":14055:14133   */\n      tag_479\n        /* \"#utility.yul\":14128:14132   */\n      dup2\n        /* \"#utility.yul\":14119:14125   */\n      dup7\n        /* \"#utility.yul\":14055:14133   */\n      tag_252\n      jump\t// in\n    tag_479:\n        /* \"#utility.yul\":14047:14133   */\n      swap1\n      pop\n        /* \"#utility.yul\":14143:14209   */\n      tag_480\n        /* \"#utility.yul\":14205:14207   */\n      0x40\n        /* \"#utility.yul\":14194:14203   */\n      dup4\n        /* \"#utility.yul\":14190:14208   */\n      add\n        /* \"#utility.yul\":14181:14187   */\n      dup6\n        /* \"#utility.yul\":14143:14209   */\n      tag_256\n      jump\t// in\n    tag_480:\n        /* \"#utility.yul\":14219:14285   */\n      tag_481\n        /* \"#utility.yul\":14281:14283   */\n      0x60\n        /* \"#utility.yul\":14270:14279   */\n      dup4\n        /* \"#utility.yul\":14266:14284   */\n      add\n        /* \"#utility.yul\":14257:14263   */\n      dup5\n        /* \"#utility.yul\":14219:14285   */\n      tag_256\n      jump\t// in\n    tag_481:\n        /* \"#utility.yul\":13581:14292   */\n      swap6\n      swap5\n      pop\n      pop\n      pop\n      pop\n      pop\n      jump\t// out\n        /* \"#utility.yul\":14298:15465   */\n    tag_98:\n        /* \"#utility.yul\":14621:14625   */\n      0x00\n        /* \"#utility.yul\":14659:14662   */\n      0x0100\n        /* \"#utility.yul\":14648:14657   */\n      dup3\n        /* \"#utility.yul\":14644:14663   */\n      add\n        /* \"#utility.yul\":14636:14663   */\n      swap1\n      pop\n        /* \"#utility.yul\":14709:14718   */\n      dup2\n        /* \"#utility.yul\":14703:14707   */\n      dup2\n        /* \"#utility.yul\":14699:14719   */\n      sub\n        /* \"#utility.yul\":14695:14696   */\n      0x00\n        /* \"#utility.yul\":14684:14693   */\n      dup4\n        /* \"#utility.yul\":14680:14697   */\n      add\n        /* \"#utility.yul\":14673:14720   */\n      mstore\n        /* \"#utility.yul\":14737:14815   */\n      tag_483\n        /* \"#utility.yul\":14810:14814   */\n      dup2\n        /* \"#utility.yul\":14801:14807   */\n      dup12\n        /* \"#utility.yul\":14737:14815   */\n      tag_252\n      jump\t// in\n    tag_483:\n        /* \"#utility.yul\":14729:14815   */\n      swap1\n      pop\n        /* \"#utility.yul\":14862:14871   */\n      dup2\n        /* \"#utility.yul\":14856:14860   */\n      dup2\n        /* \"#utility.yul\":14852:14872   */\n      sub\n        /* \"#utility.yul\":14847:14849   */\n      0x20\n        /* \"#utility.yul\":14836:14845   */\n      dup4\n        /* \"#utility.yul\":14832:14850   */\n      add\n        /* \"#utility.yul\":14825:14873   */\n      mstore\n        /* \"#utility.yul\":14890:14968   */\n      tag_484\n        /* \"#utility.yul\":14963:14967   */\n      dup2\n        /* \"#utility.yul\":14954:14960   */\n      dup11\n        /* \"#utility.yul\":14890:14968   */\n      tag_252\n      jump\t// in\n    tag_484:\n        /* \"#utility.yul\":14882:14968   */\n      swap1\n      pop\n        /* \"#utility.yul\":14978:15050   */\n      tag_485\n        /* \"#utility.yul\":15046:15048   */\n      0x40\n        /* \"#utility.yul\":15035:15044   */\n      dup4\n        /* \"#utility.yul\":15031:15049   */\n      add\n        /* \"#utility.yul\":15022:15028   */\n      dup10\n        /* \"#utility.yul\":14978:15050   */\n      tag_254\n      jump\t// in\n    tag_485:\n        /* \"#utility.yul\":15060:15132   */\n      tag_486\n        /* \"#utility.yul\":15128:15130   */\n      0x60\n        /* \"#utility.yul\":15117:15126   */\n      dup4\n        /* \"#utility.yul\":15113:15131   */\n      add\n        /* \"#utility.yul\":15104:15110   */\n      dup9\n        /* \"#utility.yul\":15060:15132   */\n      tag_242\n      jump\t// in\n    tag_486:\n        /* \"#utility.yul\":15142:15209   */\n      tag_487\n        /* \"#utility.yul\":15204:15207   */\n      0x80\n        /* \"#utility.yul\":15193:15202   */\n      dup4\n        /* \"#utility.yul\":15189:15208   */\n      add\n        /* \"#utility.yul\":15180:15186   */\n      dup8\n        /* \"#utility.yul\":15142:15209   */\n      tag_256\n      jump\t// in\n    tag_487:\n        /* \"#utility.yul\":15219:15292   */\n      tag_488\n        /* \"#utility.yul\":15287:15290   */\n      0xa0\n        /* \"#utility.yul\":15276:15285   */\n      dup4\n        /* \"#utility.yul\":15272:15291   */\n      add\n        /* \"#utility.yul\":15263:15269   */\n      dup7\n        /* \"#utility.yul\":15219:15292   */\n      tag_263\n      jump\t// in\n    tag_488:\n        /* \"#utility.yul\":15302:15375   */\n      tag_489\n        /* \"#utility.yul\":15370:15373   */\n      0xc0\n        /* \"#utility.yul\":15359:15368   */\n      dup4\n        /* \"#utility.yul\":15355:15374   */\n      add\n        /* \"#utility.yul\":15346:15352   */\n      dup6\n        /* \"#utility.yul\":15302:15375   */\n      tag_242\n      jump\t// in\n    tag_489:\n        /* \"#utility.yul\":15385:15458   */\n      tag_490\n        /* \"#utility.yul\":15453:15456   */\n      0xe0\n        /* \"#utility.yul\":15442:15451   */\n      dup4\n        /* \"#utility.yul\":15438:15457   */\n      add\n        /* \"#utility.yul\":15429:15435   */\n      dup5\n        /* \"#utility.yul\":15385:15458   */\n      tag_242\n      jump\t// in\n    tag_490:\n        /* \"#utility.yul\":14298:15465   */\n      swap10\n      swap9\n      pop\n      pop\n      pop\n      pop\n      pop\n      pop\n      pop\n      pop\n      pop\n      jump\t// out\n        /* \"#utility.yul\":15471:15693   */\n    tag_109:\n        /* \"#utility.yul\":15564:15568   */\n      0x00\n        /* \"#utility.yul\":15602:15604   */\n      0x20\n        /* \"#utility.yul\":15591:15600   */\n      dup3\n        /* \"#utility.yul\":15587:15605   */\n      add\n        /* \"#utility.yul\":15579:15605   */\n      swap1\n      pop\n        /* \"#utility.yul\":15615:15686   */\n      tag_492\n        /* \"#utility.yul\":15683:15684   */\n      0x00\n        /* \"#utility.yul\":15672:15681   */\n      dup4\n        /* \"#utility.yul\":15668:15685   */\n      add\n        /* \"#utility.yul\":15659:15665   */\n      dup5\n        /* \"#utility.yul\":15615:15686   */\n      tag_254\n      jump\t// in\n    tag_492:\n        /* \"#utility.yul\":15471:15693   */\n      swap3\n      swap2\n      pop\n      pop\n      jump\t// out\n        /* \"#utility.yul\":15699:16031   */\n    tag_115:\n        /* \"#utility.yul\":15820:15824   */\n      0x00\n        /* \"#utility.yul\":15858:15860   */\n      0x40\n        /* \"#utility.yul\":15847:15856   */\n      dup3\n        /* \"#utility.yul\":15843:15861   */\n      add\n        /* \"#utility.yul\":15835:15861   */\n      swap1\n      pop\n        /* \"#utility.yul\":15871:15942   */\n      tag_494\n        /* \"#utility.yul\":15939:15940   */\n      0x00\n        /* \"#utility.yul\":15928:15937   */\n      dup4\n        /* \"#utility.yul\":15924:15941   */\n      add\n        /* \"#utility.yul\":15915:15921   */\n      dup6\n        /* \"#utility.yul\":15871:15942   */\n      tag_242\n      jump\t// in\n    tag_494:\n        /* \"#utility.yul\":15952:16024   */\n      tag_495\n        /* \"#utility.yul\":16020:16022   */\n      0x20\n        /* \"#utility.yul\":16009:16018   */\n      dup4\n        /* \"#utility.yul\":16005:16023   */\n      add\n        /* \"#utility.yul\":15996:16002   */\n      dup5\n        /* \"#utility.yul\":15952:16024   */\n      tag_242\n      jump\t// in\n    tag_495:\n        /* \"#utility.yul\":15699:16031   */\n      swap4\n      swap3\n      pop\n      pop\n      pop\n      jump\t// out\n        /* \"#utility.yul\":16037:16344   */\n    tag_281:\n        /* \"#utility.yul\":16098:16102   */\n      0x00\n        /* \"#utility.yul\":16188:16206   */\n      0xffffffffffffffff\n        /* \"#utility.yul\":16180:16186   */\n      dup3\n        /* \"#utility.yul\":16177:16207   */\n      gt\n        /* \"#utility.yul\":16174:16230   */\n      iszero\n      tag_497\n      jumpi\n        /* \"#utility.yul\":16210:16228   */\n      tag_498\n      tag_266\n      jump\t// in\n    tag_498:\n        /* \"#utility.yul\":16174:16230   */\n    tag_497:\n        /* \"#utility.yul\":16248:16277   */\n      tag_499\n        /* \"#utility.yul\":16270:16276   */\n      dup3\n        /* \"#utility.yul\":16248:16277   */\n      tag_251\n      jump\t// in\n    tag_499:\n        /* \"#utility.yul\":16240:16277   */\n      swap1\n      pop\n        /* \"#utility.yul\":16332:16336   */\n      0x20\n        /* \"#utility.yul\":16326:16330   */\n      dup2\n        /* \"#utility.yul\":16322:16337   */\n      add\n        /* \"#utility.yul\":16314:16337   */\n      swap1\n      pop\n        /* \"#utility.yul\":16037:16344   */\n      swap2\n      swap1\n      pop\n      jump\t// out\n        /* \"#utility.yul\":16350:16773   */\n    tag_282:\n        /* \"#utility.yul\":16427:16432   */\n      0x00\n        /* \"#utility.yul\":16452:16517   */\n      tag_501\n        /* \"#utility.yul\":16468:16516   */\n      tag_502\n        /* \"#utility.yul\":16509:16515   */\n      dup5\n        /* \"#utility.yul\":16468:16516   */\n      tag_281\n      jump\t// in\n    tag_502:\n        /* \"#utility.yul\":16452:16517   */\n      tag_268\n      jump\t// in\n    tag_501:\n        /* \"#utility.yul\":16443:16517   */\n      swap1\n      pop\n        /* \"#utility.yul\":16540:16546   */\n      dup3\n        /* \"#utility.yul\":16533:16538   */\n      dup2\n        /* \"#utility.yul\":16526:16547   */\n      mstore\n        /* \"#utility.yul\":16578:16582   */\n      0x20\n        /* \"#utility.yul\":16571:16576   */\n      dup2\n        /* \"#utility.yul\":16567:16583   */\n      add\n        /* \"#utility.yul\":16616:16619   */\n      dup5\n        /* \"#utility.yul\":16607:16613   */\n      dup5\n        /* \"#utility.yul\":16602:16605   */\n      dup5\n        /* \"#utility.yul\":16598:16614   */\n      add\n        /* \"#utility.yul\":16595:16620   */\n      gt\n        /* \"#utility.yul\":16592:16704   */\n      iszero\n      tag_503\n      jumpi\n        /* \"#utility.yul\":16623:16702   */\n      tag_504\n      tag_265\n      jump\t// in\n    tag_504:\n        /* \"#utility.yul\":16592:16704   */\n    tag_503:\n        /* \"#utility.yul\":16713:16767   */\n      tag_505\n        /* \"#utility.yul\":16760:16766   */\n      dup5\n        /* \"#utility.yul\":16755:16758   */\n      dup3\n        /* \"#utility.yul\":16750:16753   */\n      dup6\n        /* \"#utility.yul\":16713:16767   */\n      tag_270\n      jump\t// in\n    tag_505:\n        /* \"#utility.yul\":16433:16773   */\n      pop\n        /* \"#utility.yul\":16350:16773   */\n      swap4\n      swap3\n      pop\n      pop\n      pop\n      jump\t// out\n        /* \"#utility.yul\":16792:17130   */\n    tag_283:\n        /* \"#utility.yul\":16847:16852   */\n      0x00\n        /* \"#utility.yul\":16896:16899   */\n      dup3\n        /* \"#utility.yul\":16889:16893   */\n      0x1f\n        /* \"#utility.yul\":16881:16887   */\n      dup4\n        /* \"#utility.yul\":16877:16894   */\n      add\n        /* \"#utility.yul\":16873:16900   */\n      slt\n        /* \"#utility.yul\":16863:16985   */\n      tag_507\n      jumpi\n        /* \"#utility.yul\":16904:16983   */\n      tag_508\n      tag_264\n      jump\t// in\n    tag_508:\n        /* \"#utility.yul\":16863:16985   */\n    tag_507:\n        /* \"#utility.yul\":17021:17027   */\n      dup2\n        /* \"#utility.yul\":17008:17028   */\n      calldataload\n        /* \"#utility.yul\":17046:17124   */\n      tag_509\n        /* \"#utility.yul\":17120:17123   */\n      dup5\n        /* \"#utility.yul\":17112:17118   */\n      dup3\n        /* \"#utility.yul\":17105:17109   */\n      0x20\n        /* \"#utility.yul\":17097:17103   */\n      dup7\n        /* \"#utility.yul\":17093:17110   */\n      add\n        /* \"#utility.yul\":17046:17124   */\n      tag_282\n      jump\t// in\n    tag_509:\n        /* \"#utility.yul\":17037:17124   */\n      swap2\n      pop\n        /* \"#utility.yul\":16853:17130   */\n      pop\n        /* \"#utility.yul\":16792:17130   */\n      swap3\n      swap2\n      pop\n      pop\n      jump\t// out\n        /* \"#utility.yul\":17136:18579   */\n    tag_119:\n        /* \"#utility.yul\":17257:17263   */\n      0x00\n        /* \"#utility.yul\":17265:17271   */\n      dup1\n        /* \"#utility.yul\":17273:17279   */\n      0x00\n        /* \"#utility.yul\":17281:17287   */\n      dup1\n        /* \"#utility.yul\":17289:17295   */\n      0x00\n        /* \"#utility.yul\":17338:17341   */\n      0xa0\n        /* \"#utility.yul\":17326:17335   */\n      dup7\n        /* \"#utility.yul\":17317:17324   */\n      dup9\n        /* \"#utility.yul\":17313:17336   */\n      sub\n        /* \"#utility.yul\":17309:17342   */\n      slt\n        /* \"#utility.yul\":17306:17426   */\n      iszero\n      tag_511\n      jumpi\n        /* \"#utility.yul\":17345:17424   */\n      tag_512\n      tag_244\n      jump\t// in\n    tag_512:\n        /* \"#utility.yul\":17306:17426   */\n    tag_511:\n        /* \"#utility.yul\":17493:17494   */\n      0x00\n        /* \"#utility.yul\":17482:17491   */\n      dup7\n        /* \"#utility.yul\":17478:17495   */\n      add\n        /* \"#utility.yul\":17465:17496   */\n      calldataload\n        /* \"#utility.yul\":17523:17541   */\n      0xffffffffffffffff\n        /* \"#utility.yul\":17515:17521   */\n      dup2\n        /* \"#utility.yul\":17512:17542   */\n      gt\n        /* \"#utility.yul\":17509:17626   */\n      iszero\n      tag_513\n      jumpi\n        /* \"#utility.yul\":17545:17624   */\n      tag_514\n      tag_245\n      jump\t// in\n    tag_514:\n        /* \"#utility.yul\":17509:17626   */\n    tag_513:\n        /* \"#utility.yul\":17650:17713   */\n      tag_515\n        /* \"#utility.yul\":17705:17712   */\n      dup9\n        /* \"#utility.yul\":17696:17702   */\n      dup3\n        /* \"#utility.yul\":17685:17694   */\n      dup10\n        /* \"#utility.yul\":17681:17703   */\n      add\n        /* \"#utility.yul\":17650:17713   */\n      tag_272\n      jump\t// in\n    tag_515:\n        /* \"#utility.yul\":17640:17713   */\n      swap6\n      pop\n        /* \"#utility.yul\":17436:17723   */\n      pop\n        /* \"#utility.yul\":17790:17792   */\n      0x20\n        /* \"#utility.yul\":17779:17788   */\n      dup7\n        /* \"#utility.yul\":17775:17793   */\n      add\n        /* \"#utility.yul\":17762:17794   */\n      calldataload\n        /* \"#utility.yul\":17821:17839   */\n      0xffffffffffffffff\n        /* \"#utility.yul\":17813:17819   */\n      dup2\n        /* \"#utility.yul\":17810:17840   */\n      gt\n        /* \"#utility.yul\":17807:17924   */\n      iszero\n      tag_516\n      jumpi\n        /* \"#utility.yul\":17843:17922   */\n      tag_517\n      tag_245\n      jump\t// in\n    tag_517:\n        /* \"#utility.yul\":17807:17924   */\n    tag_516:\n        /* \"#utility.yul\":17948:18011   */\n      tag_518\n        /* \"#utility.yul\":18003:18010   */\n      dup9\n        /* \"#utility.yul\":17994:18000   */\n      dup3\n        /* \"#utility.yul\":17983:17992   */\n      dup10\n        /* \"#utility.yul\":17979:18001   */\n      add\n        /* \"#utility.yul\":17948:18011   */\n      tag_272\n      jump\t// in\n    tag_518:\n        /* \"#utility.yul\":17938:18011   */\n      swap5\n      pop\n        /* \"#utility.yul\":17733:18021   */\n      pop\n        /* \"#utility.yul\":18088:18090   */\n      0x40\n        /* \"#utility.yul\":18077:18086   */\n      dup7\n        /* \"#utility.yul\":18073:18091   */\n      add\n        /* \"#utility.yul\":18060:18092   */\n      calldataload\n        /* \"#utility.yul\":18119:18137   */\n      0xffffffffffffffff\n        /* \"#utility.yul\":18111:18117   */\n      dup2\n        /* \"#utility.yul\":18108:18138   */\n      gt\n        /* \"#utility.yul\":18105:18222   */\n      iszero\n      tag_519\n      jumpi\n        /* \"#utility.yul\":18141:18220   */\n      tag_520\n      tag_245\n      jump\t// in\n    tag_520:\n        /* \"#utility.yul\":18105:18222   */\n    tag_519:\n        /* \"#utility.yul\":18246:18308   */\n      tag_521\n        /* \"#utility.yul\":18300:18307   */\n      dup9\n        /* \"#utility.yul\":18291:18297   */\n      dup3\n        /* \"#utility.yul\":18280:18289   */\n      dup10\n        /* \"#utility.yul\":18276:18298   */\n      add\n        /* \"#utility.yul\":18246:18308   */\n      tag_283\n      jump\t// in\n    tag_521:\n        /* \"#utility.yul\":18236:18308   */\n      swap4\n      pop\n        /* \"#utility.yul\":18031:18318   */\n      pop\n        /* \"#utility.yul\":18357:18359   */\n      0x60\n        /* \"#utility.yul\":18383:18436   */\n      tag_522\n        /* \"#utility.yul\":18428:18435   */\n      dup9\n        /* \"#utility.yul\":18419:18425   */\n      dup3\n        /* \"#utility.yul\":18408:18417   */\n      dup10\n        /* \"#utility.yul\":18404:18426   */\n      add\n        /* \"#utility.yul\":18383:18436   */\n      tag_247\n      jump\t// in\n    tag_522:\n        /* \"#utility.yul\":18373:18436   */\n      swap3\n      pop\n        /* \"#utility.yul\":18328:18446   */\n      pop\n        /* \"#utility.yul\":18485:18488   */\n      0x80\n        /* \"#utility.yul\":18512:18562   */\n      tag_523\n        /* \"#utility.yul\":18554:18561   */\n      dup9\n        /* \"#utility.yul\":18545:18551   */\n      dup3\n        /* \"#utility.yul\":18534:18543   */\n      dup10\n        /* \"#utility.yul\":18530:18552   */\n      add\n        /* \"#utility.yul\":18512:18562   */\n      tag_274\n      jump\t// in\n    tag_523:\n        /* \"#utility.yul\":18502:18562   */\n      swap2\n      pop\n        /* \"#utility.yul\":18456:18572   */\n      pop\n        /* \"#utility.yul\":17136:18579   */\n      swap3\n      swap6\n      pop\n      swap3\n      swap6\n      swap1\n      swap4\n      pop\n      jump\t// out\n        /* \"#utility.yul\":18585:18816   */\n    tag_284:\n        /* \"#utility.yul\":18725:18759   */\n      0x4f6e6c7920726567697374657265642064617461206275796572732063616e20\n        /* \"#utility.yul\":18721:18722   */\n      0x00\n        /* \"#utility.yul\":18713:18719   */\n      dup3\n        /* \"#utility.yul\":18709:18723   */\n      add\n        /* \"#utility.yul\":18702:18760   */\n      mstore\n        /* \"#utility.yul\":18794:18808   */\n      0x726174652073656c6c6572730000000000000000000000000000000000000000\n        /* \"#utility.yul\":18789:18791   */\n      0x20\n        /* \"#utility.yul\":18781:18787   */\n      dup3\n        /* \"#utility.yul\":18777:18792   */\n      add\n        /* \"#utility.yul\":18770:18809   */\n      mstore\n        /* \"#utility.yul\":18585:18816   */\n      pop\n      jump\t// out\n        /* \"#utility.yul\":18822:19188   */\n    tag_285:\n        /* \"#utility.yul\":18964:18967   */\n      0x00\n        /* \"#utility.yul\":18985:19052   */\n      tag_526\n        /* \"#utility.yul\":19049:19051   */\n      0x2c\n        /* \"#utility.yul\":19044:19047   */\n      dup4\n        /* \"#utility.yul\":18985:19052   */\n      tag_249\n      jump\t// in\n    tag_526:\n        /* \"#utility.yul\":18978:19052   */\n      swap2\n      pop\n        /* \"#utility.yul\":19061:19154   */\n      tag_527\n        /* \"#utility.yul\":19150:19153   */\n      dup3\n        /* \"#utility.yul\":19061:19154   */\n      tag_284\n      jump\t// in\n    tag_527:\n        /* \"#utility.yul\":19179:19181   */\n      0x40\n        /* \"#utility.yul\":19174:19177   */\n      dup3\n        /* \"#utility.yul\":19170:19182   */\n      add\n        /* \"#utility.yul\":19163:19182   */\n      swap1\n      pop\n        /* \"#utility.yul\":18822:19188   */\n      swap2\n      swap1\n      pop\n      jump\t// out\n        /* \"#utility.yul\":19194:19613   */\n    tag_125:\n        /* \"#utility.yul\":19360:19364   */\n      0x00\n        /* \"#utility.yul\":19398:19400   */\n      0x20\n        /* \"#utility.yul\":19387:19396   */\n      dup3\n        /* \"#utility.yul\":19383:19401   */\n      add\n        /* \"#utility.yul\":19375:19401   */\n      swap1\n      pop\n        /* \"#utility.yul\":19447:19456   */\n      dup2\n        /* \"#utility.yul\":19441:19445   */\n      dup2\n        /* \"#utility.yul\":19437:19457   */\n      sub\n        /* \"#utility.yul\":19433:19434   */\n      0x00\n        /* \"#utility.yul\":19422:19431   */\n      dup4\n        /* \"#utility.yul\":19418:19435   */\n      add\n        /* \"#utility.yul\":19411:19458   */\n      mstore\n        /* \"#utility.yul\":19475:19606   */\n      tag_529\n        /* \"#utility.yul\":19601:19605   */\n      dup2\n        /* \"#utility.yul\":19475:19606   */\n      tag_285\n      jump\t// in\n    tag_529:\n        /* \"#utility.yul\":19467:19606   */\n      swap1\n      pop\n        /* \"#utility.yul\":19194:19613   */\n      swap2\n      swap1\n      pop\n      jump\t// out\n        /* \"#utility.yul\":19619:19799   */\n    tag_286:\n        /* \"#utility.yul\":19759:19791   */\n      0x53656c6c6572732063616e6e6f742072617465207468656d73656c7665730000\n        /* \"#utility.yul\":19755:19756   */\n      0x00\n        /* \"#utility.yul\":19747:19753   */\n      dup3\n        /* \"#utility.yul\":19743:19757   */\n      add\n        /* \"#utility.yul\":19736:19792   */\n      mstore\n        /* \"#utility.yul\":19619:19799   */\n      pop\n      jump\t// out\n        /* \"#utility.yul\":19805:20171   */\n    tag_287:\n        /* \"#utility.yul\":19947:19950   */\n      0x00\n        /* \"#utility.yul\":19968:20035   */\n      tag_532\n        /* \"#utility.yul\":20032:20034   */\n      0x1e\n        /* \"#utility.yul\":20027:20030   */\n      dup4\n        /* \"#utility.yul\":19968:20035   */\n      tag_249\n      jump\t// in\n    tag_532:\n        /* \"#utility.yul\":19961:20035   */\n      swap2\n      pop\n        /* \"#utility.yul\":20044:20137   */\n      tag_533\n        /* \"#utility.yul\":20133:20136   */\n      dup3\n        /* \"#utility.yul\":20044:20137   */\n      tag_286\n      jump\t// in\n    tag_533:\n        /* \"#utility.yul\":20162:20164   */\n      0x20\n        /* \"#utility.yul\":20157:20160   */\n      dup3\n        /* \"#utility.yul\":20153:20165   */\n      add\n        /* \"#utility.yul\":20146:20165   */\n      swap1\n      pop\n        /* \"#utility.yul\":19805:20171   */\n      swap2\n      swap1\n      pop\n      jump\t// out\n        /* \"#utility.yul\":20177:20596   */\n    tag_128:\n        /* \"#utility.yul\":20343:20347   */\n      0x00\n        /* \"#utility.yul\":20381:20383   */\n      0x20\n        /* \"#utility.yul\":20370:20379   */\n      dup3\n        /* \"#utility.yul\":20366:20384   */\n      add\n        /* \"#utility.yul\":20358:20384   */\n      swap1\n      pop\n        /* \"#utility.yul\":20430:20439   */\n      dup2\n        /* \"#utility.yul\":20424:20428   */\n      dup2\n        /* \"#utility.yul\":20420:20440   */\n      sub\n        /* \"#utility.yul\":20416:20417   */\n      0x00\n        /* \"#utility.yul\":20405:20414   */\n      dup4\n        /* \"#utility.yul\":20401:20418   */\n      add\n        /* \"#utility.yul\":20394:20441   */\n      mstore\n        /* \"#utility.yul\":20458:20589   */\n      tag_535\n        /* \"#utility.yul\":20584:20588   */\n      dup2\n        /* \"#utility.yul\":20458:20589   */\n      tag_287\n      jump\t// in\n    tag_535:\n        /* \"#utility.yul\":20450:20589   */\n      swap1\n      pop\n        /* \"#utility.yul\":20177:20596   */\n      swap2\n      swap1\n      pop\n      jump\t// out\n        /* \"#utility.yul\":20602:20782   */\n    tag_288:\n        /* \"#utility.yul\":20650:20727   */\n      0x4e487b7100000000000000000000000000000000000000000000000000000000\n        /* \"#utility.yul\":20647:20648   */\n      0x00\n        /* \"#utility.yul\":20640:20728   */\n      mstore\n        /* \"#utility.yul\":20747:20751   */\n      0x11\n        /* \"#utility.yul\":20744:20745   */\n      0x04\n        /* \"#utility.yul\":20737:20752   */\n      mstore\n        /* \"#utility.yul\":20771:20775   */\n      0x24\n        /* \"#utility.yul\":20768:20769   */\n      0x00\n        /* \"#utility.yul\":20761:20776   */\n      revert\n        /* \"#utility.yul\":20788:21021   */\n    tag_130:\n        /* \"#utility.yul\":20827:20830   */\n      0x00\n        /* \"#utility.yul\":20850:20874   */\n      tag_538\n        /* \"#utility.yul\":20868:20873   */\n      dup3\n        /* \"#utility.yul\":20850:20874   */\n      tag_241\n      jump\t// in\n    tag_538:\n        /* \"#utility.yul\":20841:20874   */\n      swap2\n      pop\n        /* \"#utility.yul\":20896:20962   */\n      0xffffffffffffffffffffffffffffffffffffffffffffffffffffffffffffffff\n        /* \"#utility.yul\":20889:20894   */\n      dup3\n        /* \"#utility.yul\":20886:20963   */\n      sub\n        /* \"#utility.yul\":20883:20986   */\n      tag_539\n      jumpi\n        /* \"#utility.yul\":20966:20984   */\n      tag_540\n      tag_288\n      jump\t// in\n    tag_540:\n        /* \"#utility.yul\":20883:20986   */\n    tag_539:\n        /* \"#utility.yul\":21013:21014   */\n      0x01\n        /* \"#utility.yul\":21006:21011   */\n      dup3\n        /* \"#utility.yul\":21002:21015   */\n      add\n        /* \"#utility.yul\":20995:21015   */\n      swap1\n      pop\n        /* \"#utility.yul\":20788:21021   */\n      swap2\n      swap1\n      pop\n      jump\t// out\n        /* \"#utility.yul\":21027:21218   */\n    tag_132:\n        /* \"#utility.yul\":21067:21070   */\n      0x00\n        /* \"#utility.yul\":21086:21106   */\n      tag_542\n        /* \"#utility.yul\":21104:21105   */\n      dup3\n        /* \"#utility.yul\":21086:21106   */\n      tag_241\n      jump\t// in\n    tag_542:\n        /* \"#utility.yul\":21081:21106   */\n      swap2\n      pop\n        /* \"#utility.yul\":21120:21140   */\n      tag_543\n        /* \"#utility.yul\":21138:21139   */\n      dup4\n        /* \"#utility.yul\":21120:21140   */\n      tag_241\n      jump\t// in\n    tag_543:\n        /* \"#utility.yul\":21115:21140   */\n      swap3\n      pop\n        /* \"#utility.yul\":21163:21164   */\n      dup3\n        /* \"#utility.yul\":21160:21161   */\n      dup3\n        /* \"#utility.yul\":21156:21165   */\n      add\n        /* \"#utility.yul\":21149:21165   */\n      swap1\n      pop\n        /* \"#utility.yul\":21184:21187   */\n      dup1\n        /* \"#utility.yul\":21181:21182   */\n      dup3\n        /* \"#utility.yul\":21178:21188   */\n      gt\n        /* \"#utility.yul\":21175:21211   */\n      iszero\n      tag_544\n      jumpi\n        /* \"#utility.yul\":21191:21209   */\n      tag_545\n      tag_288\n      jump\t// in\n    tag_545:\n        /* \"#utility.yul\":21175:21211   */\n    tag_544:\n        /* \"#utility.yul\":21027:21218   */\n      swap3\n      swap2\n      pop\n      pop\n      jump\t// out\n        /* \"#utility.yul\":21224:21404   */\n    tag_289:\n        /* \"#utility.yul\":21272:21349   */\n      0x4e487b7100000000000000000000000000000000000000000000000000000000\n        /* \"#utility.yul\":21269:21270   */\n      0x00\n        /* \"#utility.yul\":21262:21350   */\n      mstore\n        /* \"#utility.yul\":21369:21373   */\n      0x22\n        /* \"#utility.yul\":21366:21367   */\n      0x04\n        /* \"#utility.yul\":21359:21374   */\n      mstore\n        /* \"#utility.yul\":21393:21397   */\n      0x24\n        /* \"#utility.yul\":21390:21391   */\n      0x00\n        /* \"#utility.yul\":21383:21398   */\n      revert\n        /* \"#utility.yul\":21410:21730   */\n    tag_134:\n        /* \"#utility.yul\":21454:21460   */\n      0x00\n        /* \"#utility.yul\":21491:21492   */\n      0x02\n        /* \"#utility.yul\":21485:21489   */\n      dup3\n        /* \"#utility.yul\":21481:21493   */\n      div\n        /* \"#utility.yul\":21471:21493   */\n      swap1\n      pop\n        /* \"#utility.yul\":21538:21539   */\n      0x01\n        /* \"#utility.yul\":21532:21536   */\n      dup3\n        /* \"#utility.yul\":21528:21540   */\n      and\n        /* \"#utility.yul\":21559:21577   */\n      dup1\n        /* \"#utility.yul\":21549:21630   */\n      tag_548\n      jumpi\n        /* \"#utility.yul\":21615:21619   */\n      0x7f\n        /* \"#utility.yul\":21607:21613   */\n      dup3\n        /* \"#utility.yul\":21603:21620   */\n      and\n        /* \"#utility.yul\":21593:21620   */\n      swap2\n      pop\n        /* \"#utility.yul\":21549:21630   */\n    tag_548:\n        /* \"#utility.yul\":21677:21679   */\n      0x20\n        /* \"#utility.yul\":21669:21675   */\n      dup3\n        /* \"#utility.yul\":21666:21680   */\n      lt\n        /* \"#utility.yul\":21646:21664   */\n      dup2\n        /* \"#utility.yul\":21643:21681   */\n      sub\n        /* \"#utility.yul\":21640:21724   */\n      tag_549\n      jumpi\n        /* \"#utility.yul\":21696:21714   */\n      tag_550\n      tag_289\n      jump\t// in\n    tag_550:\n        /* \"#utility.yul\":21640:21724   */\n    tag_549:\n        /* \"#utility.yul\":21461:21730   */\n      pop\n        /* \"#utility.yul\":21410:21730   */\n      swap2\n      swap1\n      pop\n      jump\t// out\n        /* \"#utility.yul\":21736:21909   */\n    tag_290:\n        /* \"#utility.yul\":21876:21901   */\n      0x5573657220616c72656164792072656769737465726564000000000000000000\n        /* \"#utility.yul\":21872:21873   */\n      0x00\n        /* \"#utility.yul\":21864:21870   */\n      dup3\n        /* \"#utility.yul\":21860:21874   */\n      add\n        /* \"#utility.yul\":21853:21902   */\n      mstore\n        /* \"#utility.yul\":21736:21909   */\n      pop\n      jump\t// out\n        /* \"#utility.yul\":21915:22281   */\n    tag_291:\n        /* \"#utility.yul\":22057:22060   */\n      0x00\n        /* \"#utility.yul\":22078:22145   */\n      tag_553\n        /* \"#utility.yul\":22142:22144   */\n      0x17\n        /* \"#utility.yul\":22137:22140   */\n      dup4\n        /* \"#utility.yul\":22078:22145   */\n      tag_249\n      jump\t// in\n    tag_553:\n        /* \"#utility.yul\":22071:22145   */\n      swap2\n      pop\n        /* \"#utility.yul\":22154:22247   */\n      tag_554\n        /* \"#utility.yul\":22243:22246   */\n      dup3\n        /* \"#utility.yul\":22154:22247   */\n      tag_290\n      jump\t// in\n    tag_554:\n        /* \"#utility.yul\":22272:22274   */\n      0x20\n        /* \"#utility.yul\":22267:22270   */\n      dup3\n        /* \"#utility.yul\":22263:22275   */\n      add\n        /* \"#utility.yul\":22256:22275   */\n      swap1\n      pop\n        /* \"#utility.yul\":21915:22281   */\n      swap2\n      swap1\n      pop\n      jump\t// out\n        /* \"#utility.yul\":22287:22706   */\n    tag_155:\n        /* \"#utility.yul\":22453:22457   */\n      0x00\n        /* \"#utility.yul\":22491:22493   */\n      0x20\n        /* \"#utility.yul\":22480:22489   */\n      dup3\n        /* \"#utility.yul\":22476:22494   */\n      add\n        /* \"#utility.yul\":22468:22494   */\n      swap1\n      pop\n        /* \"#utility.yul\":22540:22549   */\n      dup2\n        /* \"#utility.yul\":22534:22538   */\n      dup2\n        /* \"#utility.yul\":22530:22550   */\n      sub\n        /* \"#utility.yul\":22526:22527   */\n      0x00\n        /* \"#utility.yul\":22515:22524   */\n      dup4\n        /* \"#utility.yul\":22511:22528   */\n      add\n        /* \"#utility.yul\":22504:22551   */\n      mstore\n        /* \"#utility.yul\":22568:22699   */\n      tag_556\n        /* \"#utility.yul\":22694:22698   */\n      dup2\n        /* \"#utility.yul\":22568:22699   */\n      tag_291\n      jump\t// in\n    tag_556:\n        /* \"#utility.yul\":22560:22699   */\n      swap1\n      pop\n        /* \"#utility.yul\":22287:22706   */\n      swap2\n      swap1\n      pop\n      jump\t// out\n        /* \"#utility.yul\":22712:22853   */\n    tag_292:\n        /* \"#utility.yul\":22761:22765   */\n      0x00\n        /* \"#utility.yul\":22784:22787   */\n      dup2\n        /* \"#utility.yul\":22776:22787   */\n      swap1\n      pop\n        /* \"#utility.yul\":22807:22810   */\n      dup2\n        /* \"#utility.yul\":22804:22805   */\n      0x00\n        /* \"#utility.yul\":22797:22811   */\n      mstore\n        /* \"#utility.yul\":22841:22845   */\n      0x20\n        /* \"#utility.yul\":22838:22839   */\n      0x00\n        /* \"#utility.yul\":22828:22846   */\n      keccak256\n        /* \"#utility.yul\":22820:22846   */\n      swap1\n      pop\n        /* \"#utility.yul\":22712:22853   */\n      swap2\n      swap1\n      pop\n      jump\t// out\n        /* \"#utility.yul\":22859:22952   */\n    tag_293:\n        /* \"#utility.yul\":22896:22902   */\n      0x00\n        /* \"#utility.yul\":22943:22945   */\n      0x20\n        /* \"#utility.yul\":22938:22940   */\n      0x1f\n        /* \"#utility.yul\":22931:22936   */\n      dup4\n        /* \"#utility.yul\":22927:22941   */\n      add\n        /* \"#utility.yul\":22923:22946   */\n      div\n        /* \"#utility.yul\":22913:22946   */\n      swap1\n      pop\n        /* \"#utility.yul\":22859:22952   */\n      swap2\n      swap1\n      pop\n      jump\t// out\n        /* \"#utility.yul\":22958:23065   */\n    tag_294:\n        /* \"#utility.yul\":23002:23010   */\n      0x00\n        /* \"#utility.yul\":23052:23057   */\n      dup3\n        /* \"#utility.yul\":23046:23050   */\n      dup3\n        /* \"#utility.yul\":23042:23058   */\n      shl\n        /* \"#utility.yul\":23021:23058   */\n      swap1\n      pop\n        /* \"#utility.yul\":22958:23065   */\n      swap3\n      swap2\n      pop\n      pop\n      jump\t// out\n        /* \"#utility.yul\":23071:23464   */\n    tag_295:\n        /* \"#utility.yul\":23140:23146   */\n      0x00\n        /* \"#utility.yul\":23190:23191   */\n      0x08\n        /* \"#utility.yul\":23178:23188   */\n      dup4\n        /* \"#utility.yul\":23174:23192   */\n      mul\n        /* \"#utility.yul\":23213:23310   */\n      tag_561\n        /* \"#utility.yul\":23243:23309   */\n      0xffffffffffffffffffffffffffffffffffffffffffffffffffffffffffffffff\n        /* \"#utility.yul\":23232:23241   */\n      dup3\n        /* \"#utility.yul\":23213:23310   */\n      tag_294\n      jump\t// in\n    tag_561:\n        /* \"#utility.yul\":23331:23370   */\n      tag_562\n        /* \"#utility.yul\":23361:23369   */\n      dup7\n        /* \"#utility.yul\":23350:23359   */\n      dup4\n        /* \"#utility.yul\":23331:23370   */\n      tag_294\n      jump\t// in\n    tag_562:\n        /* \"#utility.yul\":23319:23370   */\n      swap6\n      pop\n        /* \"#utility.yul\":23403:23407   */\n      dup1\n        /* \"#utility.yul\":23399:23408   */\n      not\n        /* \"#utility.yul\":23392:23397   */\n      dup5\n        /* \"#utility.yul\":23388:23409   */\n      and\n        /* \"#utility.yul\":23379:23409   */\n      swap4\n      pop\n        /* \"#utility.yul\":23452:23456   */\n      dup1\n        /* \"#utility.yul\":23442:23450   */\n      dup7\n        /* \"#utility.yul\":23438:23457   */\n      and\n        /* \"#utility.yul\":23431:23436   */\n      dup5\n        /* \"#utility.yul\":23428:23458   */\n      or\n        /* \"#utility.yul\":23418:23458   */\n      swap3\n      pop\n        /* \"#utility.yul\":23147:23464   */\n      pop\n      pop\n        /* \"#utility.yul\":23071:23464   */\n      swap4\n      swap3\n      pop\n      pop\n      pop\n      jump\t// out\n        /* \"#utility.yul\":23470:23530   */\n    tag_296:\n        /* \"#utility.yul\":23498:23501   */\n      0x00\n        /* \"#utility.yul\":23519:23524   */\n      dup2\n        /* \"#utility.yul\":23512:23524   */\n      swap1\n      pop\n        /* \"#utility.yul\":23470:23530   */\n      swap2\n      swap1\n      pop\n      jump\t// out\n        /* \"#utility.yul\":23536:23678   */\n    tag_297:\n        /* \"#utility.yul\":23586:23595   */\n      0x00\n        /* \"#utility.yul\":23619:23672   */\n      tag_565\n        /* \"#utility.yul\":23637:23671   */\n      tag_566\n        /* \"#utility.yul\":23646:23670   */\n      tag_567\n        /* \"#utility.yul\":23664:23669   */\n      dup5\n        /* \"#utility.yul\":23646:23670   */\n      tag_241\n      jump\t// in\n    tag_567:\n        /* \"#utility.yul\":23637:23671   */\n      tag_296\n      jump\t// in\n    tag_566:\n        /* \"#utility.yul\":23619:23672   */\n      tag_241\n      jump\t// in\n    tag_565:\n        /* \"#utility.yul\":23606:23672   */\n      swap1\n      pop\n        /* \"#utility.yul\":23536:23678   */\n      swap2\n      swap1\n      pop\n      jump\t// out\n        /* \"#utility.yul\":23684:23759   */\n    tag_298:\n        /* \"#utility.yul\":23727:23730   */\n      0x00\n        /* \"#utility.yul\":23748:23753   */\n      dup2\n        /* \"#utility.yul\":23741:23753   */\n      swap1\n      pop\n        /* \"#utility.yul\":23684:23759   */\n      swap2\n      swap1\n      pop\n      jump\t// out\n        /* \"#utility.yul\":23765:24034   */\n    tag_299:\n        /* \"#utility.yul\":23875:23914   */\n      tag_570\n        /* \"#utility.yul\":23906:23913   */\n      dup4\n        /* \"#utility.yul\":23875:23914   */\n      tag_297\n      jump\t// in\n    tag_570:\n        /* \"#utility.yul\":23936:24027   */\n      tag_571\n        /* \"#utility.yul\":23985:24026   */\n      tag_572\n        /* \"#utility.yul\":24009:24025   */\n      dup3\n        /* \"#utility.yul\":23985:24026   */\n      tag_298\n      jump\t// in\n    tag_572:\n        /* \"#utility.yul\":23977:23983   */\n      dup5\n        /* \"#utility.yul\":23970:23974   */\n      dup5\n        /* \"#utility.yul\":23964:23975   */\n      sload\n        /* \"#utility.yul\":23936:24027   */\n      tag_295\n      jump\t// in\n    tag_571:\n        /* \"#utility.yul\":23930:23934   */\n      dup3\n        /* \"#utility.yul\":23923:24028   */\n      sstore\n        /* \"#utility.yul\":23841:24034   */\n      pop\n        /* \"#utility.yul\":23765:24034   */\n      pop\n      pop\n      pop\n      jump\t// out\n        /* \"#utility.yul\":24040:24113   */\n    tag_300:\n        /* \"#utility.yul\":24085:24088   */\n      0x00\n        /* \"#utility.yul\":24040:24113   */\n      swap1\n      jump\t// out\n        /* \"#utility.yul\":24119:24308   */\n    tag_301:\n        /* \"#utility.yul\":24196:24228   */\n      tag_575\n      tag_300\n      jump\t// in\n    tag_575:\n        /* \"#utility.yul\":24237:24302   */\n      tag_576\n        /* \"#utility.yul\":24295:24301   */\n      dup2\n        /* \"#utility.yul\":24287:24293   */\n      dup5\n        /* \"#utility.yul\":24281:24285   */\n      dup5\n        /* \"#utility.yul\":24237:24302   */\n      tag_299\n      jump\t// in\n    tag_576:\n        /* \"#utility.yul\":24172:24308   */\n      pop\n        /* \"#utility.yul\":24119:24308   */\n      pop\n      pop\n      jump\t// out\n        /* \"#utility.yul\":24314:24500   */\n    tag_302:\n        /* \"#utility.yul\":24374:24494   */\n    tag_578:\n        /* \"#utility.yul\":24391:24394   */\n      dup2\n        /* \"#utility.yul\":24384:24389   */\n      dup2\n        /* \"#utility.yul\":24381:24395   */\n      lt\n        /* \"#utility.yul\":24374:24494   */\n      iszero\n      tag_580\n      jumpi\n        /* \"#utility.yul\":24445:24484   */\n      tag_581\n        /* \"#utility.yul\":24482:24483   */\n      0x00\n        /* \"#utility.yul\":24475:24480   */\n      dup3\n        /* \"#utility.yul\":24445:24484   */\n      tag_301\n      jump\t// in\n    tag_581:\n        /* \"#utility.yul\":24418:24419   */\n      0x01\n        /* \"#utility.yul\":24411:24416   */\n      dup2\n        /* \"#utility.yul\":24407:24420   */\n      add\n        /* \"#utility.yul\":24398:24420   */\n      swap1\n      pop\n        /* \"#utility.yul\":24374:24494   */\n      jump(tag_578)\n    tag_580:\n        /* \"#utility.yul\":24314:24500   */\n      pop\n      pop\n      jump\t// out\n        /* \"#utility.yul\":24506:25049   */\n    tag_303:\n        /* \"#utility.yul\":24607:24609   */\n      0x1f\n        /* \"#utility.yul\":24602:24605   */\n      dup3\n        /* \"#utility.yul\":24599:24610   */\n      gt\n        /* \"#utility.yul\":24596:25042   */\n      iszero\n      tag_583\n      jumpi\n        /* \"#utility.yul\":24641:24679   */\n      tag_584\n        /* \"#utility.yul\":24673:24678   */\n      dup2\n        /* \"#utility.yul\":24641:24679   */\n      tag_292\n      jump\t// in\n    tag_584:\n        /* \"#utility.yul\":24725:24754   */\n      tag_585\n        /* \"#utility.yul\":24743:24753   */\n      dup5\n        /* \"#utility.yul\":24725:24754   */\n      tag_293\n      jump\t// in\n    tag_585:\n        /* \"#utility.yul\":24715:24723   */\n      dup2\n        /* \"#utility.yul\":24711:24755   */\n      add\n        /* \"#utility.yul\":24908:24910   */\n      0x20\n        /* \"#utility.yul\":24896:24906   */\n      dup6\n        /* \"#utility.yul\":24893:24911   */\n      lt\n        /* \"#utility.yul\":24890:24939   */\n      iszero\n      tag_586\n      jumpi\n        /* \"#utility.yul\":24929:24937   */\n      dup2\n        /* \"#utility.yul\":24914:24937   */\n      swap1\n      pop\n        /* \"#utility.yul\":24890:24939   */\n    tag_586:\n        /* \"#utility.yul\":24952:25032   */\n      tag_587\n        /* \"#utility.yul\":25008:25030   */\n      tag_588\n        /* \"#utility.yul\":25026:25029   */\n      dup6\n        /* \"#utility.yul\":25008:25030   */\n      tag_293\n      jump\t// in\n    tag_588:\n        /* \"#utility.yul\":24998:25006   */\n      dup4\n        /* \"#utility.yul\":24994:25031   */\n      add\n        /* \"#utility.yul\":24981:24992   */\n      dup3\n        /* \"#utility.yul\":24952:25032   */\n      tag_302\n      jump\t// in\n    tag_587:\n        /* \"#utility.yul\":24611:25042   */\n      pop\n      pop\n        /* \"#utility.yul\":24596:25042   */\n    tag_583:\n        /* \"#utility.yul\":24506:25049   */\n      pop\n      pop\n      pop\n      jump\t// out\n        /* \"#utility.yul\":25055:25172   */\n    tag_304:\n        /* \"#utility.yul\":25109:25117   */\n      0x00\n        /* \"#utility.yul\":25159:25164   */\n      dup3\n        /* \"#utility.yul\":25153:25157   */\n      dup3\n        /* \"#utility.yul\":25149:25165   */\n      shr\n        /* \"#utility.yul\":25128:25165   */\n      swap1\n      pop\n        /* \"#utility.yul\":25055:25172   */\n      swap3\n      swap2\n      pop\n      pop\n      jump\t// out\n        /* \"#utility.yul\":25178:25347   */\n    tag_305:\n        /* \"#utility.yul\":25222:25228   */\n      0x00\n        /* \"#utility.yul\":25255:25306   */\n      tag_591\n        /* \"#utility.yul\":25303:25304   */\n      0x00\n        /* \"#utility.yul\":25299:25305   */\n      not\n        /* \"#utility.yul\":25291:25296   */\n      dup5\n        /* \"#utility.yul\":25288:25289   */\n      0x08\n        /* \"#utility.yul\":25284:25297   */\n      mul\n        /* \"#utility.yul\":25255:25306   */\n      tag_304\n      jump\t// in\n    tag_591:\n        /* \"#utility.yul\":25251:25307   */\n      not\n        /* \"#utility.yul\":25336:25340   */\n      dup1\n        /* \"#utility.yul\":25330:25334   */\n      dup4\n        /* \"#utility.yul\":25326:25341   */\n      and\n        /* \"#utility.yul\":25316:25341   */\n      swap2\n      pop\n        /* \"#utility.yul\":25229:25347   */\n      pop\n        /* \"#utility.yul\":25178:25347   */\n      swap3\n      swap2\n      pop\n      pop\n      jump\t// out\n        /* \"#utility.yul\":25352:25647   */\n    tag_306:\n        /* \"#utility.yul\":25428:25432   */\n      0x00\n        /* \"#utility.yul\":25574:25603   */\n      tag_593\n        /* \"#utility.yul\":25599:25602   */\n      dup4\n        /* \"#utility.yul\":25593:25597   */\n      dup4\n        /* \"#utility.yul\":25574:25603   */\n      tag_305\n      jump\t// in\n    tag_593:\n        /* \"#utility.yul\":25566:25603   */\n      swap2\n      pop\n        /* \"#utility.yul\":25636:25639   */\n      dup3\n        /* \"#utility.yul\":25633:25634   */\n      0x02\n        /* \"#utility.yul\":25629:25640   */\n      mul\n        /* \"#utility.yul\":25623:25627   */\n      dup3\n        /* \"#utility.yul\":25620:25641   */\n      or\n        /* \"#utility.yul\":25612:25641   */\n      swap1\n      pop\n        /* \"#utility.yul\":25352:25647   */\n      swap3\n      swap2\n      pop\n      pop\n      jump\t// out\n        /* \"#utility.yul\":25652:27047   */\n    tag_157:\n        /* \"#utility.yul\":25769:25806   */\n      tag_595\n        /* \"#utility.yul\":25802:25805   */\n      dup3\n        /* \"#utility.yul\":25769:25806   */\n      tag_248\n      jump\t// in\n    tag_595:\n        /* \"#utility.yul\":25871:25889   */\n      0xffffffffffffffff\n        /* \"#utility.yul\":25863:25869   */\n      dup2\n        /* \"#utility.yul\":25860:25890   */\n      gt\n        /* \"#utility.yul\":25857:25913   */\n      iszero\n      tag_596\n      jumpi\n        /* \"#utility.yul\":25893:25911   */\n      tag_597\n      tag_266\n      jump\t// in\n    tag_597:\n        /* \"#utility.yul\":25857:25913   */\n    tag_596:\n        /* \"#utility.yul\":25937:25975   */\n      tag_598\n        /* \"#utility.yul\":25969:25973   */\n      dup3\n        /* \"#utility.yul\":25963:25974   */\n      sload\n        /* \"#utility.yul\":25937:25975   */\n      tag_134\n      jump\t// in\n    tag_598:\n        /* \"#utility.yul\":26022:26089   */\n      tag_599\n        /* \"#utility.yul\":26082:26088   */\n      dup3\n        /* \"#utility.yul\":26074:26080   */\n      dup3\n        /* \"#utility.yul\":26068:26072   */\n      dup6\n        /* \"#utility.yul\":26022:26089   */\n      tag_303\n      jump\t// in\n    tag_599:\n        /* \"#utility.yul\":26116:26117   */\n      0x00\n        /* \"#utility.yul\":26140:26144   */\n      0x20\n        /* \"#utility.yul\":26127:26144   */\n      swap1\n      pop\n        /* \"#utility.yul\":26172:26174   */\n      0x1f\n        /* \"#utility.yul\":26164:26170   */\n      dup4\n        /* \"#utility.yul\":26161:26175   */\n      gt\n        /* \"#utility.yul\":26189:26190   */\n      0x01\n        /* \"#utility.yul\":26184:26802   */\n      dup2\n      eq\n      tag_601\n      jumpi\n        /* \"#utility.yul\":26846:26847   */\n      0x00\n        /* \"#utility.yul\":26863:26869   */\n      dup5\n        /* \"#utility.yul\":26860:26937   */\n      iszero\n      tag_602\n      jumpi\n        /* \"#utility.yul\":26912:26921   */\n      dup3\n        /* \"#utility.yul\":26907:26910   */\n      dup8\n        /* \"#utility.yul\":26903:26922   */\n      add\n        /* \"#utility.yul\":26897:26923   */\n      mload\n        /* \"#utility.yul\":26888:26923   */\n      swap1\n      pop\n        /* \"#utility.yul\":26860:26937   */\n    tag_602:\n        /* \"#utility.yul\":26963:27030   */\n      tag_603\n        /* \"#utility.yul\":27023:27029   */\n      dup6\n        /* \"#utility.yul\":27016:27021   */\n      dup3\n        /* \"#utility.yul\":26963:27030   */\n      tag_306\n      jump\t// in\n    tag_603:\n        /* \"#utility.yul\":26957:26961   */\n      dup7\n        /* \"#utility.yul\":26950:27031   */\n      sstore\n        /* \"#utility.yul\":26819:27041   */\n      pop\n        /* \"#utility.yul\":26154:27041   */\n      jump(tag_600)\n        /* \"#utility.yul\":26184:26802   */\n    tag_601:\n        /* \"#utility.yul\":26236:26240   */\n      0x1f\n        /* \"#utility.yul\":26232:26241   */\n      not\n        /* \"#utility.yul\":26224:26230   */\n      dup5\n        /* \"#utility.yul\":26220:26242   */\n      and\n        /* \"#utility.yul\":26270:26307   */\n      tag_604\n        /* \"#utility.yul\":26302:26306   */\n      dup7\n        /* \"#utility.yul\":26270:26307   */\n      tag_292\n      jump\t// in\n    tag_604:\n        /* \"#utility.yul\":26329:26330   */\n      0x00\n        /* \"#utility.yul\":26343:26551   */\n    tag_605:\n        /* \"#utility.yul\":26357:26364   */\n      dup3\n        /* \"#utility.yul\":26354:26355   */\n      dup2\n        /* \"#utility.yul\":26351:26365   */\n      lt\n        /* \"#utility.yul\":26343:26551   */\n      iszero\n      tag_607\n      jumpi\n        /* \"#utility.yul\":26436:26445   */\n      dup5\n        /* \"#utility.yul\":26431:26434   */\n      dup10\n        /* \"#utility.yul\":26427:26446   */\n      add\n        /* \"#utility.yul\":26421:26447   */\n      mload\n        /* \"#utility.yul\":26413:26419   */\n      dup3\n        /* \"#utility.yul\":26406:26448   */\n      sstore\n        /* \"#utility.yul\":26487:26488   */\n      0x01\n        /* \"#utility.yul\":26479:26485   */\n      dup3\n        /* \"#utility.yul\":26475:26489   */\n      add\n        /* \"#utility.yul\":26465:26489   */\n      swap2\n      pop\n        /* \"#utility.yul\":26534:26536   */\n      0x20\n        /* \"#utility.yul\":26523:26532   */\n      dup6\n        /* \"#utility.yul\":26519:26537   */\n      add\n        /* \"#utility.yul\":26506:26537   */\n      swap5\n      pop\n        /* \"#utility.yul\":26380:26384   */\n      0x20\n        /* \"#utility.yul\":26377:26378   */\n      dup2\n        /* \"#utility.yul\":26373:26385   */\n      add\n        /* \"#utility.yul\":26368:26385   */\n      swap1\n      pop\n        /* \"#utility.yul\":26343:26551   */\n      jump(tag_605)\n    tag_607:\n        /* \"#utility.yul\":26579:26585   */\n      dup7\n        /* \"#utility.yul\":26570:26577   */\n      dup4\n        /* \"#utility.yul\":26567:26586   */\n      lt\n        /* \"#utility.yul\":26564:26743   */\n      iszero\n      tag_608\n      jumpi\n        /* \"#utility.yul\":26637:26646   */\n      dup5\n        /* \"#utility.yul\":26632:26635   */\n      dup10\n        /* \"#utility.yul\":26628:26647   */\n      add\n        /* \"#utility.yul\":26622:26648   */\n      mload\n        /* \"#utility.yul\":26680:26728   */\n      tag_609\n        /* \"#utility.yul\":26722:26726   */\n      0x1f\n        /* \"#utility.yul\":26714:26720   */\n      dup10\n        /* \"#utility.yul\":26710:26727   */\n      and\n        /* \"#utility.yul\":26699:26708   */\n      dup3\n        /* \"#utility.yul\":26680:26728   */\n      tag_305\n      jump\t// in\n    tag_609:\n        /* \"#utility.yul\":26672:26678   */\n      dup4\n        /* \"#utility.yul\":26665:26729   */\n      sstore\n        /* \"#utility.yul\":26587:26743   */\n      pop\n        /* \"#utility.yul\":26564:26743   */\n    tag_608:\n        /* \"#utility.yul\":26789:26790   */\n      0x01\n        /* \"#utility.yul\":26785:26786   */\n      0x02\n        /* \"#utility.yul\":26777:26783   */\n      dup9\n        /* \"#utility.yul\":26773:26787   */\n      mul\n        /* \"#utility.yul\":26769:26791   */\n      add\n        /* \"#utility.yul\":26763:26767   */\n      dup9\n        /* \"#utility.yul\":26756:26792   */\n      sstore\n        /* \"#utility.yul\":26191:26802   */\n      pop\n      pop\n      pop\n        /* \"#utility.yul\":26154:27041   */\n    tag_600:\n      pop\n        /* \"#utility.yul\":25744:27047   */\n      pop\n      pop\n      pop\n        /* \"#utility.yul\":25652:27047   */\n      pop\n      pop\n      jump\t// out\n        /* \"#utility.yul\":27053:27288   */\n    tag_307:\n        /* \"#utility.yul\":27193:27227   */\n      0x4f6e6c7920726567697374657265642064617461206275796572732063616e20\n        /* \"#utility.yul\":27189:27190   */\n      0x00\n        /* \"#utility.yul\":27181:27187   */\n      dup3\n        /* \"#utility.yul\":27177:27191   */\n      add\n        /* \"#utility.yul\":27170:27228   */\n      mstore\n        /* \"#utility.yul\":27262:27280   */\n      0x7265706f72742064617461207365747300000000000000000000000000000000\n        /* \"#utility.yul\":27257:27259   */\n      0x20\n        /* \"#utility.yul\":27249:27255   */\n      dup3\n        /* \"#utility.yul\":27245:27260   */\n      add\n        /* \"#utility.yul\":27238:27281   */\n      mstore\n        /* \"#utility.yul\":27053:27288   */\n      pop\n      jump\t// out\n        /* \"#utility.yul\":27294:27660   */\n    tag_308:\n        /* \"#utility.yul\":27436:27439   */\n      0x00\n        /* \"#utility.yul\":27457:27524   */\n      tag_612\n        /* \"#utility.yul\":27521:27523   */\n      0x30\n        /* \"#utility.yul\":27516:27519   */\n      dup4\n        /* \"#utility.yul\":27457:27524   */\n      tag_249\n      jump\t// in\n    tag_612:\n        /* \"#utility.yul\":27450:27524   */\n      swap2\n      pop\n        /* \"#utility.yul\":27533:27626   */\n      tag_613\n        /* \"#utility.yul\":27622:27625   */\n      dup3\n        /* \"#utility.yul\":27533:27626   */\n      tag_307\n      jump\t// in\n    tag_613:\n        /* \"#utility.yul\":27651:27653   */\n      0x40\n        /* \"#utility.yul\":27646:27649   */\n      dup3\n        /* \"#utility.yul\":27642:27654   */\n      add\n        /* \"#utility.yul\":27635:27654   */\n      swap1\n      pop\n        /* \"#utility.yul\":27294:27660   */\n      swap2\n      swap1\n      pop\n      jump\t// out\n        /* \"#utility.yul\":27666:28085   */\n    tag_163:\n        /* \"#utility.yul\":27832:27836   */\n      0x00\n        /* \"#utility.yul\":27870:27872   */\n      0x20\n        /* \"#utility.yul\":27859:27868   */\n      dup3\n        /* \"#utility.yul\":27855:27873   */\n      add\n        /* \"#utility.yul\":27847:27873   */\n      swap1\n      pop\n        /* \"#utility.yul\":27919:27928   */\n      dup2\n        /* \"#utility.yul\":27913:27917   */\n      dup2\n        /* \"#utility.yul\":27909:27929   */\n      sub\n        /* \"#utility.yul\":27905:27906   */\n      0x00\n        /* \"#utility.yul\":27894:27903   */\n      dup4\n        /* \"#utility.yul\":27890:27907   */\n      add\n        /* \"#utility.yul\":27883:27930   */\n      mstore\n        /* \"#utility.yul\":27947:28078   */\n      tag_615\n        /* \"#utility.yul\":28073:28077   */\n      dup2\n        /* \"#utility.yul\":27947:28078   */\n      tag_308\n      jump\t// in\n    tag_615:\n        /* \"#utility.yul\":27939:28078   */\n      swap1\n      pop\n        /* \"#utility.yul\":27666:28085   */\n      swap2\n      swap1\n      pop\n      jump\t// out\n        /* \"#utility.yul\":28091:28330   */\n    tag_309:\n        /* \"#utility.yul\":28231:28265   */\n      0x4f6e6c79207265676973746572656420646174612073656c6c6572732063616e\n        /* \"#utility.yul\":28227:28228   */\n      0x00\n        /* \"#utility.yul\":28219:28225   */\n      dup3\n        /* \"#utility.yul\":28215:28229   */\n      add\n        /* \"#utility.yul\":28208:28266   */\n      mstore\n        /* \"#utility.yul\":28300:28322   */\n      0x2073657420656e6372797074696f6e206b657973000000000000000000000000\n        /* \"#utility.yul\":28295:28297   */\n      0x20\n        /* \"#utility.yul\":28287:28293   */\n      dup3\n        /* \"#utility.yul\":28283:28298   */\n      add\n        /* \"#utility.yul\":28276:28323   */\n      mstore\n        /* \"#utility.yul\":28091:28330   */\n      pop\n      jump\t// out\n        /* \"#utility.yul\":28336:28702   */\n    tag_310:\n        /* \"#utility.yul\":28478:28481   */\n      0x00\n        /* \"#utility.yul\":28499:28566   */\n      tag_618\n        /* \"#utility.yul\":28563:28565   */\n      0x34\n        /* \"#utility.yul\":28558:28561   */\n      dup4\n        /* \"#utility.yul\":28499:28566   */\n      tag_249\n      jump\t// in\n    tag_618:\n        /* \"#utility.yul\":28492:28566   */\n      swap2\n      pop\n        /* \"#utility.yul\":28575:28668   */\n      tag_619\n        /* \"#utility.yul\":28664:28667   */\n      dup3\n        /* \"#utility.yul\":28575:28668   */\n      tag_309\n      jump\t// in\n    tag_619:\n        /* \"#utility.yul\":28693:28695   */\n      0x40\n        /* \"#utility.yul\":28688:28691   */\n      dup3\n        /* \"#utility.yul\":28684:28696   */\n      add\n        /* \"#utility.yul\":28677:28696   */\n      swap1\n      pop\n        /* \"#utility.yul\":28336:28702   */\n      swap2\n      swap1\n      pop\n      jump\t// out\n        /* \"#utility.yul\":28708:29127   */\n    tag_169:\n        /* \"#utility.yul\":28874:28878   */\n      0x00\n        /* \"#utility.yul\":28912:28914   */\n      0x20\n        /* \"#utility.yul\":28901:28910   */\n      dup3\n        /* \"#utility.yul\":28897:28915   */\n      add\n        /* \"#utility.yul\":28889:28915   */\n      swap1\n      pop\n        /* \"#utility.yul\":28961:28970   */\n      dup2\n        /* \"#utility.yul\":28955:28959   */\n      dup2\n        /* \"#utility.yul\":28951:28971   */\n      sub\n        /* \"#utility.yul\":28947:28948   */\n      0x00\n        /* \"#utility.yul\":28936:28945   */\n      dup4\n        /* \"#utility.yul\":28932:28949   */\n      add\n        /* \"#utility.yul\":28925:28972   */\n      mstore\n        /* \"#utility.yul\":28989:29120   */\n      tag_621\n        /* \"#utility.yul\":29115:29119   */\n      dup2\n        /* \"#utility.yul\":28989:29120   */\n      tag_310\n      jump\t// in\n    tag_621:\n        /* \"#utility.yul\":28981:29120   */\n      swap1\n      pop\n        /* \"#utility.yul\":28708:29127   */\n      swap2\n      swap1\n      pop\n      jump\t// out\n        /* \"#utility.yul\":29133:29362   */\n    tag_311:\n        /* \"#utility.yul\":29273:29307   */\n      0x4f6e6c79207468652073656c6c65722063616e207365742074686520656e6372\n        /* \"#utility.yul\":29269:29270   */\n      0x00\n        /* \"#utility.yul\":29261:29267   */\n      dup3\n        /* \"#utility.yul\":29257:29271   */\n      add\n        /* \"#utility.yul\":29250:29308   */\n      mstore\n        /* \"#utility.yul\":29342:29354   */\n      0x797074696f6e206b657900000000000000000000000000000000000000000000\n        /* \"#utility.yul\":29337:29339   */\n      0x20\n        /* \"#utility.yul\":29329:29335   */\n      dup3\n        /* \"#utility.yul\":29325:29340   */\n      add\n        /* \"#utility.yul\":29318:29355   */\n      mstore\n        /* \"#utility.yul\":29133:29362   */\n      pop\n      jump\t// out\n        /* \"#utility.yul\":29368:29734   */\n    tag_312:\n        /* \"#utility.yul\":29510:29513   */\n      0x00\n        /* \"#utility.yul\":29531:29598   */\n      tag_624\n        /* \"#utility.yul\":29595:29597   */\n      0x2a\n        /* \"#utility.yul\":29590:29593   */\n      dup4\n        /* \"#utility.yul\":29531:29598   */\n      tag_249\n      jump\t// in\n    tag_624:\n        /* \"#utility.yul\":29524:29598   */\n      swap2\n      pop\n        /* \"#utility.yul\":29607:29700   */\n      tag_625\n        /* \"#utility.yul\":29696:29699   */\n      dup3\n        /* \"#utility.yul\":29607:29700   */\n      tag_311\n      jump\t// in\n    tag_625:\n        /* \"#utility.yul\":29725:29727   */\n      0x40\n        /* \"#utility.yul\":29720:29723   */\n      dup3\n        /* \"#utility.yul\":29716:29728   */\n      add\n        /* \"#utility.yul\":29709:29728   */\n      swap1\n      pop\n        /* \"#utility.yul\":29368:29734   */\n      swap2\n      swap1\n      pop\n      jump\t// out\n        /* \"#utility.yul\":29740:30159   */\n    tag_172:\n        /* \"#utility.yul\":29906:29910   */\n      0x00\n        /* \"#utility.yul\":29944:29946   */\n      0x20\n        /* \"#utility.yul\":29933:29942   */\n      dup3\n        /* \"#utility.yul\":29929:29947   */\n      add\n        /* \"#utility.yul\":29921:29947   */\n      swap1\n      pop\n        /* \"#utility.yul\":29993:30002   */\n      dup2\n        /* \"#utility.yul\":29987:29991   */\n      dup2\n        /* \"#utility.yul\":29983:30003   */\n      sub\n        /* \"#utility.yul\":29979:29980   */\n      0x00\n        /* \"#utility.yul\":29968:29977   */\n      dup4\n        /* \"#utility.yul\":29964:29981   */\n      add\n        /* \"#utility.yul\":29957:30004   */\n      mstore\n        /* \"#utility.yul\":30021:30152   */\n      tag_627\n        /* \"#utility.yul\":30147:30151   */\n      dup2\n        /* \"#utility.yul\":30021:30152   */\n      tag_312\n      jump\t// in\n    tag_627:\n        /* \"#utility.yul\":30013:30152   */\n      swap1\n      pop\n        /* \"#utility.yul\":29740:30159   */\n      swap2\n      swap1\n      pop\n      jump\t// out\n        /* \"#utility.yul\":30165:30402   */\n    tag_313:\n        /* \"#utility.yul\":30305:30339   */\n      0x4f6e6c7920726567697374657265642064617461206275796572732063616e20\n        /* \"#utility.yul\":30301:30302   */\n      0x00\n        /* \"#utility.yul\":30293:30299   */\n      dup3\n        /* \"#utility.yul\":30289:30303   */\n      add\n        /* \"#utility.yul\":30282:30340   */\n      mstore\n        /* \"#utility.yul\":30374:30394   */\n      0x7075726368617365206461746120736574730000000000000000000000000000\n        /* \"#utility.yul\":30369:30371   */\n      0x20\n        /* \"#utility.yul\":30361:30367   */\n      dup3\n        /* \"#utility.yul\":30357:30372   */\n      add\n        /* \"#utility.yul\":30350:30395   */\n      mstore\n        /* \"#utility.yul\":30165:30402   */\n      pop\n      jump\t// out\n        /* \"#utility.yul\":30408:30774   */\n    tag_314:\n        /* \"#utility.yul\":30550:30553   */\n      0x00\n        /* \"#utility.yul\":30571:30638   */\n      tag_630\n        /* \"#utility.yul\":30635:30637   */\n      0x32\n        /* \"#utility.yul\":30630:30633   */\n      dup4\n        /* \"#utility.yul\":30571:30638   */\n      tag_249\n      jump\t// in\n    tag_630:\n        /* \"#utility.yul\":30564:30638   */\n      swap2\n      pop\n        /* \"#utility.yul\":30647:30740   */\n      tag_631\n        /* \"#utility.yul\":30736:30739   */\n      dup3\n        /* \"#utility.yul\":30647:30740   */\n      tag_313\n      jump\t// in\n    tag_631:\n        /* \"#utility.yul\":30765:30767   */\n      0x40\n        /* \"#utility.yul\":30760:30763   */\n      dup3\n        /* \"#utility.yul\":30756:30768   */\n      add\n        /* \"#utility.yul\":30749:30768   */\n      swap1\n      pop\n        /* \"#utility.yul\":30408:30774   */\n      swap2\n      swap1\n      pop\n      jump\t// out\n        /* \"#utility.yul\":30780:31199   */\n    tag_178:\n        /* \"#utility.yul\":30946:30950   */\n      0x00\n        /* \"#utility.yul\":30984:30986   */\n      0x20\n        /* \"#utility.yul\":30973:30982   */\n      dup3\n        /* \"#utility.yul\":30969:30987   */\n      add\n        /* \"#utility.yul\":30961:30987   */\n      swap1\n      pop\n        /* \"#utility.yul\":31033:31042   */\n      dup2\n        /* \"#utility.yul\":31027:31031   */\n      dup2\n        /* \"#utility.yul\":31023:31043   */\n      sub\n        /* \"#utility.yul\":31019:31020   */\n      0x00\n        /* \"#utility.yul\":31008:31017   */\n      dup4\n        /* \"#utility.yul\":31004:31021   */\n      add\n        /* \"#utility.yul\":30997:31044   */\n      mstore\n        /* \"#utility.yul\":31061:31192   */\n      tag_633\n        /* \"#utility.yul\":31187:31191   */\n      dup2\n        /* \"#utility.yul\":31061:31192   */\n      tag_314\n      jump\t// in\n    tag_633:\n        /* \"#utility.yul\":31053:31192   */\n      swap1\n      pop\n        /* \"#utility.yul\":30780:31199   */\n      swap2\n      swap1\n      pop\n      jump\t// out\n        /* \"#utility.yul\":31205:31374   */\n    tag_315:\n        /* \"#utility.yul\":31345:31366   */\n      0x496e76616c696420646174612073657420494400000000000000000000000000\n        /* \"#utility.yul\":31341:31342   */\n      0x00\n        /* \"#utility.yul\":31333:31339   */\n      dup3\n        /* \"#utility.yul\":31329:31343   */\n      add\n        /* \"#utility.yul\":31322:31367   */\n      mstore\n        /* \"#utility.yul\":31205:31374   */\n      pop\n      jump\t// out\n        /* \"#utility.yul\":31380:31746   */\n    tag_316:\n        /* \"#utility.yul\":31522:31525   */\n      0x00\n        /* \"#utility.yul\":31543:31610   */\n      tag_636\n        /* \"#utility.yul\":31607:31609   */\n      0x13\n        /* \"#utility.yul\":31602:31605   */\n      dup4\n        /* \"#utility.yul\":31543:31610   */\n      tag_249\n      jump\t// in\n    tag_636:\n        /* \"#utility.yul\":31536:31610   */\n      swap2\n      pop\n        /* \"#utility.yul\":31619:31712   */\n      tag_637\n        /* \"#utility.yul\":31708:31711   */\n      dup3\n        /* \"#utility.yul\":31619:31712   */\n      tag_315\n      jump\t// in\n    tag_637:\n        /* \"#utility.yul\":31737:31739   */\n      0x20\n        /* \"#utility.yul\":31732:31735   */\n      dup3\n        /* \"#utility.yul\":31728:31740   */\n      add\n        /* \"#utility.yul\":31721:31740   */\n      swap1\n      pop\n        /* \"#utility.yul\":31380:31746   */\n      swap2\n      swap1\n      pop\n      jump\t// out\n        /* \"#utility.yul\":31752:32171   */\n    tag_181:\n        /* \"#utility.yul\":31918:31922   */\n      0x00\n        /* \"#utility.yul\":31956:31958   */\n      0x20\n        /* \"#utility.yul\":31945:31954   */\n      dup3\n        /* \"#utility.yul\":31941:31959   */\n      add\n        /* \"#utility.yul\":31933:31959   */\n      swap1\n      pop\n        /* \"#utility.yul\":32005:32014   */\n      dup2\n        /* \"#utility.yul\":31999:32003   */\n      dup2\n        /* \"#utility.yul\":31995:32015   */\n      sub\n        /* \"#utility.yul\":31991:31992   */\n      0x00\n        /* \"#utility.yul\":31980:31989   */\n      dup4\n        /* \"#utility.yul\":31976:31993   */\n      add\n        /* \"#utility.yul\":31969:32016   */\n      mstore\n        /* \"#utility.yul\":32033:32164   */\n      tag_639\n        /* \"#utility.yul\":32159:32163   */\n      dup2\n        /* \"#utility.yul\":32033:32164   */\n      tag_316\n      jump\t// in\n    tag_639:\n        /* \"#utility.yul\":32025:32164   */\n      swap1\n      pop\n        /* \"#utility.yul\":31752:32171   */\n      swap2\n      swap1\n      pop\n      jump\t// out\n        /* \"#utility.yul\":32177:32351   */\n    tag_317:\n        /* \"#utility.yul\":32317:32343   */\n      0x496e636f7272656374207061796d656e7420616d6f756e740000000000000000\n        /* \"#utility.yul\":32313:32314   */\n      0x00\n        /* \"#utility.yul\":32305:32311   */\n      dup3\n        /* \"#utility.yul\":32301:32315   */\n      add\n        /* \"#utility.yul\":32294:32344   */\n      mstore\n        /* \"#utility.yul\":32177:32351   */\n      pop\n      jump\t// out\n        /* \"#utility.yul\":32357:32723   */\n    tag_318:\n        /* \"#utility.yul\":32499:32502   */\n      0x00\n        /* \"#utility.yul\":32520:32587   */\n      tag_642\n        /* \"#utility.yul\":32584:32586   */\n      0x18\n        /* \"#utility.yul\":32579:32582   */\n      dup4\n        /* \"#utility.yul\":32520:32587   */\n      tag_249\n      jump\t// in\n    tag_642:\n        /* \"#utility.yul\":32513:32587   */\n      swap2\n      pop\n        /* \"#utility.yul\":32596:32689   */\n      tag_643\n        /* \"#utility.yul\":32685:32688   */\n      dup3\n        /* \"#utility.yul\":32596:32689   */\n      tag_317\n      jump\t// in\n    tag_643:\n        /* \"#utility.yul\":32714:32716   */\n      0x20\n        /* \"#utility.yul\":32709:32712   */\n      dup3\n        /* \"#utility.yul\":32705:32717   */\n      add\n        /* \"#utility.yul\":32698:32717   */\n      swap1\n      pop\n        /* \"#utility.yul\":32357:32723   */\n      swap2\n      swap1\n      pop\n      jump\t// out\n        /* \"#utility.yul\":32729:33148   */\n    tag_184:\n        /* \"#utility.yul\":32895:32899   */\n      0x00\n        /* \"#utility.yul\":32933:32935   */\n      0x20\n        /* \"#utility.yul\":32922:32931   */\n      dup3\n        /* \"#utility.yul\":32918:32936   */\n      add\n        /* \"#utility.yul\":32910:32936   */\n      swap1\n      pop\n        /* \"#utility.yul\":32982:32991   */\n      dup2\n        /* \"#utility.yul\":32976:32980   */\n      dup2\n        /* \"#utility.yul\":32972:32992   */\n      sub\n        /* \"#utility.yul\":32968:32969   */\n      0x00\n        /* \"#utility.yul\":32957:32966   */\n      dup4\n        /* \"#utility.yul\":32953:32970   */\n      add\n        /* \"#utility.yul\":32946:32993   */\n      mstore\n        /* \"#utility.yul\":33010:33141   */\n      tag_645\n        /* \"#utility.yul\":33136:33140   */\n      dup2\n        /* \"#utility.yul\":33010:33141   */\n      tag_318\n      jump\t// in\n    tag_645:\n        /* \"#utility.yul\":33002:33141   */\n      swap1\n      pop\n        /* \"#utility.yul\":32729:33148   */\n      swap2\n      swap1\n      pop\n      jump\t// out\n        /* \"#utility.yul\":33154:33564   */\n    tag_186:\n        /* \"#utility.yul\":33194:33201   */\n      0x00\n        /* \"#utility.yul\":33217:33237   */\n      tag_647\n        /* \"#utility.yul\":33235:33236   */\n      dup3\n        /* \"#utility.yul\":33217:33237   */\n      tag_241\n      jump\t// in\n    tag_647:\n        /* \"#utility.yul\":33212:33237   */\n      swap2\n      pop\n        /* \"#utility.yul\":33251:33271   */\n      tag_648\n        /* \"#utility.yul\":33269:33270   */\n      dup4\n        /* \"#utility.yul\":33251:33271   */\n      tag_241\n      jump\t// in\n    tag_648:\n        /* \"#utility.yul\":33246:33271   */\n      swap3\n      pop\n        /* \"#utility.yul\":33306:33307   */\n      dup3\n        /* \"#utility.yul\":33303:33304   */\n      dup3\n        /* \"#utility.yul\":33299:33308   */\n      mul\n        /* \"#utility.yul\":33328:33358   */\n      tag_649\n        /* \"#utility.yul\":33346:33357   */\n      dup2\n        /* \"#utility.yul\":33328:33358   */\n      tag_241\n      jump\t// in\n    tag_649:\n        /* \"#utility.yul\":33317:33358   */\n      swap2\n      pop\n        /* \"#utility.yul\":33507:33508   */\n      dup3\n        /* \"#utility.yul\":33498:33505   */\n      dup3\n        /* \"#utility.yul\":33494:33509   */\n      div\n        /* \"#utility.yul\":33491:33492   */\n      dup5\n        /* \"#utility.yul\":33488:33510   */\n      eq\n        /* \"#utility.yul\":33468:33469   */\n      dup4\n        /* \"#utility.yul\":33461:33470   */\n      iszero\n        /* \"#utility.yul\":33441:33524   */\n      or\n        /* \"#utility.yul\":33418:33557   */\n      tag_650\n      jumpi\n        /* \"#utility.yul\":33537:33555   */\n      tag_651\n      tag_288\n      jump\t// in\n    tag_651:\n        /* \"#utility.yul\":33418:33557   */\n    tag_650:\n        /* \"#utility.yul\":33202:33564   */\n      pop\n        /* \"#utility.yul\":33154:33564   */\n      swap3\n      swap2\n      pop\n      pop\n      jump\t// out\n        /* \"#utility.yul\":33570:33750   */\n    tag_319:\n        /* \"#utility.yul\":33618:33695   */\n      0x4e487b7100000000000000000000000000000000000000000000000000000000\n        /* \"#utility.yul\":33615:33616   */\n      0x00\n        /* \"#utility.yul\":33608:33696   */\n      mstore\n        /* \"#utility.yul\":33715:33719   */\n      0x12\n        /* \"#utility.yul\":33712:33713   */\n      0x04\n        /* \"#utility.yul\":33705:33720   */\n      mstore\n        /* \"#utility.yul\":33739:33743   */\n      0x24\n        /* \"#utility.yul\":33736:33737   */\n      0x00\n        /* \"#utility.yul\":33729:33744   */\n      revert\n        /* \"#utility.yul\":33756:33941   */\n    tag_188:\n        /* \"#utility.yul\":33796:33797   */\n      0x00\n        /* \"#utility.yul\":33813:33833   */\n      tag_654\n        /* \"#utility.yul\":33831:33832   */\n      dup3\n        /* \"#utility.yul\":33813:33833   */\n      tag_241\n      jump\t// in\n    tag_654:\n        /* \"#utility.yul\":33808:33833   */\n      swap2\n      pop\n        /* \"#utility.yul\":33847:33867   */\n      tag_655\n        /* \"#utility.yul\":33865:33866   */\n      dup4\n        /* \"#utility.yul\":33847:33867   */\n      tag_241\n      jump\t// in\n    tag_655:\n        /* \"#utility.yul\":33842:33867   */\n      swap3\n      pop\n        /* \"#utility.yul\":33886:33887   */\n      dup3\n        /* \"#utility.yul\":33876:33911   */\n      tag_656\n      jumpi\n        /* \"#utility.yul\":33891:33909   */\n      tag_657\n      tag_319\n      jump\t// in\n    tag_657:\n        /* \"#utility.yul\":33876:33911   */\n    tag_656:\n        /* \"#utility.yul\":33933:33934   */\n      dup3\n        /* \"#utility.yul\":33930:33931   */\n      dup3\n        /* \"#utility.yul\":33926:33935   */\n      div\n        /* \"#utility.yul\":33921:33935   */\n      swap1\n      pop\n        /* \"#utility.yul\":33756:33941   */\n      swap3\n      swap2\n      pop\n      pop\n      jump\t// out\n        /* \"#utility.yul\":33947:34141   */\n    tag_190:\n        /* \"#utility.yul\":33987:33991   */\n      0x00\n        /* \"#utility.yul\":34007:34027   */\n      tag_659\n        /* \"#utility.yul\":34025:34026   */\n      dup3\n        /* \"#utility.yul\":34007:34027   */\n      tag_241\n      jump\t// in\n    tag_659:\n        /* \"#utility.yul\":34002:34027   */\n      swap2\n      pop\n        /* \"#utility.yul\":34041:34061   */\n      tag_660\n        /* \"#utility.yul\":34059:34060   */\n      dup4\n        /* \"#utility.yul\":34041:34061   */\n      tag_241\n      jump\t// in\n    tag_660:\n        /* \"#utility.yul\":34036:34061   */\n      swap3\n      pop\n        /* \"#utility.yul\":34085:34086   */\n      dup3\n        /* \"#utility.yul\":34082:34083   */\n      dup3\n        /* \"#utility.yul\":34078:34087   */\n      sub\n        /* \"#utility.yul\":34070:34087   */\n      swap1\n      pop\n        /* \"#utility.yul\":34109:34110   */\n      dup2\n        /* \"#utility.yul\":34103:34107   */\n      dup2\n        /* \"#utility.yul\":34100:34111   */\n      gt\n        /* \"#utility.yul\":34097:34134   */\n      iszero\n      tag_661\n      jumpi\n        /* \"#utility.yul\":34114:34132   */\n      tag_662\n      tag_288\n      jump\t// in\n    tag_662:\n        /* \"#utility.yul\":34097:34134   */\n    tag_661:\n        /* \"#utility.yul\":33947:34141   */\n      swap3\n      swap2\n      pop\n      pop\n      jump\t// out\n        /* \"#utility.yul\":34147:34479   */\n    tag_197:\n        /* \"#utility.yul\":34268:34272   */\n      0x00\n        /* \"#utility.yul\":34306:34308   */\n      0x40\n        /* \"#utility.yul\":34295:34304   */\n      dup3\n        /* \"#utility.yul\":34291:34309   */\n      add\n        /* \"#utility.yul\":34283:34309   */\n      swap1\n      pop\n        /* \"#utility.yul\":34319:34390   */\n      tag_664\n        /* \"#utility.yul\":34387:34388   */\n      0x00\n        /* \"#utility.yul\":34376:34385   */\n      dup4\n        /* \"#utility.yul\":34372:34389   */\n      add\n        /* \"#utility.yul\":34363:34369   */\n      dup6\n        /* \"#utility.yul\":34319:34390   */\n      tag_242\n      jump\t// in\n    tag_664:\n        /* \"#utility.yul\":34400:34472   */\n      tag_665\n        /* \"#utility.yul\":34468:34470   */\n      0x20\n        /* \"#utility.yul\":34457:34466   */\n      dup4\n        /* \"#utility.yul\":34453:34471   */\n      add\n        /* \"#utility.yul\":34444:34450   */\n      dup5\n        /* \"#utility.yul\":34400:34472   */\n      tag_254\n      jump\t// in\n    tag_665:\n        /* \"#utility.yul\":34147:34479   */\n      swap4\n      swap3\n      pop\n      pop\n      pop\n      jump\t// out\n        /* \"#utility.yul\":34485:34721   */\n    tag_320:\n        /* \"#utility.yul\":34625:34659   */\n      0x4f6e6c79207265676973746572656420646174612073656c6c6572732063616e\n        /* \"#utility.yul\":34621:34622   */\n      0x00\n        /* \"#utility.yul\":34613:34619   */\n      dup3\n        /* \"#utility.yul\":34609:34623   */\n      add\n        /* \"#utility.yul\":34602:34660   */\n      mstore\n        /* \"#utility.yul\":34694:34713   */\n      0x2075706c6f616420646174612073657473000000000000000000000000000000\n        /* \"#utility.yul\":34689:34691   */\n      0x20\n        /* \"#utility.yul\":34681:34687   */\n      dup3\n        /* \"#utility.yul\":34677:34692   */\n      add\n        /* \"#utility.yul\":34670:34714   */\n      mstore\n        /* \"#utility.yul\":34485:34721   */\n      pop\n      jump\t// out\n        /* \"#utility.yul\":34727:35093   */\n    tag_321:\n        /* \"#utility.yul\":34869:34872   */\n      0x00\n        /* \"#utility.yul\":34890:34957   */\n      tag_668\n        /* \"#utility.yul\":34954:34956   */\n      0x31\n        /* \"#utility.yul\":34949:34952   */\n      dup4\n        /* \"#utility.yul\":34890:34957   */\n      tag_249\n      jump\t// in\n    tag_668:\n        /* \"#utility.yul\":34883:34957   */\n      swap2\n      pop\n        /* \"#utility.yul\":34966:35059   */\n      tag_669\n        /* \"#utility.yul\":35055:35058   */\n      dup3\n        /* \"#utility.yul\":34966:35059   */\n      tag_320\n      jump\t// in\n    tag_669:\n        /* \"#utility.yul\":35084:35086   */\n      0x40\n        /* \"#utility.yul\":35079:35082   */\n      dup3\n        /* \"#utility.yul\":35075:35087   */\n      add\n        /* \"#utility.yul\":35068:35087   */\n      swap1\n      pop\n        /* \"#utility.yul\":34727:35093   */\n      swap2\n      swap1\n      pop\n      jump\t// out\n        /* \"#utility.yul\":35099:35518   */\n    tag_225:\n        /* \"#utility.yul\":35265:35269   */\n      0x00\n        /* \"#utility.yul\":35303:35305   */\n      0x20\n        /* \"#utility.yul\":35292:35301   */\n      dup3\n        /* \"#utility.yul\":35288:35306   */\n      add\n        /* \"#utility.yul\":35280:35306   */\n      swap1\n      pop\n        /* \"#utility.yul\":35352:35361   */\n      dup2\n        /* \"#utility.yul\":35346:35350   */\n      dup2\n        /* \"#utility.yul\":35342:35362   */\n      sub\n        /* \"#utility.yul\":35338:35339   */\n      0x00\n        /* \"#utility.yul\":35327:35336   */\n      dup4\n        /* \"#utility.yul\":35323:35340   */\n      add\n        /* \"#utility.yul\":35316:35363   */\n      mstore\n        /* \"#utility.yul\":35380:35511   */\n      tag_671\n        /* \"#utility.yul\":35506:35510   */\n      dup2\n        /* \"#utility.yul\":35380:35511   */\n      tag_321\n      jump\t// in\n    tag_671:\n        /* \"#utility.yul\":35372:35511   */\n      swap1\n      pop\n        /* \"#utility.yul\":35099:35518   */\n      swap2\n      swap1\n      pop\n      jump\t// out\n        /* \"#utility.yul\":35524:35753   */\n    tag_322:\n        /* \"#utility.yul\":35664:35698   */\n      0x44617461207365742077697468207468652073616d65206861736820616c7265\n        /* \"#utility.yul\":35660:35661   */\n      0x00\n        /* \"#utility.yul\":35652:35658   */\n      dup3\n        /* \"#utility.yul\":35648:35662   */\n      add\n        /* \"#utility.yul\":35641:35699   */\n      mstore\n        /* \"#utility.yul\":35733:35745   */\n      0x6164792065786973747300000000000000000000000000000000000000000000\n        /* \"#utility.yul\":35728:35730   */\n      0x20\n        /* \"#utility.yul\":35720:35726   */\n      dup3\n        /* \"#utility.yul\":35716:35731   */\n      add\n        /* \"#utility.yul\":35709:35746   */\n      mstore\n        /* \"#utility.yul\":35524:35753   */\n      pop\n      jump\t// out\n        /* \"#utility.yul\":35759:36125   */\n    tag_323:\n        /* \"#utility.yul\":35901:35904   */\n      0x00\n        /* \"#utility.yul\":35922:35989   */\n      tag_674\n        /* \"#utility.yul\":35986:35988   */\n      0x2a\n        /* \"#utility.yul\":35981:35984   */\n      dup4\n        /* \"#utility.yul\":35922:35989   */\n      tag_249\n      jump\t// in\n    tag_674:\n        /* \"#utility.yul\":35915:35989   */\n      swap2\n      pop\n        /* \"#utility.yul\":35998:36091   */\n      tag_675\n        /* \"#utility.yul\":36087:36090   */\n      dup3\n        /* \"#utility.yul\":35998:36091   */\n      tag_322\n      jump\t// in\n    tag_675:\n        /* \"#utility.yul\":36116:36118   */\n      0x40\n        /* \"#utility.yul\":36111:36114   */\n      dup3\n        /* \"#utility.yul\":36107:36119   */\n      add\n        /* \"#utility.yul\":36100:36119   */\n      swap1\n      pop\n        /* \"#utility.yul\":35759:36125   */\n      swap2\n      swap1\n      pop\n      jump\t// out\n        /* \"#utility.yul\":36131:36550   */\n    tag_228:\n        /* \"#utility.yul\":36297:36301   */\n      0x00\n        /* \"#utility.yul\":36335:36337   */\n      0x20\n        /* \"#utility.yul\":36324:36333   */\n      dup3\n        /* \"#utility.yul\":36320:36338   */\n      add\n        /* \"#utility.yul\":36312:36338   */\n      swap1\n      pop\n        /* \"#utility.yul\":36384:36393   */\n      dup2\n        /* \"#utility.yul\":36378:36382   */\n      dup2\n        /* \"#utility.yul\":36374:36394   */\n      sub\n        /* \"#utility.yul\":36370:36371   */\n      0x00\n        /* \"#utility.yul\":36359:36368   */\n      dup4\n        /* \"#utility.yul\":36355:36372   */\n      add\n        /* \"#utility.yul\":36348:36395   */\n      mstore\n        /* \"#utility.yul\":36412:36543   */\n      tag_677\n        /* \"#utility.yul\":36538:36542   */\n      dup2\n        /* \"#utility.yul\":36412:36543   */\n      tag_323\n      jump\t// in\n    tag_677:\n        /* \"#utility.yul\":36404:36543   */\n      swap1\n      pop\n        /* \"#utility.yul\":36131:36550   */\n      swap2\n      swap1\n      pop\n      jump\t// out\n        /* \"#utility.yul\":36556:36979   */\n    tag_232:\n        /* \"#utility.yul\":36697:36701   */\n      0x00\n        /* \"#utility.yul\":36735:36737   */\n      0x40\n        /* \"#utility.yul\":36724:36733   */\n      dup3\n        /* \"#utility.yul\":36720:36738   */\n      add\n        /* \"#utility.yul\":36712:36738   */\n      swap1\n      pop\n        /* \"#utility.yul\":36784:36793   */\n      dup2\n        /* \"#utility.yul\":36778:36782   */\n      dup2\n        /* \"#utility.yul\":36774:36794   */\n      sub\n        /* \"#utility.yul\":36770:36771   */\n      0x00\n        /* \"#utility.yul\":36759:36768   */\n      dup4\n        /* \"#utility.yul\":36755:36772   */\n      add\n        /* \"#utility.yul\":36748:36795   */\n      mstore\n        /* \"#utility.yul\":36812:36890   */\n      tag_679\n        /* \"#utility.yul\":36885:36889   */\n      dup2\n        /* \"#utility.yul\":36876:36882   */\n      dup6\n        /* \"#utility.yul\":36812:36890   */\n      tag_252\n      jump\t// in\n    tag_679:\n        /* \"#utility.yul\":36804:36890   */\n      swap1\n      pop\n        /* \"#utility.yul\":36900:36972   */\n      tag_680\n        /* \"#utility.yul\":36968:36970   */\n      0x20\n        /* \"#utility.yul\":36957:36966   */\n      dup4\n        /* \"#utility.yul\":36953:36971   */\n      add\n        /* \"#utility.yul\":36944:36950   */\n      dup5\n        /* \"#utility.yul\":36900:36972   */\n      tag_242\n      jump\t// in\n    tag_680:\n        /* \"#utility.yul\":36556:36979   */\n      swap4\n      swap3\n      pop\n      pop\n      pop\n      jump\t// out\n\n    auxdata: 0xa2646970667358221220589630fd051b6ed08074972fa44276ef4c5801af9368abc815bda68b347e905b64736f6c63430008190033\n}\n",
				"bytecode": {
					"linkReferences": {},
					"object": "6080604052348015600e575f80fd5b503360075f6101000a81548173ffffffffffffffffffffffffffffffffffffffff021916908373ffffffffffffffffffffffffffffffffffffffff160217905550612bda8061005c5f395ff3fe60806040526004361061010c575f3560e01c80637ab8721711610094578063bdaac05611610063578063bdaac05614610377578063be932ebd146103ba578063c54fb04f146103f6578063eb6427d914610432578063ffecc0ee1461046f57610113565b80637ab87217146102cc578063a38a3905146102f4578063a6a371361461031c578063a87430ba1461033857610113565b806316b29706116100db57806316b29706146101d6578063193af99414610212578063228f088a146102505780634df8ccb11461027a5780636570a82f146102a457610113565b806312065fe01461011757806312c983031461014157806313f53f621461016957806315548232146101ac57610113565b3661011357005b5f80fd5b348015610122575f80fd5b5061012b610497565b6040516101389190611845565b60405180910390f35b34801561014c575f80fd5b5061016760048036038101906101629190611899565b61049e565b005b348015610174575f80fd5b5061018f600480360381019061018a91906118d7565b61066c565b6040516101a39897969594939291906119e3565b60405180910390f35b3480156101b7575f80fd5b506101c06107e8565b6040516101cd9190611845565b60405180910390f35b3480156101e1575f80fd5b506101fc60048036038101906101f79190611a97565b6107ed565b6040516102099190611845565b60405180910390f35b34801561021d575f80fd5b5061023860048036038101906102339190611899565b610802565b60405161024793929190611ae2565b60405180910390f35b34801561025b575f80fd5b506102646108e7565b6040516102719190611845565b60405180910390f35b348015610285575f80fd5b5061028e6108ed565b60405161029b9190611b1e565b60405180910390f35b3480156102af575f80fd5b506102ca60048036038101906102c59190611c8d565b610912565b005b3480156102d7575f80fd5b506102f260048036038101906102ed9190611d29565b610b1b565b005b3480156102ff575f80fd5b5061031a60048036038101906103159190611e71565b610c79565b005b610336600480360381019061033191906118d7565b610dfe565b005b348015610343575f80fd5b5061035e60048036038101906103599190611edd565b611160565b60405161036e9493929190611f08565b60405180910390f35b348015610382575f80fd5b5061039d600480360381019061039891906118d7565b6112b0565b6040516103b1989796959493929190611f59565b60405180910390f35b3480156103c5575f80fd5b506103e060048036038101906103db9190611edd565b61144e565b6040516103ed9190611845565b60405180910390f35b348015610401575f80fd5b5061041c600480360381019061041791906118d7565b6114be565b6040516104299190611fe3565b60405180910390f35b34801561043d575f80fd5b5061045860048036038101906104539190611edd565b6114d8565b604051610466929190611ffc565b60405180910390f35b34801561047a575f80fd5b50610495600480360381019061049091906120c1565b6114f8565b005b5f47905090565b5f803373ffffffffffffffffffffffffffffffffffffffff1673ffffffffffffffffffffffffffffffffffffffff1681526020019081526020015f2060020160019054906101000a900460ff1661052a576040517f08c379a0000000000000000000000000000000000000000000000000000000008152600401610521906121fc565b60405180910390fd5b5f60015f8481526020019081526020015f2090508060040160019054906101000a900473ffffffffffffffffffffffffffffffffffffffff1673ffffffffffffffffffffffffffffffffffffffff163373ffffffffffffffffffffffffffffffffffffffff16036105d0576040517f08c379a00000000000000000000000000000000000000000000000000000000081526004016105c790612264565b60405180910390fd5b5f60055f8360040160019054906101000a900473ffffffffffffffffffffffffffffffffffffffff1673ffffffffffffffffffffffffffffffffffffffff1673ffffffffffffffffffffffffffffffffffffffff1681526020019081526020015f209050805f015f815480929190610647906122af565b919050555082816001015f82825461065f91906122f6565b9250508190555050505050565b6001602052805f5260405f205f91509050805f01805461068b90612356565b80601f01602080910402602001604051908101604052809291908181526020018280546106b790612356565b80156107025780601f106106d957610100808354040283529160200191610702565b820191905f5260205f20905b8154815290600101906020018083116106e557829003601f168201915b50505050509080600101805461071790612356565b80601f016020809104026020016040519081016040528092919081815260200182805461074390612356565b801561078e5780601f106107655761010080835404028352916020019161078e565b820191905f5260205f20905b81548152906001019060200180831161077157829003601f168201915b505050505090806002015490806003015490806004015f9054906101000a900460ff16908060040160019054906101000a900473ffffffffffffffffffffffffffffffffffffffff16908060050154908060060154905088565b606481565b6002602052805f5260405f205f915090505481565b6004602052815f5260405f20818154811061081b575f80fd5b905f5260205f2090600302015f9150915050805f015f9054906101000a900473ffffffffffffffffffffffffffffffffffffffff169080600101805461086090612356565b80601f016020809104026020016040519081016040528092919081815260200182805461088c90612356565b80156108d75780601f106108ae576101008083540402835291602001916108d7565b820191905f5260205f20905b8154815290600101906020018083116108ba57829003601f168201915b5050505050908060020154905083565b60065481565b60075f9054906101000a900473ffffffffffffffffffffffffffffffffffffffff1681565b5f803373ffffffffffffffffffffffffffffffffffffffff1673ffffffffffffffffffffffffffffffffffffffff1681526020019081526020015f206002015f9054906101000a900460ff161580156109b557505f803373ffffffffffffffffffffffffffffffffffffffff1673ffffffffffffffffffffffffffffffffffffffff1681526020019081526020015f2060020160019054906101000a900460ff16155b6109f4576040517f08c379a00000000000000000000000000000000000000000000000000000000081526004016109eb906123d0565b60405180910390fd5b604051806080016040528085815260200184815260200183151581526020018215158152505f803373ffffffffffffffffffffffffffffffffffffffff1673ffffffffffffffffffffffffffffffffffffffff1681526020019081526020015f205f820151815f019081610a68919061258b565b506020820151816001019081610a7e919061258b565b506040820151816002015f6101000a81548160ff02191690831515021790555060608201518160020160016101000a81548160ff0219169083151502179055509050503373ffffffffffffffffffffffffffffffffffffffff167fb56f6343b750b88da4b33d9b5a10ab1313d0c619682bc36fdfbb8bdfb4789fcf85858585604051610b0d9493929190611f08565b60405180910390a250505050565b5f803373ffffffffffffffffffffffffffffffffffffffff1673ffffffffffffffffffffffffffffffffffffffff1681526020019081526020015f2060020160019054906101000a900460ff16610ba7576040517f08c379a0000000000000000000000000000000000000000000000000000000008152600401610b9e906126ca565b60405180910390fd5b60045f8381526020019081526020015f2060405180606001604052803373ffffffffffffffffffffffffffffffffffffffff16815260200183815260200142815250908060018154018082558091505060019003905f5260205f2090600302015f909190919091505f820151815f015f6101000a81548173ffffffffffffffffffffffffffffffffffffffff021916908373ffffffffffffffffffffffffffffffffffffffff1602179055506020820151816001019081610c68919061258b565b506040820151816002015550505050565b5f803373ffffffffffffffffffffffffffffffffffffffff1673ffffffffffffffffffffffffffffffffffffffff1681526020019081526020015f206002015f9054906101000a900460ff16610d04576040517f08c379a0000000000000000000000000000000000000000000000000000000008152600401610cfb90612758565b60405180910390fd5b5f60015f8581526020019081526020015f2090503373ffffffffffffffffffffffffffffffffffffffff168160040160019054906101000a900473ffffffffffffffffffffffffffffffffffffffff1673ffffffffffffffffffffffffffffffffffffffff1614610daa576040517f08c379a0000000000000000000000000000000000000000000000000000000008152600401610da1906127e6565b60405180910390fd5b60405180604001604052808481526020018381525060035f8681526020019081526020015f205f820151815f01556020820151816001019080519060200190610df492919061178b565b5090505050505050565b5f803373ffffffffffffffffffffffffffffffffffffffff1673ffffffffffffffffffffffffffffffffffffffff1681526020019081526020015f2060020160019054906101000a900460ff16610e8a576040517f08c379a0000000000000000000000000000000000000000000000000000000008152600401610e8190612874565b60405180910390fd5b5f60015f8381526020019081526020015f2090505f73ffffffffffffffffffffffffffffffffffffffff168160040160019054906101000a900473ffffffffffffffffffffffffffffffffffffffff1673ffffffffffffffffffffffffffffffffffffffff1603610f30576040517f08c379a0000000000000000000000000000000000000000000000000000000008152600401610f27906128dc565b60405180910390fd5b8060030154341015610f77576040517f08c379a0000000000000000000000000000000000000000000000000000000008152600401610f6e90612944565b60405180910390fd5b5f6064808360030154610f8a9190612962565b610f9491906129d0565b90505f818360030154610fa79190612a00565b905060075f9054906101000a900473ffffffffffffffffffffffffffffffffffffffff1673ffffffffffffffffffffffffffffffffffffffff166108fc8390811502906040515f60405180830381858888f1935050505015801561100d573d5f803e3d5ffd5b508260040160019054906101000a900473ffffffffffffffffffffffffffffffffffffffff1673ffffffffffffffffffffffffffffffffffffffff166108fc8290811502906040515f60405180830381858888f19350505050158015611075573d5f803e3d5ffd5b5060035f8581526020019081526020015f2060010133908060018154018082558091505060019003905f5260205f20015f9091909190916101000a81548173ffffffffffffffffffffffffffffffffffffffff021916908373ffffffffffffffffffffffffffffffffffffffff1602179055504260015f8681526020019081526020015f20600601819055503373ffffffffffffffffffffffffffffffffffffffff16847ffb08275d0d7cf05c65ce58a6d8d7f027f5bd3e93df2fd4962b96e26ec1939ea085600301548660020154604051611152929190612a33565b60405180910390a350505050565b5f602052805f5260405f205f91509050805f01805461117e90612356565b80601f01602080910402602001604051908101604052809291908181526020018280546111aa90612356565b80156111f55780601f106111cc576101008083540402835291602001916111f5565b820191905f5260205f20905b8154815290600101906020018083116111d857829003601f168201915b50505050509080600101805461120a90612356565b80601f016020809104026020016040519081016040528092919081815260200182805461123690612356565b80156112815780601f1061125857610100808354040283529160200191611281565b820191905f5260205f20905b81548152906001019060200180831161126457829003601f168201915b505050505090806002015f9054906101000a900460ff16908060020160019054906101000a900460ff16905084565b6060805f805f805f805f60015f8b81526020019081526020015f209050805f018160010182600201548360030154846004015f9054906101000a900460ff168560040160019054906101000a900473ffffffffffffffffffffffffffffffffffffffff168660050154876006015487805461132a90612356565b80601f016020809104026020016040519081016040528092919081815260200182805461135690612356565b80156113a15780601f10611378576101008083540402835291602001916113a1565b820191905f5260205f20905b81548152906001019060200180831161138457829003601f168201915b505050505097508680546113b490612356565b80601f01602080910402602001604051908101604052809291908181526020018280546113e090612356565b801561142b5780601f106114025761010080835404028352916020019161142b565b820191905f5260205f20905b81548152906001019060200180831161140e57829003601f168201915b505050505096509850985098509850985098509850985050919395975091939597565b5f8060055f8473ffffffffffffffffffffffffffffffffffffffff1673ffffffffffffffffffffffffffffffffffffffff1681526020019081526020015f2090505f815f0154036114a2575f9150506114b9565b805f015481600101546114b591906129d0565b9150505b919050565b6003602052805f5260405f205f91509050805f0154905081565b6005602052805f5260405f205f91509050805f0154908060010154905082565b5f803373ffffffffffffffffffffffffffffffffffffffff1673ffffffffffffffffffffffffffffffffffffffff1681526020019081526020015f206002015f9054906101000a900460ff16611583576040517f08c379a000000000000000000000000000000000000000000000000000000000815260040161157a90612aca565b60405180910390fd5b5f838051906020012090505f60025f8381526020019081526020015f2054146115e1576040517f08c379a00000000000000000000000000000000000000000000000000000000081526004016115d890612b58565b60405180910390fd5b60405180610100016040528087815260200186815260200182815260200184815260200183151581526020013373ffffffffffffffffffffffffffffffffffffffff1681526020014281526020015f81525060015f60065481526020019081526020015f205f820151815f019081611659919061258b565b50602082015181600101908161166f919061258b565b5060408201518160020155606082015181600301556080820151816004015f6101000a81548160ff02191690831515021790555060a08201518160040160016101000a81548173ffffffffffffffffffffffffffffffffffffffff021916908373ffffffffffffffffffffffffffffffffffffffff16021790555060c0820151816005015560e0820151816006015590505060065460025f8381526020019081526020015f20819055503373ffffffffffffffffffffffffffffffffffffffff166006547fa8e21f9641ee0a4b37add0642221f97ed1accf45d08ad495fac8fe05d90b92868886604051611764929190612b76565b60405180910390a360065f81548092919061177e906122af565b9190505550505050505050565b828054828255905f5260205f20908101928215611801579160200282015b82811115611800578251825f6101000a81548173ffffffffffffffffffffffffffffffffffffffff021916908373ffffffffffffffffffffffffffffffffffffffff160217905550916020019190600101906117a9565b5b50905061180e9190611812565b5090565b5b80821115611829575f815f905550600101611813565b5090565b5f819050919050565b61183f8161182d565b82525050565b5f6020820190506118585f830184611836565b92915050565b5f604051905090565b5f80fd5b5f80fd5b6118788161182d565b8114611882575f80fd5b50565b5f813590506118938161186f565b92915050565b5f80604083850312156118af576118ae611867565b5b5f6118bc85828601611885565b92505060206118cd85828601611885565b9150509250929050565b5f602082840312156118ec576118eb611867565b5b5f6118f984828501611885565b91505092915050565b5f81519050919050565b5f82825260208201905092915050565b8281835e5f83830152505050565b5f601f19601f8301169050919050565b5f61194482611902565b61194e818561190c565b935061195e81856020860161191c565b6119678161192a565b840191505092915050565b5f819050919050565b61198481611972565b82525050565b5f8115159050919050565b61199e8161198a565b82525050565b5f73ffffffffffffffffffffffffffffffffffffffff82169050919050565b5f6119cd826119a4565b9050919050565b6119dd816119c3565b82525050565b5f610100820190508181035f8301526119fc818b61193a565b90508181036020830152611a10818a61193a565b9050611a1f604083018961197b565b611a2c6060830188611836565b611a396080830187611995565b611a4660a08301866119d4565b611a5360c0830185611836565b611a6060e0830184611836565b9998505050505050505050565b611a7681611972565b8114611a80575f80fd5b50565b5f81359050611a9181611a6d565b92915050565b5f60208284031215611aac57611aab611867565b5b5f611ab984828501611a83565b91505092915050565b5f611acc826119a4565b9050919050565b611adc81611ac2565b82525050565b5f606082019050611af55f830186611ad3565b8181036020830152611b07818561193a565b9050611b166040830184611836565b949350505050565b5f602082019050611b315f8301846119d4565b92915050565b5f80fd5b5f80fd5b7f4e487b71000000000000000000000000000000000000000000000000000000005f52604160045260245ffd5b611b758261192a565b810181811067ffffffffffffffff82111715611b9457611b93611b3f565b5b80604052505050565b5f611ba661185e565b9050611bb28282611b6c565b919050565b5f67ffffffffffffffff821115611bd157611bd0611b3f565b5b611bda8261192a565b9050602081019050919050565b828183375f83830152505050565b5f611c07611c0284611bb7565b611b9d565b905082815260208101848484011115611c2357611c22611b3b565b5b611c2e848285611be7565b509392505050565b5f82601f830112611c4a57611c49611b37565b5b8135611c5a848260208601611bf5565b91505092915050565b611c6c8161198a565b8114611c76575f80fd5b50565b5f81359050611c8781611c63565b92915050565b5f805f8060808587031215611ca557611ca4611867565b5b5f85013567ffffffffffffffff811115611cc257611cc161186b565b5b611cce87828801611c36565b945050602085013567ffffffffffffffff811115611cef57611cee61186b565b5b611cfb87828801611c36565b9350506040611d0c87828801611c79565b9250506060611d1d87828801611c79565b91505092959194509250565b5f8060408385031215611d3f57611d3e611867565b5b5f611d4c85828601611885565b925050602083013567ffffffffffffffff811115611d6d57611d6c61186b565b5b611d7985828601611c36565b9150509250929050565b5f67ffffffffffffffff821115611d9d57611d9c611b3f565b5b602082029050602081019050919050565b5f80fd5b611dbb81611ac2565b8114611dc5575f80fd5b50565b5f81359050611dd681611db2565b92915050565b5f611dee611de984611d83565b611b9d565b90508083825260208201905060208402830185811115611e1157611e10611dae565b5b835b81811015611e3a5780611e268882611dc8565b845260208401935050602081019050611e13565b5050509392505050565b5f82601f830112611e5857611e57611b37565b5b8135611e68848260208601611ddc565b91505092915050565b5f805f60608486031215611e8857611e87611867565b5b5f611e9586828701611885565b9350506020611ea686828701611a83565b925050604084013567ffffffffffffffff811115611ec757611ec661186b565b5b611ed386828701611e44565b9150509250925092565b5f60208284031215611ef257611ef1611867565b5b5f611eff84828501611dc8565b91505092915050565b5f6080820190508181035f830152611f20818761193a565b90508181036020830152611f34818661193a565b9050611f436040830185611995565b611f506060830184611995565b95945050505050565b5f610100820190508181035f830152611f72818b61193a565b90508181036020830152611f86818a61193a565b9050611f95604083018961197b565b611fa26060830188611836565b611faf6080830187611995565b611fbc60a0830186611ad3565b611fc960c0830185611836565b611fd660e0830184611836565b9998505050505050505050565b5f602082019050611ff65f83018461197b565b92915050565b5f60408201905061200f5f830185611836565b61201c6020830184611836565b9392505050565b5f67ffffffffffffffff82111561203d5761203c611b3f565b5b6120468261192a565b9050602081019050919050565b5f61206561206084612023565b611b9d565b90508281526020810184848401111561208157612080611b3b565b5b61208c848285611be7565b509392505050565b5f82601f8301126120a8576120a7611b37565b5b81356120b8848260208601612053565b91505092915050565b5f805f805f60a086880312156120da576120d9611867565b5b5f86013567ffffffffffffffff8111156120f7576120f661186b565b5b61210388828901611c36565b955050602086013567ffffffffffffffff8111156121245761212361186b565b5b61213088828901611c36565b945050604086013567ffffffffffffffff8111156121515761215061186b565b5b61215d88828901612094565b935050606061216e88828901611885565b925050608061217f88828901611c79565b9150509295509295909350565b7f4f6e6c7920726567697374657265642064617461206275796572732063616e205f8201527f726174652073656c6c6572730000000000000000000000000000000000000000602082015250565b5f6121e6602c8361190c565b91506121f18261218c565b604082019050919050565b5f6020820190508181035f830152612213816121da565b9050919050565b7f53656c6c6572732063616e6e6f742072617465207468656d73656c76657300005f82015250565b5f61224e601e8361190c565b91506122598261221a565b602082019050919050565b5f6020820190508181035f83015261227b81612242565b9050919050565b7f4e487b71000000000000000000000000000000000000000000000000000000005f52601160045260245ffd5b5f6122b98261182d565b91507fffffffffffffffffffffffffffffffffffffffffffffffffffffffffffffffff82036122eb576122ea612282565b5b600182019050919050565b5f6123008261182d565b915061230b8361182d565b925082820190508082111561232357612322612282565b5b92915050565b7f4e487b71000000000000000000000000000000000000000000000000000000005f52602260045260245ffd5b5f600282049050600182168061236d57607f821691505b6020821081036123805761237f612329565b5b50919050565b7f5573657220616c726561647920726567697374657265640000000000000000005f82015250565b5f6123ba60178361190c565b91506123c582612386565b602082019050919050565b5f6020820190508181035f8301526123e7816123ae565b9050919050565b5f819050815f5260205f209050919050565b5f6020601f8301049050919050565b5f82821b905092915050565b5f6008830261244a7fffffffffffffffffffffffffffffffffffffffffffffffffffffffffffffffff8261240f565b612454868361240f565b95508019841693508086168417925050509392505050565b5f819050919050565b5f61248f61248a6124858461182d565b61246c565b61182d565b9050919050565b5f819050919050565b6124a883612475565b6124bc6124b482612496565b84845461241b565b825550505050565b5f90565b6124d06124c4565b6124db81848461249f565b505050565b5b818110156124fe576124f35f826124c8565b6001810190506124e1565b5050565b601f82111561254357612514816123ee565b61251d84612400565b8101602085101561252c578190505b61254061253885612400565b8301826124e0565b50505b505050565b5f82821c905092915050565b5f6125635f1984600802612548565b1980831691505092915050565b5f61257b8383612554565b9150826002028217905092915050565b61259482611902565b67ffffffffffffffff8111156125ad576125ac611b3f565b5b6125b78254612356565b6125c2828285612502565b5f60209050601f8311600181146125f3575f84156125e1578287015190505b6125eb8582612570565b865550612652565b601f198416612601866123ee565b5f5b8281101561262857848901518255600182019150602085019450602081019050612603565b868310156126455784890151612641601f891682612554565b8355505b6001600288020188555050505b505050505050565b7f4f6e6c7920726567697374657265642064617461206275796572732063616e205f8201527f7265706f72742064617461207365747300000000000000000000000000000000602082015250565b5f6126b460308361190c565b91506126bf8261265a565b604082019050919050565b5f6020820190508181035f8301526126e1816126a8565b9050919050565b7f4f6e6c79207265676973746572656420646174612073656c6c6572732063616e5f8201527f2073657420656e6372797074696f6e206b657973000000000000000000000000602082015250565b5f61274260348361190c565b915061274d826126e8565b604082019050919050565b5f6020820190508181035f83015261276f81612736565b9050919050565b7f4f6e6c79207468652073656c6c65722063616e207365742074686520656e63725f8201527f797074696f6e206b657900000000000000000000000000000000000000000000602082015250565b5f6127d0602a8361190c565b91506127db82612776565b604082019050919050565b5f6020820190508181035f8301526127fd816127c4565b9050919050565b7f4f6e6c7920726567697374657265642064617461206275796572732063616e205f8201527f7075726368617365206461746120736574730000000000000000000000000000602082015250565b5f61285e60328361190c565b915061286982612804565b604082019050919050565b5f6020820190508181035f83015261288b81612852565b9050919050565b7f496e76616c6964206461746120736574204944000000000000000000000000005f82015250565b5f6128c660138361190c565b91506128d182612892565b602082019050919050565b5f6020820190508181035f8301526128f3816128ba565b9050919050565b7f496e636f7272656374207061796d656e7420616d6f756e7400000000000000005f82015250565b5f61292e60188361190c565b9150612939826128fa565b602082019050919050565b5f6020820190508181035f83015261295b81612922565b9050919050565b5f61296c8261182d565b91506129778361182d565b92508282026129858161182d565b9150828204841483151761299c5761299b612282565b5b5092915050565b7f4e487b71000000000000000000000000000000000000000000000000000000005f52601260045260245ffd5b5f6129da8261182d565b91506129e58361182d565b9250826129f5576129f46129a3565b5b828204905092915050565b5f612a0a8261182d565b9150612a158361182d565b9250828203905081811115612a2d57612a2c612282565b5b92915050565b5f604082019050612a465f830185611836565b612a53602083018461197b565b9392505050565b7f4f6e6c79207265676973746572656420646174612073656c6c6572732063616e5f8201527f2075706c6f616420646174612073657473000000000000000000000000000000602082015250565b5f612ab460318361190c565b9150612abf82612a5a565b604082019050919050565b5f6020820190508181035f830152612ae181612aa8565b9050919050565b7f44617461207365742077697468207468652073616d65206861736820616c72655f8201527f6164792065786973747300000000000000000000000000000000000000000000602082015250565b5f612b42602a8361190c565b9150612b4d82612ae8565b604082019050919050565b5f6020820190508181035f830152612b6f81612b36565b9050919050565b5f6040820190508181035f830152612b8e818561193a565b9050612b9d6020830184611836565b939250505056fea2646970667358221220589630fd051b6ed08074972fa44276ef4c5801af9368abc815bda68b347e905b64736f6c63430008190033",
					"opcodes": "PUSH1 0x80 PUSH1 0x40 MSTORE CALLVALUE DUP1 ISZERO PUSH1 0xE JUMPI PUSH0 DUP1 REVERT JUMPDEST POP CALLER PUSH1 0x7 PUSH0 PUSH2 0x100 EXP DUP2 SLOAD DUP2 PUSH20 0xFFFFFFFFFFFFFFFFFFFFFFFFFFFFFFFFFFFFFFFF MUL NOT AND SWAP1 DUP4 PUSH20 0xFFFFFFFFFFFFFFFFFFFFFFFFFFFFFFFFFFFFFFFF AND MUL OR SWAP1 SSTORE POP PUSH2 0x2BDA DUP1 PUSH2 0x5C PUSH0 CODECOPY PUSH0 RETURN INVALID PUSH1 0x80 PUSH1 0x40 MSTORE PUSH1 0x4 CALLDATASIZE LT PUSH2 0x10C JUMPI PUSH0 CALLDATALOAD PUSH1 0xE0 SHR DUP1 PUSH4 0x7AB87217 GT PUSH2 0x94 JUMPI DUP1 PUSH4 0xBDAAC056 GT PUSH2 0x63 JUMPI DUP1 PUSH4 0xBDAAC056 EQ PUSH2 0x377 JUMPI DUP1 PUSH4 0xBE932EBD EQ PUSH2 0x3BA JUMPI DUP1 PUSH4 0xC54FB04F EQ PUSH2 0x3F6 JUMPI DUP1 PUSH4 0xEB6427D9 EQ PUSH2 0x432 JUMPI DUP1 PUSH4 0xFFECC0EE EQ PUSH2 0x46F JUMPI PUSH2 0x113 JUMP JUMPDEST DUP1 PUSH4 0x7AB87217 EQ PUSH2 0x2CC JUMPI DUP1 PUSH4 0xA38A3905 EQ PUSH2 0x2F4 JUMPI DUP1 PUSH4 0xA6A37136 EQ PUSH2 0x31C JUMPI DUP1 PUSH4 0xA87430BA EQ PUSH2 0x338 JUMPI PUSH2 0x113 JUMP JUMPDEST DUP1 PUSH4 0x16B29706 GT PUSH2 0xDB JUMPI DUP1 PUSH4 0x16B29706 EQ PUSH2 0x1D6 JUMPI DUP1 PUSH4 0x193AF994 EQ PUSH2 0x212 JUMPI DUP1 PUSH4 0x228F088A EQ PUSH2 0x250 JUMPI DUP1 PUSH4 0x4DF8CCB1 EQ PUSH2 0x27A JUMPI DUP1 PUSH4 0x6570A82F EQ PUSH2 0x2A4 JUMPI PUSH2 0x113 JUMP JUMPDEST DUP1 PUSH4 0x12065FE0 EQ PUSH2 0x117 JUMPI DUP1 PUSH4 0x12C98303 EQ PUSH2 0x141 JUMPI DUP1 PUSH4 0x13F53F62 EQ PUSH2 0x169 JUMPI DUP1 PUSH4 0x15548232 EQ PUSH2 0x1AC JUMPI PUSH2 0x113 JUMP JUMPDEST CALLDATASIZE PUSH2 0x113 JUMPI STOP JUMPDEST PUSH0 DUP1 REVERT JUMPDEST CALLVALUE DUP1 ISZERO PUSH2 0x122 JUMPI PUSH0 DUP1 REVERT JUMPDEST POP PUSH2 0x12B PUSH2 0x497 JUMP JUMPDEST PUSH1 0x40 MLOAD PUSH2 0x138 SWAP2 SWAP1 PUSH2 0x1845 JUMP JUMPDEST PUSH1 0x40 MLOAD DUP1 SWAP2 SUB SWAP1 RETURN JUMPDEST CALLVALUE DUP1 ISZERO PUSH2 0x14C JUMPI PUSH0 DUP1 REVERT JUMPDEST POP PUSH2 0x167 PUSH1 0x4 DUP1 CALLDATASIZE SUB DUP2 ADD SWAP1 PUSH2 0x162 SWAP2 SWAP1 PUSH2 0x1899 JUMP JUMPDEST PUSH2 0x49E JUMP JUMPDEST STOP JUMPDEST CALLVALUE DUP1 ISZERO PUSH2 0x174 JUMPI PUSH0 DUP1 REVERT JUMPDEST POP PUSH2 0x18F PUSH1 0x4 DUP1 CALLDATASIZE SUB DUP2 ADD SWAP1 PUSH2 0x18A SWAP2 SWAP1 PUSH2 0x18D7 JUMP JUMPDEST PUSH2 0x66C JUMP JUMPDEST PUSH1 0x40 MLOAD PUSH2 0x1A3 SWAP9 SWAP8 SWAP7 SWAP6 SWAP5 SWAP4 SWAP3 SWAP2 SWAP1 PUSH2 0x19E3 JUMP JUMPDEST PUSH1 0x40 MLOAD DUP1 SWAP2 SUB SWAP1 RETURN JUMPDEST CALLVALUE DUP1 ISZERO PUSH2 0x1B7 JUMPI PUSH0 DUP1 REVERT JUMPDEST POP PUSH2 0x1C0 PUSH2 0x7E8 JUMP JUMPDEST PUSH1 0x40 MLOAD PUSH2 0x1CD SWAP2 SWAP1 PUSH2 0x1845 JUMP JUMPDEST PUSH1 0x40 MLOAD DUP1 SWAP2 SUB SWAP1 RETURN JUMPDEST CALLVALUE DUP1 ISZERO PUSH2 0x1E1 JUMPI PUSH0 DUP1 REVERT JUMPDEST POP PUSH2 0x1FC PUSH1 0x4 DUP1 CALLDATASIZE SUB DUP2 ADD SWAP1 PUSH2 0x1F7 SWAP2 SWAP1 PUSH2 0x1A97 JUMP JUMPDEST PUSH2 0x7ED JUMP JUMPDEST PUSH1 0x40 MLOAD PUSH2 0x209 SWAP2 SWAP1 PUSH2 0x1845 JUMP JUMPDEST PUSH1 0x40 MLOAD DUP1 SWAP2 SUB SWAP1 RETURN JUMPDEST CALLVALUE DUP1 ISZERO PUSH2 0x21D JUMPI PUSH0 DUP1 REVERT JUMPDEST POP PUSH2 0x238 PUSH1 0x4 DUP1 CALLDATASIZE SUB DUP2 ADD SWAP1 PUSH2 0x233 SWAP2 SWAP1 PUSH2 0x1899 JUMP JUMPDEST PUSH2 0x802 JUMP JUMPDEST PUSH1 0x40 MLOAD PUSH2 0x247 SWAP4 SWAP3 SWAP2 SWAP1 PUSH2 0x1AE2 JUMP JUMPDEST PUSH1 0x40 MLOAD DUP1 SWAP2 SUB SWAP1 RETURN JUMPDEST CALLVALUE DUP1 ISZERO PUSH2 0x25B JUMPI PUSH0 DUP1 REVERT JUMPDEST POP PUSH2 0x264 PUSH2 0x8E7 JUMP JUMPDEST PUSH1 0x40 MLOAD PUSH2 0x271 SWAP2 SWAP1 PUSH2 0x1845 JUMP JUMPDEST PUSH1 0x40 MLOAD DUP1 SWAP2 SUB SWAP1 RETURN JUMPDEST CALLVALUE DUP1 ISZERO PUSH2 0x285 JUMPI PUSH0 DUP1 REVERT JUMPDEST POP PUSH2 0x28E PUSH2 0x8ED JUMP JUMPDEST PUSH1 0x40 MLOAD PUSH2 0x29B SWAP2 SWAP1 PUSH2 0x1B1E JUMP JUMPDEST PUSH1 0x40 MLOAD DUP1 SWAP2 SUB SWAP1 RETURN JUMPDEST CALLVALUE DUP1 ISZERO PUSH2 0x2AF JUMPI PUSH0 DUP1 REVERT JUMPDEST POP PUSH2 0x2CA PUSH1 0x4 DUP1 CALLDATASIZE SUB DUP2 ADD SWAP1 PUSH2 0x2C5 SWAP2 SWAP1 PUSH2 0x1C8D JUMP JUMPDEST PUSH2 0x912 JUMP JUMPDEST STOP JUMPDEST CALLVALUE DUP1 ISZERO PUSH2 0x2D7 JUMPI PUSH0 DUP1 REVERT JUMPDEST POP PUSH2 0x2F2 PUSH1 0x4 DUP1 CALLDATASIZE SUB DUP2 ADD SWAP1 PUSH2 0x2ED SWAP2 SWAP1 PUSH2 0x1D29 JUMP JUMPDEST PUSH2 0xB1B JUMP JUMPDEST STOP JUMPDEST CALLVALUE DUP1 ISZERO PUSH2 0x2FF JUMPI PUSH0 DUP1 REVERT JUMPDEST POP PUSH2 0x31A PUSH1 0x4 DUP1 CALLDATASIZE SUB DUP2 ADD SWAP1 PUSH2 0x315 SWAP2 SWAP1 PUSH2 0x1E71 JUMP JUMPDEST PUSH2 0xC79 JUMP JUMPDEST STOP JUMPDEST PUSH2 0x336 PUSH1 0x4 DUP1 CALLDATASIZE SUB DUP2 ADD SWAP1 PUSH2 0x331 SWAP2 SWAP1 PUSH2 0x18D7 JUMP JUMPDEST PUSH2 0xDFE JUMP JUMPDEST STOP JUMPDEST CALLVALUE DUP1 ISZERO PUSH2 0x343 JUMPI PUSH0 DUP1 REVERT JUMPDEST POP PUSH2 0x35E PUSH1 0x4 DUP1 CALLDATASIZE SUB DUP2 ADD SWAP1 PUSH2 0x359 SWAP2 SWAP1 PUSH2 0x1EDD JUMP JUMPDEST PUSH2 0x1160 JUMP JUMPDEST PUSH1 0x40 MLOAD PUSH2 0x36E SWAP5 SWAP4 SWAP3 SWAP2 SWAP1 PUSH2 0x1F08 JUMP JUMPDEST PUSH1 0x40 MLOAD DUP1 SWAP2 SUB SWAP1 RETURN JUMPDEST CALLVALUE DUP1 ISZERO PUSH2 0x382 JUMPI PUSH0 DUP1 REVERT JUMPDEST POP PUSH2 0x39D PUSH1 0x4 DUP1 CALLDATASIZE SUB DUP2 ADD SWAP1 PUSH2 0x398 SWAP2 SWAP1 PUSH2 0x18D7 JUMP JUMPDEST PUSH2 0x12B0 JUMP JUMPDEST PUSH1 0x40 MLOAD PUSH2 0x3B1 SWAP9 SWAP8 SWAP7 SWAP6 SWAP5 SWAP4 SWAP3 SWAP2 SWAP1 PUSH2 0x1F59 JUMP JUMPDEST PUSH1 0x40 MLOAD DUP1 SWAP2 SUB SWAP1 RETURN JUMPDEST CALLVALUE DUP1 ISZERO PUSH2 0x3C5 JUMPI PUSH0 DUP1 REVERT JUMPDEST POP PUSH2 0x3E0 PUSH1 0x4 DUP1 CALLDATASIZE SUB DUP2 ADD SWAP1 PUSH2 0x3DB SWAP2 SWAP1 PUSH2 0x1EDD JUMP JUMPDEST PUSH2 0x144E JUMP JUMPDEST PUSH1 0x40 MLOAD PUSH2 0x3ED SWAP2 SWAP1 PUSH2 0x1845 JUMP JUMPDEST PUSH1 0x40 MLOAD DUP1 SWAP2 SUB SWAP1 RETURN JUMPDEST CALLVALUE DUP1 ISZERO PUSH2 0x401 JUMPI PUSH0 DUP1 REVERT JUMPDEST POP PUSH2 0x41C PUSH1 0x4 DUP1 CALLDATASIZE SUB DUP2 ADD SWAP1 PUSH2 0x417 SWAP2 SWAP1 PUSH2 0x18D7 JUMP JUMPDEST PUSH2 0x14BE JUMP JUMPDEST PUSH1 0x40 MLOAD PUSH2 0x429 SWAP2 SWAP1 PUSH2 0x1FE3 JUMP JUMPDEST PUSH1 0x40 MLOAD DUP1 SWAP2 SUB SWAP1 RETURN JUMPDEST CALLVALUE DUP1 ISZERO PUSH2 0x43D JUMPI PUSH0 DUP1 REVERT JUMPDEST POP PUSH2 0x458 PUSH1 0x4 DUP1 CALLDATASIZE SUB DUP2 ADD SWAP1 PUSH2 0x453 SWAP2 SWAP1 PUSH2 0x1EDD JUMP JUMPDEST PUSH2 0x14D8 JUMP JUMPDEST PUSH1 0x40 MLOAD PUSH2 0x466 SWAP3 SWAP2 SWAP1 PUSH2 0x1FFC JUMP JUMPDEST PUSH1 0x40 MLOAD DUP1 SWAP2 SUB SWAP1 RETURN JUMPDEST CALLVALUE DUP1 ISZERO PUSH2 0x47A JUMPI PUSH0 DUP1 REVERT JUMPDEST POP PUSH2 0x495 PUSH1 0x4 DUP1 CALLDATASIZE SUB DUP2 ADD SWAP1 PUSH2 0x490 SWAP2 SWAP1 PUSH2 0x20C1 JUMP JUMPDEST PUSH2 0x14F8 JUMP JUMPDEST STOP JUMPDEST PUSH0 SELFBALANCE SWAP1 POP SWAP1 JUMP JUMPDEST PUSH0 DUP1 CALLER PUSH20 0xFFFFFFFFFFFFFFFFFFFFFFFFFFFFFFFFFFFFFFFF AND PUSH20 0xFFFFFFFFFFFFFFFFFFFFFFFFFFFFFFFFFFFFFFFF AND DUP2 MSTORE PUSH1 0x20 ADD SWAP1 DUP2 MSTORE PUSH1 0x20 ADD PUSH0 KECCAK256 PUSH1 0x2 ADD PUSH1 0x1 SWAP1 SLOAD SWAP1 PUSH2 0x100 EXP SWAP1 DIV PUSH1 0xFF AND PUSH2 0x52A JUMPI PUSH1 0x40 MLOAD PUSH32 0x8C379A000000000000000000000000000000000000000000000000000000000 DUP2 MSTORE PUSH1 0x4 ADD PUSH2 0x521 SWAP1 PUSH2 0x21FC JUMP JUMPDEST PUSH1 0x40 MLOAD DUP1 SWAP2 SUB SWAP1 REVERT JUMPDEST PUSH0 PUSH1 0x1 PUSH0 DUP5 DUP2 MSTORE PUSH1 0x20 ADD SWAP1 DUP2 MSTORE PUSH1 0x20 ADD PUSH0 KECCAK256 SWAP1 POP DUP1 PUSH1 0x4 ADD PUSH1 0x1 SWAP1 SLOAD SWAP1 PUSH2 0x100 EXP SWAP1 DIV PUSH20 0xFFFFFFFFFFFFFFFFFFFFFFFFFFFFFFFFFFFFFFFF AND PUSH20 0xFFFFFFFFFFFFFFFFFFFFFFFFFFFFFFFFFFFFFFFF AND CALLER PUSH20 0xFFFFFFFFFFFFFFFFFFFFFFFFFFFFFFFFFFFFFFFF AND SUB PUSH2 0x5D0 JUMPI PUSH1 0x40 MLOAD PUSH32 0x8C379A000000000000000000000000000000000000000000000000000000000 DUP2 MSTORE PUSH1 0x4 ADD PUSH2 0x5C7 SWAP1 PUSH2 0x2264 JUMP JUMPDEST PUSH1 0x40 MLOAD DUP1 SWAP2 SUB SWAP1 REVERT JUMPDEST PUSH0 PUSH1 0x5 PUSH0 DUP4 PUSH1 0x4 ADD PUSH1 0x1 SWAP1 SLOAD SWAP1 PUSH2 0x100 EXP SWAP1 DIV PUSH20 0xFFFFFFFFFFFFFFFFFFFFFFFFFFFFFFFFFFFFFFFF AND PUSH20 0xFFFFFFFFFFFFFFFFFFFFFFFFFFFFFFFFFFFFFFFF AND PUSH20 0xFFFFFFFFFFFFFFFFFFFFFFFFFFFFFFFFFFFFFFFF AND DUP2 MSTORE PUSH1 0x20 ADD SWAP1 DUP2 MSTORE PUSH1 0x20 ADD PUSH0 KECCAK256 SWAP1 POP DUP1 PUSH0 ADD PUSH0 DUP2 SLOAD DUP1 SWAP3 SWAP2 SWAP1 PUSH2 0x647 SWAP1 PUSH2 0x22AF JUMP JUMPDEST SWAP2 SWAP1 POP SSTORE POP DUP3 DUP2 PUSH1 0x1 ADD PUSH0 DUP3 DUP3 SLOAD PUSH2 0x65F SWAP2 SWAP1 PUSH2 0x22F6 JUMP JUMPDEST SWAP3 POP POP DUP2 SWAP1 SSTORE POP POP POP POP POP JUMP JUMPDEST PUSH1 0x1 PUSH1 0x20 MSTORE DUP1 PUSH0 MSTORE PUSH1 0x40 PUSH0 KECCAK256 PUSH0 SWAP2 POP SWAP1 POP DUP1 PUSH0 ADD DUP1 SLOAD PUSH2 0x68B SWAP1 PUSH2 0x2356 JUMP JUMPDEST DUP1 PUSH1 0x1F ADD PUSH1 0x20 DUP1 SWAP2 DIV MUL PUSH1 0x20 ADD PUSH1 0x40 MLOAD SWAP1 DUP2 ADD PUSH1 0x40 MSTORE DUP1 SWAP3 SWAP2 SWAP1 DUP2 DUP2 MSTORE PUSH1 0x20 ADD DUP3 DUP1 SLOAD PUSH2 0x6B7 SWAP1 PUSH2 0x2356 JUMP JUMPDEST DUP1 ISZERO PUSH2 0x702 JUMPI DUP1 PUSH1 0x1F LT PUSH2 0x6D9 JUMPI PUSH2 0x100 DUP1 DUP4 SLOAD DIV MUL DUP4 MSTORE SWAP2 PUSH1 0x20 ADD SWAP2 PUSH2 0x702 JUMP JUMPDEST DUP3 ADD SWAP2 SWAP1 PUSH0 MSTORE PUSH1 0x20 PUSH0 KECCAK256 SWAP1 JUMPDEST DUP2 SLOAD DUP2 MSTORE SWAP1 PUSH1 0x1 ADD SWAP1 PUSH1 0x20 ADD DUP1 DUP4 GT PUSH2 0x6E5 JUMPI DUP3 SWAP1 SUB PUSH1 0x1F AND DUP3 ADD SWAP2 JUMPDEST POP POP POP POP POP SWAP1 DUP1 PUSH1 0x1 ADD DUP1 SLOAD PUSH2 0x717 SWAP1 PUSH2 0x2356 JUMP JUMPDEST DUP1 PUSH1 0x1F ADD PUSH1 0x20 DUP1 SWAP2 DIV MUL PUSH1 0x20 ADD PUSH1 0x40 MLOAD SWAP1 DUP2 ADD PUSH1 0x40 MSTORE DUP1 SWAP3 SWAP2 SWAP1 DUP2 DUP2 MSTORE PUSH1 0x20 ADD DUP3 DUP1 SLOAD PUSH2 0x743 SWAP1 PUSH2 0x2356 JUMP JUMPDEST DUP1 ISZERO PUSH2 0x78E JUMPI DUP1 PUSH1 0x1F LT PUSH2 0x765 JUMPI PUSH2 0x100 DUP1 DUP4 SLOAD DIV MUL DUP4 MSTORE SWAP2 PUSH1 0x20 ADD SWAP2 PUSH2 0x78E JUMP JUMPDEST DUP3 ADD SWAP2 SWAP1 PUSH0 MSTORE PUSH1 0x20 PUSH0 KECCAK256 SWAP1 JUMPDEST DUP2 SLOAD DUP2 MSTORE SWAP1 PUSH1 0x1 ADD SWAP1 PUSH1 0x20 ADD DUP1 DUP4 GT PUSH2 0x771 JUMPI DUP3 SWAP1 SUB PUSH1 0x1F AND DUP3 ADD SWAP2 JUMPDEST POP POP POP POP POP SWAP1 DUP1 PUSH1 0x2 ADD SLOAD SWAP1 DUP1 PUSH1 0x3 ADD SLOAD SWAP1 DUP1 PUSH1 0x4 ADD PUSH0 SWAP1 SLOAD SWAP1 PUSH2 0x100 EXP SWAP1 DIV PUSH1 0xFF AND SWAP1 DUP1 PUSH1 0x4 ADD PUSH1 0x1 SWAP1 SLOAD SWAP1 PUSH2 0x100 EXP SWAP1 DIV PUSH20 0xFFFFFFFFFFFFFFFFFFFFFFFFFFFFFFFFFFFFFFFF AND SWAP1 DUP1 PUSH1 0x5 ADD SLOAD SWAP1 DUP1 PUSH1 0x6 ADD SLOAD SWAP1 POP DUP9 JUMP JUMPDEST PUSH1 0x64 DUP2 JUMP JUMPDEST PUSH1 0x2 PUSH1 0x20 MSTORE DUP1 PUSH0 MSTORE PUSH1 0x40 PUSH0 KECCAK256 PUSH0 SWAP2 POP SWAP1 POP SLOAD DUP2 JUMP JUMPDEST PUSH1 0x4 PUSH1 0x20 MSTORE DUP2 PUSH0 MSTORE PUSH1 0x40 PUSH0 KECCAK256 DUP2 DUP2 SLOAD DUP2 LT PUSH2 0x81B JUMPI PUSH0 DUP1 REVERT JUMPDEST SWAP1 PUSH0 MSTORE PUSH1 0x20 PUSH0 KECCAK256 SWAP1 PUSH1 0x3 MUL ADD PUSH0 SWAP2 POP SWAP2 POP POP DUP1 PUSH0 ADD PUSH0 SWAP1 SLOAD SWAP1 PUSH2 0x100 EXP SWAP1 DIV PUSH20 0xFFFFFFFFFFFFFFFFFFFFFFFFFFFFFFFFFFFFFFFF AND SWAP1 DUP1 PUSH1 0x1 ADD DUP1 SLOAD PUSH2 0x860 SWAP1 PUSH2 0x2356 JUMP JUMPDEST DUP1 PUSH1 0x1F ADD PUSH1 0x20 DUP1 SWAP2 DIV MUL PUSH1 0x20 ADD PUSH1 0x40 MLOAD SWAP1 DUP2 ADD PUSH1 0x40 MSTORE DUP1 SWAP3 SWAP2 SWAP1 DUP2 DUP2 MSTORE PUSH1 0x20 ADD DUP3 DUP1 SLOAD PUSH2 0x88C SWAP1 PUSH2 0x2356 JUMP JUMPDEST DUP1 ISZERO PUSH2 0x8D7 JUMPI DUP1 PUSH1 0x1F LT PUSH2 0x8AE JUMPI PUSH2 0x100 DUP1 DUP4 SLOAD DIV MUL DUP4 MSTORE SWAP2 PUSH1 0x20 ADD SWAP2 PUSH2 0x8D7 JUMP JUMPDEST DUP3 ADD SWAP2 SWAP1 PUSH0 MSTORE PUSH1 0x20 PUSH0 KECCAK256 SWAP1 JUMPDEST DUP2 SLOAD DUP2 MSTORE SWAP1 PUSH1 0x1 ADD SWAP1 PUSH1 0x20 ADD DUP1 DUP4 GT PUSH2 0x8BA JUMPI DUP3 SWAP1 SUB PUSH1 0x1F AND DUP3 ADD SWAP2 JUMPDEST POP POP POP POP POP SWAP1 DUP1 PUSH1 0x2 ADD SLOAD SWAP1 POP DUP4 JUMP JUMPDEST PUSH1 0x6 SLOAD DUP2 JUMP JUMPDEST PUSH1 0x7 PUSH0 SWAP1 SLOAD SWAP1 PUSH2 0x100 EXP SWAP1 DIV PUSH20 0xFFFFFFFFFFFFFFFFFFFFFFFFFFFFFFFFFFFFFFFF AND DUP2 JUMP JUMPDEST PUSH0 DUP1 CALLER PUSH20 0xFFFFFFFFFFFFFFFFFFFFFFFFFFFFFFFFFFFFFFFF AND PUSH20 0xFFFFFFFFFFFFFFFFFFFFFFFFFFFFFFFFFFFFFFFF AND DUP2 MSTORE PUSH1 0x20 ADD SWAP1 DUP2 MSTORE PUSH1 0x20 ADD PUSH0 KECCAK256 PUSH1 0x2 ADD PUSH0 SWAP1 SLOAD SWAP1 PUSH2 0x100 EXP SWAP1 DIV PUSH1 0xFF AND ISZERO DUP1 ISZERO PUSH2 0x9B5 JUMPI POP PUSH0 DUP1 CALLER PUSH20 0xFFFFFFFFFFFFFFFFFFFFFFFFFFFFFFFFFFFFFFFF AND PUSH20 0xFFFFFFFFFFFFFFFFFFFFFFFFFFFFFFFFFFFFFFFF AND DUP2 MSTORE PUSH1 0x20 ADD SWAP1 DUP2 MSTORE PUSH1 0x20 ADD PUSH0 KECCAK256 PUSH1 0x2 ADD PUSH1 0x1 SWAP1 SLOAD SWAP1 PUSH2 0x100 EXP SWAP1 DIV PUSH1 0xFF AND ISZERO JUMPDEST PUSH2 0x9F4 JUMPI PUSH1 0x40 MLOAD PUSH32 0x8C379A000000000000000000000000000000000000000000000000000000000 DUP2 MSTORE PUSH1 0x4 ADD PUSH2 0x9EB SWAP1 PUSH2 0x23D0 JUMP JUMPDEST PUSH1 0x40 MLOAD DUP1 SWAP2 SUB SWAP1 REVERT JUMPDEST PUSH1 0x40 MLOAD DUP1 PUSH1 0x80 ADD PUSH1 0x40 MSTORE DUP1 DUP6 DUP2 MSTORE PUSH1 0x20 ADD DUP5 DUP2 MSTORE PUSH1 0x20 ADD DUP4 ISZERO ISZERO DUP2 MSTORE PUSH1 0x20 ADD DUP3 ISZERO ISZERO DUP2 MSTORE POP PUSH0 DUP1 CALLER PUSH20 0xFFFFFFFFFFFFFFFFFFFFFFFFFFFFFFFFFFFFFFFF AND PUSH20 0xFFFFFFFFFFFFFFFFFFFFFFFFFFFFFFFFFFFFFFFF AND DUP2 MSTORE PUSH1 0x20 ADD SWAP1 DUP2 MSTORE PUSH1 0x20 ADD PUSH0 KECCAK256 PUSH0 DUP3 ADD MLOAD DUP2 PUSH0 ADD SWAP1 DUP2 PUSH2 0xA68 SWAP2 SWAP1 PUSH2 0x258B JUMP JUMPDEST POP PUSH1 0x20 DUP3 ADD MLOAD DUP2 PUSH1 0x1 ADD SWAP1 DUP2 PUSH2 0xA7E SWAP2 SWAP1 PUSH2 0x258B JUMP JUMPDEST POP PUSH1 0x40 DUP3 ADD MLOAD DUP2 PUSH1 0x2 ADD PUSH0 PUSH2 0x100 EXP DUP2 SLOAD DUP2 PUSH1 0xFF MUL NOT AND SWAP1 DUP4 ISZERO ISZERO MUL OR SWAP1 SSTORE POP PUSH1 0x60 DUP3 ADD MLOAD DUP2 PUSH1 0x2 ADD PUSH1 0x1 PUSH2 0x100 EXP DUP2 SLOAD DUP2 PUSH1 0xFF MUL NOT AND SWAP1 DUP4 ISZERO ISZERO MUL OR SWAP1 SSTORE POP SWAP1 POP POP CALLER PUSH20 0xFFFFFFFFFFFFFFFFFFFFFFFFFFFFFFFFFFFFFFFF AND PUSH32 0xB56F6343B750B88DA4B33D9B5A10AB1313D0C619682BC36FDFBB8BDFB4789FCF DUP6 DUP6 DUP6 DUP6 PUSH1 0x40 MLOAD PUSH2 0xB0D SWAP5 SWAP4 SWAP3 SWAP2 SWAP1 PUSH2 0x1F08 JUMP JUMPDEST PUSH1 0x40 MLOAD DUP1 SWAP2 SUB SWAP1 LOG2 POP POP POP POP JUMP JUMPDEST PUSH0 DUP1 CALLER PUSH20 0xFFFFFFFFFFFFFFFFFFFFFFFFFFFFFFFFFFFFFFFF AND PUSH20 0xFFFFFFFFFFFFFFFFFFFFFFFFFFFFFFFFFFFFFFFF AND DUP2 MSTORE PUSH1 0x20 ADD SWAP1 DUP2 MSTORE PUSH1 0x20 ADD PUSH0 KECCAK256 PUSH1 0x2 ADD PUSH1 0x1 SWAP1 SLOAD SWAP1 PUSH2 0x100 EXP SWAP1 DIV PUSH1 0xFF AND PUSH2 0xBA7 JUMPI PUSH1 0x40 MLOAD PUSH32 0x8C379A000000000000000000000000000000000000000000000000000000000 DUP2 MSTORE PUSH1 0x4 ADD PUSH2 0xB9E SWAP1 PUSH2 0x26CA JUMP JUMPDEST PUSH1 0x40 MLOAD DUP1 SWAP2 SUB SWAP1 REVERT JUMPDEST PUSH1 0x4 PUSH0 DUP4 DUP2 MSTORE PUSH1 0x20 ADD SWAP1 DUP2 MSTORE PUSH1 0x20 ADD PUSH0 KECCAK256 PUSH1 0x40 MLOAD DUP1 PUSH1 0x60 ADD PUSH1 0x40 MSTORE DUP1 CALLER PUSH20 0xFFFFFFFFFFFFFFFFFFFFFFFFFFFFFFFFFFFFFFFF AND DUP2 MSTORE PUSH1 0x20 ADD DUP4 DUP2 MSTORE PUSH1 0x20 ADD TIMESTAMP DUP2 MSTORE POP SWAP1 DUP1 PUSH1 0x1 DUP2 SLOAD ADD DUP1 DUP3 SSTORE DUP1 SWAP2 POP POP PUSH1 0x1 SWAP1 SUB SWAP1 PUSH0 MSTORE PUSH1 0x20 PUSH0 KECCAK256 SWAP1 PUSH1 0x3 MUL ADD PUSH0 SWAP1 SWAP2 SWAP1 SWAP2 SWAP1 SWAP2 POP PUSH0 DUP3 ADD MLOAD DUP2 PUSH0 ADD PUSH0 PUSH2 0x100 EXP DUP2 SLOAD DUP2 PUSH20 0xFFFFFFFFFFFFFFFFFFFFFFFFFFFFFFFFFFFFFFFF MUL NOT AND SWAP1 DUP4 PUSH20 0xFFFFFFFFFFFFFFFFFFFFFFFFFFFFFFFFFFFFFFFF AND MUL OR SWAP1 SSTORE POP PUSH1 0x20 DUP3 ADD MLOAD DUP2 PUSH1 0x1 ADD SWAP1 DUP2 PUSH2 0xC68 SWAP2 SWAP1 PUSH2 0x258B JUMP JUMPDEST POP PUSH1 0x40 DUP3 ADD MLOAD DUP2 PUSH1 0x2 ADD SSTORE POP POP POP POP JUMP JUMPDEST PUSH0 DUP1 CALLER PUSH20 0xFFFFFFFFFFFFFFFFFFFFFFFFFFFFFFFFFFFFFFFF AND PUSH20 0xFFFFFFFFFFFFFFFFFFFFFFFFFFFFFFFFFFFFFFFF AND DUP2 MSTORE PUSH1 0x20 ADD SWAP1 DUP2 MSTORE PUSH1 0x20 ADD PUSH0 KECCAK256 PUSH1 0x2 ADD PUSH0 SWAP1 SLOAD SWAP1 PUSH2 0x100 EXP SWAP1 DIV PUSH1 0xFF AND PUSH2 0xD04 JUMPI PUSH1 0x40 MLOAD PUSH32 0x8C379A000000000000000000000000000000000000000000000000000000000 DUP2 MSTORE PUSH1 0x4 ADD PUSH2 0xCFB SWAP1 PUSH2 0x2758 JUMP JUMPDEST PUSH1 0x40 MLOAD DUP1 SWAP2 SUB SWAP1 REVERT JUMPDEST PUSH0 PUSH1 0x1 PUSH0 DUP6 DUP2 MSTORE PUSH1 0x20 ADD SWAP1 DUP2 MSTORE PUSH1 0x20 ADD PUSH0 KECCAK256 SWAP1 POP CALLER PUSH20 0xFFFFFFFFFFFFFFFFFFFFFFFFFFFFFFFFFFFFFFFF AND DUP2 PUSH1 0x4 ADD PUSH1 0x1 SWAP1 SLOAD SWAP1 PUSH2 0x100 EXP SWAP1 DIV PUSH20 0xFFFFFFFFFFFFFFFFFFFFFFFFFFFFFFFFFFFFFFFF AND PUSH20 0xFFFFFFFFFFFFFFFFFFFFFFFFFFFFFFFFFFFFFFFF AND EQ PUSH2 0xDAA JUMPI PUSH1 0x40 MLOAD PUSH32 0x8C379A000000000000000000000000000000000000000000000000000000000 DUP2 MSTORE PUSH1 0x4 ADD PUSH2 0xDA1 SWAP1 PUSH2 0x27E6 JUMP JUMPDEST PUSH1 0x40 MLOAD DUP1 SWAP2 SUB SWAP1 REVERT JUMPDEST PUSH1 0x40 MLOAD DUP1 PUSH1 0x40 ADD PUSH1 0x40 MSTORE DUP1 DUP5 DUP2 MSTORE PUSH1 0x20 ADD DUP4 DUP2 MSTORE POP PUSH1 0x3 PUSH0 DUP7 DUP2 MSTORE PUSH1 0x20 ADD SWAP1 DUP2 MSTORE PUSH1 0x20 ADD PUSH0 KECCAK256 PUSH0 DUP3 ADD MLOAD DUP2 PUSH0 ADD SSTORE PUSH1 0x20 DUP3 ADD MLOAD DUP2 PUSH1 0x1 ADD SWAP1 DUP1 MLOAD SWAP1 PUSH1 0x20 ADD SWAP1 PUSH2 0xDF4 SWAP3 SWAP2 SWAP1 PUSH2 0x178B JUMP JUMPDEST POP SWAP1 POP POP POP POP POP POP JUMP JUMPDEST PUSH0 DUP1 CALLER PUSH20 0xFFFFFFFFFFFFFFFFFFFFFFFFFFFFFFFFFFFFFFFF AND PUSH20 0xFFFFFFFFFFFFFFFFFFFFFFFFFFFFFFFFFFFFFFFF AND DUP2 MSTORE PUSH1 0x20 ADD SWAP1 DUP2 MSTORE PUSH1 0x20 ADD PUSH0 KECCAK256 PUSH1 0x2 ADD PUSH1 0x1 SWAP1 SLOAD SWAP1 PUSH2 0x100 EXP SWAP1 DIV PUSH1 0xFF AND PUSH2 0xE8A JUMPI PUSH1 0x40 MLOAD PUSH32 0x8C379A000000000000000000000000000000000000000000000000000000000 DUP2 MSTORE PUSH1 0x4 ADD PUSH2 0xE81 SWAP1 PUSH2 0x2874 JUMP JUMPDEST PUSH1 0x40 MLOAD DUP1 SWAP2 SUB SWAP1 REVERT JUMPDEST PUSH0 PUSH1 0x1 PUSH0 DUP4 DUP2 MSTORE PUSH1 0x20 ADD SWAP1 DUP2 MSTORE PUSH1 0x20 ADD PUSH0 KECCAK256 SWAP1 POP PUSH0 PUSH20 0xFFFFFFFFFFFFFFFFFFFFFFFFFFFFFFFFFFFFFFFF AND DUP2 PUSH1 0x4 ADD PUSH1 0x1 SWAP1 SLOAD SWAP1 PUSH2 0x100 EXP SWAP1 DIV PUSH20 0xFFFFFFFFFFFFFFFFFFFFFFFFFFFFFFFFFFFFFFFF AND PUSH20 0xFFFFFFFFFFFFFFFFFFFFFFFFFFFFFFFFFFFFFFFF AND SUB PUSH2 0xF30 JUMPI PUSH1 0x40 MLOAD PUSH32 0x8C379A000000000000000000000000000000000000000000000000000000000 DUP2 MSTORE PUSH1 0x4 ADD PUSH2 0xF27 SWAP1 PUSH2 0x28DC JUMP JUMPDEST PUSH1 0x40 MLOAD DUP1 SWAP2 SUB SWAP1 REVERT JUMPDEST DUP1 PUSH1 0x3 ADD SLOAD CALLVALUE LT ISZERO PUSH2 0xF77 JUMPI PUSH1 0x40 MLOAD PUSH32 0x8C379A000000000000000000000000000000000000000000000000000000000 DUP2 MSTORE PUSH1 0x4 ADD PUSH2 0xF6E SWAP1 PUSH2 0x2944 JUMP JUMPDEST PUSH1 0x40 MLOAD DUP1 SWAP2 SUB SWAP1 REVERT JUMPDEST PUSH0 PUSH1 0x64 DUP1 DUP4 PUSH1 0x3 ADD SLOAD PUSH2 0xF8A SWAP2 SWAP1 PUSH2 0x2962 JUMP JUMPDEST PUSH2 0xF94 SWAP2 SWAP1 PUSH2 0x29D0 JUMP JUMPDEST SWAP1 POP PUSH0 DUP2 DUP4 PUSH1 0x3 ADD SLOAD PUSH2 0xFA7 SWAP2 SWAP1 PUSH2 0x2A00 JUMP JUMPDEST SWAP1 POP PUSH1 0x7 PUSH0 SWAP1 SLOAD SWAP1 PUSH2 0x100 EXP SWAP1 DIV PUSH20 0xFFFFFFFFFFFFFFFFFFFFFFFFFFFFFFFFFFFFFFFF AND PUSH20 0xFFFFFFFFFFFFFFFFFFFFFFFFFFFFFFFFFFFFFFFF AND PUSH2 0x8FC DUP4 SWAP1 DUP2 ISZERO MUL SWAP1 PUSH1 0x40 MLOAD PUSH0 PUSH1 0x40 MLOAD DUP1 DUP4 SUB DUP2 DUP6 DUP9 DUP9 CALL SWAP4 POP POP POP POP ISZERO DUP1 ISZERO PUSH2 0x100D JUMPI RETURNDATASIZE PUSH0 DUP1 RETURNDATACOPY RETURNDATASIZE PUSH0 REVERT JUMPDEST POP DUP3 PUSH1 0x4 ADD PUSH1 0x1 SWAP1 SLOAD SWAP1 PUSH2 0x100 EXP SWAP1 DIV PUSH20 0xFFFFFFFFFFFFFFFFFFFFFFFFFFFFFFFFFFFFFFFF AND PUSH20 0xFFFFFFFFFFFFFFFFFFFFFFFFFFFFFFFFFFFFFFFF AND PUSH2 0x8FC DUP3 SWAP1 DUP2 ISZERO MUL SWAP1 PUSH1 0x40 MLOAD PUSH0 PUSH1 0x40 MLOAD DUP1 DUP4 SUB DUP2 DUP6 DUP9 DUP9 CALL SWAP4 POP POP POP POP ISZERO DUP1 ISZERO PUSH2 0x1075 JUMPI RETURNDATASIZE PUSH0 DUP1 RETURNDATACOPY RETURNDATASIZE PUSH0 REVERT JUMPDEST POP PUSH1 0x3 PUSH0 DUP6 DUP2 MSTORE PUSH1 0x20 ADD SWAP1 DUP2 MSTORE PUSH1 0x20 ADD PUSH0 KECCAK256 PUSH1 0x1 ADD CALLER SWAP1 DUP1 PUSH1 0x1 DUP2 SLOAD ADD DUP1 DUP3 SSTORE DUP1 SWAP2 POP POP PUSH1 0x1 SWAP1 SUB SWAP1 PUSH0 MSTORE PUSH1 0x20 PUSH0 KECCAK256 ADD PUSH0 SWAP1 SWAP2 SWAP1 SWAP2 SWAP1 SWAP2 PUSH2 0x100 EXP DUP2 SLOAD DUP2 PUSH20 0xFFFFFFFFFFFFFFFFFFFFFFFFFFFFFFFFFFFFFFFF MUL NOT AND SWAP1 DUP4 PUSH20 0xFFFFFFFFFFFFFFFFFFFFFFFFFFFFFFFFFFFFFFFF AND MUL OR SWAP1 SSTORE POP TIMESTAMP PUSH1 0x1 PUSH0 DUP7 DUP2 MSTORE PUSH1 0x20 ADD SWAP1 DUP2 MSTORE PUSH1 0x20 ADD PUSH0 KECCAK256 PUSH1 0x6 ADD DUP2 SWAP1 SSTORE POP CALLER PUSH20 0xFFFFFFFFFFFFFFFFFFFFFFFFFFFFFFFFFFFFFFFF AND DUP5 PUSH32 0xFB08275D0D7CF05C65CE58A6D8D7F027F5BD3E93DF2FD4962B96E26EC1939EA0 DUP6 PUSH1 0x3 ADD SLOAD DUP7 PUSH1 0x2 ADD SLOAD PUSH1 0x40 MLOAD PUSH2 0x1152 SWAP3 SWAP2 SWAP1 PUSH2 0x2A33 JUMP JUMPDEST PUSH1 0x40 MLOAD DUP1 SWAP2 SUB SWAP1 LOG3 POP POP POP POP JUMP JUMPDEST PUSH0 PUSH1 0x20 MSTORE DUP1 PUSH0 MSTORE PUSH1 0x40 PUSH0 KECCAK256 PUSH0 SWAP2 POP SWAP1 POP DUP1 PUSH0 ADD DUP1 SLOAD PUSH2 0x117E SWAP1 PUSH2 0x2356 JUMP JUMPDEST DUP1 PUSH1 0x1F ADD PUSH1 0x20 DUP1 SWAP2 DIV MUL PUSH1 0x20 ADD PUSH1 0x40 MLOAD SWAP1 DUP2 ADD PUSH1 0x40 MSTORE DUP1 SWAP3 SWAP2 SWAP1 DUP2 DUP2 MSTORE PUSH1 0x20 ADD DUP3 DUP1 SLOAD PUSH2 0x11AA SWAP1 PUSH2 0x2356 JUMP JUMPDEST DUP1 ISZERO PUSH2 0x11F5 JUMPI DUP1 PUSH1 0x1F LT PUSH2 0x11CC JUMPI PUSH2 0x100 DUP1 DUP4 SLOAD DIV MUL DUP4 MSTORE SWAP2 PUSH1 0x20 ADD SWAP2 PUSH2 0x11F5 JUMP JUMPDEST DUP3 ADD SWAP2 SWAP1 PUSH0 MSTORE PUSH1 0x20 PUSH0 KECCAK256 SWAP1 JUMPDEST DUP2 SLOAD DUP2 MSTORE SWAP1 PUSH1 0x1 ADD SWAP1 PUSH1 0x20 ADD DUP1 DUP4 GT PUSH2 0x11D8 JUMPI DUP3 SWAP1 SUB PUSH1 0x1F AND DUP3 ADD SWAP2 JUMPDEST POP POP POP POP POP SWAP1 DUP1 PUSH1 0x1 ADD DUP1 SLOAD PUSH2 0x120A SWAP1 PUSH2 0x2356 JUMP JUMPDEST DUP1 PUSH1 0x1F ADD PUSH1 0x20 DUP1 SWAP2 DIV MUL PUSH1 0x20 ADD PUSH1 0x40 MLOAD SWAP1 DUP2 ADD PUSH1 0x40 MSTORE DUP1 SWAP3 SWAP2 SWAP1 DUP2 DUP2 MSTORE PUSH1 0x20 ADD DUP3 DUP1 SLOAD PUSH2 0x1236 SWAP1 PUSH2 0x2356 JUMP JUMPDEST DUP1 ISZERO PUSH2 0x1281 JUMPI DUP1 PUSH1 0x1F LT PUSH2 0x1258 JUMPI PUSH2 0x100 DUP1 DUP4 SLOAD DIV MUL DUP4 MSTORE SWAP2 PUSH1 0x20 ADD SWAP2 PUSH2 0x1281 JUMP JUMPDEST DUP3 ADD SWAP2 SWAP1 PUSH0 MSTORE PUSH1 0x20 PUSH0 KECCAK256 SWAP1 JUMPDEST DUP2 SLOAD DUP2 MSTORE SWAP1 PUSH1 0x1 ADD SWAP1 PUSH1 0x20 ADD DUP1 DUP4 GT PUSH2 0x1264 JUMPI DUP3 SWAP1 SUB PUSH1 0x1F AND DUP3 ADD SWAP2 JUMPDEST POP POP POP POP POP SWAP1 DUP1 PUSH1 0x2 ADD PUSH0 SWAP1 SLOAD SWAP1 PUSH2 0x100 EXP SWAP1 DIV PUSH1 0xFF AND SWAP1 DUP1 PUSH1 0x2 ADD PUSH1 0x1 SWAP1 SLOAD SWAP1 PUSH2 0x100 EXP SWAP1 DIV PUSH1 0xFF AND SWAP1 POP DUP5 JUMP JUMPDEST PUSH1 0x60 DUP1 PUSH0 DUP1 PUSH0 DUP1 PUSH0 DUP1 PUSH0 PUSH1 0x1 PUSH0 DUP12 DUP2 MSTORE PUSH1 0x20 ADD SWAP1 DUP2 MSTORE PUSH1 0x20 ADD PUSH0 KECCAK256 SWAP1 POP DUP1 PUSH0 ADD DUP2 PUSH1 0x1 ADD DUP3 PUSH1 0x2 ADD SLOAD DUP4 PUSH1 0x3 ADD SLOAD DUP5 PUSH1 0x4 ADD PUSH0 SWAP1 SLOAD SWAP1 PUSH2 0x100 EXP SWAP1 DIV PUSH1 0xFF AND DUP6 PUSH1 0x4 ADD PUSH1 0x1 SWAP1 SLOAD SWAP1 PUSH2 0x100 EXP SWAP1 DIV PUSH20 0xFFFFFFFFFFFFFFFFFFFFFFFFFFFFFFFFFFFFFFFF AND DUP7 PUSH1 0x5 ADD SLOAD DUP8 PUSH1 0x6 ADD SLOAD DUP8 DUP1 SLOAD PUSH2 0x132A SWAP1 PUSH2 0x2356 JUMP JUMPDEST DUP1 PUSH1 0x1F ADD PUSH1 0x20 DUP1 SWAP2 DIV MUL PUSH1 0x20 ADD PUSH1 0x40 MLOAD SWAP1 DUP2 ADD PUSH1 0x40 MSTORE DUP1 SWAP3 SWAP2 SWAP1 DUP2 DUP2 MSTORE PUSH1 0x20 ADD DUP3 DUP1 SLOAD PUSH2 0x1356 SWAP1 PUSH2 0x2356 JUMP JUMPDEST DUP1 ISZERO PUSH2 0x13A1 JUMPI DUP1 PUSH1 0x1F LT PUSH2 0x1378 JUMPI PUSH2 0x100 DUP1 DUP4 SLOAD DIV MUL DUP4 MSTORE SWAP2 PUSH1 0x20 ADD SWAP2 PUSH2 0x13A1 JUMP JUMPDEST DUP3 ADD SWAP2 SWAP1 PUSH0 MSTORE PUSH1 0x20 PUSH0 KECCAK256 SWAP1 JUMPDEST DUP2 SLOAD DUP2 MSTORE SWAP1 PUSH1 0x1 ADD SWAP1 PUSH1 0x20 ADD DUP1 DUP4 GT PUSH2 0x1384 JUMPI DUP3 SWAP1 SUB PUSH1 0x1F AND DUP3 ADD SWAP2 JUMPDEST POP POP POP POP POP SWAP8 POP DUP7 DUP1 SLOAD PUSH2 0x13B4 SWAP1 PUSH2 0x2356 JUMP JUMPDEST DUP1 PUSH1 0x1F ADD PUSH1 0x20 DUP1 SWAP2 DIV MUL PUSH1 0x20 ADD PUSH1 0x40 MLOAD SWAP1 DUP2 ADD PUSH1 0x40 MSTORE DUP1 SWAP3 SWAP2 SWAP1 DUP2 DUP2 MSTORE PUSH1 0x20 ADD DUP3 DUP1 SLOAD PUSH2 0x13E0 SWAP1 PUSH2 0x2356 JUMP JUMPDEST DUP1 ISZERO PUSH2 0x142B JUMPI DUP1 PUSH1 0x1F LT PUSH2 0x1402 JUMPI PUSH2 0x100 DUP1 DUP4 SLOAD DIV MUL DUP4 MSTORE SWAP2 PUSH1 0x20 ADD SWAP2 PUSH2 0x142B JUMP JUMPDEST DUP3 ADD SWAP2 SWAP1 PUSH0 MSTORE PUSH1 0x20 PUSH0 KECCAK256 SWAP1 JUMPDEST DUP2 SLOAD DUP2 MSTORE SWAP1 PUSH1 0x1 ADD SWAP1 PUSH1 0x20 ADD DUP1 DUP4 GT PUSH2 0x140E JUMPI DUP3 SWAP1 SUB PUSH1 0x1F AND DUP3 ADD SWAP2 JUMPDEST POP POP POP POP POP SWAP7 POP SWAP9 POP SWAP9 POP SWAP9 POP SWAP9 POP SWAP9 POP SWAP9 POP SWAP9 POP SWAP9 POP POP SWAP2 SWAP4 SWAP6 SWAP8 POP SWAP2 SWAP4 SWAP6 SWAP8 JUMP JUMPDEST PUSH0 DUP1 PUSH1 0x5 PUSH0 DUP5 PUSH20 0xFFFFFFFFFFFFFFFFFFFFFFFFFFFFFFFFFFFFFFFF AND PUSH20 0xFFFFFFFFFFFFFFFFFFFFFFFFFFFFFFFFFFFFFFFF AND DUP2 MSTORE PUSH1 0x20 ADD SWAP1 DUP2 MSTORE PUSH1 0x20 ADD PUSH0 KECCAK256 SWAP1 POP PUSH0 DUP2 PUSH0 ADD SLOAD SUB PUSH2 0x14A2 JUMPI PUSH0 SWAP2 POP POP PUSH2 0x14B9 JUMP JUMPDEST DUP1 PUSH0 ADD SLOAD DUP2 PUSH1 0x1 ADD SLOAD PUSH2 0x14B5 SWAP2 SWAP1 PUSH2 0x29D0 JUMP JUMPDEST SWAP2 POP POP JUMPDEST SWAP2 SWAP1 POP JUMP JUMPDEST PUSH1 0x3 PUSH1 0x20 MSTORE DUP1 PUSH0 MSTORE PUSH1 0x40 PUSH0 KECCAK256 PUSH0 SWAP2 POP SWAP1 POP DUP1 PUSH0 ADD SLOAD SWAP1 POP DUP2 JUMP JUMPDEST PUSH1 0x5 PUSH1 0x20 MSTORE DUP1 PUSH0 MSTORE PUSH1 0x40 PUSH0 KECCAK256 PUSH0 SWAP2 POP SWAP1 POP DUP1 PUSH0 ADD SLOAD SWAP1 DUP1 PUSH1 0x1 ADD SLOAD SWAP1 POP DUP3 JUMP JUMPDEST PUSH0 DUP1 CALLER PUSH20 0xFFFFFFFFFFFFFFFFFFFFFFFFFFFFFFFFFFFFFFFF AND PUSH20 0xFFFFFFFFFFFFFFFFFFFFFFFFFFFFFFFFFFFFFFFF AND DUP2 MSTORE PUSH1 0x20 ADD SWAP1 DUP2 MSTORE PUSH1 0x20 ADD PUSH0 KECCAK256 PUSH1 0x2 ADD PUSH0 SWAP1 SLOAD SWAP1 PUSH2 0x100 EXP SWAP1 DIV PUSH1 0xFF AND PUSH2 0x1583 JUMPI PUSH1 0x40 MLOAD PUSH32 0x8C379A000000000000000000000000000000000000000000000000000000000 DUP2 MSTORE PUSH1 0x4 ADD PUSH2 0x157A SWAP1 PUSH2 0x2ACA JUMP JUMPDEST PUSH1 0x40 MLOAD DUP1 SWAP2 SUB SWAP1 REVERT JUMPDEST PUSH0 DUP4 DUP1 MLOAD SWAP1 PUSH1 0x20 ADD KECCAK256 SWAP1 POP PUSH0 PUSH1 0x2 PUSH0 DUP4 DUP2 MSTORE PUSH1 0x20 ADD SWAP1 DUP2 MSTORE PUSH1 0x20 ADD PUSH0 KECCAK256 SLOAD EQ PUSH2 0x15E1 JUMPI PUSH1 0x40 MLOAD PUSH32 0x8C379A000000000000000000000000000000000000000000000000000000000 DUP2 MSTORE PUSH1 0x4 ADD PUSH2 0x15D8 SWAP1 PUSH2 0x2B58 JUMP JUMPDEST PUSH1 0x40 MLOAD DUP1 SWAP2 SUB SWAP1 REVERT JUMPDEST PUSH1 0x40 MLOAD DUP1 PUSH2 0x100 ADD PUSH1 0x40 MSTORE DUP1 DUP8 DUP2 MSTORE PUSH1 0x20 ADD DUP7 DUP2 MSTORE PUSH1 0x20 ADD DUP3 DUP2 MSTORE PUSH1 0x20 ADD DUP5 DUP2 MSTORE PUSH1 0x20 ADD DUP4 ISZERO ISZERO DUP2 MSTORE PUSH1 0x20 ADD CALLER PUSH20 0xFFFFFFFFFFFFFFFFFFFFFFFFFFFFFFFFFFFFFFFF AND DUP2 MSTORE PUSH1 0x20 ADD TIMESTAMP DUP2 MSTORE PUSH1 0x20 ADD PUSH0 DUP2 MSTORE POP PUSH1 0x1 PUSH0 PUSH1 0x6 SLOAD DUP2 MSTORE PUSH1 0x20 ADD SWAP1 DUP2 MSTORE PUSH1 0x20 ADD PUSH0 KECCAK256 PUSH0 DUP3 ADD MLOAD DUP2 PUSH0 ADD SWAP1 DUP2 PUSH2 0x1659 SWAP2 SWAP1 PUSH2 0x258B JUMP JUMPDEST POP PUSH1 0x20 DUP3 ADD MLOAD DUP2 PUSH1 0x1 ADD SWAP1 DUP2 PUSH2 0x166F SWAP2 SWAP1 PUSH2 0x258B JUMP JUMPDEST POP PUSH1 0x40 DUP3 ADD MLOAD DUP2 PUSH1 0x2 ADD SSTORE PUSH1 0x60 DUP3 ADD MLOAD DUP2 PUSH1 0x3 ADD SSTORE PUSH1 0x80 DUP3 ADD MLOAD DUP2 PUSH1 0x4 ADD PUSH0 PUSH2 0x100 EXP DUP2 SLOAD DUP2 PUSH1 0xFF MUL NOT AND SWAP1 DUP4 ISZERO ISZERO MUL OR SWAP1 SSTORE POP PUSH1 0xA0 DUP3 ADD MLOAD DUP2 PUSH1 0x4 ADD PUSH1 0x1 PUSH2 0x100 EXP DUP2 SLOAD DUP2 PUSH20 0xFFFFFFFFFFFFFFFFFFFFFFFFFFFFFFFFFFFFFFFF MUL NOT AND SWAP1 DUP4 PUSH20 0xFFFFFFFFFFFFFFFFFFFFFFFFFFFFFFFFFFFFFFFF AND MUL OR SWAP1 SSTORE POP PUSH1 0xC0 DUP3 ADD MLOAD DUP2 PUSH1 0x5 ADD SSTORE PUSH1 0xE0 DUP3 ADD MLOAD DUP2 PUSH1 0x6 ADD SSTORE SWAP1 POP POP PUSH1 0x6 SLOAD PUSH1 0x2 PUSH0 DUP4 DUP2 MSTORE PUSH1 0x20 ADD SWAP1 DUP2 MSTORE PUSH1 0x20 ADD PUSH0 KECCAK256 DUP2 SWAP1 SSTORE POP CALLER PUSH20 0xFFFFFFFFFFFFFFFFFFFFFFFFFFFFFFFFFFFFFFFF AND PUSH1 0x6 SLOAD PUSH32 0xA8E21F9641EE0A4B37ADD0642221F97ED1ACCF45D08AD495FAC8FE05D90B9286 DUP9 DUP7 PUSH1 0x40 MLOAD PUSH2 0x1764 SWAP3 SWAP2 SWAP1 PUSH2 0x2B76 JUMP JUMPDEST PUSH1 0x40 MLOAD DUP1 SWAP2 SUB SWAP1 LOG3 PUSH1 0x6 PUSH0 DUP2 SLOAD DUP1 SWAP3 SWAP2 SWAP1 PUSH2 0x177E SWAP1 PUSH2 0x22AF JUMP JUMPDEST SWAP2 SWAP1 POP SSTORE POP POP POP POP POP POP POP JUMP JUMPDEST DUP3 DUP1 SLOAD DUP3 DUP3 SSTORE SWAP1 PUSH0 MSTORE PUSH1 0x20 PUSH0 KECCAK256 SWAP1 DUP2 ADD SWAP3 DUP3 ISZERO PUSH2 0x1801 JUMPI SWAP2 PUSH1 0x20 MUL DUP3 ADD JUMPDEST DUP3 DUP2 GT ISZERO PUSH2 0x1800 JUMPI DUP3 MLOAD DUP3 PUSH0 PUSH2 0x100 EXP DUP2 SLOAD DUP2 PUSH20 0xFFFFFFFFFFFFFFFFFFFFFFFFFFFFFFFFFFFFFFFF MUL NOT AND SWAP1 DUP4 PUSH20 0xFFFFFFFFFFFFFFFFFFFFFFFFFFFFFFFFFFFFFFFF AND MUL OR SWAP1 SSTORE POP SWAP2 PUSH1 0x20 ADD SWAP2 SWAP1 PUSH1 0x1 ADD SWAP1 PUSH2 0x17A9 JUMP JUMPDEST JUMPDEST POP SWAP1 POP PUSH2 0x180E SWAP2 SWAP1 PUSH2 0x1812 JUMP JUMPDEST POP SWAP1 JUMP JUMPDEST JUMPDEST DUP1 DUP3 GT ISZERO PUSH2 0x1829 JUMPI PUSH0 DUP2 PUSH0 SWAP1 SSTORE POP PUSH1 0x1 ADD PUSH2 0x1813 JUMP JUMPDEST POP SWAP1 JUMP JUMPDEST PUSH0 DUP2 SWAP1 POP SWAP2 SWAP1 POP JUMP JUMPDEST PUSH2 0x183F DUP2 PUSH2 0x182D JUMP JUMPDEST DUP3 MSTORE POP POP JUMP JUMPDEST PUSH0 PUSH1 0x20 DUP3 ADD SWAP1 POP PUSH2 0x1858 PUSH0 DUP4 ADD DUP5 PUSH2 0x1836 JUMP JUMPDEST SWAP3 SWAP2 POP POP JUMP JUMPDEST PUSH0 PUSH1 0x40 MLOAD SWAP1 POP SWAP1 JUMP JUMPDEST PUSH0 DUP1 REVERT JUMPDEST PUSH0 DUP1 REVERT JUMPDEST PUSH2 0x1878 DUP2 PUSH2 0x182D JUMP JUMPDEST DUP2 EQ PUSH2 0x1882 JUMPI PUSH0 DUP1 REVERT JUMPDEST POP JUMP JUMPDEST PUSH0 DUP2 CALLDATALOAD SWAP1 POP PUSH2 0x1893 DUP2 PUSH2 0x186F JUMP JUMPDEST SWAP3 SWAP2 POP POP JUMP JUMPDEST PUSH0 DUP1 PUSH1 0x40 DUP4 DUP6 SUB SLT ISZERO PUSH2 0x18AF JUMPI PUSH2 0x18AE PUSH2 0x1867 JUMP JUMPDEST JUMPDEST PUSH0 PUSH2 0x18BC DUP6 DUP3 DUP7 ADD PUSH2 0x1885 JUMP JUMPDEST SWAP3 POP POP PUSH1 0x20 PUSH2 0x18CD DUP6 DUP3 DUP7 ADD PUSH2 0x1885 JUMP JUMPDEST SWAP2 POP POP SWAP3 POP SWAP3 SWAP1 POP JUMP JUMPDEST PUSH0 PUSH1 0x20 DUP3 DUP5 SUB SLT ISZERO PUSH2 0x18EC JUMPI PUSH2 0x18EB PUSH2 0x1867 JUMP JUMPDEST JUMPDEST PUSH0 PUSH2 0x18F9 DUP5 DUP3 DUP6 ADD PUSH2 0x1885 JUMP JUMPDEST SWAP2 POP POP SWAP3 SWAP2 POP POP JUMP JUMPDEST PUSH0 DUP2 MLOAD SWAP1 POP SWAP2 SWAP1 POP JUMP JUMPDEST PUSH0 DUP3 DUP3 MSTORE PUSH1 0x20 DUP3 ADD SWAP1 POP SWAP3 SWAP2 POP POP JUMP JUMPDEST DUP3 DUP2 DUP4 MCOPY PUSH0 DUP4 DUP4 ADD MSTORE POP POP POP JUMP JUMPDEST PUSH0 PUSH1 0x1F NOT PUSH1 0x1F DUP4 ADD AND SWAP1 POP SWAP2 SWAP1 POP JUMP JUMPDEST PUSH0 PUSH2 0x1944 DUP3 PUSH2 0x1902 JUMP JUMPDEST PUSH2 0x194E DUP2 DUP6 PUSH2 0x190C JUMP JUMPDEST SWAP4 POP PUSH2 0x195E DUP2 DUP6 PUSH1 0x20 DUP7 ADD PUSH2 0x191C JUMP JUMPDEST PUSH2 0x1967 DUP2 PUSH2 0x192A JUMP JUMPDEST DUP5 ADD SWAP2 POP POP SWAP3 SWAP2 POP POP JUMP JUMPDEST PUSH0 DUP2 SWAP1 POP SWAP2 SWAP1 POP JUMP JUMPDEST PUSH2 0x1984 DUP2 PUSH2 0x1972 JUMP JUMPDEST DUP3 MSTORE POP POP JUMP JUMPDEST PUSH0 DUP2 ISZERO ISZERO SWAP1 POP SWAP2 SWAP1 POP JUMP JUMPDEST PUSH2 0x199E DUP2 PUSH2 0x198A JUMP JUMPDEST DUP3 MSTORE POP POP JUMP JUMPDEST PUSH0 PUSH20 0xFFFFFFFFFFFFFFFFFFFFFFFFFFFFFFFFFFFFFFFF DUP3 AND SWAP1 POP SWAP2 SWAP1 POP JUMP JUMPDEST PUSH0 PUSH2 0x19CD DUP3 PUSH2 0x19A4 JUMP JUMPDEST SWAP1 POP SWAP2 SWAP1 POP JUMP JUMPDEST PUSH2 0x19DD DUP2 PUSH2 0x19C3 JUMP JUMPDEST DUP3 MSTORE POP POP JUMP JUMPDEST PUSH0 PUSH2 0x100 DUP3 ADD SWAP1 POP DUP2 DUP2 SUB PUSH0 DUP4 ADD MSTORE PUSH2 0x19FC DUP2 DUP12 PUSH2 0x193A JUMP JUMPDEST SWAP1 POP DUP2 DUP2 SUB PUSH1 0x20 DUP4 ADD MSTORE PUSH2 0x1A10 DUP2 DUP11 PUSH2 0x193A JUMP JUMPDEST SWAP1 POP PUSH2 0x1A1F PUSH1 0x40 DUP4 ADD DUP10 PUSH2 0x197B JUMP JUMPDEST PUSH2 0x1A2C PUSH1 0x60 DUP4 ADD DUP9 PUSH2 0x1836 JUMP JUMPDEST PUSH2 0x1A39 PUSH1 0x80 DUP4 ADD DUP8 PUSH2 0x1995 JUMP JUMPDEST PUSH2 0x1A46 PUSH1 0xA0 DUP4 ADD DUP7 PUSH2 0x19D4 JUMP JUMPDEST PUSH2 0x1A53 PUSH1 0xC0 DUP4 ADD DUP6 PUSH2 0x1836 JUMP JUMPDEST PUSH2 0x1A60 PUSH1 0xE0 DUP4 ADD DUP5 PUSH2 0x1836 JUMP JUMPDEST SWAP10 SWAP9 POP POP POP POP POP POP POP POP POP JUMP JUMPDEST PUSH2 0x1A76 DUP2 PUSH2 0x1972 JUMP JUMPDEST DUP2 EQ PUSH2 0x1A80 JUMPI PUSH0 DUP1 REVERT JUMPDEST POP JUMP JUMPDEST PUSH0 DUP2 CALLDATALOAD SWAP1 POP PUSH2 0x1A91 DUP2 PUSH2 0x1A6D JUMP JUMPDEST SWAP3 SWAP2 POP POP JUMP JUMPDEST PUSH0 PUSH1 0x20 DUP3 DUP5 SUB SLT ISZERO PUSH2 0x1AAC JUMPI PUSH2 0x1AAB PUSH2 0x1867 JUMP JUMPDEST JUMPDEST PUSH0 PUSH2 0x1AB9 DUP5 DUP3 DUP6 ADD PUSH2 0x1A83 JUMP JUMPDEST SWAP2 POP POP SWAP3 SWAP2 POP POP JUMP JUMPDEST PUSH0 PUSH2 0x1ACC DUP3 PUSH2 0x19A4 JUMP JUMPDEST SWAP1 POP SWAP2 SWAP1 POP JUMP JUMPDEST PUSH2 0x1ADC DUP2 PUSH2 0x1AC2 JUMP JUMPDEST DUP3 MSTORE POP POP JUMP JUMPDEST PUSH0 PUSH1 0x60 DUP3 ADD SWAP1 POP PUSH2 0x1AF5 PUSH0 DUP4 ADD DUP7 PUSH2 0x1AD3 JUMP JUMPDEST DUP2 DUP2 SUB PUSH1 0x20 DUP4 ADD MSTORE PUSH2 0x1B07 DUP2 DUP6 PUSH2 0x193A JUMP JUMPDEST SWAP1 POP PUSH2 0x1B16 PUSH1 0x40 DUP4 ADD DUP5 PUSH2 0x1836 JUMP JUMPDEST SWAP5 SWAP4 POP POP POP POP JUMP JUMPDEST PUSH0 PUSH1 0x20 DUP3 ADD SWAP1 POP PUSH2 0x1B31 PUSH0 DUP4 ADD DUP5 PUSH2 0x19D4 JUMP JUMPDEST SWAP3 SWAP2 POP POP JUMP JUMPDEST PUSH0 DUP1 REVERT JUMPDEST PUSH0 DUP1 REVERT JUMPDEST PUSH32 0x4E487B7100000000000000000000000000000000000000000000000000000000 PUSH0 MSTORE PUSH1 0x41 PUSH1 0x4 MSTORE PUSH1 0x24 PUSH0 REVERT JUMPDEST PUSH2 0x1B75 DUP3 PUSH2 0x192A JUMP JUMPDEST DUP2 ADD DUP2 DUP2 LT PUSH8 0xFFFFFFFFFFFFFFFF DUP3 GT OR ISZERO PUSH2 0x1B94 JUMPI PUSH2 0x1B93 PUSH2 0x1B3F JUMP JUMPDEST JUMPDEST DUP1 PUSH1 0x40 MSTORE POP POP POP JUMP JUMPDEST PUSH0 PUSH2 0x1BA6 PUSH2 0x185E JUMP JUMPDEST SWAP1 POP PUSH2 0x1BB2 DUP3 DUP3 PUSH2 0x1B6C JUMP JUMPDEST SWAP2 SWAP1 POP JUMP JUMPDEST PUSH0 PUSH8 0xFFFFFFFFFFFFFFFF DUP3 GT ISZERO PUSH2 0x1BD1 JUMPI PUSH2 0x1BD0 PUSH2 0x1B3F JUMP JUMPDEST JUMPDEST PUSH2 0x1BDA DUP3 PUSH2 0x192A JUMP JUMPDEST SWAP1 POP PUSH1 0x20 DUP2 ADD SWAP1 POP SWAP2 SWAP1 POP JUMP JUMPDEST DUP3 DUP2 DUP4 CALLDATACOPY PUSH0 DUP4 DUP4 ADD MSTORE POP POP POP JUMP JUMPDEST PUSH0 PUSH2 0x1C07 PUSH2 0x1C02 DUP5 PUSH2 0x1BB7 JUMP JUMPDEST PUSH2 0x1B9D JUMP JUMPDEST SWAP1 POP DUP3 DUP2 MSTORE PUSH1 0x20 DUP2 ADD DUP5 DUP5 DUP5 ADD GT ISZERO PUSH2 0x1C23 JUMPI PUSH2 0x1C22 PUSH2 0x1B3B JUMP JUMPDEST JUMPDEST PUSH2 0x1C2E DUP5 DUP3 DUP6 PUSH2 0x1BE7 JUMP JUMPDEST POP SWAP4 SWAP3 POP POP POP JUMP JUMPDEST PUSH0 DUP3 PUSH1 0x1F DUP4 ADD SLT PUSH2 0x1C4A JUMPI PUSH2 0x1C49 PUSH2 0x1B37 JUMP JUMPDEST JUMPDEST DUP2 CALLDATALOAD PUSH2 0x1C5A DUP5 DUP3 PUSH1 0x20 DUP7 ADD PUSH2 0x1BF5 JUMP JUMPDEST SWAP2 POP POP SWAP3 SWAP2 POP POP JUMP JUMPDEST PUSH2 0x1C6C DUP2 PUSH2 0x198A JUMP JUMPDEST DUP2 EQ PUSH2 0x1C76 JUMPI PUSH0 DUP1 REVERT JUMPDEST POP JUMP JUMPDEST PUSH0 DUP2 CALLDATALOAD SWAP1 POP PUSH2 0x1C87 DUP2 PUSH2 0x1C63 JUMP JUMPDEST SWAP3 SWAP2 POP POP JUMP JUMPDEST PUSH0 DUP1 PUSH0 DUP1 PUSH1 0x80 DUP6 DUP8 SUB SLT ISZERO PUSH2 0x1CA5 JUMPI PUSH2 0x1CA4 PUSH2 0x1867 JUMP JUMPDEST JUMPDEST PUSH0 DUP6 ADD CALLDATALOAD PUSH8 0xFFFFFFFFFFFFFFFF DUP2 GT ISZERO PUSH2 0x1CC2 JUMPI PUSH2 0x1CC1 PUSH2 0x186B JUMP JUMPDEST JUMPDEST PUSH2 0x1CCE DUP8 DUP3 DUP9 ADD PUSH2 0x1C36 JUMP JUMPDEST SWAP5 POP POP PUSH1 0x20 DUP6 ADD CALLDATALOAD PUSH8 0xFFFFFFFFFFFFFFFF DUP2 GT ISZERO PUSH2 0x1CEF JUMPI PUSH2 0x1CEE PUSH2 0x186B JUMP JUMPDEST JUMPDEST PUSH2 0x1CFB DUP8 DUP3 DUP9 ADD PUSH2 0x1C36 JUMP JUMPDEST SWAP4 POP POP PUSH1 0x40 PUSH2 0x1D0C DUP8 DUP3 DUP9 ADD PUSH2 0x1C79 JUMP JUMPDEST SWAP3 POP POP PUSH1 0x60 PUSH2 0x1D1D DUP8 DUP3 DUP9 ADD PUSH2 0x1C79 JUMP JUMPDEST SWAP2 POP POP SWAP3 SWAP6 SWAP2 SWAP5 POP SWAP3 POP JUMP JUMPDEST PUSH0 DUP1 PUSH1 0x40 DUP4 DUP6 SUB SLT ISZERO PUSH2 0x1D3F JUMPI PUSH2 0x1D3E PUSH2 0x1867 JUMP JUMPDEST JUMPDEST PUSH0 PUSH2 0x1D4C DUP6 DUP3 DUP7 ADD PUSH2 0x1885 JUMP JUMPDEST SWAP3 POP POP PUSH1 0x20 DUP4 ADD CALLDATALOAD PUSH8 0xFFFFFFFFFFFFFFFF DUP2 GT ISZERO PUSH2 0x1D6D JUMPI PUSH2 0x1D6C PUSH2 0x186B JUMP JUMPDEST JUMPDEST PUSH2 0x1D79 DUP6 DUP3 DUP7 ADD PUSH2 0x1C36 JUMP JUMPDEST SWAP2 POP POP SWAP3 POP SWAP3 SWAP1 POP JUMP JUMPDEST PUSH0 PUSH8 0xFFFFFFFFFFFFFFFF DUP3 GT ISZERO PUSH2 0x1D9D JUMPI PUSH2 0x1D9C PUSH2 0x1B3F JUMP JUMPDEST JUMPDEST PUSH1 0x20 DUP3 MUL SWAP1 POP PUSH1 0x20 DUP2 ADD SWAP1 POP SWAP2 SWAP1 POP JUMP JUMPDEST PUSH0 DUP1 REVERT JUMPDEST PUSH2 0x1DBB DUP2 PUSH2 0x1AC2 JUMP JUMPDEST DUP2 EQ PUSH2 0x1DC5 JUMPI PUSH0 DUP1 REVERT JUMPDEST POP JUMP JUMPDEST PUSH0 DUP2 CALLDATALOAD SWAP1 POP PUSH2 0x1DD6 DUP2 PUSH2 0x1DB2 JUMP JUMPDEST SWAP3 SWAP2 POP POP JUMP JUMPDEST PUSH0 PUSH2 0x1DEE PUSH2 0x1DE9 DUP5 PUSH2 0x1D83 JUMP JUMPDEST PUSH2 0x1B9D JUMP JUMPDEST SWAP1 POP DUP1 DUP4 DUP3 MSTORE PUSH1 0x20 DUP3 ADD SWAP1 POP PUSH1 0x20 DUP5 MUL DUP4 ADD DUP6 DUP2 GT ISZERO PUSH2 0x1E11 JUMPI PUSH2 0x1E10 PUSH2 0x1DAE JUMP JUMPDEST JUMPDEST DUP4 JUMPDEST DUP2 DUP2 LT ISZERO PUSH2 0x1E3A JUMPI DUP1 PUSH2 0x1E26 DUP9 DUP3 PUSH2 0x1DC8 JUMP JUMPDEST DUP5 MSTORE PUSH1 0x20 DUP5 ADD SWAP4 POP POP PUSH1 0x20 DUP2 ADD SWAP1 POP PUSH2 0x1E13 JUMP JUMPDEST POP POP POP SWAP4 SWAP3 POP POP POP JUMP JUMPDEST PUSH0 DUP3 PUSH1 0x1F DUP4 ADD SLT PUSH2 0x1E58 JUMPI PUSH2 0x1E57 PUSH2 0x1B37 JUMP JUMPDEST JUMPDEST DUP2 CALLDATALOAD PUSH2 0x1E68 DUP5 DUP3 PUSH1 0x20 DUP7 ADD PUSH2 0x1DDC JUMP JUMPDEST SWAP2 POP POP SWAP3 SWAP2 POP POP JUMP JUMPDEST PUSH0 DUP1 PUSH0 PUSH1 0x60 DUP5 DUP7 SUB SLT ISZERO PUSH2 0x1E88 JUMPI PUSH2 0x1E87 PUSH2 0x1867 JUMP JUMPDEST JUMPDEST PUSH0 PUSH2 0x1E95 DUP7 DUP3 DUP8 ADD PUSH2 0x1885 JUMP JUMPDEST SWAP4 POP POP PUSH1 0x20 PUSH2 0x1EA6 DUP7 DUP3 DUP8 ADD PUSH2 0x1A83 JUMP JUMPDEST SWAP3 POP POP PUSH1 0x40 DUP5 ADD CALLDATALOAD PUSH8 0xFFFFFFFFFFFFFFFF DUP2 GT ISZERO PUSH2 0x1EC7 JUMPI PUSH2 0x1EC6 PUSH2 0x186B JUMP JUMPDEST JUMPDEST PUSH2 0x1ED3 DUP7 DUP3 DUP8 ADD PUSH2 0x1E44 JUMP JUMPDEST SWAP2 POP POP SWAP3 POP SWAP3 POP SWAP3 JUMP JUMPDEST PUSH0 PUSH1 0x20 DUP3 DUP5 SUB SLT ISZERO PUSH2 0x1EF2 JUMPI PUSH2 0x1EF1 PUSH2 0x1867 JUMP JUMPDEST JUMPDEST PUSH0 PUSH2 0x1EFF DUP5 DUP3 DUP6 ADD PUSH2 0x1DC8 JUMP JUMPDEST SWAP2 POP POP SWAP3 SWAP2 POP POP JUMP JUMPDEST PUSH0 PUSH1 0x80 DUP3 ADD SWAP1 POP DUP2 DUP2 SUB PUSH0 DUP4 ADD MSTORE PUSH2 0x1F20 DUP2 DUP8 PUSH2 0x193A JUMP JUMPDEST SWAP1 POP DUP2 DUP2 SUB PUSH1 0x20 DUP4 ADD MSTORE PUSH2 0x1F34 DUP2 DUP7 PUSH2 0x193A JUMP JUMPDEST SWAP1 POP PUSH2 0x1F43 PUSH1 0x40 DUP4 ADD DUP6 PUSH2 0x1995 JUMP JUMPDEST PUSH2 0x1F50 PUSH1 0x60 DUP4 ADD DUP5 PUSH2 0x1995 JUMP JUMPDEST SWAP6 SWAP5 POP POP POP POP POP JUMP JUMPDEST PUSH0 PUSH2 0x100 DUP3 ADD SWAP1 POP DUP2 DUP2 SUB PUSH0 DUP4 ADD MSTORE PUSH2 0x1F72 DUP2 DUP12 PUSH2 0x193A JUMP JUMPDEST SWAP1 POP DUP2 DUP2 SUB PUSH1 0x20 DUP4 ADD MSTORE PUSH2 0x1F86 DUP2 DUP11 PUSH2 0x193A JUMP JUMPDEST SWAP1 POP PUSH2 0x1F95 PUSH1 0x40 DUP4 ADD DUP10 PUSH2 0x197B JUMP JUMPDEST PUSH2 0x1FA2 PUSH1 0x60 DUP4 ADD DUP9 PUSH2 0x1836 JUMP JUMPDEST PUSH2 0x1FAF PUSH1 0x80 DUP4 ADD DUP8 PUSH2 0x1995 JUMP JUMPDEST PUSH2 0x1FBC PUSH1 0xA0 DUP4 ADD DUP7 PUSH2 0x1AD3 JUMP JUMPDEST PUSH2 0x1FC9 PUSH1 0xC0 DUP4 ADD DUP6 PUSH2 0x1836 JUMP JUMPDEST PUSH2 0x1FD6 PUSH1 0xE0 DUP4 ADD DUP5 PUSH2 0x1836 JUMP JUMPDEST SWAP10 SWAP9 POP POP POP POP POP POP POP POP POP JUMP JUMPDEST PUSH0 PUSH1 0x20 DUP3 ADD SWAP1 POP PUSH2 0x1FF6 PUSH0 DUP4 ADD DUP5 PUSH2 0x197B JUMP JUMPDEST SWAP3 SWAP2 POP POP JUMP JUMPDEST PUSH0 PUSH1 0x40 DUP3 ADD SWAP1 POP PUSH2 0x200F PUSH0 DUP4 ADD DUP6 PUSH2 0x1836 JUMP JUMPDEST PUSH2 0x201C PUSH1 0x20 DUP4 ADD DUP5 PUSH2 0x1836 JUMP JUMPDEST SWAP4 SWAP3 POP POP POP JUMP JUMPDEST PUSH0 PUSH8 0xFFFFFFFFFFFFFFFF DUP3 GT ISZERO PUSH2 0x203D JUMPI PUSH2 0x203C PUSH2 0x1B3F JUMP JUMPDEST JUMPDEST PUSH2 0x2046 DUP3 PUSH2 0x192A JUMP JUMPDEST SWAP1 POP PUSH1 0x20 DUP2 ADD SWAP1 POP SWAP2 SWAP1 POP JUMP JUMPDEST PUSH0 PUSH2 0x2065 PUSH2 0x2060 DUP5 PUSH2 0x2023 JUMP JUMPDEST PUSH2 0x1B9D JUMP JUMPDEST SWAP1 POP DUP3 DUP2 MSTORE PUSH1 0x20 DUP2 ADD DUP5 DUP5 DUP5 ADD GT ISZERO PUSH2 0x2081 JUMPI PUSH2 0x2080 PUSH2 0x1B3B JUMP JUMPDEST JUMPDEST PUSH2 0x208C DUP5 DUP3 DUP6 PUSH2 0x1BE7 JUMP JUMPDEST POP SWAP4 SWAP3 POP POP POP JUMP JUMPDEST PUSH0 DUP3 PUSH1 0x1F DUP4 ADD SLT PUSH2 0x20A8 JUMPI PUSH2 0x20A7 PUSH2 0x1B37 JUMP JUMPDEST JUMPDEST DUP2 CALLDATALOAD PUSH2 0x20B8 DUP5 DUP3 PUSH1 0x20 DUP7 ADD PUSH2 0x2053 JUMP JUMPDEST SWAP2 POP POP SWAP3 SWAP2 POP POP JUMP JUMPDEST PUSH0 DUP1 PUSH0 DUP1 PUSH0 PUSH1 0xA0 DUP7 DUP9 SUB SLT ISZERO PUSH2 0x20DA JUMPI PUSH2 0x20D9 PUSH2 0x1867 JUMP JUMPDEST JUMPDEST PUSH0 DUP7 ADD CALLDATALOAD PUSH8 0xFFFFFFFFFFFFFFFF DUP2 GT ISZERO PUSH2 0x20F7 JUMPI PUSH2 0x20F6 PUSH2 0x186B JUMP JUMPDEST JUMPDEST PUSH2 0x2103 DUP9 DUP3 DUP10 ADD PUSH2 0x1C36 JUMP JUMPDEST SWAP6 POP POP PUSH1 0x20 DUP7 ADD CALLDATALOAD PUSH8 0xFFFFFFFFFFFFFFFF DUP2 GT ISZERO PUSH2 0x2124 JUMPI PUSH2 0x2123 PUSH2 0x186B JUMP JUMPDEST JUMPDEST PUSH2 0x2130 DUP9 DUP3 DUP10 ADD PUSH2 0x1C36 JUMP JUMPDEST SWAP5 POP POP PUSH1 0x40 DUP7 ADD CALLDATALOAD PUSH8 0xFFFFFFFFFFFFFFFF DUP2 GT ISZERO PUSH2 0x2151 JUMPI PUSH2 0x2150 PUSH2 0x186B JUMP JUMPDEST JUMPDEST PUSH2 0x215D DUP9 DUP3 DUP10 ADD PUSH2 0x2094 JUMP JUMPDEST SWAP4 POP POP PUSH1 0x60 PUSH2 0x216E DUP9 DUP3 DUP10 ADD PUSH2 0x1885 JUMP JUMPDEST SWAP3 POP POP PUSH1 0x80 PUSH2 0x217F DUP9 DUP3 DUP10 ADD PUSH2 0x1C79 JUMP JUMPDEST SWAP2 POP POP SWAP3 SWAP6 POP SWAP3 SWAP6 SWAP1 SWAP4 POP JUMP JUMPDEST PUSH32 0x4F6E6C7920726567697374657265642064617461206275796572732063616E20 PUSH0 DUP3 ADD MSTORE PUSH32 0x726174652073656C6C6572730000000000000000000000000000000000000000 PUSH1 0x20 DUP3 ADD MSTORE POP JUMP JUMPDEST PUSH0 PUSH2 0x21E6 PUSH1 0x2C DUP4 PUSH2 0x190C JUMP JUMPDEST SWAP2 POP PUSH2 0x21F1 DUP3 PUSH2 0x218C JUMP JUMPDEST PUSH1 0x40 DUP3 ADD SWAP1 POP SWAP2 SWAP1 POP JUMP JUMPDEST PUSH0 PUSH1 0x20 DUP3 ADD SWAP1 POP DUP2 DUP2 SUB PUSH0 DUP4 ADD MSTORE PUSH2 0x2213 DUP2 PUSH2 0x21DA JUMP JUMPDEST SWAP1 POP SWAP2 SWAP1 POP JUMP JUMPDEST PUSH32 0x53656C6C6572732063616E6E6F742072617465207468656D73656C7665730000 PUSH0 DUP3 ADD MSTORE POP JUMP JUMPDEST PUSH0 PUSH2 0x224E PUSH1 0x1E DUP4 PUSH2 0x190C JUMP JUMPDEST SWAP2 POP PUSH2 0x2259 DUP3 PUSH2 0x221A JUMP JUMPDEST PUSH1 0x20 DUP3 ADD SWAP1 POP SWAP2 SWAP1 POP JUMP JUMPDEST PUSH0 PUSH1 0x20 DUP3 ADD SWAP1 POP DUP2 DUP2 SUB PUSH0 DUP4 ADD MSTORE PUSH2 0x227B DUP2 PUSH2 0x2242 JUMP JUMPDEST SWAP1 POP SWAP2 SWAP1 POP JUMP JUMPDEST PUSH32 0x4E487B7100000000000000000000000000000000000000000000000000000000 PUSH0 MSTORE PUSH1 0x11 PUSH1 0x4 MSTORE PUSH1 0x24 PUSH0 REVERT JUMPDEST PUSH0 PUSH2 0x22B9 DUP3 PUSH2 0x182D JUMP JUMPDEST SWAP2 POP PUSH32 0xFFFFFFFFFFFFFFFFFFFFFFFFFFFFFFFFFFFFFFFFFFFFFFFFFFFFFFFFFFFFFFFF DUP3 SUB PUSH2 0x22EB JUMPI PUSH2 0x22EA PUSH2 0x2282 JUMP JUMPDEST JUMPDEST PUSH1 0x1 DUP3 ADD SWAP1 POP SWAP2 SWAP1 POP JUMP JUMPDEST PUSH0 PUSH2 0x2300 DUP3 PUSH2 0x182D JUMP JUMPDEST SWAP2 POP PUSH2 0x230B DUP4 PUSH2 0x182D JUMP JUMPDEST SWAP3 POP DUP3 DUP3 ADD SWAP1 POP DUP1 DUP3 GT ISZERO PUSH2 0x2323 JUMPI PUSH2 0x2322 PUSH2 0x2282 JUMP JUMPDEST JUMPDEST SWAP3 SWAP2 POP POP JUMP JUMPDEST PUSH32 0x4E487B7100000000000000000000000000000000000000000000000000000000 PUSH0 MSTORE PUSH1 0x22 PUSH1 0x4 MSTORE PUSH1 0x24 PUSH0 REVERT JUMPDEST PUSH0 PUSH1 0x2 DUP3 DIV SWAP1 POP PUSH1 0x1 DUP3 AND DUP1 PUSH2 0x236D JUMPI PUSH1 0x7F DUP3 AND SWAP2 POP JUMPDEST PUSH1 0x20 DUP3 LT DUP2 SUB PUSH2 0x2380 JUMPI PUSH2 0x237F PUSH2 0x2329 JUMP JUMPDEST JUMPDEST POP SWAP2 SWAP1 POP JUMP JUMPDEST PUSH32 0x5573657220616C72656164792072656769737465726564000000000000000000 PUSH0 DUP3 ADD MSTORE POP JUMP JUMPDEST PUSH0 PUSH2 0x23BA PUSH1 0x17 DUP4 PUSH2 0x190C JUMP JUMPDEST SWAP2 POP PUSH2 0x23C5 DUP3 PUSH2 0x2386 JUMP JUMPDEST PUSH1 0x20 DUP3 ADD SWAP1 POP SWAP2 SWAP1 POP JUMP JUMPDEST PUSH0 PUSH1 0x20 DUP3 ADD SWAP1 POP DUP2 DUP2 SUB PUSH0 DUP4 ADD MSTORE PUSH2 0x23E7 DUP2 PUSH2 0x23AE JUMP JUMPDEST SWAP1 POP SWAP2 SWAP1 POP JUMP JUMPDEST PUSH0 DUP2 SWAP1 POP DUP2 PUSH0 MSTORE PUSH1 0x20 PUSH0 KECCAK256 SWAP1 POP SWAP2 SWAP1 POP JUMP JUMPDEST PUSH0 PUSH1 0x20 PUSH1 0x1F DUP4 ADD DIV SWAP1 POP SWAP2 SWAP1 POP JUMP JUMPDEST PUSH0 DUP3 DUP3 SHL SWAP1 POP SWAP3 SWAP2 POP POP JUMP JUMPDEST PUSH0 PUSH1 0x8 DUP4 MUL PUSH2 0x244A PUSH32 0xFFFFFFFFFFFFFFFFFFFFFFFFFFFFFFFFFFFFFFFFFFFFFFFFFFFFFFFFFFFFFFFF DUP3 PUSH2 0x240F JUMP JUMPDEST PUSH2 0x2454 DUP7 DUP4 PUSH2 0x240F JUMP JUMPDEST SWAP6 POP DUP1 NOT DUP5 AND SWAP4 POP DUP1 DUP7 AND DUP5 OR SWAP3 POP POP POP SWAP4 SWAP3 POP POP POP JUMP JUMPDEST PUSH0 DUP2 SWAP1 POP SWAP2 SWAP1 POP JUMP JUMPDEST PUSH0 PUSH2 0x248F PUSH2 0x248A PUSH2 0x2485 DUP5 PUSH2 0x182D JUMP JUMPDEST PUSH2 0x246C JUMP JUMPDEST PUSH2 0x182D JUMP JUMPDEST SWAP1 POP SWAP2 SWAP1 POP JUMP JUMPDEST PUSH0 DUP2 SWAP1 POP SWAP2 SWAP1 POP JUMP JUMPDEST PUSH2 0x24A8 DUP4 PUSH2 0x2475 JUMP JUMPDEST PUSH2 0x24BC PUSH2 0x24B4 DUP3 PUSH2 0x2496 JUMP JUMPDEST DUP5 DUP5 SLOAD PUSH2 0x241B JUMP JUMPDEST DUP3 SSTORE POP POP POP POP JUMP JUMPDEST PUSH0 SWAP1 JUMP JUMPDEST PUSH2 0x24D0 PUSH2 0x24C4 JUMP JUMPDEST PUSH2 0x24DB DUP2 DUP5 DUP5 PUSH2 0x249F JUMP JUMPDEST POP POP POP JUMP JUMPDEST JUMPDEST DUP2 DUP2 LT ISZERO PUSH2 0x24FE JUMPI PUSH2 0x24F3 PUSH0 DUP3 PUSH2 0x24C8 JUMP JUMPDEST PUSH1 0x1 DUP2 ADD SWAP1 POP PUSH2 0x24E1 JUMP JUMPDEST POP POP JUMP JUMPDEST PUSH1 0x1F DUP3 GT ISZERO PUSH2 0x2543 JUMPI PUSH2 0x2514 DUP2 PUSH2 0x23EE JUMP JUMPDEST PUSH2 0x251D DUP5 PUSH2 0x2400 JUMP JUMPDEST DUP2 ADD PUSH1 0x20 DUP6 LT ISZERO PUSH2 0x252C JUMPI DUP2 SWAP1 POP JUMPDEST PUSH2 0x2540 PUSH2 0x2538 DUP6 PUSH2 0x2400 JUMP JUMPDEST DUP4 ADD DUP3 PUSH2 0x24E0 JUMP JUMPDEST POP POP JUMPDEST POP POP POP JUMP JUMPDEST PUSH0 DUP3 DUP3 SHR SWAP1 POP SWAP3 SWAP2 POP POP JUMP JUMPDEST PUSH0 PUSH2 0x2563 PUSH0 NOT DUP5 PUSH1 0x8 MUL PUSH2 0x2548 JUMP JUMPDEST NOT DUP1 DUP4 AND SWAP2 POP POP SWAP3 SWAP2 POP POP JUMP JUMPDEST PUSH0 PUSH2 0x257B DUP4 DUP4 PUSH2 0x2554 JUMP JUMPDEST SWAP2 POP DUP3 PUSH1 0x2 MUL DUP3 OR SWAP1 POP SWAP3 SWAP2 POP POP JUMP JUMPDEST PUSH2 0x2594 DUP3 PUSH2 0x1902 JUMP JUMPDEST PUSH8 0xFFFFFFFFFFFFFFFF DUP2 GT ISZERO PUSH2 0x25AD JUMPI PUSH2 0x25AC PUSH2 0x1B3F JUMP JUMPDEST JUMPDEST PUSH2 0x25B7 DUP3 SLOAD PUSH2 0x2356 JUMP JUMPDEST PUSH2 0x25C2 DUP3 DUP3 DUP6 PUSH2 0x2502 JUMP JUMPDEST PUSH0 PUSH1 0x20 SWAP1 POP PUSH1 0x1F DUP4 GT PUSH1 0x1 DUP2 EQ PUSH2 0x25F3 JUMPI PUSH0 DUP5 ISZERO PUSH2 0x25E1 JUMPI DUP3 DUP8 ADD MLOAD SWAP1 POP JUMPDEST PUSH2 0x25EB DUP6 DUP3 PUSH2 0x2570 JUMP JUMPDEST DUP7 SSTORE POP PUSH2 0x2652 JUMP JUMPDEST PUSH1 0x1F NOT DUP5 AND PUSH2 0x2601 DUP7 PUSH2 0x23EE JUMP JUMPDEST PUSH0 JUMPDEST DUP3 DUP2 LT ISZERO PUSH2 0x2628 JUMPI DUP5 DUP10 ADD MLOAD DUP3 SSTORE PUSH1 0x1 DUP3 ADD SWAP2 POP PUSH1 0x20 DUP6 ADD SWAP5 POP PUSH1 0x20 DUP2 ADD SWAP1 POP PUSH2 0x2603 JUMP JUMPDEST DUP7 DUP4 LT ISZERO PUSH2 0x2645 JUMPI DUP5 DUP10 ADD MLOAD PUSH2 0x2641 PUSH1 0x1F DUP10 AND DUP3 PUSH2 0x2554 JUMP JUMPDEST DUP4 SSTORE POP JUMPDEST PUSH1 0x1 PUSH1 0x2 DUP9 MUL ADD DUP9 SSTORE POP POP POP JUMPDEST POP POP POP POP POP POP JUMP JUMPDEST PUSH32 0x4F6E6C7920726567697374657265642064617461206275796572732063616E20 PUSH0 DUP3 ADD MSTORE PUSH32 0x7265706F72742064617461207365747300000000000000000000000000000000 PUSH1 0x20 DUP3 ADD MSTORE POP JUMP JUMPDEST PUSH0 PUSH2 0x26B4 PUSH1 0x30 DUP4 PUSH2 0x190C JUMP JUMPDEST SWAP2 POP PUSH2 0x26BF DUP3 PUSH2 0x265A JUMP JUMPDEST PUSH1 0x40 DUP3 ADD SWAP1 POP SWAP2 SWAP1 POP JUMP JUMPDEST PUSH0 PUSH1 0x20 DUP3 ADD SWAP1 POP DUP2 DUP2 SUB PUSH0 DUP4 ADD MSTORE PUSH2 0x26E1 DUP2 PUSH2 0x26A8 JUMP JUMPDEST SWAP1 POP SWAP2 SWAP1 POP JUMP JUMPDEST PUSH32 0x4F6E6C79207265676973746572656420646174612073656C6C6572732063616E PUSH0 DUP3 ADD MSTORE PUSH32 0x2073657420656E6372797074696F6E206B657973000000000000000000000000 PUSH1 0x20 DUP3 ADD MSTORE POP JUMP JUMPDEST PUSH0 PUSH2 0x2742 PUSH1 0x34 DUP4 PUSH2 0x190C JUMP JUMPDEST SWAP2 POP PUSH2 0x274D DUP3 PUSH2 0x26E8 JUMP JUMPDEST PUSH1 0x40 DUP3 ADD SWAP1 POP SWAP2 SWAP1 POP JUMP JUMPDEST PUSH0 PUSH1 0x20 DUP3 ADD SWAP1 POP DUP2 DUP2 SUB PUSH0 DUP4 ADD MSTORE PUSH2 0x276F DUP2 PUSH2 0x2736 JUMP JUMPDEST SWAP1 POP SWAP2 SWAP1 POP JUMP JUMPDEST PUSH32 0x4F6E6C79207468652073656C6C65722063616E207365742074686520656E6372 PUSH0 DUP3 ADD MSTORE PUSH32 0x797074696F6E206B657900000000000000000000000000000000000000000000 PUSH1 0x20 DUP3 ADD MSTORE POP JUMP JUMPDEST PUSH0 PUSH2 0x27D0 PUSH1 0x2A DUP4 PUSH2 0x190C JUMP JUMPDEST SWAP2 POP PUSH2 0x27DB DUP3 PUSH2 0x2776 JUMP JUMPDEST PUSH1 0x40 DUP3 ADD SWAP1 POP SWAP2 SWAP1 POP JUMP JUMPDEST PUSH0 PUSH1 0x20 DUP3 ADD SWAP1 POP DUP2 DUP2 SUB PUSH0 DUP4 ADD MSTORE PUSH2 0x27FD DUP2 PUSH2 0x27C4 JUMP JUMPDEST SWAP1 POP SWAP2 SWAP1 POP JUMP JUMPDEST PUSH32 0x4F6E6C7920726567697374657265642064617461206275796572732063616E20 PUSH0 DUP3 ADD MSTORE PUSH32 0x7075726368617365206461746120736574730000000000000000000000000000 PUSH1 0x20 DUP3 ADD MSTORE POP JUMP JUMPDEST PUSH0 PUSH2 0x285E PUSH1 0x32 DUP4 PUSH2 0x190C JUMP JUMPDEST SWAP2 POP PUSH2 0x2869 DUP3 PUSH2 0x2804 JUMP JUMPDEST PUSH1 0x40 DUP3 ADD SWAP1 POP SWAP2 SWAP1 POP JUMP JUMPDEST PUSH0 PUSH1 0x20 DUP3 ADD SWAP1 POP DUP2 DUP2 SUB PUSH0 DUP4 ADD MSTORE PUSH2 0x288B DUP2 PUSH2 0x2852 JUMP JUMPDEST SWAP1 POP SWAP2 SWAP1 POP JUMP JUMPDEST PUSH32 0x496E76616C696420646174612073657420494400000000000000000000000000 PUSH0 DUP3 ADD MSTORE POP JUMP JUMPDEST PUSH0 PUSH2 0x28C6 PUSH1 0x13 DUP4 PUSH2 0x190C JUMP JUMPDEST SWAP2 POP PUSH2 0x28D1 DUP3 PUSH2 0x2892 JUMP JUMPDEST PUSH1 0x20 DUP3 ADD SWAP1 POP SWAP2 SWAP1 POP JUMP JUMPDEST PUSH0 PUSH1 0x20 DUP3 ADD SWAP1 POP DUP2 DUP2 SUB PUSH0 DUP4 ADD MSTORE PUSH2 0x28F3 DUP2 PUSH2 0x28BA JUMP JUMPDEST SWAP1 POP SWAP2 SWAP1 POP JUMP JUMPDEST PUSH32 0x496E636F7272656374207061796D656E7420616D6F756E740000000000000000 PUSH0 DUP3 ADD MSTORE POP JUMP JUMPDEST PUSH0 PUSH2 0x292E PUSH1 0x18 DUP4 PUSH2 0x190C JUMP JUMPDEST SWAP2 POP PUSH2 0x2939 DUP3 PUSH2 0x28FA JUMP JUMPDEST PUSH1 0x20 DUP3 ADD SWAP1 POP SWAP2 SWAP1 POP JUMP JUMPDEST PUSH0 PUSH1 0x20 DUP3 ADD SWAP1 POP DUP2 DUP2 SUB PUSH0 DUP4 ADD MSTORE PUSH2 0x295B DUP2 PUSH2 0x2922 JUMP JUMPDEST SWAP1 POP SWAP2 SWAP1 POP JUMP JUMPDEST PUSH0 PUSH2 0x296C DUP3 PUSH2 0x182D JUMP JUMPDEST SWAP2 POP PUSH2 0x2977 DUP4 PUSH2 0x182D JUMP JUMPDEST SWAP3 POP DUP3 DUP3 MUL PUSH2 0x2985 DUP2 PUSH2 0x182D JUMP JUMPDEST SWAP2 POP DUP3 DUP3 DIV DUP5 EQ DUP4 ISZERO OR PUSH2 0x299C JUMPI PUSH2 0x299B PUSH2 0x2282 JUMP JUMPDEST JUMPDEST POP SWAP3 SWAP2 POP POP JUMP JUMPDEST PUSH32 0x4E487B7100000000000000000000000000000000000000000000000000000000 PUSH0 MSTORE PUSH1 0x12 PUSH1 0x4 MSTORE PUSH1 0x24 PUSH0 REVERT JUMPDEST PUSH0 PUSH2 0x29DA DUP3 PUSH2 0x182D JUMP JUMPDEST SWAP2 POP PUSH2 0x29E5 DUP4 PUSH2 0x182D JUMP JUMPDEST SWAP3 POP DUP3 PUSH2 0x29F5 JUMPI PUSH2 0x29F4 PUSH2 0x29A3 JUMP JUMPDEST JUMPDEST DUP3 DUP3 DIV SWAP1 POP SWAP3 SWAP2 POP POP JUMP JUMPDEST PUSH0 PUSH2 0x2A0A DUP3 PUSH2 0x182D JUMP JUMPDEST SWAP2 POP PUSH2 0x2A15 DUP4 PUSH2 0x182D JUMP JUMPDEST SWAP3 POP DUP3 DUP3 SUB SWAP1 POP DUP2 DUP2 GT ISZERO PUSH2 0x2A2D JUMPI PUSH2 0x2A2C PUSH2 0x2282 JUMP JUMPDEST JUMPDEST SWAP3 SWAP2 POP POP JUMP JUMPDEST PUSH0 PUSH1 0x40 DUP3 ADD SWAP1 POP PUSH2 0x2A46 PUSH0 DUP4 ADD DUP6 PUSH2 0x1836 JUMP JUMPDEST PUSH2 0x2A53 PUSH1 0x20 DUP4 ADD DUP5 PUSH2 0x197B JUMP JUMPDEST SWAP4 SWAP3 POP POP POP JUMP JUMPDEST PUSH32 0x4F6E6C79207265676973746572656420646174612073656C6C6572732063616E PUSH0 DUP3 ADD MSTORE PUSH32 0x2075706C6F616420646174612073657473000000000000000000000000000000 PUSH1 0x20 DUP3 ADD MSTORE POP JUMP JUMPDEST PUSH0 PUSH2 0x2AB4 PUSH1 0x31 DUP4 PUSH2 0x190C JUMP JUMPDEST SWAP2 POP PUSH2 0x2ABF DUP3 PUSH2 0x2A5A JUMP JUMPDEST PUSH1 0x40 DUP3 ADD SWAP1 POP SWAP2 SWAP1 POP JUMP JUMPDEST PUSH0 PUSH1 0x20 DUP3 ADD SWAP1 POP DUP2 DUP2 SUB PUSH0 DUP4 ADD MSTORE PUSH2 0x2AE1 DUP2 PUSH2 0x2AA8 JUMP JUMPDEST SWAP1 POP SWAP2 SWAP1 POP JUMP JUMPDEST PUSH32 0x44617461207365742077697468207468652073616D65206861736820616C7265 PUSH0 DUP3 ADD MSTORE PUSH32 0x6164792065786973747300000000000000000000000000000000000000000000 PUSH1 0x20 DUP3 ADD MSTORE POP JUMP JUMPDEST PUSH0 PUSH2 0x2B42 PUSH1 0x2A DUP4 PUSH2 0x190C JUMP JUMPDEST SWAP2 POP PUSH2 0x2B4D DUP3 PUSH2 0x2AE8 JUMP JUMPDEST PUSH1 0x40 DUP3 ADD SWAP1 POP SWAP2 SWAP1 POP JUMP JUMPDEST PUSH0 PUSH1 0x20 DUP3 ADD SWAP1 POP DUP2 DUP2 SUB PUSH0 DUP4 ADD MSTORE PUSH2 0x2B6F DUP2 PUSH2 0x2B36 JUMP JUMPDEST SWAP1 POP SWAP2 SWAP1 POP JUMP JUMPDEST PUSH0 PUSH1 0x40 DUP3 ADD SWAP1 POP DUP2 DUP2 SUB PUSH0 DUP4 ADD MSTORE PUSH2 0x2B8E DUP2 DUP6 PUSH2 0x193A JUMP JUMPDEST SWAP1 POP PUSH2 0x2B9D PUSH1 0x20 DUP4 ADD DUP5 PUSH2 0x1836 JUMP JUMPDEST SWAP4 SWAP3 POP POP POP JUMP INVALID LOG2 PUSH5 0x6970667358 0x22 SLT KECCAK256 PC SWAP7 ADDRESS REVERT SDIV SHL PUSH15 0xD08074972FA44276EF4C5801AF9368 0xAB 0xC8 ISZERO 0xBD 0xA6 DUP12 CALLVALUE PUSH31 0x905B64736F6C63430008190033000000000000000000000000000000000000 "
				},
				"gasEstimates": {
					"creation": {
						"codeDepositCost": "2245200",
						"executionCost": "26660",
						"totalCost": "2271860"
					},
					"external": {
						"PLATFORM_FEE_PERCENTAGE()": "415",
						"dataHashToDataSetId(bytes32)": "2777",
						"dataSetCount()": "2492",
						"dataSetEncryptionKeys(uint256)": "2833",
						"dataSetReports(uint256,uint256)": "infinite",
						"dataSets(uint256)": "infinite",
						"getBalance()": "358",
						"getDataSet(uint256)": "infinite",
						"getSellerAverageRating(address)": "infinite",
						"platformOwner()": "2597",
						"purchaseDataSet(uint256)": "infinite",
						"rateSeller(uint256,uint256)": "infinite",
						"registerUser(string,string,bool,bool)": "infinite",
						"reportDataSet(uint256,string)": "infinite",
						"sellerReputations(address)": "infinite",
						"setEncryptionKey(uint256,bytes32,address[])": "infinite",
						"uploadDataSet(string,string,bytes,uint256,bool)": "infinite",
						"users(address)": "infinite"
					}
				},
				"methodIdentifiers": {
					"PLATFORM_FEE_PERCENTAGE()": "15548232",
					"dataHashToDataSetId(bytes32)": "16b29706",
					"dataSetCount()": "228f088a",
					"dataSetEncryptionKeys(uint256)": "c54fb04f",
					"dataSetReports(uint256,uint256)": "193af994",
					"dataSets(uint256)": "13f53f62",
					"getBalance()": "12065fe0",
					"getDataSet(uint256)": "bdaac056",
					"getSellerAverageRating(address)": "be932ebd",
					"platformOwner()": "4df8ccb1",
					"purchaseDataSet(uint256)": "a6a37136",
					"rateSeller(uint256,uint256)": "12c98303",
					"registerUser(string,string,bool,bool)": "6570a82f",
					"reportDataSet(uint256,string)": "7ab87217",
					"sellerReputations(address)": "eb6427d9",
					"setEncryptionKey(uint256,bytes32,address[])": "a38a3905",
					"uploadDataSet(string,string,bytes,uint256,bool)": "ffecc0ee",
					"users(address)": "a87430ba"
				}
			},
			"storageLayout": {
				"storage": [
					{
						"astId": 50,
						"contract": "contracts/MarketTest.sol:DataMarketplace",
						"label": "users",
						"offset": 0,
						"slot": "0",
						"type": "t_mapping(t_address,t_struct(User)10_storage)"
					},
					{
						"astId": 55,
						"contract": "contracts/MarketTest.sol:DataMarketplace",
						"label": "dataSets",
						"offset": 0,
						"slot": "1",
						"type": "t_mapping(t_uint256,t_struct(DataSet)27_storage)"
					},
					{
						"astId": 59,
						"contract": "contracts/MarketTest.sol:DataMarketplace",
						"label": "dataHashToDataSetId",
						"offset": 0,
						"slot": "2",
						"type": "t_mapping(t_bytes32,t_uint256)"
					},
					{
						"astId": 64,
						"contract": "contracts/MarketTest.sol:DataMarketplace",
						"label": "dataSetEncryptionKeys",
						"offset": 0,
						"slot": "3",
						"type": "t_mapping(t_uint256,t_struct(EncryptionKey)33_storage)"
					},
					{
						"astId": 70,
						"contract": "contracts/MarketTest.sol:DataMarketplace",
						"label": "dataSetReports",
						"offset": 0,
						"slot": "4",
						"type": "t_mapping(t_uint256,t_array(t_struct(Report)40_storage)dyn_storage)"
					},
					{
						"astId": 75,
						"contract": "contracts/MarketTest.sol:DataMarketplace",
						"label": "sellerReputations",
						"offset": 0,
						"slot": "5",
						"type": "t_mapping(t_address,t_struct(SellerReputation)45_storage)"
					},
					{
						"astId": 77,
						"contract": "contracts/MarketTest.sol:DataMarketplace",
						"label": "dataSetCount",
						"offset": 0,
						"slot": "6",
						"type": "t_uint256"
					},
					{
						"astId": 79,
						"contract": "contracts/MarketTest.sol:DataMarketplace",
						"label": "platformOwner",
						"offset": 0,
						"slot": "7",
						"type": "t_address_payable"
					}
				],
				"types": {
					"t_address": {
						"encoding": "inplace",
						"label": "address",
						"numberOfBytes": "20"
					},
					"t_address_payable": {
						"encoding": "inplace",
						"label": "address payable",
						"numberOfBytes": "20"
					},
					"t_array(t_address)dyn_storage": {
						"base": "t_address",
						"encoding": "dynamic_array",
						"label": "address[]",
						"numberOfBytes": "32"
					},
					"t_array(t_struct(Report)40_storage)dyn_storage": {
						"base": "t_struct(Report)40_storage",
						"encoding": "dynamic_array",
						"label": "struct DataMarketplace.Report[]",
						"numberOfBytes": "32"
					},
					"t_bool": {
						"encoding": "inplace",
						"label": "bool",
						"numberOfBytes": "1"
					},
					"t_bytes32": {
						"encoding": "inplace",
						"label": "bytes32",
						"numberOfBytes": "32"
					},
					"t_mapping(t_address,t_struct(SellerReputation)45_storage)": {
						"encoding": "mapping",
						"key": "t_address",
						"label": "mapping(address => struct DataMarketplace.SellerReputation)",
						"numberOfBytes": "32",
						"value": "t_struct(SellerReputation)45_storage"
					},
					"t_mapping(t_address,t_struct(User)10_storage)": {
						"encoding": "mapping",
						"key": "t_address",
						"label": "mapping(address => struct DataMarketplace.User)",
						"numberOfBytes": "32",
						"value": "t_struct(User)10_storage"
					},
					"t_mapping(t_bytes32,t_uint256)": {
						"encoding": "mapping",
						"key": "t_bytes32",
						"label": "mapping(bytes32 => uint256)",
						"numberOfBytes": "32",
						"value": "t_uint256"
					},
					"t_mapping(t_uint256,t_array(t_struct(Report)40_storage)dyn_storage)": {
						"encoding": "mapping",
						"key": "t_uint256",
						"label": "mapping(uint256 => struct DataMarketplace.Report[])",
						"numberOfBytes": "32",
						"value": "t_array(t_struct(Report)40_storage)dyn_storage"
					},
					"t_mapping(t_uint256,t_struct(DataSet)27_storage)": {
						"encoding": "mapping",
						"key": "t_uint256",
						"label": "mapping(uint256 => struct DataMarketplace.DataSet)",
						"numberOfBytes": "32",
						"value": "t_struct(DataSet)27_storage"
					},
					"t_mapping(t_uint256,t_struct(EncryptionKey)33_storage)": {
						"encoding": "mapping",
						"key": "t_uint256",
						"label": "mapping(uint256 => struct DataMarketplace.EncryptionKey)",
						"numberOfBytes": "32",
						"value": "t_struct(EncryptionKey)33_storage"
					},
					"t_string_storage": {
						"encoding": "bytes",
						"label": "string",
						"numberOfBytes": "32"
					},
					"t_struct(DataSet)27_storage": {
						"encoding": "inplace",
						"label": "struct DataMarketplace.DataSet",
						"members": [
							{
								"astId": 12,
								"contract": "contracts/MarketTest.sol:DataMarketplace",
								"label": "name",
								"offset": 0,
								"slot": "0",
								"type": "t_string_storage"
							},
							{
								"astId": 14,
								"contract": "contracts/MarketTest.sol:DataMarketplace",
								"label": "description",
								"offset": 0,
								"slot": "1",
								"type": "t_string_storage"
							},
							{
								"astId": 16,
								"contract": "contracts/MarketTest.sol:DataMarketplace",
								"label": "dataHash",
								"offset": 0,
								"slot": "2",
								"type": "t_bytes32"
							},
							{
								"astId": 18,
								"contract": "contracts/MarketTest.sol:DataMarketplace",
								"label": "price",
								"offset": 0,
								"slot": "3",
								"type": "t_uint256"
							},
							{
								"astId": 20,
								"contract": "contracts/MarketTest.sol:DataMarketplace",
								"label": "isEncrypted",
								"offset": 0,
								"slot": "4",
								"type": "t_bool"
							},
							{
								"astId": 22,
								"contract": "contracts/MarketTest.sol:DataMarketplace",
								"label": "seller",
								"offset": 1,
								"slot": "4",
								"type": "t_address_payable"
							},
							{
								"astId": 24,
								"contract": "contracts/MarketTest.sol:DataMarketplace",
								"label": "uploadTimestamp",
								"offset": 0,
								"slot": "5",
								"type": "t_uint256"
							},
							{
								"astId": 26,
								"contract": "contracts/MarketTest.sol:DataMarketplace",
								"label": "purchaseTimestamp",
								"offset": 0,
								"slot": "6",
								"type": "t_uint256"
							}
						],
						"numberOfBytes": "224"
					},
					"t_struct(EncryptionKey)33_storage": {
						"encoding": "inplace",
						"label": "struct DataMarketplace.EncryptionKey",
						"members": [
							{
								"astId": 29,
								"contract": "contracts/MarketTest.sol:DataMarketplace",
								"label": "key",
								"offset": 0,
								"slot": "0",
								"type": "t_bytes32"
							},
							{
								"astId": 32,
								"contract": "contracts/MarketTest.sol:DataMarketplace",
								"label": "authorizedBuyers",
								"offset": 0,
								"slot": "1",
								"type": "t_array(t_address)dyn_storage"
							}
						],
						"numberOfBytes": "64"
					},
					"t_struct(Report)40_storage": {
						"encoding": "inplace",
						"label": "struct DataMarketplace.Report",
						"members": [
							{
								"astId": 35,
								"contract": "contracts/MarketTest.sol:DataMarketplace",
								"label": "reporter",
								"offset": 0,
								"slot": "0",
								"type": "t_address"
							},
							{
								"astId": 37,
								"contract": "contracts/MarketTest.sol:DataMarketplace",
								"label": "description",
								"offset": 0,
								"slot": "1",
								"type": "t_string_storage"
							},
							{
								"astId": 39,
								"contract": "contracts/MarketTest.sol:DataMarketplace",
								"label": "timestamp",
								"offset": 0,
								"slot": "2",
								"type": "t_uint256"
							}
						],
						"numberOfBytes": "96"
					},
					"t_struct(SellerReputation)45_storage": {
						"encoding": "inplace",
						"label": "struct DataMarketplace.SellerReputation",
						"members": [
							{
								"astId": 42,
								"contract": "contracts/MarketTest.sol:DataMarketplace",
								"label": "totalRatings",
								"offset": 0,
								"slot": "0",
								"type": "t_uint256"
							},
							{
								"astId": 44,
								"contract": "contracts/MarketTest.sol:DataMarketplace",
								"label": "sumOfRatings",
								"offset": 0,
								"slot": "1",
								"type": "t_uint256"
							}
						],
						"numberOfBytes": "64"
					},
					"t_struct(User)10_storage": {
						"encoding": "inplace",
						"label": "struct DataMarketplace.User",
						"members": [
							{
								"astId": 3,
								"contract": "contracts/MarketTest.sol:DataMarketplace",
								"label": "name",
								"offset": 0,
								"slot": "0",
								"type": "t_string_storage"
							},
							{
								"astId": 5,
								"contract": "contracts/MarketTest.sol:DataMarketplace",
								"label": "email",
								"offset": 0,
								"slot": "1",
								"type": "t_string_storage"
							},
							{
								"astId": 7,
								"contract": "contracts/MarketTest.sol:DataMarketplace",
								"label": "isDataSeller",
								"offset": 0,
								"slot": "2",
								"type": "t_bool"
							},
							{
								"astId": 9,
								"contract": "contracts/MarketTest.sol:DataMarketplace",
								"label": "isDataBuyer",
								"offset": 1,
								"slot": "2",
								"type": "t_bool"
							}
						],
						"numberOfBytes": "96"
					},
					"t_uint256": {
						"encoding": "inplace",
						"label": "uint256",
						"numberOfBytes": "32"
					}
				}
			},
			"userdoc": {
				"kind": "user",
				"methods": {},
				"version": 1
			}
		}
	}
}